{
  "_format": "hh-sol-artifact-1",
  "contractName": "UserRegistry",
  "sourceName": "contracts/UserRegistry.sol",
  "abi": [
    {
      "inputs": [],
      "stateMutability": "nonpayable",
      "type": "constructor"
    },
    {
      "inputs": [
        {
          "internalType": "address",
          "name": "owner",
          "type": "address"
        }
      ],
      "name": "OwnableInvalidOwner",
      "type": "error"
    },
    {
      "inputs": [
        {
          "internalType": "address",
          "name": "account",
          "type": "address"
        }
      ],
      "name": "OwnableUnauthorizedAccount",
      "type": "error"
    },
    {
      "anonymous": false,
      "inputs": [
        {
          "indexed": true,
          "internalType": "address",
          "name": "previousOwner",
          "type": "address"
        },
        {
          "indexed": true,
          "internalType": "address",
          "name": "newOwner",
          "type": "address"
        }
      ],
      "name": "OwnershipTransferred",
      "type": "event"
    },
    {
      "anonymous": false,
      "inputs": [
        {
          "indexed": true,
          "internalType": "address",
          "name": "userAddress",
          "type": "address"
        },
        {
          "indexed": true,
          "internalType": "uint256",
          "name": "userId",
          "type": "uint256"
        },
        {
          "indexed": false,
          "internalType": "uint256",
          "name": "newScore",
          "type": "uint256"
        },
        {
          "indexed": false,
          "internalType": "uint256",
          "name": "totalReviews",
          "type": "uint256"
        }
      ],
      "name": "ReputationUpdated",
      "type": "event"
    },
    {
      "anonymous": false,
      "inputs": [
        {
          "indexed": true,
          "internalType": "address",
          "name": "userAddress",
          "type": "address"
        },
        {
          "indexed": true,
          "internalType": "uint256",
          "name": "userId",
          "type": "uint256"
        }
      ],
      "name": "UserDeactivated",
      "type": "event"
    },
    {
      "anonymous": false,
      "inputs": [
        {
          "indexed": true,
          "internalType": "address",
          "name": "userAddress",
          "type": "address"
        },
        {
          "indexed": true,
          "internalType": "uint256",
          "name": "userId",
          "type": "uint256"
        },
        {
          "indexed": false,
          "internalType": "string",
          "name": "fullName",
          "type": "string"
        },
        {
          "indexed": false,
          "internalType": "enum UserRegistry.UserRole",
          "name": "role",
          "type": "uint8"
        },
        {
          "indexed": false,
          "internalType": "string",
          "name": "did",
          "type": "string"
        }
      ],
      "name": "UserRegistered",
      "type": "event"
    },
    {
      "anonymous": false,
      "inputs": [
        {
          "indexed": true,
          "internalType": "address",
          "name": "userAddress",
          "type": "address"
        },
        {
          "indexed": true,
          "internalType": "uint256",
          "name": "userId",
          "type": "uint256"
        },
        {
          "indexed": false,
          "internalType": "enum UserRegistry.UserRole",
          "name": "newRole",
          "type": "uint8"
        }
      ],
      "name": "UserRoleUpdated",
      "type": "event"
    },
    {
      "inputs": [
        {
          "internalType": "address",
          "name": "",
          "type": "address"
        }
      ],
      "name": "addressToUserId",
      "outputs": [
        {
          "internalType": "uint256",
          "name": "",
          "type": "uint256"
        }
      ],
      "stateMutability": "view",
      "type": "function"
    },
    {
      "inputs": [
        {
          "internalType": "address",
          "name": "userAddress",
          "type": "address"
        }
      ],
      "name": "deactivateUser",
      "outputs": [],
      "stateMutability": "nonpayable",
      "type": "function"
    },
    {
      "inputs": [],
      "name": "getTotalUsers",
      "outputs": [
        {
          "internalType": "uint256",
          "name": "",
          "type": "uint256"
        }
      ],
      "stateMutability": "view",
      "type": "function"
    },
    {
      "inputs": [
        {
          "internalType": "address",
          "name": "userAddress",
          "type": "address"
        }
      ],
      "name": "getUser",
      "outputs": [
        {
          "components": [
            {
              "internalType": "string",
              "name": "fullName",
              "type": "string"
            },
            {
              "internalType": "uint256",
              "name": "registrationTimestamp",
              "type": "uint256"
            },
            {
              "internalType": "string",
              "name": "did",
              "type": "string"
            },
            {
              "internalType": "enum UserRegistry.UserRole",
              "name": "role",
              "type": "uint8"
            },
            {
              "internalType": "bool",
              "name": "isActive",
              "type": "bool"
            },
            {
              "internalType": "uint256",
              "name": "reputationScore",
              "type": "uint256"
            },
            {
              "internalType": "uint256",
              "name": "totalReviews",
              "type": "uint256"
            },
            {
              "internalType": "uint256",
              "name": "totalProperties",
              "type": "uint256"
            }
          ],
          "internalType": "struct UserRegistry.User",
          "name": "",
          "type": "tuple"
        }
      ],
      "stateMutability": "view",
      "type": "function"
    },
    {
      "inputs": [
        {
          "internalType": "uint256",
          "name": "userId",
          "type": "uint256"
        }
      ],
      "name": "getUserById",
      "outputs": [
        {
          "components": [
            {
              "internalType": "string",
              "name": "fullName",
              "type": "string"
            },
            {
              "internalType": "uint256",
              "name": "registrationTimestamp",
              "type": "uint256"
            },
            {
              "internalType": "string",
              "name": "did",
              "type": "string"
            },
            {
              "internalType": "enum UserRegistry.UserRole",
              "name": "role",
              "type": "uint8"
            },
            {
              "internalType": "bool",
              "name": "isActive",
              "type": "bool"
            },
            {
              "internalType": "uint256",
              "name": "reputationScore",
              "type": "uint256"
            },
            {
              "internalType": "uint256",
              "name": "totalReviews",
              "type": "uint256"
            },
            {
              "internalType": "uint256",
              "name": "totalProperties",
              "type": "uint256"
            }
          ],
          "internalType": "struct UserRegistry.User",
          "name": "",
          "type": "tuple"
        }
      ],
      "stateMutability": "view",
      "type": "function"
    },
    {
      "inputs": [
        {
          "internalType": "address",
          "name": "userAddress",
          "type": "address"
        }
      ],
      "name": "getUserId",
      "outputs": [
        {
          "internalType": "uint256",
          "name": "",
          "type": "uint256"
        }
      ],
      "stateMutability": "view",
      "type": "function"
    },
    {
      "inputs": [
        {
          "internalType": "address",
          "name": "",
          "type": "address"
        }
      ],
      "name": "isRegistered",
      "outputs": [
        {
          "internalType": "bool",
          "name": "",
          "type": "bool"
        }
      ],
      "stateMutability": "view",
      "type": "function"
    },
    {
      "inputs": [
        {
          "internalType": "address",
          "name": "userAddress",
          "type": "address"
        }
      ],
      "name": "isUserActive",
      "outputs": [
        {
          "internalType": "bool",
          "name": "",
          "type": "bool"
        }
      ],
      "stateMutability": "view",
      "type": "function"
    },
    {
      "inputs": [],
      "name": "owner",
      "outputs": [
        {
          "internalType": "address",
          "name": "",
          "type": "address"
        }
      ],
      "stateMutability": "view",
      "type": "function"
    },
    {
      "inputs": [
        {
          "internalType": "string",
          "name": "fullName",
          "type": "string"
        },
        {
          "internalType": "string",
          "name": "did",
          "type": "string"
        },
        {
          "internalType": "enum UserRegistry.UserRole",
          "name": "role",
          "type": "uint8"
        }
      ],
      "name": "registerUser",
      "outputs": [],
      "stateMutability": "nonpayable",
      "type": "function"
    },
    {
      "inputs": [],
      "name": "renounceOwnership",
      "outputs": [],
      "stateMutability": "nonpayable",
      "type": "function"
    },
    {
      "inputs": [
        {
          "internalType": "address",
          "name": "newOwner",
          "type": "address"
        }
      ],
      "name": "transferOwnership",
      "outputs": [],
      "stateMutability": "nonpayable",
      "type": "function"
    },
    {
      "inputs": [
        {
          "internalType": "address",
          "name": "userAddress",
          "type": "address"
        },
        {
          "internalType": "uint256",
          "name": "propertyCount",
          "type": "uint256"
        }
      ],
      "name": "updatePropertyCount",
      "outputs": [],
      "stateMutability": "nonpayable",
      "type": "function"
    },
    {
      "inputs": [
        {
          "internalType": "address",
          "name": "userAddress",
          "type": "address"
        },
        {
          "internalType": "int256",
          "name": "scoreChange",
          "type": "int256"
        },
        {
          "internalType": "uint256",
          "name": "reviewCount",
          "type": "uint256"
        }
      ],
      "name": "updateReputation",
      "outputs": [],
      "stateMutability": "nonpayable",
      "type": "function"
    },
    {
      "inputs": [
        {
          "internalType": "address",
          "name": "userAddress",
          "type": "address"
        },
        {
          "internalType": "enum UserRegistry.UserRole",
          "name": "newRole",
          "type": "uint8"
        }
      ],
      "name": "updateUserRole",
      "outputs": [],
      "stateMutability": "nonpayable",
      "type": "function"
    },
    {
      "inputs": [
        {
          "internalType": "uint256",
          "name": "",
          "type": "uint256"
        }
      ],
      "name": "users",
      "outputs": [
        {
          "internalType": "string",
          "name": "fullName",
          "type": "string"
        },
        {
          "internalType": "uint256",
          "name": "registrationTimestamp",
          "type": "uint256"
        },
        {
          "internalType": "string",
          "name": "did",
          "type": "string"
        },
        {
          "internalType": "enum UserRegistry.UserRole",
          "name": "role",
          "type": "uint8"
        },
        {
          "internalType": "bool",
          "name": "isActive",
          "type": "bool"
        },
        {
          "internalType": "uint256",
          "name": "reputationScore",
          "type": "uint256"
        },
        {
          "internalType": "uint256",
          "name": "totalReviews",
          "type": "uint256"
        },
        {
          "internalType": "uint256",
          "name": "totalProperties",
          "type": "uint256"
        }
      ],
      "stateMutability": "view",
      "type": "function"
    }
  ],
  "bytecode": "0x608080604052346075573315605f5760008054336001600160a01b0319821681178355916001600160a01b03909116907f8be0079c531659141344cd1fd0a4f28419497f9722a3daafe3b4186f6b6457e09080a3611197908161007b8239f35b631e4fbdf760e01b600052600060045260246000fd5b600080fdfe6080604052600436101561001257600080fd5b60003560e01c80630110170614610bf25780631a47767b14610b4f5780632b956ff714610afb5780632e17a931146105fa578063365b98b2146105465780636ed6da9e146104b95780636f77926b146103d4578063715018a61461037b5780638da5cb5b146103525780639be572f6146103345780639ee20b1514610307578063b5ffbbcc146102cd578063c291fe6214610212578063c3c5a547146101d3578063c8a03c641461015a5763f2fde38b146100cc57600080fd5b34610155576020366003190112610155576100e5610d89565b6100ed611138565b6001600160a01b0316801561013f57600080546001600160a01b03198116831782556001600160a01b0316907f8be0079c531659141344cd1fd0a4f28419497f9722a3daafe3b4186f6b6457e09080a3005b631e4fbdf760e01b600052600060045260246000fd5b600080fd5b3461015557604036600319011261015557610173610d89565b61018860018060a01b03600054163314610fdd565b6001600160a01b03166000818152600460205260409020546101ac9060ff16611034565b60005260026020526040600020546000526003602052602435600660406000200155600080f35b34610155576020366003190112610155576001600160a01b036101f4610d89565b166000526004602052602060ff604060002054166040519015158152f35b346101555760403660031901126101555761022b610d89565b6024359060048210156101555761024d60018060a01b03600054163314610fdd565b6001600160a01b03166000818152600460205260409020546102719060ff16611034565b8060005260026020527f6eeda950857c6b6e8c78299994ea69723e230f29da742a8360c9ff245e30ee0560206040600020549384600052600382526102bd816003604060002001611093565b6102ca6040518092610f54565ba3005b34610155576020366003190112610155576001600160a01b036102ee610d89565b1660005260026020526020604060002054604051908152f35b3461015557602036600319011261015557602061032a610325610d89565b6110ea565b6040519015158152f35b34610155576000366003190112610155576020600154604051908152f35b34610155576000366003190112610155576000546040516001600160a01b039091168152602090f35b3461015557600036600319011261015557610394611138565b600080546001600160a01b0319811682556001600160a01b03167f8be0079c531659141344cd1fd0a4f28419497f9722a3daafe3b4186f6b6457e08280a3005b34610155576020366003190112610155576103ed610d89565b6103f56110ab565b506001600160a01b031660008181526004602052604090205461041a9060ff16611034565b600052600260205260406000205460005260036020526104b5604060002060066040519161044783610d9f565b61045081610e6f565b83526001810154602084015261046860028201610e6f565b604084015260ff600382015461048382821660608701611087565b60081c1615156080840152600481015460a0840152600581015460c0840152015460e082015260405191829182610f61565b0390f35b34610155576020366003190112610155576004356104d56110ab565b508015158061053a575b156105035760005260036020526104b5604060002060066040519161044783610d9f565b60405162461bcd60e51b815260206004820152600f60248201526e125b9d985b1a59081d5cd95c881251608a1b6044820152606490fd5b506001548111156104df565b346101555760203660031901126101555760043560005260036020526105b9604060002061057381610e6f565b9060018101549061058660028201610e6f565b9060038101549260ff6105cc6004840154926006600586015495015495604051998a996101008b526101008b0190610f13565b9160208a015288820360408a0152610f13565b946105dc60608801838316610f54565b60081c161515608086015260a085015260c084015260e08301520390f35b346101555760603660031901126101555760043567ffffffffffffffff81116101555761062b903690600401610dde565b60243567ffffffffffffffff81116101555761064b903690600401610dde565b60443560048110156101555733600052600460205260ff60406000205416610ab657825115610a7157815115610a36576001546000198114610a205760010192836001556040519061069c82610d9f565b8082526020820192428452604083019085825260608401936106be8286611087565b60808101926001845260a08201966000885260c08301916000835260e0840191600083528b60005260036020526040600020945180519067ffffffffffffffff82116109475781906107108854610e35565b601f81116109cd575b50602090601f83116001146109685760009261095d575b50508160011b916000199060031b1c19161785555b516001850155518051600285019167ffffffffffffffff821161094757819061076e8454610e35565b601f81116108f4575b50602090601f831160011461088f57600092610884575b50508160011b916000199060031b1c19161790555b60038301965191600483101561086e577fdf2765be9e80fb529286952ffcfa23fdb582aa555e51a21db4f0045c7f431e5c9888610869976107e960069661084f9c611093565b51151561ff0082549160081b169061ff00191617905551600485015551600584015551910155336000526002602052866040600020553360005260046020526040600020600160ff1982541617905561085a604051948594606086526060860190610f13565b916020850190610f54565b82810360408401523395610f13565b0390a3005b634e487b7160e01b600052602160045260246000fd5b015190508d8061078e565b60008581528281209350601f198516905b8181106108dc57509084600195949392106108c3575b505050811b0190556107a3565b015160001960f88460031b161c191690558d80806108b6565b929360206001819287860151815501950193016108a0565b909150836000526020600020601f840160051c8101916020851061093d575b90601f859493920160051c01905b81811061092e5750610777565b60008155849350600101610921565b9091508190610913565b634e487b7160e01b600052604160045260246000fd5b015190508e80610730565b60008981528281209350601f198516905b8181106109b5575090846001959493921061099c575b505050811b018555610745565b015160001960f88460031b161c191690558e808061098f565b92936020600181928786015181550195019301610979565b909150876000526020600020601f840160051c81019160208510610a16575b90601f859493920160051c01905b818110610a075750610719565b600081558493506001016109fa565b90915081906109ec565b634e487b7160e01b600052601160045260246000fd5b60405162461bcd60e51b81526020600482015260136024820152724449442063616e6e6f7420626520656d70747960681b6044820152606490fd5b60405162461bcd60e51b815260206004820152601960248201527f46756c6c206e616d652063616e6e6f7420626520656d707479000000000000006044820152606490fd5b60405162461bcd60e51b815260206004820152601760248201527f5573657220616c726561647920726567697374657265640000000000000000006044820152606490fd5b34610155576020366003190112610155576001600160a01b03610b1c610d89565b16806000526004602052610b3760ff60406000205416611034565b60005260026020526020604060002054604051908152f35b3461015557602036600319011261015557610b68610d89565b610b7d60018060a01b03600054163314610fdd565b6001600160a01b0316600081815260046020526040902054610ba19060ff16611034565b80600052600260205260406000205490816000526003602052600360406000200161ff001981541690557f0a3c4dd3ee5277d6eada470cf9b47a480953120ecafcbbdc14bde6f8a6248930600080a3005b3461015557606036600319011261015557610c0b610d89565b60243560443591610c2760018060a01b03600054163314610fdd565b60018060a01b031690816000526004602052610c4a60ff60406000205416611034565b8160005260026020526040600020549260008213600014610cdb578360005260036020526004604060002001908154928301809311610a20577fc2fd17ad7e9f23b8607f0bd02d7a6cdcccd5a964fa99ce5a066ed34c5b4bb55b92604092555b84600052600360205280600583600020015584600052600360205260048260002001549082519182526020820152a3005b90836000526003602052600460406000200154610cf782611076565b1015610d5d57836000526003602052610d1860046040600020015491611076565b8103908111610a20577fc2fd17ad7e9f23b8607f0bd02d7a6cdcccd5a964fa99ce5a066ed34c5b4bb55b916040915b8560005260036020526004836000200155610caa565b5060407fc2fd17ad7e9f23b8607f0bd02d7a6cdcccd5a964fa99ce5a066ed34c5b4bb55b916000610d47565b600435906001600160a01b038216820361015557565b610100810190811067ffffffffffffffff82111761094757604052565b90601f8019910116810190811067ffffffffffffffff82111761094757604052565b81601f820112156101555780359067ffffffffffffffff82116109475760405192610e13601f8401601f191660200185610dbc565b8284526020838301011161015557816000926020809301838601378301015290565b90600182811c92168015610e65575b6020831014610e4f57565b634e487b7160e01b600052602260045260246000fd5b91607f1691610e44565b9060405191826000825492610e8384610e35565b8084529360018116908115610ef15750600114610eaa575b50610ea892500383610dbc565b565b90506000929192526020600020906000915b818310610ed5575050906020610ea89282010138610e9b565b6020919350806001915483858901015201910190918492610ebc565b905060209250610ea894915060ff191682840152151560051b82010138610e9b565b919082519283825260005b848110610f3f575050826000602080949584010152601f8019910116010190565b80602080928401015182828601015201610f1e565b90600482101561086e5752565b6020815261010060e0610fa3610f838551846020870152610120860190610f13565b602086015160408601526040860151601f19868303016060870152610f13565b93610fb660608201516080860190610f54565b6080810151151560a085015260a081015160c085015260c081015182850152015191015290565b15610fe457565b60405162461bcd60e51b815260206004820152602260248201527f4f6e6c792061646d696e2063616e20706572666f726d2074686973206163746960448201526137b760f11b6064820152608490fd5b1561103b57565b60405162461bcd60e51b8152602060048201526013602482015272155cd95c881b9bdd081c9959da5cdd195c9959606a1b6044820152606490fd5b600160ff1b8114610a205760000390565b600482101561086e5752565b90600481101561086e5760ff80198354169116179055565b604051906110b882610d9f565b600060e08360608152826020820152606060408201528260608201528260808201528260a08201528260c08201520152565b6001600160a01b031660008181526004602052604090205460ff1615611132576000526002602052604060002054600052600360205260ff60036040600020015460081c1690565b50600090565b6000546001600160a01b0316330361114c57565b63118cdaa760e01b6000523360045260246000fdfea2646970667358221220dbfc344a12f7b9e85c1b2cd32c75e8bf0796f0acec8ab3b1e73019b018b6bd6264736f6c634300081c0033",
  "linkReferences": {},
  "deployedLinkReferences": {}
}