{
  "_format": "hh-sol-artifact-1",
  "contractName": "PropertyEscrow",
  "sourceName": "contracts/PropertyEscrow.sol",
  "abi": [
    {
      "inputs": [
        {
          "internalType": "address",
          "name": "_userRegistry",
          "type": "address"
        },
        {
          "internalType": "address",
          "name": "_propertyFactory",
          "type": "address"
        },
        {
          "internalType": "address payable",
          "name": "_adminContract",
          "type": "address"
        }
      ],
      "stateMutability": "nonpayable",
      "type": "constructor"
    },
    {
      "inputs": [
        {
          "internalType": "address",
          "name": "owner",
          "type": "address"
        }
      ],
      "name": "OwnableInvalidOwner",
      "type": "error"
    },
    {
      "inputs": [
        {
          "internalType": "address",
          "name": "account",
          "type": "address"
        }
      ],
      "name": "OwnableUnauthorizedAccount",
      "type": "error"
    },
    {
      "inputs": [],
      "name": "ReentrancyGuardReentrantCall",
      "type": "error"
    },
    {
      "anonymous": false,
      "inputs": [
        {
          "indexed": false,
          "internalType": "string",
          "name": "config",
          "type": "string"
        },
        {
          "indexed": false,
          "internalType": "uint256",
          "name": "oldValue",
          "type": "uint256"
        },
        {
          "indexed": false,
          "internalType": "uint256",
          "name": "newValue",
          "type": "uint256"
        }
      ],
      "name": "ConfigUpdated",
      "type": "event"
    },
    {
      "anonymous": false,
      "inputs": [
        {
          "indexed": true,
          "internalType": "uint256",
          "name": "escrowId",
          "type": "uint256"
        },
        {
          "indexed": true,
          "internalType": "address",
          "name": "disputer",
          "type": "address"
        },
        {
          "indexed": false,
          "internalType": "string",
          "name": "reason",
          "type": "string"
        }
      ],
      "name": "DisputeRaised",
      "type": "event"
    },
    {
      "anonymous": false,
      "inputs": [
        {
          "indexed": true,
          "internalType": "uint256",
          "name": "escrowId",
          "type": "uint256"
        },
        {
          "indexed": true,
          "internalType": "address",
          "name": "resolver",
          "type": "address"
        },
        {
          "indexed": false,
          "internalType": "bool",
          "name": "buyerWins",
          "type": "bool"
        }
      ],
      "name": "DisputeResolved",
      "type": "event"
    },
    {
      "anonymous": false,
      "inputs": [
        {
          "indexed": true,
          "internalType": "uint256",
          "name": "escrowId",
          "type": "uint256"
        },
        {
          "indexed": true,
          "internalType": "address",
          "name": "canceller",
          "type": "address"
        },
        {
          "indexed": false,
          "internalType": "string",
          "name": "reason",
          "type": "string"
        }
      ],
      "name": "EscrowCancelled",
      "type": "event"
    },
    {
      "anonymous": false,
      "inputs": [
        {
          "indexed": true,
          "internalType": "uint256",
          "name": "escrowId",
          "type": "uint256"
        },
        {
          "indexed": true,
          "internalType": "address",
          "name": "buyer",
          "type": "address"
        },
        {
          "indexed": true,
          "internalType": "address",
          "name": "seller",
          "type": "address"
        },
        {
          "indexed": false,
          "internalType": "uint256",
          "name": "amount",
          "type": "uint256"
        }
      ],
      "name": "EscrowCompleted",
      "type": "event"
    },
    {
      "anonymous": false,
      "inputs": [
        {
          "indexed": true,
          "internalType": "uint256",
          "name": "escrowId",
          "type": "uint256"
        },
        {
          "indexed": true,
          "internalType": "uint256",
          "name": "propertyId",
          "type": "uint256"
        },
        {
          "indexed": true,
          "internalType": "address",
          "name": "buyer",
          "type": "address"
        },
        {
          "indexed": false,
          "internalType": "address",
          "name": "seller",
          "type": "address"
        },
        {
          "indexed": false,
          "internalType": "uint256",
          "name": "amount",
          "type": "uint256"
        }
      ],
      "name": "EscrowCreated",
      "type": "event"
    },
    {
      "anonymous": false,
      "inputs": [
        {
          "indexed": true,
          "internalType": "uint256",
          "name": "escrowId",
          "type": "uint256"
        },
        {
          "indexed": true,
          "internalType": "address",
          "name": "buyer",
          "type": "address"
        },
        {
          "indexed": false,
          "internalType": "uint256",
          "name": "amount",
          "type": "uint256"
        }
      ],
      "name": "EscrowFunded",
      "type": "event"
    },
    {
      "anonymous": false,
      "inputs": [
        {
          "indexed": true,
          "internalType": "uint256",
          "name": "escrowId",
          "type": "uint256"
        },
        {
          "indexed": true,
          "internalType": "address",
          "name": "buyer",
          "type": "address"
        },
        {
          "indexed": false,
          "internalType": "uint256",
          "name": "amount",
          "type": "uint256"
        }
      ],
      "name": "EscrowRefunded",
      "type": "event"
    },
    {
      "anonymous": false,
      "inputs": [
        {
          "indexed": true,
          "internalType": "address",
          "name": "previousOwner",
          "type": "address"
        },
        {
          "indexed": true,
          "internalType": "address",
          "name": "newOwner",
          "type": "address"
        }
      ],
      "name": "OwnershipTransferred",
      "type": "event"
    },
    {
      "inputs": [],
      "name": "adminContract",
      "outputs": [
        {
          "internalType": "contract AdminContract",
          "name": "",
          "type": "address"
        }
      ],
      "stateMutability": "view",
      "type": "function"
    },
    {
      "inputs": [
        {
          "internalType": "uint256",
          "name": "escrowId",
          "type": "uint256"
        }
      ],
      "name": "approveEscrow",
      "outputs": [],
      "stateMutability": "nonpayable",
      "type": "function"
    },
    {
      "inputs": [
        {
          "internalType": "uint256",
          "name": "escrowId",
          "type": "uint256"
        },
        {
          "internalType": "string",
          "name": "reason",
          "type": "string"
        }
      ],
      "name": "cancelEscrow",
      "outputs": [],
      "stateMutability": "nonpayable",
      "type": "function"
    },
    {
      "inputs": [
        {
          "internalType": "uint256",
          "name": "propertyId",
          "type": "uint256"
        },
        {
          "internalType": "address",
          "name": "seller",
          "type": "address"
        },
        {
          "internalType": "string",
          "name": "terms",
          "type": "string"
        }
      ],
      "name": "createEscrow",
      "outputs": [],
      "stateMutability": "nonpayable",
      "type": "function"
    },
    {
      "inputs": [],
      "name": "disputeDuration",
      "outputs": [
        {
          "internalType": "uint256",
          "name": "",
          "type": "uint256"
        }
      ],
      "stateMutability": "view",
      "type": "function"
    },
    {
      "inputs": [
        {
          "internalType": "uint256",
          "name": "",
          "type": "uint256"
        }
      ],
      "name": "disputes",
      "outputs": [
        {
          "internalType": "uint256",
          "name": "escrowId",
          "type": "uint256"
        },
        {
          "internalType": "address",
          "name": "disputer",
          "type": "address"
        },
        {
          "internalType": "string",
          "name": "reason",
          "type": "string"
        },
        {
          "internalType": "uint256",
          "name": "timestamp",
          "type": "uint256"
        },
        {
          "internalType": "bool",
          "name": "resolved",
          "type": "bool"
        }
      ],
      "stateMutability": "view",
      "type": "function"
    },
    {
      "inputs": [],
      "name": "escrowDuration",
      "outputs": [
        {
          "internalType": "uint256",
          "name": "",
          "type": "uint256"
        }
      ],
      "stateMutability": "view",
      "type": "function"
    },
    {
      "inputs": [
        {
          "internalType": "uint256",
          "name": "",
          "type": "uint256"
        }
      ],
      "name": "escrows",
      "outputs": [
        {
          "internalType": "uint256",
          "name": "escrowId",
          "type": "uint256"
        },
        {
          "internalType": "uint256",
          "name": "propertyId",
          "type": "uint256"
        },
        {
          "internalType": "address",
          "name": "buyer",
          "type": "address"
        },
        {
          "internalType": "address",
          "name": "seller",
          "type": "address"
        },
        {
          "internalType": "uint256",
          "name": "amount",
          "type": "uint256"
        },
        {
          "internalType": "uint256",
          "name": "deadline",
          "type": "uint256"
        },
        {
          "internalType": "enum PropertyEscrow.EscrowStatus",
          "name": "status",
          "type": "uint8"
        },
        {
          "internalType": "uint256",
          "name": "createdAt",
          "type": "uint256"
        },
        {
          "internalType": "uint256",
          "name": "completedAt",
          "type": "uint256"
        },
        {
          "internalType": "string",
          "name": "terms",
          "type": "string"
        },
        {
          "internalType": "bool",
          "name": "buyerApproved",
          "type": "bool"
        },
        {
          "internalType": "bool",
          "name": "sellerApproved",
          "type": "bool"
        }
      ],
      "stateMutability": "view",
      "type": "function"
    },
    {
      "inputs": [
        {
          "internalType": "uint256",
          "name": "escrowId",
          "type": "uint256"
        }
      ],
      "name": "fundEscrow",
      "outputs": [],
      "stateMutability": "payable",
      "type": "function"
    },
    {
      "inputs": [
        {
          "internalType": "uint256",
          "name": "escrowId",
          "type": "uint256"
        }
      ],
      "name": "getDispute",
      "outputs": [
        {
          "components": [
            {
              "internalType": "uint256",
              "name": "escrowId",
              "type": "uint256"
            },
            {
              "internalType": "address",
              "name": "disputer",
              "type": "address"
            },
            {
              "internalType": "string",
              "name": "reason",
              "type": "string"
            },
            {
              "internalType": "uint256",
              "name": "timestamp",
              "type": "uint256"
            },
            {
              "internalType": "bool",
              "name": "resolved",
              "type": "bool"
            }
          ],
          "internalType": "struct PropertyEscrow.Dispute",
          "name": "",
          "type": "tuple"
        }
      ],
      "stateMutability": "view",
      "type": "function"
    },
    {
      "inputs": [
        {
          "internalType": "uint256",
          "name": "escrowId",
          "type": "uint256"
        }
      ],
      "name": "getEscrow",
      "outputs": [
        {
          "components": [
            {
              "internalType": "uint256",
              "name": "escrowId",
              "type": "uint256"
            },
            {
              "internalType": "uint256",
              "name": "propertyId",
              "type": "uint256"
            },
            {
              "internalType": "address",
              "name": "buyer",
              "type": "address"
            },
            {
              "internalType": "address",
              "name": "seller",
              "type": "address"
            },
            {
              "internalType": "uint256",
              "name": "amount",
              "type": "uint256"
            },
            {
              "internalType": "uint256",
              "name": "deadline",
              "type": "uint256"
            },
            {
              "internalType": "enum PropertyEscrow.EscrowStatus",
              "name": "status",
              "type": "uint8"
            },
            {
              "internalType": "uint256",
              "name": "createdAt",
              "type": "uint256"
            },
            {
              "internalType": "uint256",
              "name": "completedAt",
              "type": "uint256"
            },
            {
              "internalType": "string",
              "name": "terms",
              "type": "string"
            },
            {
              "internalType": "bool",
              "name": "buyerApproved",
              "type": "bool"
            },
            {
              "internalType": "bool",
              "name": "sellerApproved",
              "type": "bool"
            }
          ],
          "internalType": "struct PropertyEscrow.Escrow",
          "name": "",
          "type": "tuple"
        }
      ],
      "stateMutability": "view",
      "type": "function"
    },
    {
      "inputs": [],
      "name": "getTotalEscrows",
      "outputs": [
        {
          "internalType": "uint256",
          "name": "",
          "type": "uint256"
        }
      ],
      "stateMutability": "view",
      "type": "function"
    },
    {
      "inputs": [],
      "name": "owner",
      "outputs": [
        {
          "internalType": "address",
          "name": "",
          "type": "address"
        }
      ],
      "stateMutability": "view",
      "type": "function"
    },
    {
      "inputs": [],
      "name": "platformFeePercentage",
      "outputs": [
        {
          "internalType": "uint256",
          "name": "",
          "type": "uint256"
        }
      ],
      "stateMutability": "view",
      "type": "function"
    },
    {
      "inputs": [],
      "name": "propertyFactory",
      "outputs": [
        {
          "internalType": "contract PropertyNFTFactory",
          "name": "",
          "type": "address"
        }
      ],
      "stateMutability": "view",
      "type": "function"
    },
    {
      "inputs": [
        {
          "internalType": "uint256",
          "name": "",
          "type": "uint256"
        }
      ],
      "name": "propertyToEscrow",
      "outputs": [
        {
          "internalType": "uint256",
          "name": "",
          "type": "uint256"
        }
      ],
      "stateMutability": "view",
      "type": "function"
    },
    {
      "inputs": [
        {
          "internalType": "uint256",
          "name": "escrowId",
          "type": "uint256"
        },
        {
          "internalType": "string",
          "name": "reason",
          "type": "string"
        }
      ],
      "name": "raiseDispute",
      "outputs": [],
      "stateMutability": "nonpayable",
      "type": "function"
    },
    {
      "inputs": [],
      "name": "renounceOwnership",
      "outputs": [],
      "stateMutability": "nonpayable",
      "type": "function"
    },
    {
      "inputs": [
        {
          "internalType": "uint256",
          "name": "escrowId",
          "type": "uint256"
        },
        {
          "internalType": "bool",
          "name": "buyerWins",
          "type": "bool"
        }
      ],
      "name": "resolveDispute",
      "outputs": [],
      "stateMutability": "nonpayable",
      "type": "function"
    },
    {
      "inputs": [
        {
          "internalType": "address",
          "name": "newOwner",
          "type": "address"
        }
      ],
      "name": "transferOwnership",
      "outputs": [],
      "stateMutability": "nonpayable",
      "type": "function"
    },
    {
      "inputs": [
        {
          "internalType": "uint256",
          "name": "newDuration",
          "type": "uint256"
        }
      ],
      "name": "updateDisputeDuration",
      "outputs": [],
      "stateMutability": "nonpayable",
      "type": "function"
    },
    {
      "inputs": [
        {
          "internalType": "uint256",
          "name": "newDuration",
          "type": "uint256"
        }
      ],
      "name": "updateEscrowDuration",
      "outputs": [],
      "stateMutability": "nonpayable",
      "type": "function"
    },
    {
      "inputs": [
        {
          "internalType": "uint256",
          "name": "newPercentage",
          "type": "uint256"
        }
      ],
      "name": "updatePlatformFeePercentage",
      "outputs": [],
      "stateMutability": "nonpayable",
      "type": "function"
    },
    {
      "inputs": [],
      "name": "userRegistry",
      "outputs": [
        {
          "internalType": "contract UserRegistry",
          "name": "",
          "type": "address"
        }
      ],
      "stateMutability": "view",
      "type": "function"
    },
    {
      "inputs": [],
      "name": "withdrawFees",
      "outputs": [],
      "stateMutability": "nonpayable",
      "type": "function"
    }
  ],
  "bytecode": "0x60803461013057601f6123cc38819003918201601f19168301916001600160401b0383118484101761013557808492606094604052833981010312610130576100478161014b565b9060406100566020830161014b565b9101516001600160a01b038116919082900361013057331561011a5760008054336001600160a01b0319821681178355604051959290916001600160a01b0316907f8be0079c531659141344cd1fd0a4f28419497f9722a3daafe3b4186f6b6457e09080a36001805562278d0060065562093a806007556002600855600980546001600160a01b03199081166001600160a01b0393841617909155600a8054821693909216929092179055600b805490911691909117905561226c90816101608239f35b631e4fbdf760e01b600052600060045260246000fd5b600080fd5b634e487b7160e01b600052604160045260246000fd5b51906001600160a01b03821682036101305756fe6080604052600436101561001257600080fd5b60003560e01c8063012f52ee14611b3757806303fce7ef146119e057806334b25ee2146117b55780633f4dbda214611797578063476343ee146116d9578063564a565d1461165c57806357a2b6dc1461163057806357c2c2ba146116125780635aef573c146113335780635c7460d61461130a5780635ca5f21914610b9b5780636305a2cd14610aa7578063715018a614610a4e5780637d19e596146108265780638da5cb5b146107fd578063a3db54b0146107d4578063b6b6cc13146107b6578063c05c5e941461078d578063c9c31af514610662578063cdd78cfc14610644578063d2af2bcb146104d7578063e3a96cbd146103f0578063e4830153146102c0578063e8a7bf91146101c15763f2fde38b1461012f57600080fd5b346101bc5760203660031901126101bc576004356001600160a01b038116908190036101bc5761015d6121ed565b80156101a657600080546001600160a01b03198116831782556001600160a01b0316907f8be0079c531659141344cd1fd0a4f28419497f9722a3daafe3b4186f6b6457e09080a3005b631e4fbdf760e01b600052600060045260246000fd5b600080fd5b346101bc5760203660031901126101bc576004356024602060018060a01b03600b541660405192838092630935e01b60e21b82523360048301525afa9081156102b457600091610262575b60008051602061221783398151915260a08461022785611ed0565b60065490806006556040519160608352600e60608401526d32b9b1b937bba23ab930ba34b7b760911b608084015260208301526040820152a1005b90506020813d6020116102ac575b8161027d60209383611c8d565b810103126101bc57600080516020612217833981519152916102276102a360a093611ec3565b9250509161020c565b3d9150610270565b6040513d6000823e3d90fd5b346101bc5760203660031901126101bc576004356024602060018060a01b03600b541660405192838092630935e01b60e21b82523360048301525afa80156102b4576000906103b5575b6103149150611ed0565b600a81116103705760a060008051602061221783398151915291600854908060085560405191606083526015606084015274706c6174666f726d46656550657263656e7461676560581b608084015260208301526040820152a1005b60405162461bcd60e51b815260206004820152601e60248201527f506c6174666f726d206665652063616e6e6f74206578636565642031302500006044820152606490fd5b506020813d6020116103e8575b816103cf60209383611c8d565b810103126101bc576103e361031491611ec3565b61030a565b3d91506103c2565b346101bc5760203660031901126101bc576000608060405161041181611c54565b8281528260208201526060604082015282606082015201526004356000526004602052604060002060405161044581611c54565b8154815260018201546001600160a01b0316602082019081529161046b60028201611caf565b604083019081526104c460ff600460038501549460608701958652015416916080850192151583526040519586956020875251602087015260018060a01b0390511660408601525160a0606086015260c0850190611d83565b9151608084015251151560a08301520390f35b346101bc576104e536611e0b565b9080600052600360205260018060a01b036002604060002001541633148015610620575b61051290611e3e565b80600052600360205260406000206006810160ff81541690600682101561060a5761053f60ff9215611f69565b600482198254161781555416600681101561060a5760011461059a575b507f5393cae99dfb45a16e8c5923f3d87120386e7f749874bfec781b0309be6630a0604051602081528061059533956020830190611d83565b0390a3005b600281016000808080600460018060a01b03865416960195865490828215610601575bf1156102b4577feac97bc1917fcedc984e3d0671d4e83b359890323d5d1c2de32b28d17c356ced6020849260018060a01b039054169354604051908152a38261055c565b506108fc6105bd565b634e487b7160e01b600052602160045260246000fd5b50600081815260036020819052604090912001546001600160a01b03163314610509565b346101bc5760003660031901126101bc576020600854604051908152f35b60203660031901126101bc5760043580600052600360205260ff60066040600020015416600681101561060a576106999015611f69565b600081815260036020526040902060028101546001600160a01b03163303610748576004810154340361070357600601600160ff19825416179055604051903482527f4a2cd88ec7a748d5b20b3512d7249c67745777b219009075c745923684e9653d60203393a3005b60405162461bcd60e51b815260206004820152601860248201527f496e636f7272656374207061796d656e7420616d6f756e7400000000000000006044820152606490fd5b60405162461bcd60e51b815260206004820152601a60248201527f4f6e6c792062757965722063616e2066756e6420657363726f770000000000006044820152606490fd5b346101bc5760003660031901126101bc57600b546040516001600160a01b039091168152602090f35b346101bc5760003660031901126101bc576020600754604051908152f35b346101bc5760003660031901126101bc57600a546040516001600160a01b039091168152602090f35b346101bc5760003660031901126101bc576000546040516001600160a01b039091168152602090f35b346101bc5760203660031901126101bc57600435600061016060405161084b81611c70565b8281528260208201528260408201528260608201528260808201528260a08201528260c08201528260e082015282610100820152606061012082015282610140820152015280151580610a42575b15610a0557600052600360205260406000206040516108b781611c70565b815481526001820154906020810191825260018060a01b036002840154166040820190815260018060a01b03600385015416606083019081526004850154946080840195865260058101549160a0850192835260ff6006830154169660c0860197600681101561060a57886109ee956109cb9260409b5260078601549360e08a019485526008870154956101008b01968752600a61095760098a01611caf565b986101208d01998a520154996101408c019b60ff8c1615158d5260ff61016082019c60081c1615158c528e519e8f9e8f92602084525160208401525191015260018060a01b0390511660608d015260018060a01b0390511660808c01525160a08b01525160c08a01525160e0890190611d53565b5161010087015251610120860152516101806101408601526101a0850190611d83565b915115156101608401525115156101808301520390f35b60405162461bcd60e51b8152602060048201526015602482015274115cd8dc9bddc8191bd95cc81b9bdd08195e1a5cdd605a1b6044820152606490fd5b50600254811115610899565b346101bc5760003660031901126101bc57610a676121ed565b600080546001600160a01b0319811682556001600160a01b03167f8be0079c531659141344cd1fd0a4f28419497f9722a3daafe3b4186f6b6457e08280a3005b346101bc5760203660031901126101bc576004356024602060018060a01b03600b541660405192838092630935e01b60e21b82523360048301525afa9081156102b457600091610b49575b60008051602061221783398151915260a084610b0d85611ed0565b60075490806007556040519160608352600f60608401526e3234b9b83aba32a23ab930ba34b7b760891b608084015260208301526040820152a1005b90506020813d602011610b93575b81610b6460209383611c8d565b810103126101bc5760008051602061221783398151915291610b0d610b8a60a093611ec3565b92505091610af2565b3d9150610b57565b346101bc5760603660031901126101bc576004356024356001600160a01b038116908190036101bc5760443567ffffffffffffffff81116101bc57610be4903690600401611dc4565b600954604051639ee20b1560e01b815233600482015291939190602090829060249082906001600160a01b03165afa9081156102b4576000916112d0575b501561128b578015611250578115611212573382146111c2578251156111855780600052600560205260406000205461114057600a546040516332665ffb60e01b81526004810183905290600090829060249082906001600160a01b03165afa9081156102b457600091611009575b5060e08101516001600160a01b0316839003610fc45761010081015115610f7f576002546000198114610f69576001606091019182600255018051600654420195864211610f6957604051610ce581611c70565b8481526020808201878152336040808501918252606085018b81526080860197885260a086019c8d52600060c087018181524260e0890190815261010089018381526101208a019a8b526101408a018481526101608b018581528f865260039a8b90529690942099518a55965160018a015594516002890180546001600160a01b03199081166001600160a01b039384161790915593519789018054909416971696909617909155965160048601559a51600585015591519993916006808501908c101561060a5760009b60ff8019835416911617905551600784015551600883015560098201905180519067ffffffffffffffff8211610f5557610dea8354611c1a565b601f8111610f10575b506020908b601f8411600114610ea55792600a94928192610e41979592610e9a575b50508160011b916000199060031b1c19161790555b0192511515839060ff801983541691151516179055565b51151561ff0082549160081b169061ff00191617905582855260056020528160408620555160405193845260208401527fa96863da5e2cb895c2d739ef4b0a2bf93464d7bb3a3bf098c0af12c1b404c43a60403394a480f35b015190508d80610e15565b50838c52818c209190601f1984168d5b818110610ef85750926001928592610e419896600a989610610edf575b505050811b019055610e2a565b015160001960f88460031b161c191690558d8080610ed2565b92936020600181928786015181550195019301610eb5565b838c5260208c20601f840160051c81019160208510610f4b575b601f0160051c01905b818110610f405750610df3565b8c8155600101610f33565b9091508190610f2a565b634e487b7160e01b8b52604160045260248bfd5b634e487b7160e01b600052601160045260246000fd5b60405162461bcd60e51b815260206004820152601c60248201527f50726f7065727479206e6f74206c697374656420666f722073616c65000000006044820152606490fd5b60405162461bcd60e51b815260206004820152601c60248201527f53656c6c6572206973206e6f742070726f7065727479206f776e6572000000006044820152606490fd5b3d8083833e6110188183611c8d565b8101906020818303126111245780519067ffffffffffffffff821161113c570191610140838303126111215760405192610140840184811067ffffffffffffffff8211176111285760405280516005811015611124578452602081015167ffffffffffffffff81116111245783611090918301611f27565b602085015260408101516040850152606081015160608501526080810151608085015260a081015160a085015260c081015160c085015260e081015160018060a01b03811681036111245760e08501526110ed6101008201611ec3565b6101008501526101208101519167ffffffffffffffff83116111215750611115929101611f27565b61012082015284610c91565b80fd5b8280fd5b634e487b7160e01b83526041600452602483fd5b8380fd5b60405162461bcd60e51b815260206004820152601a60248201527f50726f706572747920616c726561647920696e20657363726f770000000000006044820152606490fd5b60405162461bcd60e51b81526020600482015260156024820152745465726d732063616e6e6f7420626520656d70747960581b6044820152606490fd5b60405162461bcd60e51b815260206004820152602260248201527f43616e6e6f742063726561746520657363726f77207769746820796f75727365604482015261363360f11b6064820152608490fd5b60405162461bcd60e51b8152602060048201526016602482015275496e76616c69642073656c6c6572206164647265737360501b6044820152606490fd5b60405162461bcd60e51b8152602060048201526013602482015272125b9d985b1a59081c1c9bdc195c9d1e481251606a1b6044820152606490fd5b60405162461bcd60e51b815260206004820152601f60248201527f55736572206e6f742072656769737465726564206f7220696e616374697665006044820152606490fd5b90506020813d602011611302575b816112eb60209383611c8d565b810103126101bc576112fc90611ec3565b84610c22565b3d91506112de565b346101bc5760003660031901126101bc576009546040516001600160a01b039091168152602090f35b346101bc5761134136611e0b565b9080600052600360205260018060a01b0360026040600020015416331480156115ee575b61136e90611e3e565b806000526003602052600660406000200160ff815416600681101561060a5760016113999114611e83565b8251156115a957805460ff191660021790556040516113b781611c54565b8181526020810133815260408201848152606083019042825260808401926000845285600052600460205260406000209451855560018060a01b03905116600185019060018060a01b03166bffffffffffffffffffffffff60a01b82541617905560028401905180519067ffffffffffffffff82116115935761143a8354611c1a565b601f811161154b575b50602090601f83116001146114db57918061149897969492600496946000926114d0575b50508160011b916000199060031b1c19161790555b51600384015551151591019060ff801983541691151516179055565b7f1b84372106d77c6daea0dda35bbc0229d10a83f58ec899092884925193682341604051602081528061059533956020830190611d83565b015190508a80611467565b90601f1983169184600052816000209260005b8181106115335750926001928592600498966114989b9a98961061151a575b505050811b01905561147c565b015160001960f88460031b161c191690558a808061150d565b929360206001819287860151815501950193016114ee565b836000526020600020601f840160051c81019160208510611589575b601f0160051c01905b81811061157d5750611443565b60008155600101611570565b9091508190611567565b634e487b7160e01b600052604160045260246000fd5b60405162461bcd60e51b815260206004820152601e60248201527f4469737075746520726561736f6e2063616e6e6f7420626520656d70747900006044820152606490fd5b50600081815260036020819052604090912001546001600160a01b03163314611365565b346101bc5760003660031901126101bc576020600654604051908152f35b346101bc5760203660031901126101bc5760043560005260056020526020604060002054604051908152f35b346101bc5760203660031901126101bc5760043560005260046020526040600020805460018060a01b036001830154169161169960028201611caf565b6116c860ff6004600385015494015416916040519586958652602086015260a0604086015260a0850190611d83565b916060840152151560808301520390f35b346101bc5760003660031901126101bc57600b54604051630935e01b60e21b815233600482015290602090829060249082906001600160a01b03165afa80156102b45760009061175c575b61172e9150611ed0565b6000805481908190819047906001600160a01b0316828215611753575bf1156102b457005b506108fc61174b565b506020813d60201161178f575b8161177660209383611c8d565b810103126101bc5761178a61172e91611ec3565b611724565b3d9150611769565b346101bc5760003660031901126101bc576020600254604051908152f35b346101bc5760403660031901126101bc5760043560243590811515918281036101bc57600b54604051630935e01b60e21b815233600482015290602090829060249082906001600160a01b03165afa80156102b4576000906119a5575b61181c9150611ed0565b81600052600460205260046040600020019081549060ff821661196057836000526003602052604060002092600684019260ff845416600681101561060a576002036119255760ff191660011790551561191557600282016000808080600460018060a01b0386541697019687549082821561190c575bf1156102b45760207feac97bc1917fcedc984e3d0671d4e83b359890323d5d1c2de32b28d17c356ced918593600560ff1982541617905560018060a01b039054169354604051908152a35b6040519182527f8fdd4548a8481406b6e29c0d6f25e27cd72502f79f4adf409468502e7920dabc60203393a3005b506108fc611893565b505061192081611faa565b6118de565b60405162461bcd60e51b8152602060048201526013602482015272115cd8dc9bddc81b9bdd08191a5cdc1d5d1959606a1b6044820152606490fd5b60405162461bcd60e51b815260206004820152601860248201527f4469737075746520616c7265616479207265736f6c76656400000000000000006044820152606490fd5b506020813d6020116119d8575b816119bf60209383611c8d565b810103126101bc576119d361181c91611ec3565b611812565b3d91506119b2565b346101bc5760203660031901126101bc5760043580600052600360205260018060a01b036002604060002001541633148015611b13575b611a2090611e3e565b806000526003602052604060002060ff600682015416600681101561060a576001611a4b9114611e83565b60058101544211611ad5576002810154600a9190336001600160a01b0390911603611aac57808201805460ff191660011790555b015460ff81169081611a9e575b50611a9357005b611a9c90611faa565b005b60ff915060081c1682611a8c565b60038101546001600160a01b03163303611a7f57808201805461ff001916610100179055611a7f565b60405162461bcd60e51b8152602060048201526016602482015275115cd8dc9bddc8191958591b1a5b99481c185cdcd95960521b6044820152606490fd5b50600081815260036020819052604090912001546001600160a01b03163314611a17565b346101bc5760203660031901126101bc5760043560005260036020526020604060002080549060ff611bfe60018301549260018060a01b0360028201541660018060a01b03600383015416611bdf600484015460058501548760068701541691600787015494600888015496600a611bb160098b01611caf565b9901549b6040519e8f9e8f908152015260408d015260608c015260808b015260a08a015260c0890190611d53565b60e0870152610100860152610180610120860152610180850190611d83565b91818116151561014085015260081c1615156101608301520390f35b90600182811c92168015611c4a575b6020831014611c3457565b634e487b7160e01b600052602260045260246000fd5b91607f1691611c29565b60a0810190811067ffffffffffffffff82111761159357604052565b610180810190811067ffffffffffffffff82111761159357604052565b90601f8019910116810190811067ffffffffffffffff82111761159357604052565b9060405191826000825492611cc384611c1a565b8084529360018116908115611d315750600114611cea575b50611ce892500383611c8d565b565b90506000929192526020600020906000915b818310611d15575050906020611ce89282010138611cdb565b6020919350806001915483858901015201910190918492611cfc565b905060209250611ce894915060ff191682840152151560051b82010138611cdb565b90600682101561060a5752565b60005b838110611d735750506000910152565b8181015183820152602001611d63565b90602091611d9c81518092818552858086019101611d60565b601f01601f1916010190565b67ffffffffffffffff811161159357601f01601f191660200190565b81601f820112156101bc57803590611ddb82611da8565b92611de96040519485611c8d565b828452602083830101116101bc57816000926020809301838601378301015290565b9060406003198301126101bc57600435916024359067ffffffffffffffff82116101bc57611e3b91600401611dc4565b90565b15611e4557565b60405162461bcd60e51b8152602060048201526016602482015275139bdd08195cd8dc9bddc81c185c9d1a58da5c185b9d60521b6044820152606490fd5b15611e8a57565b60405162461bcd60e51b8152602060048201526011602482015270115cd8dc9bddc81b9bdd08199d5b991959607a1b6044820152606490fd5b519081151582036101bc57565b15611ed757565b60405162461bcd60e51b815260206004820152602260248201527f4f6e6c792061646d696e2063616e20706572666f726d2074686973206163746960448201526137b760f11b6064820152608490fd5b81601f820112156101bc578051611f3d81611da8565b92611f4b6040519485611c8d565b818452602082840101116101bc57611e3b9160208085019101611d60565b15611f7057565b60405162461bcd60e51b8152602060048201526012602482015271457363726f77206e6f742070656e64696e6760701b6044820152606490fd5b6000818152600360205260408120916006830160ff81541660068110156121d9576001611fd79114611e83565b600a84015460ff811690816121cb575b501561218657600360ff198254161790554260088401556004830192835492600854808502908582041485151715612172576064900480850385811161215e578280808093600388019960018060a01b038b54169087849114612155575bf11561214857815482918291829182916001600160a01b031682821561213f575bf11561213357600a548454600284018054600190950154909490926001600160a01b039182169282169116803b1561212f578492918360649260405196879586946323b872dd60e01b86526004860152602485015260448401525af1801561212457917f9dec7057567c230c9ad82c429f563876768f2ac36c936f3f31e3f03b4d5909219391602093612114575b505054935494546040519081526001600160a01b039586169590941693a4565b8161211e91611c8d565b386120f4565b6040513d84823e3d90fd5b8480fd5b604051903d90823e3d90fd5b506108fc612066565b50604051903d90823e3d90fd5b506108fc612045565b634e487b7160e01b83526011600452602483fd5b634e487b7160e01b82526011600452602482fd5b60405162461bcd60e51b815260206004820152601960248201527f426f74682070617274696573206d75737420617070726f7665000000000000006044820152606490fd5b60ff915060081c1638611fe7565b634e487b7160e01b84526021600452602484fd5b6000546001600160a01b0316330361220157565b63118cdaa760e01b6000523360045260246000fdfed7474166e78731bc168caca1fe1ccebbd6f3c95baee64997902e6b48f442b81aa2646970667358221220543b3f58d3baa49dd7c15b0d2abc0e87aabe8cf7130a9b0866f5d629d58882f764736f6c634300081c0033",
  "linkReferences": {},
  "deployedLinkReferences": {}
}