{
  "_format": "hh-sol-artifact-1",
  "contractName": "PropertyEscrow",
  "sourceName": "contracts/PropertyEscrow.sol",
  "abi": [
    {
      "inputs": [
        {
          "internalType": "address",
          "name": "_userRegistry",
          "type": "address"
        },
        {
          "internalType": "address",
          "name": "_propertyFactory",
          "type": "address"
        }
      ],
      "stateMutability": "nonpayable",
      "type": "constructor"
    },
    {
      "inputs": [
        {
          "internalType": "address",
          "name": "owner",
          "type": "address"
        }
      ],
      "name": "OwnableInvalidOwner",
      "type": "error"
    },
    {
      "inputs": [
        {
          "internalType": "address",
          "name": "account",
          "type": "address"
        }
      ],
      "name": "OwnableUnauthorizedAccount",
      "type": "error"
    },
    {
      "inputs": [],
      "name": "ReentrancyGuardReentrantCall",
      "type": "error"
    },
    {
      "anonymous": false,
      "inputs": [
        {
          "indexed": false,
          "internalType": "string",
          "name": "config",
          "type": "string"
        },
        {
          "indexed": false,
          "internalType": "uint256",
          "name": "oldValue",
          "type": "uint256"
        },
        {
          "indexed": false,
          "internalType": "uint256",
          "name": "newValue",
          "type": "uint256"
        }
      ],
      "name": "ConfigUpdated",
      "type": "event"
    },
    {
      "anonymous": false,
      "inputs": [
        {
          "indexed": true,
          "internalType": "uint256",
          "name": "escrowId",
          "type": "uint256"
        },
        {
          "indexed": true,
          "internalType": "address",
          "name": "disputer",
          "type": "address"
        },
        {
          "indexed": false,
          "internalType": "string",
          "name": "reason",
          "type": "string"
        }
      ],
      "name": "DisputeRaised",
      "type": "event"
    },
    {
      "anonymous": false,
      "inputs": [
        {
          "indexed": true,
          "internalType": "uint256",
          "name": "escrowId",
          "type": "uint256"
        },
        {
          "indexed": true,
          "internalType": "address",
          "name": "resolver",
          "type": "address"
        },
        {
          "indexed": false,
          "internalType": "bool",
          "name": "buyerWins",
          "type": "bool"
        }
      ],
      "name": "DisputeResolved",
      "type": "event"
    },
    {
      "anonymous": false,
      "inputs": [
        {
          "indexed": true,
          "internalType": "uint256",
          "name": "escrowId",
          "type": "uint256"
        },
        {
          "indexed": true,
          "internalType": "address",
          "name": "canceller",
          "type": "address"
        },
        {
          "indexed": false,
          "internalType": "string",
          "name": "reason",
          "type": "string"
        }
      ],
      "name": "EscrowCancelled",
      "type": "event"
    },
    {
      "anonymous": false,
      "inputs": [
        {
          "indexed": true,
          "internalType": "uint256",
          "name": "escrowId",
          "type": "uint256"
        },
        {
          "indexed": true,
          "internalType": "address",
          "name": "buyer",
          "type": "address"
        },
        {
          "indexed": true,
          "internalType": "address",
          "name": "seller",
          "type": "address"
        },
        {
          "indexed": false,
          "internalType": "uint256",
          "name": "amount",
          "type": "uint256"
        }
      ],
      "name": "EscrowCompleted",
      "type": "event"
    },
    {
      "anonymous": false,
      "inputs": [
        {
          "indexed": true,
          "internalType": "uint256",
          "name": "escrowId",
          "type": "uint256"
        },
        {
          "indexed": true,
          "internalType": "uint256",
          "name": "propertyId",
          "type": "uint256"
        },
        {
          "indexed": true,
          "internalType": "address",
          "name": "buyer",
          "type": "address"
        },
        {
          "indexed": false,
          "internalType": "address",
          "name": "seller",
          "type": "address"
        },
        {
          "indexed": false,
          "internalType": "uint256",
          "name": "amount",
          "type": "uint256"
        }
      ],
      "name": "EscrowCreated",
      "type": "event"
    },
    {
      "anonymous": false,
      "inputs": [
        {
          "indexed": true,
          "internalType": "uint256",
          "name": "escrowId",
          "type": "uint256"
        },
        {
          "indexed": true,
          "internalType": "address",
          "name": "buyer",
          "type": "address"
        },
        {
          "indexed": false,
          "internalType": "uint256",
          "name": "amount",
          "type": "uint256"
        }
      ],
      "name": "EscrowFunded",
      "type": "event"
    },
    {
      "anonymous": false,
      "inputs": [
        {
          "indexed": true,
          "internalType": "uint256",
          "name": "escrowId",
          "type": "uint256"
        },
        {
          "indexed": true,
          "internalType": "address",
          "name": "buyer",
          "type": "address"
        },
        {
          "indexed": false,
          "internalType": "uint256",
          "name": "amount",
          "type": "uint256"
        }
      ],
      "name": "EscrowRefunded",
      "type": "event"
    },
    {
      "anonymous": false,
      "inputs": [
        {
          "indexed": true,
          "internalType": "address",
          "name": "previousOwner",
          "type": "address"
        },
        {
          "indexed": true,
          "internalType": "address",
          "name": "newOwner",
          "type": "address"
        }
      ],
      "name": "OwnershipTransferred",
      "type": "event"
    },
    {
      "inputs": [
        {
          "internalType": "uint256",
          "name": "escrowId",
          "type": "uint256"
        }
      ],
      "name": "approveEscrow",
      "outputs": [],
      "stateMutability": "nonpayable",
      "type": "function"
    },
    {
      "inputs": [
        {
          "internalType": "uint256",
          "name": "escrowId",
          "type": "uint256"
        },
        {
          "internalType": "string",
          "name": "reason",
          "type": "string"
        }
      ],
      "name": "cancelEscrow",
      "outputs": [],
      "stateMutability": "nonpayable",
      "type": "function"
    },
    {
      "inputs": [
        {
          "internalType": "uint256",
          "name": "propertyId",
          "type": "uint256"
        },
        {
          "internalType": "address",
          "name": "seller",
          "type": "address"
        },
        {
          "internalType": "string",
          "name": "terms",
          "type": "string"
        }
      ],
      "name": "createEscrow",
      "outputs": [],
      "stateMutability": "nonpayable",
      "type": "function"
    },
    {
      "inputs": [],
      "name": "disputeDuration",
      "outputs": [
        {
          "internalType": "uint256",
          "name": "",
          "type": "uint256"
        }
      ],
      "stateMutability": "view",
      "type": "function"
    },
    {
      "inputs": [
        {
          "internalType": "uint256",
          "name": "",
          "type": "uint256"
        }
      ],
      "name": "disputes",
      "outputs": [
        {
          "internalType": "uint256",
          "name": "escrowId",
          "type": "uint256"
        },
        {
          "internalType": "address",
          "name": "disputer",
          "type": "address"
        },
        {
          "internalType": "string",
          "name": "reason",
          "type": "string"
        },
        {
          "internalType": "uint256",
          "name": "timestamp",
          "type": "uint256"
        },
        {
          "internalType": "bool",
          "name": "resolved",
          "type": "bool"
        }
      ],
      "stateMutability": "view",
      "type": "function"
    },
    {
      "inputs": [
        {
          "internalType": "uint256",
          "name": "escrowId",
          "type": "uint256"
        }
      ],
      "name": "emergencyRefund",
      "outputs": [],
      "stateMutability": "nonpayable",
      "type": "function"
    },
    {
      "inputs": [],
      "name": "escrowDuration",
      "outputs": [
        {
          "internalType": "uint256",
          "name": "",
          "type": "uint256"
        }
      ],
      "stateMutability": "view",
      "type": "function"
    },
    {
      "inputs": [
        {
          "internalType": "uint256",
          "name": "",
          "type": "uint256"
        }
      ],
      "name": "escrows",
      "outputs": [
        {
          "internalType": "uint256",
          "name": "escrowId",
          "type": "uint256"
        },
        {
          "internalType": "uint256",
          "name": "propertyId",
          "type": "uint256"
        },
        {
          "internalType": "address",
          "name": "buyer",
          "type": "address"
        },
        {
          "internalType": "address",
          "name": "seller",
          "type": "address"
        },
        {
          "internalType": "uint256",
          "name": "amount",
          "type": "uint256"
        },
        {
          "internalType": "uint256",
          "name": "deadline",
          "type": "uint256"
        },
        {
          "internalType": "enum PropertyEscrow.EscrowStatus",
          "name": "status",
          "type": "uint8"
        },
        {
          "internalType": "uint256",
          "name": "createdAt",
          "type": "uint256"
        },
        {
          "internalType": "uint256",
          "name": "completedAt",
          "type": "uint256"
        },
        {
          "internalType": "string",
          "name": "terms",
          "type": "string"
        },
        {
          "internalType": "bool",
          "name": "buyerApproved",
          "type": "bool"
        },
        {
          "internalType": "bool",
          "name": "sellerApproved",
          "type": "bool"
        }
      ],
      "stateMutability": "view",
      "type": "function"
    },
    {
      "inputs": [
        {
          "internalType": "uint256",
          "name": "escrowId",
          "type": "uint256"
        }
      ],
      "name": "fundEscrow",
      "outputs": [],
      "stateMutability": "payable",
      "type": "function"
    },
    {
      "inputs": [
        {
          "internalType": "uint256",
          "name": "escrowId",
          "type": "uint256"
        }
      ],
      "name": "getDispute",
      "outputs": [
        {
          "components": [
            {
              "internalType": "uint256",
              "name": "escrowId",
              "type": "uint256"
            },
            {
              "internalType": "address",
              "name": "disputer",
              "type": "address"
            },
            {
              "internalType": "string",
              "name": "reason",
              "type": "string"
            },
            {
              "internalType": "uint256",
              "name": "timestamp",
              "type": "uint256"
            },
            {
              "internalType": "bool",
              "name": "resolved",
              "type": "bool"
            }
          ],
          "internalType": "struct PropertyEscrow.Dispute",
          "name": "",
          "type": "tuple"
        }
      ],
      "stateMutability": "view",
      "type": "function"
    },
    {
      "inputs": [
        {
          "internalType": "uint256",
          "name": "escrowId",
          "type": "uint256"
        }
      ],
      "name": "getEscrow",
      "outputs": [
        {
          "components": [
            {
              "internalType": "uint256",
              "name": "escrowId",
              "type": "uint256"
            },
            {
              "internalType": "uint256",
              "name": "propertyId",
              "type": "uint256"
            },
            {
              "internalType": "address",
              "name": "buyer",
              "type": "address"
            },
            {
              "internalType": "address",
              "name": "seller",
              "type": "address"
            },
            {
              "internalType": "uint256",
              "name": "amount",
              "type": "uint256"
            },
            {
              "internalType": "uint256",
              "name": "deadline",
              "type": "uint256"
            },
            {
              "internalType": "enum PropertyEscrow.EscrowStatus",
              "name": "status",
              "type": "uint8"
            },
            {
              "internalType": "uint256",
              "name": "createdAt",
              "type": "uint256"
            },
            {
              "internalType": "uint256",
              "name": "completedAt",
              "type": "uint256"
            },
            {
              "internalType": "string",
              "name": "terms",
              "type": "string"
            },
            {
              "internalType": "bool",
              "name": "buyerApproved",
              "type": "bool"
            },
            {
              "internalType": "bool",
              "name": "sellerApproved",
              "type": "bool"
            }
          ],
          "internalType": "struct PropertyEscrow.Escrow",
          "name": "",
          "type": "tuple"
        }
      ],
      "stateMutability": "view",
      "type": "function"
    },
    {
      "inputs": [
        {
          "internalType": "uint256",
          "name": "propertyId",
          "type": "uint256"
        }
      ],
      "name": "getEscrowForProperty",
      "outputs": [
        {
          "internalType": "uint256",
          "name": "",
          "type": "uint256"
        }
      ],
      "stateMutability": "view",
      "type": "function"
    },
    {
      "inputs": [],
      "name": "getTotalEscrows",
      "outputs": [
        {
          "internalType": "uint256",
          "name": "",
          "type": "uint256"
        }
      ],
      "stateMutability": "view",
      "type": "function"
    },
    {
      "inputs": [],
      "name": "owner",
      "outputs": [
        {
          "internalType": "address",
          "name": "",
          "type": "address"
        }
      ],
      "stateMutability": "view",
      "type": "function"
    },
    {
      "inputs": [],
      "name": "platformFeePercentage",
      "outputs": [
        {
          "internalType": "uint256",
          "name": "",
          "type": "uint256"
        }
      ],
      "stateMutability": "view",
      "type": "function"
    },
    {
      "inputs": [],
      "name": "propertyFactory",
      "outputs": [
        {
          "internalType": "contract PropertyNFTFactory",
          "name": "",
          "type": "address"
        }
      ],
      "stateMutability": "view",
      "type": "function"
    },
    {
      "inputs": [
        {
          "internalType": "uint256",
          "name": "",
          "type": "uint256"
        }
      ],
      "name": "propertyToEscrow",
      "outputs": [
        {
          "internalType": "uint256",
          "name": "",
          "type": "uint256"
        }
      ],
      "stateMutability": "view",
      "type": "function"
    },
    {
      "inputs": [
        {
          "internalType": "uint256",
          "name": "escrowId",
          "type": "uint256"
        },
        {
          "internalType": "string",
          "name": "reason",
          "type": "string"
        }
      ],
      "name": "raiseDispute",
      "outputs": [],
      "stateMutability": "nonpayable",
      "type": "function"
    },
    {
      "inputs": [],
      "name": "renounceOwnership",
      "outputs": [],
      "stateMutability": "nonpayable",
      "type": "function"
    },
    {
      "inputs": [
        {
          "internalType": "uint256",
          "name": "escrowId",
          "type": "uint256"
        },
        {
          "internalType": "bool",
          "name": "buyerWins",
          "type": "bool"
        }
      ],
      "name": "resolveDispute",
      "outputs": [],
      "stateMutability": "nonpayable",
      "type": "function"
    },
    {
      "inputs": [
        {
          "internalType": "address",
          "name": "newOwner",
          "type": "address"
        }
      ],
      "name": "transferOwnership",
      "outputs": [],
      "stateMutability": "nonpayable",
      "type": "function"
    },
    {
      "inputs": [
        {
          "internalType": "uint256",
          "name": "newDuration",
          "type": "uint256"
        }
      ],
      "name": "updateDisputeDuration",
      "outputs": [],
      "stateMutability": "nonpayable",
      "type": "function"
    },
    {
      "inputs": [
        {
          "internalType": "uint256",
          "name": "newDuration",
          "type": "uint256"
        }
      ],
      "name": "updateEscrowDuration",
      "outputs": [],
      "stateMutability": "nonpayable",
      "type": "function"
    },
    {
      "inputs": [
        {
          "internalType": "uint256",
          "name": "newFeePercentage",
          "type": "uint256"
        }
      ],
      "name": "updatePlatformFeePercentage",
      "outputs": [],
      "stateMutability": "nonpayable",
      "type": "function"
    },
    {
      "inputs": [],
      "name": "userRegistry",
      "outputs": [
        {
          "internalType": "contract UserRegistry",
          "name": "",
          "type": "address"
        }
      ],
      "stateMutability": "view",
      "type": "function"
    }
  ],
  "bytecode": "0x60803461010957601f6121c238819003918201601f19168301916001600160401b0383118484101761010e57808492604094855283398101031261010957610052602061004b83610124565b9201610124565b33156100f35760008054336001600160a01b0319821681178355604051949290916001600160a01b0316907f8be0079c531659141344cd1fd0a4f28419497f9722a3daafe3b4186f6b6457e09080a36001805562278d0060065562093a806007556002600855600980546001600160a01b039283166001600160a01b031991821617909155600a805493909216921691909117905561208990816101398239f35b631e4fbdf760e01b600052600060045260246000fd5b600080fd5b634e487b7160e01b600052604160045260246000fd5b51906001600160a01b03821682036101095756fe6080604052600436101561001257600080fd5b60003560e01c8063012f52ee1461187857806303fce7ef1461176157806334b25ee2146116015780633f4dbda2146115e357806354e07d8a1461153a578063564a565d1461156657806357a2b6dc1461153a57806357c2c2ba1461151c5780635aef573c1461122d5780635c7460d6146112045780635ca5f21914610aad5780636305a2cd14610a2657806370e5deb914610942578063715018a6146108e95780637d19e596146106c55780638da5cb5b1461069c578063a3db54b014610673578063b6b6cc1314610655578063c9c31af51461052a578063cdd78cfc1461050c578063d2af2bcb14610402578063e3a96cbd1461031b578063e483015314610247578063e8a7bf91146101c15763f2fde38b1461012f57600080fd5b346101bc5760203660031901126101bc576004356001600160a01b038116908190036101bc5761015d61202a565b80156101a657600080546001600160a01b03198116831782556001600160a01b0316907f8be0079c531659141344cd1fd0a4f28419497f9722a3daafe3b4186f6b6457e09080a3005b631e4fbdf760e01b600052600060045260246000fd5b600080fd5b346101bc5760203660031901126101bc577fd7474166e78731bc168caca1fe1ccebbd6f3c95baee64997902e6b48f442b81a60a060043561020c600180841b03600054163314611c04565b60065490806006556040519160608352600e60608401526d32b9b1b937bba23ab930ba34b7b760911b608084015260208301526040820152a1005b346101bc5760203660031901126101bc5760043561027060018060a01b03600054163314611c04565b600a81116102de5760a07fd7474166e78731bc168caca1fe1ccebbd6f3c95baee64997902e6b48f442b81a91600854908060085560405191606083526015606084015274706c6174666f726d46656550657263656e7461676560581b608084015260208301526040820152a1005b60405162461bcd60e51b81526020600482015260156024820152744665652063616e6e6f74206578636565642031302560581b6044820152606490fd5b346101bc5760203660031901126101bc576000608060405161033c81611995565b8281528260208201526060604082015282606082015201526004356000526004602052604060002060405161037081611995565b8154815260018201546001600160a01b03166020820190815291610396600282016119f0565b604083019081526103ef60ff600460038501549460608701958652015416916080850192151583526040519586956020875251602087015260018060a01b0390511660408601525160a0606086015260c0850190611ac4565b9151608084015251151560a08301520390f35b346101bc5761041036611b4c565b9080600052600360205260018060a01b0360026040600020015416331480156104e8575b61043d90611b7f565b80600052600360205260ff6006604060002001541660068110156104d2576104659015611cb7565b8060005260036020526001604060002060068101600460ff1982541617905501546000526005602052600060408120557f5393cae99dfb45a16e8c5923f3d87120386e7f749874bfec781b0309be6630a060405160208152806104cd33956020830190611ac4565b0390a3005b634e487b7160e01b600052602160045260246000fd5b50600081815260036020819052604090912001546001600160a01b03163314610434565b346101bc5760003660031901126101bc576020600854604051908152f35b60203660031901126101bc5760043580600052600360205260ff6006604060002001541660068110156104d2576105619015611cb7565b600081815260036020526040902060028101546001600160a01b0316330361061057600481015434036105cb57600601600160ff19825416179055604051903482527f4a2cd88ec7a748d5b20b3512d7249c67745777b219009075c745923684e9653d60203393a3005b60405162461bcd60e51b815260206004820152601860248201527f496e636f7272656374207061796d656e7420616d6f756e7400000000000000006044820152606490fd5b60405162461bcd60e51b815260206004820152601a60248201527f4f6e6c792062757965722063616e2066756e6420657363726f770000000000006044820152606490fd5b346101bc5760003660031901126101bc576020600754604051908152f35b346101bc5760003660031901126101bc57600a546040516001600160a01b039091168152602090f35b346101bc5760003660031901126101bc576000546040516001600160a01b039091168152602090f35b346101bc5760203660031901126101bc5760043560006101606040516106ea816119b1565b8281528260208201528260408201528260608201528260808201528260a08201528260c08201528260e0820152826101008201526060610120820152826101408201520152801515806108dd575b156108a45760005260036020526040600020604051610756816119b1565b815481526001820154906020810191825260018060a01b036002840154166040820190815260018060a01b03600385015416606083019081526004850154946080840195865260058101549160a0850192835260ff6006830154169660c086019760068110156104d2578861088d9561086a9260409b5260078601549360e08a019485526008870154956101008b01968752600a6107f660098a016119f0565b986101208d01998a520154996101408c019b60ff8c1615158d5260ff61016082019c60081c1615158c528e519e8f9e8f92602084525160208401525191015260018060a01b0390511660608d015260018060a01b0390511660808c01525160a08b01525160c08a01525160e0890190611a94565b5161010087015251610120860152516101806101408601526101a0850190611ac4565b915115156101608401525115156101808301520390f35b60405162461bcd60e51b8152602060048201526011602482015270125b9d985b1a5908195cd8dc9bddc81251607a1b6044820152606490fd5b50600254811115610738565b346101bc5760003660031901126101bc5761090261202a565b600080546001600160a01b0319811682556001600160a01b03167f8be0079c531659141344cd1fd0a4f28419497f9722a3daafe3b4186f6b6457e08280a3005b346101bc5760203660031901126101bc5760043561096b60018060a01b03600054163314611c04565b806000526003602052604060002060ff60068201541660068110156104d2576001036109ed57600501546007546109a191611caa565b4211156109b3576109b190611f8d565b005b60405162461bcd60e51b8152602060048201526012602482015271115cd8dc9bddc81b9bdd08195e1c1a5c995960721b6044820152606490fd5b60405162461bcd60e51b8152602060048201526011602482015270115cd8dc9bddc81b9bdd08199d5b991959607a1b6044820152606490fd5b346101bc5760203660031901126101bc577fd7474166e78731bc168caca1fe1ccebbd6f3c95baee64997902e6b48f442b81a60a0600435610a71600180841b03600054163314611c04565b60075490806007556040519160608352600f60608401526e3234b9b83aba32a23ab930ba34b7b760891b608084015260208301526040820152a1005b346101bc5760603660031901126101bc576004356024356001600160a01b038116908190036101bc5760443567ffffffffffffffff81116101bc57610af6903690600401611b05565b600954604051639ee20b1560e01b815233600482015291939190602090829060249082906001600160a01b03165afa90811561102e576000916111ca575b501561118557801561114a57811561110c573382146110bc5782511561107f5780600052600560205260406000205461103a57600a546040516332665ffb60e01b81526004810183905290600090829060249082906001600160a01b03165afa90811561102e57600091610f1a575b5060808101516001600160a01b0316839003610ed55760a081015115610e90576002546000198114610e7a576001604091019182600255018051610be960065442611caa565b95604051610bf6816119b1565b8481526020808201878152336040808501918252606085018b81526080860197885260a086019c8d52600060c087018181524260e0890190815261010089018381526101208a019a8b526101408a018481526101608b018581528f865260039a8b90529690942099518a55965160018a015594516002890180546001600160a01b03199081166001600160a01b039384161790915593519789018054909416971696909617909155965160048601559a51600585015591519993916006808501908c10156104d25760009b60ff8019835416911617905551600784015551600883015560098201905180519067ffffffffffffffff8211610e6657610cfb835461195b565b601f8111610e21575b506020908b601f8411600114610db65792600a94928192610d52979592610dab575b50508160011b916000199060031b1c19161790555b0192511515839060ff801983541691151516179055565b51151561ff0082549160081b169061ff00191617905582855260056020528160408620555160405193845260208401527fa96863da5e2cb895c2d739ef4b0a2bf93464d7bb3a3bf098c0af12c1b404c43a60403394a480f35b015190508d80610d26565b50838c52818c209190601f1984168d5b818110610e095750926001928592610d529896600a989610610df0575b505050811b019055610d3b565b015160001960f88460031b161c191690558d8080610de3565b92936020600181928786015181550195019301610dc6565b838c5260208c20601f840160051c81019160208510610e5c575b601f0160051c01905b818110610e515750610d04565b8c8155600101610e44565b9091508190610e3b565b634e487b7160e01b8b52604160045260248bfd5b634e487b7160e01b600052601160045260246000fd5b60405162461bcd60e51b815260206004820152601c60248201527f50726f7065727479206e6f74206c697374656420666f722073616c65000000006044820152606490fd5b60405162461bcd60e51b815260206004820152601c60248201527f53656c6c6572206973206e6f742070726f7065727479206f776e6572000000006044820152606490fd5b3d8083833e610f2981836119ce565b8101906020818303126110125780519067ffffffffffffffff821161102a57019160e08383031261100f576040519260e0840184811067ffffffffffffffff8211176110165760405280516005811015611012578452602081015167ffffffffffffffff81116110125783610f9f918301611c68565b6020850152604081810151908501526060808201519085015260808101516001600160a01b0381168103611012576080850152610fde60a08201611c5b565b60a085015260c08101519167ffffffffffffffff831161100f5750611004929101611c68565b60c082015284610ba3565b80fd5b8280fd5b634e487b7160e01b83526041600452602483fd5b8380fd5b6040513d6000823e3d90fd5b60405162461bcd60e51b815260206004820152601a60248201527f50726f706572747920616c726561647920696e20657363726f770000000000006044820152606490fd5b60405162461bcd60e51b81526020600482015260156024820152745465726d732063616e6e6f7420626520656d70747960581b6044820152606490fd5b60405162461bcd60e51b815260206004820152602260248201527f43616e6e6f742063726561746520657363726f77207769746820796f75727365604482015261363360f11b6064820152608490fd5b60405162461bcd60e51b8152602060048201526016602482015275496e76616c69642073656c6c6572206164647265737360501b6044820152606490fd5b60405162461bcd60e51b8152602060048201526013602482015272125b9d985b1a59081c1c9bdc195c9d1e481251606a1b6044820152606490fd5b60405162461bcd60e51b815260206004820152601f60248201527f55736572206e6f742072656769737465726564206f7220696e616374697665006044820152606490fd5b90506020813d6020116111fc575b816111e5602093836119ce565b810103126101bc576111f690611c5b565b84610b34565b3d91506111d8565b346101bc5760003660031901126101bc576009546040516001600160a01b039091168152602090f35b346101bc5761123b36611b4c565b9080600052600360205260018060a01b0360026040600020015416331480156114f8575b61126890611b7f565b80600052600360205260ff6006604060002001541660068110156104d25760016112929114611bc4565b8151156114b3578060005260036020526006604060002001600260ff198254161790556040516112c181611995565b8181526020810133815260408201848152606083019042825260808401926000845285600052600460205260406000209451855560018060a01b03905116600185019060018060a01b03166bffffffffffffffffffffffff60a01b82541617905560028401905180519067ffffffffffffffff821161149d57611344835461195b565b601f8111611455575b50602090601f83116001146113e55791806113a297969492600496946000926113da575b50508160011b916000199060031b1c19161790555b51600384015551151591019060ff801983541691151516179055565b7f1b84372106d77c6daea0dda35bbc0229d10a83f58ec89909288492519368234160405160208152806104cd33956020830190611ac4565b015190508a80611371565b90601f1983169184600052816000209260005b81811061143d5750926001928592600498966113a29b9a989610611424575b505050811b019055611386565b015160001960f88460031b161c191690558a8080611417565b929360206001819287860151815501950193016113f8565b836000526020600020601f840160051c81019160208510611493575b601f0160051c01905b818110611487575061134d565b6000815560010161147a565b9091508190611471565b634e487b7160e01b600052604160045260246000fd5b60405162461bcd60e51b815260206004820152601e60248201527f4469737075746520726561736f6e2063616e6e6f7420626520656d70747900006044820152606490fd5b50600081815260036020819052604090912001546001600160a01b0316331461125f565b346101bc5760003660031901126101bc576020600654604051908152f35b346101bc5760203660031901126101bc5760043560005260056020526020604060002054604051908152f35b346101bc5760203660031901126101bc5760043560005260046020526040600020805460018060a01b03600183015416916115a3600282016119f0565b6115d260ff6004600385015494015416916040519586958652602086015260a0604086015260a0850190611ac4565b916060840152151560808301520390f35b346101bc5760003660031901126101bc576020600254604051908152f35b346101bc5760403660031901126101bc5760043560243590811515918281036101bc5761163960018060a01b03600054163314611c04565b81600052600360205260ff6006604060002001541660068110156104d2576002036117245781600052600460205260ff600460406000200154166116df578160005260046020526004604060002001600160ff198254161790556000146116d1576116a381611f8d565b6040519182527f8fdd4548a8481406b6e29c0d6f25e27cd72502f79f4adf409468502e7920dabc60203393a3005b6116da81611cf8565b6116a3565b60405162461bcd60e51b815260206004820152601860248201527f4469737075746520616c7265616479207265736f6c76656400000000000000006044820152606490fd5b60405162461bcd60e51b8152602060048201526015602482015274457363726f77206e6f7420696e206469737075746560581b6044820152606490fd5b346101bc5760203660031901126101bc5760043580600052600360205260018060a01b036002604060002001541633148015611854575b6117a190611b7f565b80600052600360205260ff6006604060002001541660068110156104d25760016117cb9114611bc4565b806000526003602052600a604060002060018060a01b03600282015416331460001461182b57808201805460ff191660011790555b015460ff8116908161181d575b5061181457005b6109b190611cf8565b60ff915060081c168261180d565b60038101546001600160a01b0316330361180057808201805461ff001916610100179055611800565b50600081815260036020819052604090912001546001600160a01b03163314611798565b346101bc5760203660031901126101bc5760043560005260036020526020604060002080549060ff61193f60018301549260018060a01b0360028201541660018060a01b03600383015416611920600484015460058501548760068701541691600787015494600888015496600a6118f260098b016119f0565b9901549b6040519e8f9e8f908152015260408d015260608c015260808b015260a08a015260c0890190611a94565b60e0870152610100860152610180610120860152610180850190611ac4565b91818116151561014085015260081c1615156101608301520390f35b90600182811c9216801561198b575b602083101461197557565b634e487b7160e01b600052602260045260246000fd5b91607f169161196a565b60a0810190811067ffffffffffffffff82111761149d57604052565b610180810190811067ffffffffffffffff82111761149d57604052565b90601f8019910116810190811067ffffffffffffffff82111761149d57604052565b9060405191826000825492611a048461195b565b8084529360018116908115611a725750600114611a2b575b50611a29925003836119ce565b565b90506000929192526020600020906000915b818310611a56575050906020611a299282010138611a1c565b6020919350806001915483858901015201910190918492611a3d565b905060209250611a2994915060ff191682840152151560051b82010138611a1c565b9060068210156104d25752565b60005b838110611ab45750506000910152565b8181015183820152602001611aa4565b90602091611add81518092818552858086019101611aa1565b601f01601f1916010190565b67ffffffffffffffff811161149d57601f01601f191660200190565b81601f820112156101bc57803590611b1c82611ae9565b92611b2a60405194856119ce565b828452602083830101116101bc57816000926020809301838601378301015290565b9060406003198301126101bc57600435916024359067ffffffffffffffff82116101bc57611b7c91600401611b05565b90565b15611b8657565b60405162461bcd60e51b8152602060048201526016602482015275139bdd08195cd8dc9bddc81c185c9d1a58da5c185b9d60521b6044820152606490fd5b15611bcb57565b60405162461bcd60e51b8152602060048201526011602482015270457363726f77206e6f742061637469766560781b6044820152606490fd5b15611c0b57565b60405162461bcd60e51b815260206004820152602260248201527f4f6e6c792061646d696e2063616e20706572666f726d2074686973206163746960448201526137b760f11b6064820152608490fd5b519081151582036101bc57565b81601f820112156101bc578051611c7e81611ae9565b92611c8c60405194856119ce565b818452602082840101116101bc57611b7c9160208085019101611aa1565b91908201809211610e7a57565b15611cbe57565b60405162461bcd60e51b8152602060048201526012602482015271457363726f77206e6f742070656e64696e6760701b6044820152606490fd5b60008181526003602052604081209160068301600360ff198254161790554260088401556004830192835492600854808502908582041485151715611f79576064900480850390858211611f6557600a5460038501805460028701805460019098018054939a91989096949193926001600160a01b03918216929082169116803b15611f61578892918360649260405196879586946323b872dd60e01b86526004860152602485015260448401525af18015611f5657611f40575b5084808093819360018060a01b038c54169087849114611f37575bf115611f0157825483918291829182916001600160a01b0316828215611f2e575bf115611f215754815260056020526040812081905560095482546001600160a01b039182169116813b1561101257829160648392604051948593849262880b8360e11b84526004840152600560248401528160448401525af18015611f0157908291611f0c575b505060095484546001600160a01b039182169116813b1561101257829160648392604051948593849262880b8360e11b84526004840152600560248401528160448401525af18015611f0157611eec575b505054915492546040519081526001600160a01b0393841693909216917f9dec7057567c230c9ad82c429f563876768f2ac36c936f3f31e3f03b4d59092190602090a4565b611ef78280926119ce565b61100f5780611ea7565b6040513d84823e3d90fd5b81611f16916119ce565b61100f578038611e56565b50604051903d90823e3d90fd5b506108fc611def565b506108fc611dce565b85611f4e91969293966119ce565b939038611db3565b6040513d88823e3d90fd5b8880fd5b634e487b7160e01b83526011600452602483fd5b634e487b7160e01b82526011600452602482fd5b80600052600360205260406000209060068201600560ff198254161790556002820160018060a01b038154169260008080806004850197885490828215612021575bf11561102e577feac97bc1917fcedc984e3d0671d4e83b359890323d5d1c2de32b28d17c356ced9160016020920154600052600582526000604081205560018060a01b039054169354604051908152a3565b506108fc611fcf565b6000546001600160a01b0316330361203e57565b63118cdaa760e01b6000523360045260246000fdfea26469706673582212200c183575cf80cafcbb4581c681e789c06788a98d6fb867066b5b168007daa0e264736f6c634300081c0033",
  "linkReferences": {},
  "deployedLinkReferences": {}
}