{
  "_format": "hh-sol-artifact-1",
  "contractName": "SoulboundNFT",
  "sourceName": "contracts/SoulboundNFT.sol",
  "abi": [
    {
      "inputs": [
        {
          "internalType": "address",
          "name": "_userRegistry",
          "type": "address"
        },
        {
          "internalType": "address payable",
          "name": "_adminContract",
          "type": "address"
        }
      ],
      "stateMutability": "nonpayable",
      "type": "constructor"
    },
    {
      "inputs": [
        {
          "internalType": "address",
          "name": "sender",
          "type": "address"
        },
        {
          "internalType": "uint256",
          "name": "tokenId",
          "type": "uint256"
        },
        {
          "internalType": "address",
          "name": "owner",
          "type": "address"
        }
      ],
      "name": "ERC721IncorrectOwner",
      "type": "error"
    },
    {
      "inputs": [
        {
          "internalType": "address",
          "name": "operator",
          "type": "address"
        },
        {
          "internalType": "uint256",
          "name": "tokenId",
          "type": "uint256"
        }
      ],
      "name": "ERC721InsufficientApproval",
      "type": "error"
    },
    {
      "inputs": [
        {
          "internalType": "address",
          "name": "approver",
          "type": "address"
        }
      ],
      "name": "ERC721InvalidApprover",
      "type": "error"
    },
    {
      "inputs": [
        {
          "internalType": "address",
          "name": "operator",
          "type": "address"
        }
      ],
      "name": "ERC721InvalidOperator",
      "type": "error"
    },
    {
      "inputs": [
        {
          "internalType": "address",
          "name": "owner",
          "type": "address"
        }
      ],
      "name": "ERC721InvalidOwner",
      "type": "error"
    },
    {
      "inputs": [
        {
          "internalType": "address",
          "name": "receiver",
          "type": "address"
        }
      ],
      "name": "ERC721InvalidReceiver",
      "type": "error"
    },
    {
      "inputs": [
        {
          "internalType": "address",
          "name": "sender",
          "type": "address"
        }
      ],
      "name": "ERC721InvalidSender",
      "type": "error"
    },
    {
      "inputs": [
        {
          "internalType": "uint256",
          "name": "tokenId",
          "type": "uint256"
        }
      ],
      "name": "ERC721NonexistentToken",
      "type": "error"
    },
    {
      "inputs": [
        {
          "internalType": "address",
          "name": "owner",
          "type": "address"
        }
      ],
      "name": "OwnableInvalidOwner",
      "type": "error"
    },
    {
      "inputs": [
        {
          "internalType": "address",
          "name": "account",
          "type": "address"
        }
      ],
      "name": "OwnableUnauthorizedAccount",
      "type": "error"
    },
    {
      "anonymous": false,
      "inputs": [
        {
          "indexed": true,
          "internalType": "address",
          "name": "owner",
          "type": "address"
        },
        {
          "indexed": true,
          "internalType": "address",
          "name": "approved",
          "type": "address"
        },
        {
          "indexed": true,
          "internalType": "uint256",
          "name": "tokenId",
          "type": "uint256"
        }
      ],
      "name": "Approval",
      "type": "event"
    },
    {
      "anonymous": false,
      "inputs": [
        {
          "indexed": true,
          "internalType": "address",
          "name": "owner",
          "type": "address"
        },
        {
          "indexed": true,
          "internalType": "address",
          "name": "operator",
          "type": "address"
        },
        {
          "indexed": false,
          "internalType": "bool",
          "name": "approved",
          "type": "bool"
        }
      ],
      "name": "ApprovalForAll",
      "type": "event"
    },
    {
      "anonymous": false,
      "inputs": [
        {
          "indexed": true,
          "internalType": "uint256",
          "name": "badgeId",
          "type": "uint256"
        },
        {
          "indexed": true,
          "internalType": "address",
          "name": "recipient",
          "type": "address"
        },
        {
          "indexed": false,
          "internalType": "enum SoulboundNFT.BadgeType",
          "name": "badgeType",
          "type": "uint8"
        },
        {
          "indexed": false,
          "internalType": "uint256",
          "name": "level",
          "type": "uint256"
        }
      ],
      "name": "BadgeAwarded",
      "type": "event"
    },
    {
      "anonymous": false,
      "inputs": [
        {
          "indexed": true,
          "internalType": "uint256",
          "name": "badgeId",
          "type": "uint256"
        },
        {
          "indexed": true,
          "internalType": "address",
          "name": "recipient",
          "type": "address"
        },
        {
          "indexed": false,
          "internalType": "enum SoulboundNFT.BadgeType",
          "name": "badgeType",
          "type": "uint8"
        },
        {
          "indexed": false,
          "internalType": "uint256",
          "name": "newLevel",
          "type": "uint256"
        }
      ],
      "name": "BadgeLevelUp",
      "type": "event"
    },
    {
      "anonymous": false,
      "inputs": [
        {
          "indexed": true,
          "internalType": "uint256",
          "name": "badgeId",
          "type": "uint256"
        },
        {
          "indexed": true,
          "internalType": "address",
          "name": "recipient",
          "type": "address"
        },
        {
          "indexed": false,
          "internalType": "enum SoulboundNFT.BadgeType",
          "name": "badgeType",
          "type": "uint8"
        },
        {
          "indexed": false,
          "internalType": "string",
          "name": "reason",
          "type": "string"
        }
      ],
      "name": "BadgeRevoked",
      "type": "event"
    },
    {
      "anonymous": false,
      "inputs": [
        {
          "indexed": false,
          "internalType": "uint256",
          "name": "_fromTokenId",
          "type": "uint256"
        },
        {
          "indexed": false,
          "internalType": "uint256",
          "name": "_toTokenId",
          "type": "uint256"
        }
      ],
      "name": "BatchMetadataUpdate",
      "type": "event"
    },
    {
      "anonymous": false,
      "inputs": [
        {
          "indexed": false,
          "internalType": "string",
          "name": "config",
          "type": "string"
        },
        {
          "indexed": false,
          "internalType": "uint256",
          "name": "oldValue",
          "type": "uint256"
        },
        {
          "indexed": false,
          "internalType": "uint256",
          "name": "newValue",
          "type": "uint256"
        }
      ],
      "name": "ConfigUpdated",
      "type": "event"
    },
    {
      "anonymous": false,
      "inputs": [
        {
          "indexed": false,
          "internalType": "uint256",
          "name": "_tokenId",
          "type": "uint256"
        }
      ],
      "name": "MetadataUpdate",
      "type": "event"
    },
    {
      "anonymous": false,
      "inputs": [
        {
          "indexed": true,
          "internalType": "address",
          "name": "previousOwner",
          "type": "address"
        },
        {
          "indexed": true,
          "internalType": "address",
          "name": "newOwner",
          "type": "address"
        }
      ],
      "name": "OwnershipTransferred",
      "type": "event"
    },
    {
      "anonymous": false,
      "inputs": [
        {
          "indexed": true,
          "internalType": "address",
          "name": "from",
          "type": "address"
        },
        {
          "indexed": true,
          "internalType": "address",
          "name": "to",
          "type": "address"
        },
        {
          "indexed": true,
          "internalType": "uint256",
          "name": "tokenId",
          "type": "uint256"
        }
      ],
      "name": "Transfer",
      "type": "event"
    },
    {
      "inputs": [],
      "name": "adminContract",
      "outputs": [
        {
          "internalType": "contract AdminContract",
          "name": "",
          "type": "address"
        }
      ],
      "stateMutability": "view",
      "type": "function"
    },
    {
      "inputs": [
        {
          "internalType": "address",
          "name": "to",
          "type": "address"
        },
        {
          "internalType": "uint256",
          "name": "tokenId",
          "type": "uint256"
        }
      ],
      "name": "approve",
      "outputs": [],
      "stateMutability": "nonpayable",
      "type": "function"
    },
    {
      "inputs": [
        {
          "internalType": "address",
          "name": "recipient",
          "type": "address"
        },
        {
          "internalType": "enum SoulboundNFT.BadgeType",
          "name": "badgeType",
          "type": "uint8"
        },
        {
          "internalType": "string",
          "name": "metadata",
          "type": "string"
        },
        {
          "internalType": "uint256",
          "name": "level",
          "type": "uint256"
        }
      ],
      "name": "awardBadge",
      "outputs": [],
      "stateMutability": "nonpayable",
      "type": "function"
    },
    {
      "inputs": [
        {
          "internalType": "enum SoulboundNFT.BadgeType",
          "name": "",
          "type": "uint8"
        }
      ],
      "name": "badgeRequirements",
      "outputs": [
        {
          "internalType": "enum SoulboundNFT.BadgeType",
          "name": "badgeType",
          "type": "uint8"
        },
        {
          "internalType": "uint256",
          "name": "minProperties",
          "type": "uint256"
        },
        {
          "internalType": "uint256",
          "name": "minReviews",
          "type": "uint256"
        },
        {
          "internalType": "uint256",
          "name": "minReputation",
          "type": "uint256"
        },
        {
          "internalType": "uint256",
          "name": "minTransactions",
          "type": "uint256"
        },
        {
          "internalType": "uint256",
          "name": "minDaysActive",
          "type": "uint256"
        }
      ],
      "stateMutability": "view",
      "type": "function"
    },
    {
      "inputs": [
        {
          "internalType": "uint256",
          "name": "",
          "type": "uint256"
        }
      ],
      "name": "badges",
      "outputs": [
        {
          "internalType": "uint256",
          "name": "badgeId",
          "type": "uint256"
        },
        {
          "internalType": "enum SoulboundNFT.BadgeType",
          "name": "badgeType",
          "type": "uint8"
        },
        {
          "internalType": "address",
          "name": "recipient",
          "type": "address"
        },
        {
          "internalType": "uint256",
          "name": "awardedAt",
          "type": "uint256"
        },
        {
          "internalType": "string",
          "name": "metadata",
          "type": "string"
        },
        {
          "internalType": "bool",
          "name": "isActive",
          "type": "bool"
        },
        {
          "internalType": "uint256",
          "name": "level",
          "type": "uint256"
        }
      ],
      "stateMutability": "view",
      "type": "function"
    },
    {
      "inputs": [
        {
          "internalType": "address",
          "name": "owner",
          "type": "address"
        }
      ],
      "name": "balanceOf",
      "outputs": [
        {
          "internalType": "uint256",
          "name": "",
          "type": "uint256"
        }
      ],
      "stateMutability": "view",
      "type": "function"
    },
    {
      "inputs": [
        {
          "internalType": "address",
          "name": "userAddress",
          "type": "address"
        },
        {
          "internalType": "enum SoulboundNFT.BadgeType",
          "name": "badgeType",
          "type": "uint8"
        }
      ],
      "name": "checkBadgeEligibility",
      "outputs": [
        {
          "internalType": "bool",
          "name": "",
          "type": "bool"
        }
      ],
      "stateMutability": "view",
      "type": "function"
    },
    {
      "inputs": [
        {
          "internalType": "uint256",
          "name": "tokenId",
          "type": "uint256"
        }
      ],
      "name": "getApproved",
      "outputs": [
        {
          "internalType": "address",
          "name": "",
          "type": "address"
        }
      ],
      "stateMutability": "view",
      "type": "function"
    },
    {
      "inputs": [
        {
          "internalType": "uint256",
          "name": "badgeId",
          "type": "uint256"
        }
      ],
      "name": "getBadge",
      "outputs": [
        {
          "components": [
            {
              "internalType": "uint256",
              "name": "badgeId",
              "type": "uint256"
            },
            {
              "internalType": "enum SoulboundNFT.BadgeType",
              "name": "badgeType",
              "type": "uint8"
            },
            {
              "internalType": "address",
              "name": "recipient",
              "type": "address"
            },
            {
              "internalType": "uint256",
              "name": "awardedAt",
              "type": "uint256"
            },
            {
              "internalType": "string",
              "name": "metadata",
              "type": "string"
            },
            {
              "internalType": "bool",
              "name": "isActive",
              "type": "bool"
            },
            {
              "internalType": "uint256",
              "name": "level",
              "type": "uint256"
            }
          ],
          "internalType": "struct SoulboundNFT.Badge",
          "name": "",
          "type": "tuple"
        }
      ],
      "stateMutability": "view",
      "type": "function"
    },
    {
      "inputs": [
        {
          "internalType": "enum SoulboundNFT.BadgeType",
          "name": "badgeType",
          "type": "uint8"
        }
      ],
      "name": "getBadgeRequirements",
      "outputs": [
        {
          "components": [
            {
              "internalType": "enum SoulboundNFT.BadgeType",
              "name": "badgeType",
              "type": "uint8"
            },
            {
              "internalType": "uint256",
              "name": "minProperties",
              "type": "uint256"
            },
            {
              "internalType": "uint256",
              "name": "minReviews",
              "type": "uint256"
            },
            {
              "internalType": "uint256",
              "name": "minReputation",
              "type": "uint256"
            },
            {
              "internalType": "uint256",
              "name": "minTransactions",
              "type": "uint256"
            },
            {
              "internalType": "uint256",
              "name": "minDaysActive",
              "type": "uint256"
            }
          ],
          "internalType": "struct SoulboundNFT.BadgeRequirements",
          "name": "",
          "type": "tuple"
        }
      ],
      "stateMutability": "view",
      "type": "function"
    },
    {
      "inputs": [
        {
          "internalType": "address",
          "name": "userAddress",
          "type": "address"
        }
      ],
      "name": "getEligibleBadges",
      "outputs": [
        {
          "internalType": "enum SoulboundNFT.BadgeType[]",
          "name": "",
          "type": "uint8[]"
        }
      ],
      "stateMutability": "view",
      "type": "function"
    },
    {
      "inputs": [],
      "name": "getTotalBadges",
      "outputs": [
        {
          "internalType": "uint256",
          "name": "",
          "type": "uint256"
        }
      ],
      "stateMutability": "view",
      "type": "function"
    },
    {
      "inputs": [
        {
          "internalType": "address",
          "name": "userAddress",
          "type": "address"
        },
        {
          "internalType": "enum SoulboundNFT.BadgeType",
          "name": "badgeType",
          "type": "uint8"
        }
      ],
      "name": "getUserBadgeCount",
      "outputs": [
        {
          "internalType": "uint256",
          "name": "",
          "type": "uint256"
        }
      ],
      "stateMutability": "view",
      "type": "function"
    },
    {
      "inputs": [
        {
          "internalType": "address",
          "name": "userAddress",
          "type": "address"
        },
        {
          "internalType": "enum SoulboundNFT.BadgeType",
          "name": "badgeType",
          "type": "uint8"
        }
      ],
      "name": "getUserBadgeProgress",
      "outputs": [
        {
          "internalType": "uint256",
          "name": "currentProperties",
          "type": "uint256"
        },
        {
          "internalType": "uint256",
          "name": "requiredProperties",
          "type": "uint256"
        },
        {
          "internalType": "uint256",
          "name": "currentReviews",
          "type": "uint256"
        },
        {
          "internalType": "uint256",
          "name": "requiredReviews",
          "type": "uint256"
        },
        {
          "internalType": "uint256",
          "name": "currentReputation",
          "type": "uint256"
        },
        {
          "internalType": "uint256",
          "name": "requiredReputation",
          "type": "uint256"
        },
        {
          "internalType": "uint256",
          "name": "currentTransactions",
          "type": "uint256"
        },
        {
          "internalType": "uint256",
          "name": "requiredTransactions",
          "type": "uint256"
        },
        {
          "internalType": "uint256",
          "name": "currentDaysActive",
          "type": "uint256"
        },
        {
          "internalType": "uint256",
          "name": "requiredDaysActive",
          "type": "uint256"
        },
        {
          "internalType": "bool",
          "name": "isEligible",
          "type": "bool"
        }
      ],
      "stateMutability": "view",
      "type": "function"
    },
    {
      "inputs": [
        {
          "internalType": "address",
          "name": "userAddress",
          "type": "address"
        }
      ],
      "name": "getUserBadges",
      "outputs": [
        {
          "internalType": "uint256[]",
          "name": "",
          "type": "uint256[]"
        }
      ],
      "stateMutability": "view",
      "type": "function"
    },
    {
      "inputs": [
        {
          "internalType": "address",
          "name": "userAddress",
          "type": "address"
        }
      ],
      "name": "getUserTotalBadgeCount",
      "outputs": [
        {
          "internalType": "uint256",
          "name": "",
          "type": "uint256"
        }
      ],
      "stateMutability": "view",
      "type": "function"
    },
    {
      "inputs": [
        {
          "internalType": "address",
          "name": "userAddress",
          "type": "address"
        },
        {
          "internalType": "enum SoulboundNFT.BadgeType",
          "name": "badgeType",
          "type": "uint8"
        }
      ],
      "name": "hasBadge",
      "outputs": [
        {
          "internalType": "bool",
          "name": "",
          "type": "bool"
        }
      ],
      "stateMutability": "view",
      "type": "function"
    },
    {
      "inputs": [
        {
          "internalType": "address",
          "name": "owner",
          "type": "address"
        },
        {
          "internalType": "address",
          "name": "operator",
          "type": "address"
        }
      ],
      "name": "isApprovedForAll",
      "outputs": [
        {
          "internalType": "bool",
          "name": "",
          "type": "bool"
        }
      ],
      "stateMutability": "view",
      "type": "function"
    },
    {
      "inputs": [
        {
          "internalType": "uint256",
          "name": "badgeId",
          "type": "uint256"
        },
        {
          "internalType": "uint256",
          "name": "newLevel",
          "type": "uint256"
        }
      ],
      "name": "levelUpBadge",
      "outputs": [],
      "stateMutability": "nonpayable",
      "type": "function"
    },
    {
      "inputs": [
        {
          "internalType": "enum SoulboundNFT.BadgeType",
          "name": "badgeType",
          "type": "uint8"
        },
        {
          "internalType": "string",
          "name": "metadata",
          "type": "string"
        }
      ],
      "name": "mintBadge",
      "outputs": [],
      "stateMutability": "nonpayable",
      "type": "function"
    },
    {
      "inputs": [],
      "name": "name",
      "outputs": [
        {
          "internalType": "string",
          "name": "",
          "type": "string"
        }
      ],
      "stateMutability": "view",
      "type": "function"
    },
    {
      "inputs": [],
      "name": "owner",
      "outputs": [
        {
          "internalType": "address",
          "name": "",
          "type": "address"
        }
      ],
      "stateMutability": "view",
      "type": "function"
    },
    {
      "inputs": [
        {
          "internalType": "uint256",
          "name": "tokenId",
          "type": "uint256"
        }
      ],
      "name": "ownerOf",
      "outputs": [
        {
          "internalType": "address",
          "name": "",
          "type": "address"
        }
      ],
      "stateMutability": "view",
      "type": "function"
    },
    {
      "inputs": [],
      "name": "renounceOwnership",
      "outputs": [],
      "stateMutability": "nonpayable",
      "type": "function"
    },
    {
      "inputs": [
        {
          "internalType": "uint256",
          "name": "badgeId",
          "type": "uint256"
        },
        {
          "internalType": "string",
          "name": "reason",
          "type": "string"
        }
      ],
      "name": "revokeBadge",
      "outputs": [],
      "stateMutability": "nonpayable",
      "type": "function"
    },
    {
      "inputs": [
        {
          "internalType": "address",
          "name": "from",
          "type": "address"
        },
        {
          "internalType": "address",
          "name": "to",
          "type": "address"
        },
        {
          "internalType": "uint256",
          "name": "tokenId",
          "type": "uint256"
        }
      ],
      "name": "safeTransferFrom",
      "outputs": [],
      "stateMutability": "nonpayable",
      "type": "function"
    },
    {
      "inputs": [
        {
          "internalType": "address",
          "name": "from",
          "type": "address"
        },
        {
          "internalType": "address",
          "name": "to",
          "type": "address"
        },
        {
          "internalType": "uint256",
          "name": "tokenId",
          "type": "uint256"
        },
        {
          "internalType": "bytes",
          "name": "data",
          "type": "bytes"
        }
      ],
      "name": "safeTransferFrom",
      "outputs": [],
      "stateMutability": "nonpayable",
      "type": "function"
    },
    {
      "inputs": [
        {
          "internalType": "address",
          "name": "operator",
          "type": "address"
        },
        {
          "internalType": "bool",
          "name": "approved",
          "type": "bool"
        }
      ],
      "name": "setApprovalForAll",
      "outputs": [],
      "stateMutability": "nonpayable",
      "type": "function"
    },
    {
      "inputs": [
        {
          "internalType": "bytes4",
          "name": "interfaceId",
          "type": "bytes4"
        }
      ],
      "name": "supportsInterface",
      "outputs": [
        {
          "internalType": "bool",
          "name": "",
          "type": "bool"
        }
      ],
      "stateMutability": "view",
      "type": "function"
    },
    {
      "inputs": [],
      "name": "symbol",
      "outputs": [
        {
          "internalType": "string",
          "name": "",
          "type": "string"
        }
      ],
      "stateMutability": "view",
      "type": "function"
    },
    {
      "inputs": [
        {
          "internalType": "uint256",
          "name": "tokenId",
          "type": "uint256"
        }
      ],
      "name": "tokenURI",
      "outputs": [
        {
          "internalType": "string",
          "name": "",
          "type": "string"
        }
      ],
      "stateMutability": "view",
      "type": "function"
    },
    {
      "inputs": [
        {
          "internalType": "address",
          "name": "from",
          "type": "address"
        },
        {
          "internalType": "address",
          "name": "to",
          "type": "address"
        },
        {
          "internalType": "uint256",
          "name": "tokenId",
          "type": "uint256"
        }
      ],
      "name": "transferFrom",
      "outputs": [],
      "stateMutability": "nonpayable",
      "type": "function"
    },
    {
      "inputs": [
        {
          "internalType": "address",
          "name": "newOwner",
          "type": "address"
        }
      ],
      "name": "transferOwnership",
      "outputs": [],
      "stateMutability": "nonpayable",
      "type": "function"
    },
    {
      "inputs": [
        {
          "internalType": "enum SoulboundNFT.BadgeType",
          "name": "badgeType",
          "type": "uint8"
        },
        {
          "internalType": "uint256",
          "name": "minDaysActive",
          "type": "uint256"
        }
      ],
      "name": "updateBadgeMinDaysActive",
      "outputs": [],
      "stateMutability": "nonpayable",
      "type": "function"
    },
    {
      "inputs": [
        {
          "internalType": "enum SoulboundNFT.BadgeType",
          "name": "badgeType",
          "type": "uint8"
        },
        {
          "internalType": "uint256",
          "name": "minProperties",
          "type": "uint256"
        }
      ],
      "name": "updateBadgeMinProperties",
      "outputs": [],
      "stateMutability": "nonpayable",
      "type": "function"
    },
    {
      "inputs": [
        {
          "internalType": "enum SoulboundNFT.BadgeType",
          "name": "badgeType",
          "type": "uint8"
        },
        {
          "internalType": "uint256",
          "name": "minReputation",
          "type": "uint256"
        }
      ],
      "name": "updateBadgeMinReputation",
      "outputs": [],
      "stateMutability": "nonpayable",
      "type": "function"
    },
    {
      "inputs": [
        {
          "internalType": "enum SoulboundNFT.BadgeType",
          "name": "badgeType",
          "type": "uint8"
        },
        {
          "internalType": "uint256",
          "name": "minReviews",
          "type": "uint256"
        }
      ],
      "name": "updateBadgeMinReviews",
      "outputs": [],
      "stateMutability": "nonpayable",
      "type": "function"
    },
    {
      "inputs": [
        {
          "internalType": "enum SoulboundNFT.BadgeType",
          "name": "badgeType",
          "type": "uint8"
        },
        {
          "internalType": "uint256",
          "name": "minTransactions",
          "type": "uint256"
        }
      ],
      "name": "updateBadgeMinTransactions",
      "outputs": [],
      "stateMutability": "nonpayable",
      "type": "function"
    },
    {
      "inputs": [
        {
          "internalType": "enum SoulboundNFT.BadgeType",
          "name": "badgeType",
          "type": "uint8"
        },
        {
          "internalType": "uint256",
          "name": "minProperties",
          "type": "uint256"
        },
        {
          "internalType": "uint256",
          "name": "minReviews",
          "type": "uint256"
        },
        {
          "internalType": "uint256",
          "name": "minReputation",
          "type": "uint256"
        },
        {
          "internalType": "uint256",
          "name": "minTransactions",
          "type": "uint256"
        },
        {
          "internalType": "uint256",
          "name": "minDaysActive",
          "type": "uint256"
        }
      ],
      "name": "updateBadgeRequirements",
      "outputs": [],
      "stateMutability": "nonpayable",
      "type": "function"
    },
    {
      "inputs": [
        {
          "internalType": "address",
          "name": "",
          "type": "address"
        },
        {
          "internalType": "enum SoulboundNFT.BadgeType",
          "name": "",
          "type": "uint8"
        }
      ],
      "name": "userBadgeCount",
      "outputs": [
        {
          "internalType": "uint256",
          "name": "",
          "type": "uint256"
        }
      ],
      "stateMutability": "view",
      "type": "function"
    },
    {
      "inputs": [
        {
          "internalType": "address",
          "name": "",
          "type": "address"
        },
        {
          "internalType": "uint256",
          "name": "",
          "type": "uint256"
        }
      ],
      "name": "userBadges",
      "outputs": [
        {
          "internalType": "uint256",
          "name": "",
          "type": "uint256"
        }
      ],
      "stateMutability": "view",
      "type": "function"
    },
    {
      "inputs": [],
      "name": "userRegistry",
      "outputs": [
        {
          "internalType": "contract UserRegistry",
          "name": "",
          "type": "address"
        }
      ],
      "stateMutability": "view",
      "type": "function"
    }
  ],
  "bytecode": "0x60806040523461080c57613ef26040813803918261001c81610830565b93849283398101031261080c5780516001600160a01b038116919082900361080c57602001516001600160a01b038116919082900361080c5761005f6040610830565b91601b83527f50726f707479436861696e20536f756c626f756e64204261646765000000000060208401526100946040610830565b60038152622829a160e91b602082015283519092906001600160401b03811161071757600054600181811c91168015610802575b60208210146106f757601f811161079e575b50602094601f82116001146107385794819293949560009261072d575b50508160011b916000199060031b1c1916176000555b82516001600160401b03811161071757600154600181811c9116801561070d575b60208210146106f757601f8111610692575b506020601f821160011461062b5781929394600092610620575b50508160011b916000199060031b1c1916176001555b331561060a5760078054336001600160a01b0319821681179092556001600160a01b03167f8be0079c531659141344cd1fd0a4f28419497f9722a3daafe3b4186f6b6457e0600080a360018060a01b0319600d541617600d5560018060a01b0319600e541617600e556101e1610811565b600081526020810190600582526040810191600083526060820160648152608083016003815260a0840191601e835260406000808052600c6020522094519560088710156105f45760059460009760ff801989541691161787555160018701555160028601555160038501555160048401555191015561025f610811565b9060018252602082019181835260408101601481526060820160c88152608083019084825260a0840192603c845260018652600c6020526040862094519660088810156105e0578697600596975060ff80198954169116178755516001870155516002860155516003850155516004840155519101556102dd610811565b90600282526020820191600a835260408101600a8152606082016101f481526080830190600a825260a0840192605a845260028652600c6020526040862094519660088810156105e0578697600596975060ff801989541691161787555160018701555160028601555160038501555160048401555191015561035e610811565b90600382526020820191600183526040810182815260608201838152608083019084825260a084019285845260038652600c6020526040862094519660088810156105e0578697600596975060ff80198954169116178755516001870155516002860155516003850155516004840155519101556103da610811565b90600482526020820191818352604081018281526060820183815260808301906001825260a084019285845260048652600c6020526040862094519660088810156105e0578697600596975060ff8019895416911617875551600187015551600286015551600385015551600484015551910155610456610811565b9060058252602082019181835260408101600581526060820160328152608083019084825260a0840192600f845260058652600c6020526040862094519660088810156105e0578697600596975060ff80198954169116178755516001870155516002860155516003850155516004840155519101556104d4610811565b906006825260208201918183526040810182815260608201838152608083019084825260a084019285845260068652600c6020526040862094519660088810156105e0578697600596975060ff801989541691161787555160018701555160028601555160038501555160048401555191015561054f610811565b60078152602081018281526040820183815260608301848152608084019185835260a085019386855260078752600c60205260408720955160088110156105cc57600596975060ff801989541691161787555160018701555160028601555160038501555160048401555191015560405161369c90816108568239f35b634e487b7160e01b88526021600452602488fd5b634e487b7160e01b87526021600452602487fd5b634e487b7160e01b600052602160045260246000fd5b631e4fbdf760e01b600052600060045260246000fd5b01519050388061015a565b601f198216906001600052806000209160005b81811061067a57509583600195969710610661575b505050811b01600155610170565b015160001960f88460031b161c19169055388080610653565b9192602060018192868b01518155019401920161063e565b60016000527fb10e2d527612073b26eecdfd717e6a320cf44b4afac2b0732d9fcbe2b7fa0cf6601f830160051c810191602084106106ed575b601f0160051c01905b8181106106e15750610140565b600081556001016106d4565b90915081906106cb565b634e487b7160e01b600052602260045260246000fd5b90607f169061012e565b634e487b7160e01b600052604160045260246000fd5b0151905038806100f7565b601f1982169560008052806000209160005b8881106107865750836001959697981061076d575b505050811b0160005561010d565b015160001960f88460031b161c1916905538808061075f565b9192602060018192868501518155019401920161074a565b600080527f290decd9548b62a8d60345a988386fc84ba6bc95484008f6362f93160ef3e563601f830160051c810191602084106107f8575b601f0160051c01905b8181106107ec57506100da565b600081556001016107df565b90915081906107d6565b90607f16906100c8565b600080fd5b6040519060c082016001600160401b0381118382101761071757604052565b6040519190601f01601f191682016001600160401b038111838210176107175760405256fe608080604052600436101561001357600080fd5b60003560e01c90816301ffc9a7146124b85750806306fdde0314612413578063081812fc146123d5578063095ea7b3146122e65780631274664c146122745780631f72885714611c3c57806323b872dd14611c2557806337c245fe14611b6b5780633af0c68814611b3457806342842e0e14611b045780634431c48814611a8657806347ea818414611a68578063554f06ff1461196e578063578f1f011461193e5780635c7460d6146119155780636026efab146112da5780636352211e146112aa57806370a0823114611254578063715018a6146111f75780638b972b19146111bd5780638d838622146110745780638da5cb5b1461104b578063936d935e14610f5457806393a645e414610ee457806395d89b4114610e1757806398e36d8b14610d7c578063a22cb46514610cd2578063aeff803714610bd8578063b4af641414610b88578063b88d4fde14610b1b578063c05c5e9414610af2578063c0900284146109f8578063c87b56dd146109c1578063c994a3ed14610840578063d8be0f8514610756578063df91cc23146106fd578063e68677f71461055b578063e985e9c514610500578063ec04ab44146103c5578063ef0d93cc1461029f578063f2fde38b146102155763f8dd6ec0146101ed57600080fd5b3461021057602061020661020036612706565b90613028565b6040519015158152f35b600080fd5b346102105760203660031901126102105761022e612585565b6102366133bf565b6001600160a01b0316801561028957600780546001600160a01b0319811683179091556001600160a01b03167f8be0079c531659141344cd1fd0a4f28419497f9722a3daafe3b4186f6b6457e0600080a3005b631e4fbdf760e01b600052600060045260246000fd5b34610210576102ad36612735565b600e54604051630935e01b60e21b815233600482015290602090829060249082906001600160a01b03165afa80156103b95760009061037e575b6102f1915061286d565b6008821015610368578160a09161031a60076000805160206136478339815191529511156128c4565b8060046103328161032a866125b1565b0154946125b1565b01556040519160608352600f60608401526e6d696e5472616e73616374696f6e7360881b608084015260208301526040820152a1005b634e487b7160e01b600052602160045260246000fd5b506020813d6020116103b1575b816103986020938361263b565b81010312610210576103ac6102f191612860565b6102e7565b3d915061038b565b6040513d6000823e3d90fd5b346102105760c036600319011261021057600435600881101561021057600e54604051630935e01b60e21b815233600482015290602090829060249082906001600160a01b03165afa9081156103b9576000916104ae575b60008051602061364783398151915260a0846104388561286d565b61044560078211156128c4565b61044e816125b1565b6024356001820155604435600282015560643560038201556084356004820155600560a435910155604051906060825260116060830152706261646765526571756972656d656e747360781b6080830152602082015260016040820152a1005b90506020813d6020116104f8575b816104c96020938361263b565b8101031261021057600080516020613647833981519152916104386104ef60a093612860565b9250509161041d565b3d91506104bc565b3461021057604036600319011261021057610519612585565b61052161259b565b9060018060a01b0316600052600560205260406000209060018060a01b0316600052602052602060ff604060002054166040519015158152f35b34610210576040366003190112610210576004356024356001600160401b0381116102105761058e9036906004016126ae565b600e54604051630935e01b60e21b815233600482015291929190602090829060249082906001600160a01b03165afa80156103b9576000906106c2575b6105d5915061286d565b801515806106b6575b6105e790612e0d565b80600052600960205260ff6004604060002001541615610679578060005260096020527ff0f70489dc5cb2ca296cf379383e19befbf935b0276831829c86bd3c36471427610674600160406000206004810160ff198154169055015460405191816106568460ff8195166125e2565b6040602084015260018060a01b039060081c16956040830190612560565b0390a3005b60405162461bcd60e51b815260206004820152601560248201527410985919d948185b1c9958591e481c995d9bdad959605a1b6044820152606490fd5b506008548111156105de565b506020813d6020116106f5575b816106dc6020938361263b565b81010312610210576106f06105d591612860565b6105cb565b3d91506106cf565b3461021057604036600319011261021057610716612585565b6001600160a01b03166000908152600a60205260409020805460243591908210156102105760209161074791612832565b90549060031b1c604051908152f35b34610210576020366003190112610210576004356008811015610210576107b860c091600060a060405161078981612620565b82815282602082015282604082015282606082015282608082015201526107b360078211156128c4565b6125b1565b604051906107c582612620565b6107d360ff82541683612c58565b600181015490602083019182526002810154604084019081526003820154906060850191825260056004840154936080870194855201549360a086019485526108206040518097516125e2565b5160208601525160408501525160608401525160808301525160a0820152f35b3461021057604036600319011261021057600435602435906024602060018060a01b03600e541660405192838092630935e01b60e21b82523360048301525afa80156103b957600090610986575b610898915061286d565b8015158061097a575b6108aa90612e0d565b60018210158061096f575b6108be90612905565b80600052600960205260ff6004604060002001541615610937578060005260096020527fab0f70373f5ffb608e5851b919696724896f9e864fce9ae50dbed8d8df4004b6604060018160002085600582015501548151946109228660ff84166125e2565b602086015260081c6001600160a01b031693a3005b60405162461bcd60e51b815260206004820152601060248201526f4261646765206e6f742061637469766560801b6044820152606490fd5b5060058211156108b5565b506008548111156108a1565b506020813d6020116109b9575b816109a06020938361263b565b81010312610210576109b461089891612860565b61088e565b3d9150610993565b34610210576020366003190112610210576109f46109e0600435613613565b604051918291602083526020830190612560565b0390f35b3461021057610a0636612735565b600e54604051630935e01b60e21b815233600482015290602090829060249082906001600160a01b03165afa80156103b957600090610ab7575b610a4a915061286d565b6008821015610368578160a091610a7360076000805160206136478339815191529511156128c4565b806003610a838161032a866125b1565b01556040519160608352600d60608401526c36b4b72932b83aba30ba34b7b760991b608084015260208301526040820152a1005b506020813d602011610aea575b81610ad16020938361263b565b8101031261021057610ae5610a4a91612860565b610a40565b3d9150610ac4565b3461021057600036600319011261021057600e546040516001600160a01b039091168152602090f35b3461021057608036600319011261021057610b34612585565b610b3c61259b565b90604435606435926001600160401b038411610210573660238501121561021057610b74610b86943690602481600401359101612677565b92610b80838383612993565b3361352c565b005b3461021057610b9636612706565b9060088210156103685781610bcf91610bb4600760209511156128c4565b6001600160a01b03166000908152600b8452604090206125ca565b54604051908152f35b3461021057610be636612735565b600e54604051630935e01b60e21b815233600482015290602090829060249082906001600160a01b03165afa80156103b957600090610c97575b610c2a915061286d565b6008821015610368578160a091610c5360076000805160206136478339815191529511156128c4565b806001610c638161032a866125b1565b01556040519160608352600d60608401526c6d696e50726f7065727469657360981b608084015260208301526040820152a1005b506020813d602011610cca575b81610cb16020938361263b565b8101031261021057610cc5610c2a91612860565b610c20565b3d9150610ca4565b3461021057604036600319011261021057610ceb612585565b6024359081151590818303610210576001600160a01b0316918215610d6757610d399033600052600560205260406000208460005260205260406000209060ff801983541691151516179055565b6040519081527f17307eab39ab6107e8899845ad3d59bd9653f200f220920489ca2b5937696c3160203392a3005b82630b61174360e31b60005260045260246000fd5b34610210576020366003190112610210576004356000526009602052604060002080546001820154916002810154610e06610db96003840161278e565b600560ff600486015416940154926040519687968752610ddf6020880160ff83166125e2565b60081c6001600160a01b03166040870152606086015260e060808601819052850190612560565b91151560a084015260c08301520390f35b34610210576000366003190112610210576040516000600154610e3981612754565b8084529060018116908115610ec05750600114610e61575b6109f4836109e08185038261263b565b600160009081527fb10e2d527612073b26eecdfd717e6a320cf44b4afac2b0732d9fcbe2b7fa0cf6939250905b808210610ea6575090915081016020016109e0610e51565b919260018160209254838588010152019101909291610e8e565b60ff191660208086019190915291151560051b840190910191506109e09050610e51565b3461021057602036600319011261021057610f05610f00612585565b612e86565b60405180916020820160208352815180915260206040840192019060005b818110610f31575050500390f35b9193509160208082610f4660019488516125e2565b019401910191849392610f23565b3461021057610f6236612735565b600e54604051630935e01b60e21b815233600482015290602090829060249082906001600160a01b03165afa80156103b957600090611010575b610fa6915061286d565b6008821015610368578160a091610fcf60076000805160206136478339815191529511156128c4565b806002610fdf8161032a866125b1565b01556040519160608352600a6060840152696d696e5265766965777360b01b608084015260208301526040820152a1005b506020813d602011611043575b8161102a6020938361263b565b810103126102105761103e610fa691612860565b610f9c565b3d915061101d565b34610210576000366003190112610210576007546040516001600160a01b039091168152602090f35b3461021057602036600319011261021057600435600060c0604051611098816125ef565b828152826020820152826040820152826060820152606060808201528260a08201520152801515806111b1575b6110ce90612e0d565b600052600960205260406000206040516110e7816125ef565b81548152600182015491602082019261110360ff821685612c58565b60081c6001600160a01b03166040830190815260028201546060840190815261119e906111326003850161278e565b9060808601918252600560ff6004870154169560a08801961515875201549360c0870194855261117660405198899860208a525160208a01525160408901906125e2565b516001600160a01b031660608701525160808601525160e060a0860152610100850190612560565b9151151560c08401525160e08301520390f35b506008548111156110c5565b34610210576020366003190112610210576001600160a01b036111de612585565b16600052600a6020526020604060002054604051908152f35b34610210576000366003190112610210576112106133bf565b600780546001600160a01b031981169091556000906001600160a01b03167f8be0079c531659141344cd1fd0a4f28419497f9722a3daafe3b4186f6b6457e08280a3005b34610210576020366003190112610210576001600160a01b03611275612585565b1680156112945760005260036020526020604060002054604051908152f35b6322718ad960e21b600052600060045260246000fd5b346102105760203660031901126102105760206112c86004356132ba565b6040516001600160a01b039091168152f35b34610210576040366003190112610210576004356008811015610210576024356001600160401b038111610210576113169036906004016126ae565b600d54604051639ee20b1560e01b815233600482015291929190602090829060249082906001600160a01b03165afa9081156103b9576000916118db575b50156118965760009061136a60078211156128c4565b61137683511515612947565b6113808133613028565b1561185157338252600b60205261139a81604084206125ca565b5461180c576113aa600854612e77565b806008556040516113ba816125ef565b818152602081016113cb8482612c58565b604082019033825260608301428152608084019088825260a08501926001845260c086019460018652878a52600960205260408a20965187556001870191519060088210156117f85760ff835491610100600160a81b03905160081b169216906affffffffffffffffffffff60a81b16171790555160028501556003840190518051906001600160401b0382116117e4576114668354612754565b601f811161179f575b50602090601f83116001146117345791806114be949260059796948c92611729575b50508160011b916000199060031b1c19161790555b511515600485019060ff801983541691151516179055565b51910155338352600a60205260408320805490600160401b821015611715576114f1828492600161150a95018155612832565b90919082549060031b91821b91600019901b1916179055565b338352600b60205261151f82604085206125ca565b6115298154612e77565b9055602060405161153a828261263b565b8481523315611701576001600160a01b0361155584336132f1565b166116ed57611566908333336133e8565b818452600681526040842085516001600160401b0381116116d95761158b8254612754565b601f8111611696575b5082601f82116001146116315781908798600196979892611626575b5050600019600383901b1c191690841b1790555b7ff8e1a15aba9398e019f0b49df1a4fde98ee17ae345cb5f6b5e2c27f5033e8ce781604051858152a16115fa60405180956125e2565b8301527fd4c2cb20622164784cd6138985cc4f044686b7c353cb1b0b1f848cb9a2e526a060403393a380f35b0151905088806115b0565b82875283872097601f198316885b81811061167f575091600196979899918488959410611666575b505050811b0190556115c4565b015160001960f88460031b161c19169055888080611659565b838301518b556001909a019992860192860161163f565b828752838720601f830160051c8101918584106116cf575b601f0160051c01905b8181106116c45750611594565b8781556001016116b7565b90915081906116ae565b634e487b7160e01b86526041600452602486fd5b6339e3563760e11b85526004859052602485fd5b633250574960e11b85526004859052602485fd5b634e487b7160e01b85526041600452602485fd5b015190508c80611491565b838a52818a209190601f1984168b5b818110611787575092600192859260059998966114be98961061176e575b505050811b0190556114a6565b015160001960f88460031b161c191690558c8080611761565b92936020600181928786015181550195019301611743565b838a5260208a20601f840160051c810191602085106117da575b601f0160051c01905b8181106117cf575061146f565b8a81556001016117c2565b90915081906117b9565b634e487b7160e01b89526041600452602489fd5b634e487b7160e01b8b52602160045260248bfd5b60405162461bcd60e51b815260206004820152601c60248201527f416c7265616479206861766520746869732062616467652074797065000000006044820152606490fd5b60405162461bcd60e51b815260206004820152601b60248201527f4e6f7420656c696769626c6520666f72207468697320626164676500000000006044820152606490fd5b60405162461bcd60e51b815260206004820152601f60248201527f55736572206e6f742072656769737465726564206f7220696e616374697665006044820152606490fd5b90506020813d60201161190d575b816118f66020938361263b565b810103126102105761190790612860565b83611354565b3d91506118e9565b3461021057600036600319011261021057600d546040516001600160a01b039091168152602090f35b34610210576020610bcf61195136612706565b6001600160a01b039091166000908152600b8452604090206125ca565b346102105761197c36612735565b600e54604051630935e01b60e21b815233600482015290602090829060249082906001600160a01b03165afa80156103b957600090611a2d575b6119c0915061286d565b6008821015610368578160a0916119e960076000805160206136478339815191529511156128c4565b8060056119f98161032a866125b1565b01556040519160608352600d60608401526c6d696e4461797341637469766560981b608084015260208301526040820152a1005b506020813d602011611a60575b81611a476020938361263b565b8101031261021057611a5b6119c091612860565b6119b6565b3d9150611a3a565b34610210576000366003190112610210576020600854604051908152f35b3461021057611a9436612706565b9060088210156103685781611ab891611ab360076101609511156128c4565b612c87565b986040989198979297969396959495519a8b5260208b015260408a01526060890152608088015260a087015260c086015260e08501526101008401526101208301521515610140820152f35b3461021057610b86611b15366126cc565b9060405192611b2560208561263b565b60008452610b80838383612993565b3461021057611b4236612706565b9060088210156103685781611b6091610bb4600760209511156128c4565b541515604051908152f35b34610210576020366003190112610210576001600160a01b03611b8c612585565b16600052600a60205260406000206040518060208354918281520190819360005260206000209060005b818110611c0f5750505081611bcc91038261263b565b6040519182916020830190602084525180915260408301919060005b818110611bf6575050500390f35b8251845285945060209384019390920191600101611be8565b8254845260209093019260019283019201611bb6565b3461021057610b86611c36366126cc565b91612993565b3461021057608036600319011261021057611c55612585565b602435906008821015610210576044356001600160401b03811161021057611c819036906004016126ae565b600e54604051630935e01b60e21b81523360048201526064359491602090829060249082906001600160a01b03165afa80156103b957600090612239575b611cc9915061286d565b600093611cd960078311156128c4565b600d54604051639ee20b1560e01b81526001600160a01b0386811660048301819052969260209183916024918391165afa90811561222e5787916121f0575b501561219f57600182101580612194575b611d3290612905565b611d3e84511515612947565b611d49600854612e77565b9384600855604051611d5a816125ef565b8581528760208201611d6c8782612c58565b604083019089825260608401428152608085019186835260a086019360018552604060c08801968b88528d8152600960205220965187556001870191519060088210156121805760ff835491610100600160a81b03905160081b169216906affffffffffffffffffffff60a81b16171790555160028501556003840190518051906001600160401b03821161216c57611e058354612754565b8d601f8211612123575b9050506020908d601f84116001146120b95792611e5f949281926005989795926120ae5750508160011b916000199060031b1c1916179055511515600485019060ff801983541691151516179055565b51910155858752600a60205260408720805490600160401b8210156117e4576114f18288926001611e9295018155612832565b858752600b602052611ea784604089206125ca565b611eb18154612e77565b9055604051602092611ec3848361263b565b888252871561209a576001600160a01b03611ede88836132f1565b16612086579086611eef92336133e8565b8487526006825260408720908051906001600160401b0382116117e457611f168354612754565b601f8111612043575b508390601f8311600114611fba57918060409694927fd4c2cb20622164784cd6138985cc4f044686b7c353cb1b0b1f848cb9a2e526a09896948c92611faf575b50508160011b916000199060031b1c19161790555b7ff8e1a15aba9398e019f0b49df1a4fde98ee17ae345cb5f6b5e2c27f5033e8ce7818551888152a1611fa8845180946125e2565b820152a380f35b015190508b80611f5f565b838a52848a209190601f1984168b5b81811061202c57509260019285927fd4c2cb20622164784cd6138985cc4f044686b7c353cb1b0b1f848cb9a2e526a09a989660409a989610612013575b505050811b019055611f74565b015160001960f88460031b161c191690558b8080612006565b929387600181928786015181550195019301611fc9565b838a52848a20601f840160051c81019186851061207c575b601f0160051c01905b8181106120715750611f1f565b8a8155600101612064565b909150819061205b565b6339e3563760e11b89526004899052602489fd5b633250574960e11b89526004899052602489fd5b015190508f80611491565b9190601f198416858452828420935b81811061210b57509260019285926005999896611e5f9896106120f257505050811b0190556114a6565b015160001960f88460031b161c191690558f8080611761565b929360206001819287860151815501950193016120c8565b80856020925220601f840160051c81019160208510612162575b601f0160051c01908e905b8281106121555750611e0f565b6001918155018e90612148565b909150819061213d565b634e487b7160e01b8d52604160045260248dfd5b634e487b7160e01b8f52602160045260248ffd5b506005821115611d29565b60405162461bcd60e51b8152602060048201526024808201527f526563697069656e74206e6f742072656769737465726564206f7220696e61636044820152637469766560e01b6064820152608490fd5b90506020813d602011612226575b8161220b6020938361263b565b810103126122225761221c90612860565b87611d18565b8680fd5b3d91506121fe565b6040513d89823e3d90fd5b506020813d60201161226c575b816122536020938361263b565b8101031261021057612267611cc991612860565b611cbf565b3d9150612246565b346102105760203660031901126102105760043560088110156102105761229c60c0916125b1565b60ff81541690600181015490600281015460038201549060056004840154930154936122cb60405180976125e2565b602086015260408501526060840152608083015260a0820152f35b34610210576040366003190112610210576122ff612585565b60243561230b816132ba565b331515806123c2575b80612394575b61237f5781906001600160a01b0384811691167f8c5be1e5ebec7d5bd14f71427d1e84f3dd0314c0f7b2291e5b200ac8c7c3b925600080a4600090815260046020526040902080546001600160a01b0319166001600160a01b03909216919091179055005b63a9fbf51f60e01b6000523360045260246000fd5b506001600160a01b038116600090815260056020908152604080832033845290915290205460ff161561231a565b506001600160a01b038116331415612314565b34610210576020366003190112610210576004356123f2816132ba565b506000526004602052602060018060a01b0360406000205416604051908152f35b34610210576000366003190112610210576040516000805461243481612754565b8084529060018116908115610ec0575060011461245b576109f4836109e08185038261263b565b60008080527f290decd9548b62a8d60345a988386fc84ba6bc95484008f6362f93160ef3e563939250905b80821061249e575090915081016020016109e0610e51565b919260018160209254838588010152019101909291612486565b34610210576020366003190112610210576004359063ffffffff60e01b821680920361021057602091632483248360e11b81149081156124fa575b5015158152f35b6380ac58cd60e01b81149150811561252c575b811561251b575b50836124f3565b6301ffc9a760e01b14905083612514565b635b5e139f60e01b8114915061250d565b60005b8381106125505750506000910152565b8181015183820152602001612540565b906020916125798151809281855285808601910161253d565b601f01601f1916010190565b600435906001600160a01b038216820361021057565b602435906001600160a01b038216820361021057565b600881101561036857600052600c602052604060002090565b90600881101561036857600052602052604060002090565b9060088210156103685752565b60e081019081106001600160401b0382111761260a57604052565b634e487b7160e01b600052604160045260246000fd5b60c081019081106001600160401b0382111761260a57604052565b90601f801991011681019081106001600160401b0382111761260a57604052565b6001600160401b03811161260a57601f01601f191660200190565b9291926126838261265c565b91612691604051938461263b565b829481845281830111610210578281602093846000960137010152565b9080601f83011215610210578160206126c993359101612677565b90565b6060906003190112610210576004356001600160a01b038116810361021057906024356001600160a01b0381168103610210579060443590565b6040906003190112610210576004356001600160a01b0381168103610210579060243560088110156102105790565b6040906003190112610210576004356008811015610210579060243590565b90600182811c92168015612784575b602083101461276e57565b634e487b7160e01b600052602260045260246000fd5b91607f1691612763565b90604051918260008254926127a284612754565b808452936001811690811561281057506001146127c9575b506127c79250038361263b565b565b90506000929192526020600020906000915b8183106127f45750509060206127c792820101386127ba565b60209193508060019154838589010152019101909184926127db565b9050602092506127c794915060ff191682840152151560051b820101386127ba565b805482101561284a5760005260206000200190600090565b634e487b7160e01b600052603260045260246000fd5b5190811515820361021057565b1561287457565b60405162461bcd60e51b815260206004820152602260248201527f4f6e6c792061646d696e2063616e20706572666f726d2074686973206163746960448201526137b760f11b6064820152608490fd5b156128cb57565b60405162461bcd60e51b8152602060048201526012602482015271496e76616c6964206261646765207479706560701b6044820152606490fd5b1561290c57565b60405162461bcd60e51b8152602060048201526013602482015272125b9d985b1a590818985919d9481b195d995b606a1b6044820152606490fd5b1561294e57565b60405162461bcd60e51b815260206004820152601860248201527f4d657461646174612063616e6e6f7420626520656d70747900000000000000006044820152606490fd5b6001600160a01b0390911691908215612b29576000828152600260205260408120546001600160a01b0316938391859033151580612a91575b507fddf252ad1be2c89b69c2b068fc378daa952ba7f163c4a11628f55a4df523b3ef9082612a5c575b83815260036020526040812060018154019055848152600260205260408120846bffffffffffffffffffffffff60a01b82541617905580a46001600160a01b0316808303612a4257505050565b6364283d7b60e01b60005260045260245260445260646000fd5b600085815260046020526040902080546001600160a01b031916905582815260036020526040812080546000190190556129f5565b915091925080612ada575b15612aab5790848492386129cc565b839085612ac457602491637e27328960e01b8252600452fd5b60449163177e802f60e01b825233600452602452fd5b503385148015612b08575b80612a9c5750838152600460205260408120546001600160a01b03163314612a9c565b5084815260056020908152604080832033845290915281205460ff16612ae5565b633250574960e11b600052600060045260246000fd5b81601f82011215610210578051612b558161265c565b92612b63604051948561263b565b81845260208284010111610210576126c9916020808501910161253d565b602081830312610210578051906001600160401b038211610210570161010081830312610210576040519161010083018381106001600160401b0382111761260a5760405281516001600160401b0381116102105781612be2918401612b3f565b8352602082015160208401526040820151906001600160401b03821161021057612c0d918301612b3f565b604083015260608101519060048210156102105760e0916060840152612c3560808201612860565b608084015260a081015160a084015260c081015160c0840152015160e082015290565b60088210156103685752565b91908203918211612c7157565b634e487b7160e01b600052601160045260246000fd5b600d54604051639ee20b1560e01b81526001600160a01b0380841660048301819052949593949216929190602081602481875afa9081156103b957600091612dd3575b5015612db657600090602460405180958193636f77926b60e01b835260048301525afa9182156103b957600092612d93575b50612d06846125b1565b9360405190612d1482612620565b612d2260ff87541683612c58565b60018601549586602084015260028101549485604085015260038201549384606082015260a060056004850154948560808501520154910190815260e0820151989760c083015197966126c960a0850151979662015180612d8a602060009998015142612c64565b04945193613028565b612daf91923d8091833e612da7818361263b565b810190612b81565b9038612cfc565b506000935083925082915081908190819081908190819081908190565b90506020813d602011612e05575b81612dee6020938361263b565b8101031261021057612dff90612860565b38612cca565b3d9150612de1565b15612e1457565b60405162461bcd60e51b815260206004820152601060248201526f125b9d985b1a590818985919d948125160821b6044820152606490fd5b6001600160401b03811161260a5760051b60200190565b805182101561284a5760209160051b010190565b6000198114612c715760010190565b600d54604051639ee20b1560e01b81526001600160a01b038084166004830181905294939260209183916024918391165afa9081156103b957600091612fee575b5015612fd15760405192610120612ede818661263b565b60088552601f1901366020860137600091825b6008811015612f6357600081612f078185613028565b9182612f44575b5050612f1d575b600101612ef1565b92612f3c81612f3786612f326001958b612e63565b612c58565b612e77565b939050612f15565b612f5a9250808660409252600b602052206125ca565b54158138612f0e565b505050919091612f7281612e4c565b91612f80604051938461263b565b818352601f19612f8f83612e4c565b0136602085013760005b828110612fa65750505090565b612fb08183612e63565b5190600882101561036857612fcb600192612f328388612e63565b01612f99565b509050604051612fe260208261263b565b60008152600036813790565b90506020813d602011613020575b816130096020938361263b565b810103126102105761301a90612860565b38612ec7565b3d9150612ffc565b906008811015610368576126c99161304360078311156128c4565b600d54604051639ee20b1560e01b81526001600160a01b0392831660048201819052939290911690602081602481855afa9081156103b957600091613280575b501561327857600060249160405192838092636f77926b60e01b82528760048301525afa9081156103b95760009161325f575b506130c0826125b1565b92604051926130ce84612620565b6130dc60ff86541685612c58565b600185015490602085019182526002860154926040860193845260a0600560038901549860608901998a52600481015460808a015201549601958652600052600b60205261312e8160406000206125ca565b54613254576008811015610368578061319f5750905060e082015190511115928361318e575b508261315f57505090565b61316f9192506020015142612c64565b90519062015180820291808304620151801490151715612c7157101590565b60a082015190511115925038613154565b6000600182036131c65750505060c082015190511115928361318e57508261315f57505090565b5091949160028103613205575060e08301519051111593846131f4575b508361318e57508261315f57505090565b60c0830151905111159350386131e3565b9194909391600060038203613225575050505060e0015190511115919050565b600592939550501461323a5750505050600090565b60c082015190511115928361318e57508261315f57505090565b505050505050600090565b613272913d8091833e612da7818361263b565b386130b6565b505050600090565b90506020813d6020116132b2575b8161329b6020938361263b565b81010312610210576132ac90612860565b38613083565b3d915061328e565b6000818152600260205260409020546001600160a01b03169081156132dd575090565b637e27328960e01b60005260045260246000fd5b6000828152600260205260409020546001600160a01b0316919082613388575b6001600160a01b03168061336e575b8160005260026020526040600020816bffffffffffffffffffffffff60a01b825416179055827fddf252ad1be2c89b69c2b068fc378daa952ba7f163c4a11628f55a4df523b3ef600080a490565b806000526003602052604060002060018154019055613320565b600082815260046020526040902080546001600160a01b031916905582600052600360205260406000206000198154019055613311565b6007546001600160a01b031633036133d357565b63118cdaa760e01b6000523360045260246000fd5b9291813b6133f7575b50505050565b604051630a85bd0160e11b81526001600160a01b039485166004820152600060248201526044810191909152608060648201529216919060209082908190613443906084830190612560565b03816000865af180916000916134e2575b50906134ad57503d156134a6573d61346b8161265c565b90613479604051928361263b565b81523d6000602083013e5b805190816134a15782633250574960e11b60005260045260246000fd5b602001fd5b6060613484565b6001600160e01b03191663757a42ff60e11b016134ce5750388080806133f1565b633250574960e11b60005260045260246000fd5b6020813d602011613524575b816134fb6020938361263b565b810103126135205751906001600160e01b03198216820361351d575038613454565b80fd5b5080fd5b3d91506134ee565b823b61353a575b5050505050565b604051630a85bd0160e11b81526001600160a01b039182166004820152918116602483015260448201939093526080606482015291169160209082908190613586906084830190612560565b03816000865af180916000916135d0575b50906135ae57503d156134a6573d61346b8161265c565b6001600160e01b03191663757a42ff60e11b016134ce57503880808080613533565b6020813d60201161360b575b816135e96020938361263b565b810103126135205751906001600160e01b03198216820361351d575038613597565b3d91506135dc565b61361c816132ba565b506000526006602052613632604060002061278e565b600060405161364260208261263b565b529056fed7474166e78731bc168caca1fe1ccebbd6f3c95baee64997902e6b48f442b81aa2646970667358221220af29dec0b9c72886ffb4a11077a2e8cf7e4b6b72967ec066ed9778c0748e9fe964736f6c634300081c0033",
  "linkReferences": {},
  "deployedLinkReferences": {}
}