{
  "_format": "hh-sol-artifact-1",
  "contractName": "AdminContract",
  "sourceName": "contracts/AdminContract.sol",
  "abi": [
    {
      "inputs": [
        {
          "internalType": "address",
          "name": "initialAdmin",
          "type": "address"
        }
      ],
      "stateMutability": "nonpayable",
      "type": "constructor"
    },
    {
      "inputs": [],
      "name": "AdminLimitReached",
      "type": "error"
    },
    {
      "inputs": [],
      "name": "AlreadyApproved",
      "type": "error"
    },
    {
      "inputs": [],
      "name": "CannotRemoveLastAdmin",
      "type": "error"
    },
    {
      "inputs": [],
      "name": "EnforcedPause",
      "type": "error"
    },
    {
      "inputs": [],
      "name": "ExpectedPause",
      "type": "error"
    },
    {
      "inputs": [],
      "name": "InsufficientFunds",
      "type": "error"
    },
    {
      "inputs": [],
      "name": "InvalidAddress",
      "type": "error"
    },
    {
      "inputs": [],
      "name": "InvalidAmount",
      "type": "error"
    },
    {
      "inputs": [],
      "name": "InvalidProposal",
      "type": "error"
    },
    {
      "inputs": [],
      "name": "NotAdmin",
      "type": "error"
    },
    {
      "inputs": [
        {
          "internalType": "address",
          "name": "owner",
          "type": "address"
        }
      ],
      "name": "OwnableInvalidOwner",
      "type": "error"
    },
    {
      "inputs": [
        {
          "internalType": "address",
          "name": "account",
          "type": "address"
        }
      ],
      "name": "OwnableUnauthorizedAccount",
      "type": "error"
    },
    {
      "inputs": [],
      "name": "ProposalExecuted",
      "type": "error"
    },
    {
      "inputs": [],
      "name": "ReentrancyGuardReentrantCall",
      "type": "error"
    },
    {
      "anonymous": false,
      "inputs": [
        {
          "indexed": true,
          "internalType": "address",
          "name": "admin",
          "type": "address"
        }
      ],
      "name": "AdminAdded",
      "type": "event"
    },
    {
      "anonymous": false,
      "inputs": [
        {
          "indexed": true,
          "internalType": "address",
          "name": "admin",
          "type": "address"
        }
      ],
      "name": "AdminRemoved",
      "type": "event"
    },
    {
      "anonymous": false,
      "inputs": [
        {
          "indexed": false,
          "internalType": "string",
          "name": "config",
          "type": "string"
        },
        {
          "indexed": false,
          "internalType": "uint256",
          "name": "oldValue",
          "type": "uint256"
        },
        {
          "indexed": false,
          "internalType": "uint256",
          "name": "newValue",
          "type": "uint256"
        }
      ],
      "name": "ConfigUpdated",
      "type": "event"
    },
    {
      "anonymous": false,
      "inputs": [
        {
          "indexed": true,
          "internalType": "uint256",
          "name": "disputeId",
          "type": "uint256"
        },
        {
          "indexed": false,
          "internalType": "enum AdminContract.DisputeType",
          "name": "disputeType",
          "type": "uint8"
        },
        {
          "indexed": true,
          "internalType": "address",
          "name": "complainant",
          "type": "address"
        },
        {
          "indexed": true,
          "internalType": "address",
          "name": "respondent",
          "type": "address"
        },
        {
          "indexed": false,
          "internalType": "uint256",
          "name": "relatedId",
          "type": "uint256"
        }
      ],
      "name": "DisputeCreated",
      "type": "event"
    },
    {
      "anonymous": false,
      "inputs": [
        {
          "indexed": true,
          "internalType": "uint256",
          "name": "disputeId",
          "type": "uint256"
        },
        {
          "indexed": true,
          "internalType": "address",
          "name": "resolver",
          "type": "address"
        },
        {
          "indexed": false,
          "internalType": "bool",
          "name": "complainantWins",
          "type": "bool"
        },
        {
          "indexed": false,
          "internalType": "string",
          "name": "resolution",
          "type": "string"
        }
      ],
      "name": "DisputeResolved",
      "type": "event"
    },
    {
      "anonymous": false,
      "inputs": [
        {
          "indexed": true,
          "internalType": "address",
          "name": "previousOwner",
          "type": "address"
        },
        {
          "indexed": true,
          "internalType": "address",
          "name": "newOwner",
          "type": "address"
        }
      ],
      "name": "OwnershipTransferred",
      "type": "event"
    },
    {
      "anonymous": false,
      "inputs": [
        {
          "indexed": false,
          "internalType": "address",
          "name": "account",
          "type": "address"
        }
      ],
      "name": "Paused",
      "type": "event"
    },
    {
      "anonymous": false,
      "inputs": [
        {
          "indexed": false,
          "internalType": "uint256",
          "name": "oldFee",
          "type": "uint256"
        },
        {
          "indexed": false,
          "internalType": "uint256",
          "name": "newFee",
          "type": "uint256"
        }
      ],
      "name": "PlatformFeeUpdated",
      "type": "event"
    },
    {
      "anonymous": false,
      "inputs": [
        {
          "indexed": true,
          "internalType": "address",
          "name": "pauser",
          "type": "address"
        },
        {
          "indexed": false,
          "internalType": "string",
          "name": "reason",
          "type": "string"
        }
      ],
      "name": "PlatformPaused",
      "type": "event"
    },
    {
      "anonymous": false,
      "inputs": [
        {
          "indexed": true,
          "internalType": "address",
          "name": "unpauser",
          "type": "address"
        }
      ],
      "name": "PlatformUnpaused",
      "type": "event"
    },
    {
      "anonymous": false,
      "inputs": [
        {
          "indexed": true,
          "internalType": "uint256",
          "name": "propertyId",
          "type": "uint256"
        },
        {
          "indexed": false,
          "internalType": "string",
          "name": "reason",
          "type": "string"
        }
      ],
      "name": "PropertyRemoved",
      "type": "event"
    },
    {
      "anonymous": false,
      "inputs": [
        {
          "indexed": true,
          "internalType": "uint256",
          "name": "reviewId",
          "type": "uint256"
        },
        {
          "indexed": false,
          "internalType": "string",
          "name": "reason",
          "type": "string"
        }
      ],
      "name": "ReviewRemoved",
      "type": "event"
    },
    {
      "anonymous": false,
      "inputs": [
        {
          "indexed": false,
          "internalType": "address",
          "name": "account",
          "type": "address"
        }
      ],
      "name": "Unpaused",
      "type": "event"
    },
    {
      "anonymous": false,
      "inputs": [
        {
          "indexed": true,
          "internalType": "address",
          "name": "user",
          "type": "address"
        },
        {
          "indexed": false,
          "internalType": "bool",
          "name": "verified",
          "type": "bool"
        }
      ],
      "name": "UserVerified",
      "type": "event"
    },
    {
      "anonymous": false,
      "inputs": [
        {
          "indexed": true,
          "internalType": "uint32",
          "name": "proposalId",
          "type": "uint32"
        },
        {
          "indexed": true,
          "internalType": "address",
          "name": "admin",
          "type": "address"
        }
      ],
      "name": "WithdrawalApproved",
      "type": "event"
    },
    {
      "anonymous": false,
      "inputs": [
        {
          "indexed": true,
          "internalType": "uint32",
          "name": "proposalId",
          "type": "uint32"
        },
        {
          "indexed": false,
          "internalType": "uint96",
          "name": "amount",
          "type": "uint96"
        }
      ],
      "name": "WithdrawalExecuted",
      "type": "event"
    },
    {
      "anonymous": false,
      "inputs": [
        {
          "indexed": true,
          "internalType": "uint32",
          "name": "proposalId",
          "type": "uint32"
        },
        {
          "indexed": true,
          "internalType": "address",
          "name": "proposer",
          "type": "address"
        },
        {
          "indexed": false,
          "internalType": "uint96",
          "name": "amount",
          "type": "uint96"
        }
      ],
      "name": "WithdrawalProposed",
      "type": "event"
    },
    {
      "inputs": [
        {
          "internalType": "address",
          "name": "newAdmin",
          "type": "address"
        }
      ],
      "name": "addAdmin",
      "outputs": [],
      "stateMutability": "nonpayable",
      "type": "function"
    },
    {
      "inputs": [
        {
          "internalType": "uint8",
          "name": "",
          "type": "uint8"
        }
      ],
      "name": "admin",
      "outputs": [
        {
          "internalType": "address",
          "name": "",
          "type": "address"
        }
      ],
      "stateMutability": "view",
      "type": "function"
    },
    {
      "inputs": [],
      "name": "adminCount",
      "outputs": [
        {
          "internalType": "uint8",
          "name": "",
          "type": "uint8"
        }
      ],
      "stateMutability": "view",
      "type": "function"
    },
    {
      "inputs": [
        {
          "internalType": "uint32",
          "name": "proposalId",
          "type": "uint32"
        }
      ],
      "name": "approveWithdrawal",
      "outputs": [],
      "stateMutability": "nonpayable",
      "type": "function"
    },
    {
      "inputs": [
        {
          "internalType": "address",
          "name": "userAddress",
          "type": "address"
        },
        {
          "internalType": "enum SoulboundNFT.BadgeType",
          "name": "badgeType",
          "type": "uint8"
        },
        {
          "internalType": "string",
          "name": "metadata",
          "type": "string"
        },
        {
          "internalType": "uint256",
          "name": "level",
          "type": "uint256"
        }
      ],
      "name": "awardBadgeToUser",
      "outputs": [],
      "stateMutability": "nonpayable",
      "type": "function"
    },
    {
      "inputs": [
        {
          "internalType": "enum AdminContract.DisputeType",
          "name": "disputeType",
          "type": "uint8"
        },
        {
          "internalType": "address",
          "name": "respondent",
          "type": "address"
        },
        {
          "internalType": "uint256",
          "name": "relatedId",
          "type": "uint256"
        },
        {
          "internalType": "string",
          "name": "description",
          "type": "string"
        }
      ],
      "name": "createDispute",
      "outputs": [],
      "stateMutability": "nonpayable",
      "type": "function"
    },
    {
      "inputs": [
        {
          "internalType": "enum AdminContract.DisputeType",
          "name": "",
          "type": "uint8"
        }
      ],
      "name": "disputeTypeCounts",
      "outputs": [
        {
          "internalType": "uint256",
          "name": "",
          "type": "uint256"
        }
      ],
      "stateMutability": "view",
      "type": "function"
    },
    {
      "inputs": [
        {
          "internalType": "uint256",
          "name": "",
          "type": "uint256"
        }
      ],
      "name": "disputes",
      "outputs": [
        {
          "internalType": "uint256",
          "name": "disputeId",
          "type": "uint256"
        },
        {
          "internalType": "enum AdminContract.DisputeType",
          "name": "disputeType",
          "type": "uint8"
        },
        {
          "internalType": "enum AdminContract.DisputeStatus",
          "name": "status",
          "type": "uint8"
        },
        {
          "internalType": "address",
          "name": "complainant",
          "type": "address"
        },
        {
          "internalType": "address",
          "name": "respondent",
          "type": "address"
        },
        {
          "internalType": "uint256",
          "name": "relatedId",
          "type": "uint256"
        },
        {
          "internalType": "string",
          "name": "description",
          "type": "string"
        },
        {
          "internalType": "uint256",
          "name": "createdAt",
          "type": "uint256"
        },
        {
          "internalType": "uint256",
          "name": "resolvedAt",
          "type": "uint256"
        },
        {
          "internalType": "address",
          "name": "resolver",
          "type": "address"
        },
        {
          "internalType": "string",
          "name": "resolution",
          "type": "string"
        },
        {
          "internalType": "bool",
          "name": "complainantWins",
          "type": "bool"
        }
      ],
      "stateMutability": "view",
      "type": "function"
    },
    {
      "inputs": [
        {
          "internalType": "uint256",
          "name": "disputeId",
          "type": "uint256"
        }
      ],
      "name": "emergencyCloseDispute",
      "outputs": [],
      "stateMutability": "nonpayable",
      "type": "function"
    },
    {
      "inputs": [],
      "name": "getBalance",
      "outputs": [
        {
          "internalType": "uint256",
          "name": "",
          "type": "uint256"
        }
      ],
      "stateMutability": "view",
      "type": "function"
    },
    {
      "inputs": [
        {
          "internalType": "uint256",
          "name": "disputeId",
          "type": "uint256"
        }
      ],
      "name": "getDispute",
      "outputs": [
        {
          "components": [
            {
              "internalType": "uint256",
              "name": "disputeId",
              "type": "uint256"
            },
            {
              "internalType": "enum AdminContract.DisputeType",
              "name": "disputeType",
              "type": "uint8"
            },
            {
              "internalType": "enum AdminContract.DisputeStatus",
              "name": "status",
              "type": "uint8"
            },
            {
              "internalType": "address",
              "name": "complainant",
              "type": "address"
            },
            {
              "internalType": "address",
              "name": "respondent",
              "type": "address"
            },
            {
              "internalType": "uint256",
              "name": "relatedId",
              "type": "uint256"
            },
            {
              "internalType": "string",
              "name": "description",
              "type": "string"
            },
            {
              "internalType": "uint256",
              "name": "createdAt",
              "type": "uint256"
            },
            {
              "internalType": "uint256",
              "name": "resolvedAt",
              "type": "uint256"
            },
            {
              "internalType": "address",
              "name": "resolver",
              "type": "address"
            },
            {
              "internalType": "string",
              "name": "resolution",
              "type": "string"
            },
            {
              "internalType": "bool",
              "name": "complainantWins",
              "type": "bool"
            }
          ],
          "internalType": "struct AdminContract.Dispute",
          "name": "",
          "type": "tuple"
        }
      ],
      "stateMutability": "view",
      "type": "function"
    },
    {
      "inputs": [
        {
          "internalType": "enum AdminContract.DisputeType",
          "name": "disputeType",
          "type": "uint8"
        }
      ],
      "name": "getDisputeCountByType",
      "outputs": [
        {
          "internalType": "uint256",
          "name": "",
          "type": "uint256"
        }
      ],
      "stateMutability": "view",
      "type": "function"
    },
    {
      "inputs": [],
      "name": "getPlatformStats",
      "outputs": [
        {
          "components": [
            {
              "internalType": "uint256",
              "name": "totalUsers",
              "type": "uint256"
            },
            {
              "internalType": "uint256",
              "name": "totalProperties",
              "type": "uint256"
            },
            {
              "internalType": "uint256",
              "name": "totalReviews",
              "type": "uint256"
            },
            {
              "internalType": "uint256",
              "name": "totalEscrows",
              "type": "uint256"
            },
            {
              "internalType": "uint256",
              "name": "totalDisputes",
              "type": "uint256"
            },
            {
              "internalType": "uint256",
              "name": "totalRevenue",
              "type": "uint256"
            },
            {
              "internalType": "uint256",
              "name": "activeSubscriptions",
              "type": "uint256"
            }
          ],
          "internalType": "struct AdminContract.PlatformStats",
          "name": "",
          "type": "tuple"
        }
      ],
      "stateMutability": "view",
      "type": "function"
    },
    {
      "inputs": [],
      "name": "getTotalDisputes",
      "outputs": [
        {
          "internalType": "uint256",
          "name": "",
          "type": "uint256"
        }
      ],
      "stateMutability": "view",
      "type": "function"
    },
    {
      "inputs": [
        {
          "internalType": "address",
          "name": "userAddress",
          "type": "address"
        }
      ],
      "name": "getUserDisputes",
      "outputs": [
        {
          "internalType": "uint256[]",
          "name": "",
          "type": "uint256[]"
        }
      ],
      "stateMutability": "view",
      "type": "function"
    },
    {
      "inputs": [
        {
          "internalType": "address",
          "name": "userAddress",
          "type": "address"
        }
      ],
      "name": "isUserVerified",
      "outputs": [
        {
          "internalType": "bool",
          "name": "",
          "type": "bool"
        }
      ],
      "stateMutability": "view",
      "type": "function"
    },
    {
      "inputs": [],
      "name": "maxPropertiesPerUser",
      "outputs": [
        {
          "internalType": "uint256",
          "name": "",
          "type": "uint256"
        }
      ],
      "stateMutability": "view",
      "type": "function"
    },
    {
      "inputs": [],
      "name": "maxReviewsPerProperty",
      "outputs": [
        {
          "internalType": "uint256",
          "name": "",
          "type": "uint256"
        }
      ],
      "stateMutability": "view",
      "type": "function"
    },
    {
      "inputs": [],
      "name": "minReputationForVerification",
      "outputs": [
        {
          "internalType": "uint256",
          "name": "",
          "type": "uint256"
        }
      ],
      "stateMutability": "view",
      "type": "function"
    },
    {
      "inputs": [],
      "name": "owner",
      "outputs": [
        {
          "internalType": "address",
          "name": "",
          "type": "address"
        }
      ],
      "stateMutability": "view",
      "type": "function"
    },
    {
      "inputs": [
        {
          "internalType": "string",
          "name": "reason",
          "type": "string"
        }
      ],
      "name": "pausePlatform",
      "outputs": [],
      "stateMutability": "nonpayable",
      "type": "function"
    },
    {
      "inputs": [],
      "name": "paused",
      "outputs": [
        {
          "internalType": "bool",
          "name": "",
          "type": "bool"
        }
      ],
      "stateMutability": "view",
      "type": "function"
    },
    {
      "inputs": [],
      "name": "platformFeePercentage",
      "outputs": [
        {
          "internalType": "uint256",
          "name": "",
          "type": "uint256"
        }
      ],
      "stateMutability": "view",
      "type": "function"
    },
    {
      "inputs": [],
      "name": "propertyEscrow",
      "outputs": [
        {
          "internalType": "contract PropertyEscrow",
          "name": "",
          "type": "address"
        }
      ],
      "stateMutability": "view",
      "type": "function"
    },
    {
      "inputs": [],
      "name": "propertyFactory",
      "outputs": [
        {
          "internalType": "contract PropertyNFTFactory",
          "name": "",
          "type": "address"
        }
      ],
      "stateMutability": "view",
      "type": "function"
    },
    {
      "inputs": [],
      "name": "proposalCounter",
      "outputs": [
        {
          "internalType": "uint32",
          "name": "",
          "type": "uint32"
        }
      ],
      "stateMutability": "view",
      "type": "function"
    },
    {
      "inputs": [
        {
          "internalType": "uint96",
          "name": "amount",
          "type": "uint96"
        }
      ],
      "name": "proposeWithdrawal",
      "outputs": [
        {
          "internalType": "uint32",
          "name": "",
          "type": "uint32"
        }
      ],
      "stateMutability": "nonpayable",
      "type": "function"
    },
    {
      "inputs": [
        {
          "internalType": "address",
          "name": "adminToRemove",
          "type": "address"
        }
      ],
      "name": "removeAdmin",
      "outputs": [],
      "stateMutability": "nonpayable",
      "type": "function"
    },
    {
      "inputs": [
        {
          "internalType": "uint256",
          "name": "propertyId",
          "type": "uint256"
        },
        {
          "internalType": "string",
          "name": "reason",
          "type": "string"
        }
      ],
      "name": "removeProperty",
      "outputs": [],
      "stateMutability": "nonpayable",
      "type": "function"
    },
    {
      "inputs": [
        {
          "internalType": "uint256",
          "name": "reviewId",
          "type": "uint256"
        },
        {
          "internalType": "string",
          "name": "reason",
          "type": "string"
        }
      ],
      "name": "removeReview",
      "outputs": [],
      "stateMutability": "nonpayable",
      "type": "function"
    },
    {
      "inputs": [],
      "name": "renounceOwnership",
      "outputs": [],
      "stateMutability": "nonpayable",
      "type": "function"
    },
    {
      "inputs": [
        {
          "internalType": "uint256",
          "name": "disputeId",
          "type": "uint256"
        },
        {
          "internalType": "bool",
          "name": "complainantWins",
          "type": "bool"
        },
        {
          "internalType": "string",
          "name": "resolution",
          "type": "string"
        }
      ],
      "name": "resolveDispute",
      "outputs": [],
      "stateMutability": "nonpayable",
      "type": "function"
    },
    {
      "inputs": [],
      "name": "reviewRegistry",
      "outputs": [
        {
          "internalType": "contract ReviewRegistry",
          "name": "",
          "type": "address"
        }
      ],
      "stateMutability": "view",
      "type": "function"
    },
    {
      "inputs": [
        {
          "internalType": "address",
          "name": "_userRegistry",
          "type": "address"
        },
        {
          "internalType": "address",
          "name": "_propertyFactory",
          "type": "address"
        },
        {
          "internalType": "address",
          "name": "_reviewRegistry",
          "type": "address"
        },
        {
          "internalType": "address",
          "name": "_propertyEscrow",
          "type": "address"
        },
        {
          "internalType": "address",
          "name": "_soulboundNFT",
          "type": "address"
        }
      ],
      "name": "setContracts",
      "outputs": [],
      "stateMutability": "nonpayable",
      "type": "function"
    },
    {
      "inputs": [],
      "name": "soulboundNFT",
      "outputs": [
        {
          "internalType": "contract SoulboundNFT",
          "name": "",
          "type": "address"
        }
      ],
      "stateMutability": "view",
      "type": "function"
    },
    {
      "inputs": [
        {
          "internalType": "address",
          "name": "newOwner",
          "type": "address"
        }
      ],
      "name": "transferOwnership",
      "outputs": [],
      "stateMutability": "nonpayable",
      "type": "function"
    },
    {
      "inputs": [],
      "name": "unpausePlatform",
      "outputs": [],
      "stateMutability": "nonpayable",
      "type": "function"
    },
    {
      "inputs": [
        {
          "internalType": "uint256",
          "name": "newFeePercentage",
          "type": "uint256"
        }
      ],
      "name": "updatePlatformFee",
      "outputs": [],
      "stateMutability": "nonpayable",
      "type": "function"
    },
    {
      "inputs": [
        {
          "internalType": "uint256",
          "name": "newMaxProperties",
          "type": "uint256"
        },
        {
          "internalType": "uint256",
          "name": "newMaxReviews",
          "type": "uint256"
        },
        {
          "internalType": "uint256",
          "name": "newMinReputation",
          "type": "uint256"
        }
      ],
      "name": "updatePlatformLimits",
      "outputs": [],
      "stateMutability": "nonpayable",
      "type": "function"
    },
    {
      "inputs": [
        {
          "internalType": "address",
          "name": "",
          "type": "address"
        },
        {
          "internalType": "uint256",
          "name": "",
          "type": "uint256"
        }
      ],
      "name": "userDisputes",
      "outputs": [
        {
          "internalType": "uint256",
          "name": "",
          "type": "uint256"
        }
      ],
      "stateMutability": "view",
      "type": "function"
    },
    {
      "inputs": [],
      "name": "userRegistry",
      "outputs": [
        {
          "internalType": "contract UserRegistry",
          "name": "",
          "type": "address"
        }
      ],
      "stateMutability": "view",
      "type": "function"
    },
    {
      "inputs": [
        {
          "internalType": "address",
          "name": "userAddress",
          "type": "address"
        },
        {
          "internalType": "bool",
          "name": "verified",
          "type": "bool"
        }
      ],
      "name": "verifyUser",
      "outputs": [],
      "stateMutability": "nonpayable",
      "type": "function"
    },
    {
      "inputs": [
        {
          "internalType": "uint32",
          "name": "",
          "type": "uint32"
        }
      ],
      "name": "withdrawalProposals",
      "outputs": [
        {
          "internalType": "address",
          "name": "proposer",
          "type": "address"
        },
        {
          "internalType": "uint96",
          "name": "amount",
          "type": "uint96"
        },
        {
          "internalType": "uint8",
          "name": "approvals",
          "type": "uint8"
        },
        {
          "internalType": "bool",
          "name": "executed",
          "type": "bool"
        }
      ],
      "stateMutability": "view",
      "type": "function"
    },
    {
      "stateMutability": "payable",
      "type": "receive"
    }
  ],
  "bytecode": "0x60803461012357601f6134a338819003918201601f19168301916001600160401b038311848410176101285780849260209460405283398101031261012357516001600160a01b0381169081900361012357801561010d57600080546001600160a01b0319811683178255604051929182916001600160a01b0316907f8be0079c531659141344cd1fd0a4f28419497f9722a3daafe3b4186f6b6457e09080a360018080556002600b556032600c556064600d819055600e556000805260076020527f6d5257204ebe7d88fd91ae87941cb2dd9d8062b64ae5a2bd2d28ec40b9fbf6df80546001600160a01b0319169092179091556008805460ff19169091179055613364908161013f8239f35b631e4fbdf760e01b600052600060045260246000fd5b600080fd5b634e487b7160e01b600052604160045260246000fdfe608080604052600436101561001d575b50361561001b57600080fd5b005b600090813560e01c9081630c0512e914612c085750806312065fe014612bec578063136d88831461298857806316ce55b31461281a5780631785f53c1461265f5780631a9ba7eb1461257a578063283f7df0146124095780632840662d14611e50578063298ae6f8146117e85780632b7832b3146117c75780633dc04159146117705780633e998a19146116515780633f0741fc146113fa57806354ad8b58146113d1578063564a565d146112ca5780635c7460d6146112a15780635c975abb1461127e5780635cb7df54146111725780635dfb0290146110805780635e9dbbcd146110625780637048027514610f1c578063715018a614610ec25780637e7ed03214610cac5780638548898b14610b345780638a25224014610af55780638da5cb5b14610ace57806397fbc2fb14610ab0578063a3a7846814610a87578063a3db54b014610a5e578063a624594814610a1b578063a8f0f15e146109b5578063a9a2c71314610974578063aa0b59881461088c578063ace417e01461085e578063bfb0a55b146107a9578063c18dc5b21461069f578063c56b202114610681578063cdd78cfc14610663578063e3a96cbd1461044c578063e3f5ceec1461042e578063f2fde38b146103a8578063f63bf8bd1461022a5763fbd5e1560361000f57346102275780600319360112610227576011546040516001600160a01b039091168152602090f35b80fd5b50346102275760a036600319011261022757610244612c2a565b9061024d612c45565b6044356001600160a01b038116908190036103a4576064356001600160a01b03811691908290036103a0576084356001600160a01b038116939084900361039c5784958560ff60085416905b60ff81168281101561038e578852600760205260408820546001600160a01b031633146102cb5760010160ff16610299565b50509091929394955060015b1561037f576001600160a01b0316908115610370576001600160a01b0316908115610370578215610370578315610370578415610370576001600160601b0360a01b600f541617600f556001600160601b0360a01b60105416176010556001600160601b0360a01b60115416176011556001600160601b0360a01b60125416176012556001600160601b0360a01b601354161760135580f35b63e6c4247b60e01b8652600486fd5b637bfa4b9f60e01b8652600486fd5b5050509091929394956102d7565b8480fd5b8380fd5b8280fd5b5034610227576020366003190112610227576103c2612c2a565b6103ca6132e5565b6001600160a01b0316801561041a5781546001600160a01b03198116821783556001600160a01b03167f8be0079c531659141344cd1fd0a4f28419497f9722a3daafe3b4186f6b6457e08380a380f35b631e4fbdf760e01b82526004829052602482fd5b50346102275780600319360112610227576020600e54604051908152f35b5034610227576020366003190112610227576040809160043581610160845161047481612c8c565b82815282602082015282868201528260608201528260808201528260a0820152606060c08201528260e082015282610100820152826101208201526060610140820152015280151580610657575b6104cb90612f4e565b815260046020522081516104de81612c8c565b8154815261064960018301548260ff82169460208201956104fe81612e78565b865260ff8360081c168783019061051481612e78565b8152606083019360018060a01b039060101c16845261061760018060a01b0360028401541660808501908152600384015460a0860190815261055860048601612dd4565b9160c0870192835260058601549760e08801988952600687015495610100890196875260ff600960018060a01b0360078b015416996101208c019a8b526101406105a460088301612dd4565b9c019b8c520154169b61016081019c15158d528e519e8f9e8f926020845251602084015251916105d383612e78565b0152516105df81612e78565b60608d0152516001600160a01b0390811660808d015290511660a08b01525160c08a01525161018060e08a01526101a0890190612ebb565b935161010088015251610120870152516001600160a01b031661014086015251848203601f1901610160860152612ebb565b905115156101808301520390f35b506003548111156104c2565b50346102275780600319360112610227576020600b54604051908152f35b50346102275780600319360112610227576020600d54604051908152f35b50346102275760203660031901126102275760085481906004359060ff16825b60ff81168281101561079f578452600760205260408420546001600160a01b031633146106f15760010160ff166106bf565b505090915060015b156107905780151580610784575b61071090612f4e565b808252600460205261073860ff600160408520015460081c1661073281612e78565b15612f8f565b808252600460208181526040808520600101805461ff001916610300179055838552828252808520426006919091015592845252812060070180546001600160a01b0319163317905580f35b50600354811115610707565b637bfa4b9f60e01b8252600482fd5b50505090916106f9565b5034610227576020366003190112610227576001600160a01b036107cb612c2a565b168152600560205260408120604051908160208254918281520190819285526020852090855b8181106108485750505082610807910383612ca8565b604051928392602084019060208552518091526040840192915b81811061082f575050500390f35b8251845285945060209384019390920191600101610821565b82548452602090930192600192830192016107f1565b503461022757602036600319011261022757602061088261087d612c2a565b6131dd565b6040519015158152f35b50346102275760203660031901126102275760085481906004359060ff16825b60ff81168281101561096a578452600760205260408420546001600160a01b031633146108de5760010160ff166108ac565b505090915060015b1561079057600a811161092d5760407fd347e206f25a89b917fc9482f1a2d294d749baa4dc9bde7fb495ee11fe49164391600b549080600b5582519182526020820152a180f35b60405162461bcd60e51b81526020600482015260156024820152744665652063616e6e6f74206578636565642031302560581b6044820152606490fd5b50505090916108e6565b50346102275760203660031901126102275760043560048110156109b157602091816109a1604093612e78565b8152600683522054604051908152f35b5080fd5b50346102275760203660031901126102275760043563ffffffff81168091036109b157816040916080935260096020522060ff600182549201546040519260018060a01b038116845260a01c6020840152818116604084015260081c1615156060820152f35b50346102275760203660031901126102275760043560048110156109b15760209181610a48604093612e78565b610a556003821115613027565b6109a181612e78565b50346102275780600319360112610227576010546040516001600160a01b039091168152602090f35b50346102275780600319360112610227576012546040516001600160a01b039091168152602090f35b50346102275780600319360112610227576020600354604051908152f35b5034610227578060031936011261022757546040516001600160a01b039091168152602090f35b50346102275760203660031901126102275760043560ff81168091036109b15790602091815260078252604060018060a01b0391205416604051908152f35b503461022757606036600319011261022757600435906024359160443582938360ff60085416905b60ff811682811015610ca0578652600760205260408620546001600160a01b03163314610b8e5760010160ff16610b5c565b5050909192935060015b15610c91579160a0917fd7474166e78731bc168caca1fe1ccebbd6f3c95baee64997902e6b48f442b81a838195600c54908383600d5493600e549880600c5584600d5588600e556040519160608352601460608401527336b0bc283937b832b93a34b2b9a832b92ab9b2b960611b608084015260208301526040820152a1604051916060835260156060840152746d61785265766965777350657250726f706572747960581b608084015260208301526040820152a16040519160608352601c60608401527f6d696e52657075746174696f6e466f72566572696669636174696f6e00000000608084015260208301526040820152a180f35b637bfa4b9f60e01b8452600484fd5b50505090919293610b98565b503461022757604036600319011261022757610cc6612c2a565b90610ccf612d5d565b9181928260ff60085416905b60ff811682811015610eb7578552600760205260408520546001600160a01b03163314610d0d5760010160ff16610cdb565b50509091925060015b15610ea857600f54604051639ee20b1560e01b81526001600160a01b0393841660048201819052939091859116602083602481845afa928315610e9d578293610e5d575b50610d66602493612fdb565b60405192838092636f77926b60e01b82528760048301525afa908115610e525782908592610e2e575b50610dc6575b5060207f34736af44d2b91cd43fa896d4cfe0861ec1e6b4538583d385fc671639e9153b2916040519015158152a280f35b60a00151600e5411610dd85738610d95565b60405162461bcd60e51b815260206004820152602860248201527f496e73756666696369656e742072657075746174696f6e20666f7220766572696044820152673334b1b0ba34b7b760c11b6064820152608490fd5b610e4b9192503d8087833e610e438183612ca8565b810190613106565b9038610d8f565b6040513d86823e3d90fd5b92506020833d602011610e95575b81610e7860209383612ca8565b810103126109b157610d66610e8e602494612fce565b9350610d5a565b3d9150610e6b565b6040513d84823e3d90fd5b637bfa4b9f60e01b8352600483fd5b505050909192610d16565b5034610227578060031936011261022757610edb6132e5565b80546001600160a01b03198116825581906001600160a01b03167f8be0079c531659141344cd1fd0a4f28419497f9722a3daafe3b4186f6b6457e08280a380f35b503461022757602036600319011261022757610f36612c2a565b81809160ff60085416925b60ff811684811015611058578352600760205260408320546001600160a01b03163314610f735760010160ff16610f41565b509091925060015b15610790576001600160a01b0316801561104957815b60ff811684811015610fd2578352600760205260408320546001600160a01b03168214610fc35760010160ff16610f91565b63e6c4247b60e01b8352600483fd5b505082600a81101561103a57825260076020526040822080546001600160a01b0319168217905560085460ff6110098183166130b3565b169060ff1916176008557f44d6d25963f097ad14f29f06854a01f575648a1ef82f30e562ccd3889717e3398280a280f35b63d04f1bb960e01b8352600483fd5b63e6c4247b60e01b8252600482fd5b5050909192610f7b565b50346102275780600319360112610227576020600c54604051908152f35b50346102275761108f36612d2b565b6008548392919060ff16835b60ff811682811015611167578552600760205260408520546001600160a01b031633146110cd5760010160ff1661109b565b50509091925060015b15610ea857811561112c57611126816111127ff101b811c74ec4232def79e996e302c3166f3d32945bd9ef0772ad31d751b8c293511515612f09565b604051918291602083526020830190612ebb565b0390a280f35b60405162461bcd60e51b8152602060048201526013602482015272125b9d985b1a59081c1c9bdc195c9d1e481251606a1b6044820152606490fd5b5050509091926110d6565b5034610227576020366003190112610227576004356001600160401b0381116109b1576111a3903690600401612ce4565b60085482919060ff16825b60ff811682811015611274578452600760205260408420546001600160a01b031633146111e05760010160ff166111ae565b505090915060015b156107905760025460ff81166112655760019060ff1916176002557f62e78cea01bee320cd4e420270b5ea74000d11b0c9f74754ebdbfc544b05a2586020604051338152a17f0633b518f7e228cea84c7b36264537a16387cd16109f97ff871f587d7238481d604051602081528061112633946020830190612ebb565b63d93c066560e01b8352600483fd5b50505090916111e8565b5034610227578060031936011261022757602060ff600254166040519015158152f35b5034610227578060031936011261022757600f546040516001600160a01b039091168152602090f35b5034610227576020366003190112610227576040602091600435815260048352208054906113c4600182015460ff81169260ff8260081c1660018060a01b03600283015416926113a4600384015461132460048601612dd4565b9060058601549660068701549460018060a01b036007890154169660ff600961134f60088c01612dd4565b9a0154169b6040519e8f9e8f90815261136783612e78565b015261137281612e78565b60408d015260101c6001600160a01b031660608c015260808b015260a08a015261018060c08a01819052890190612ebb565b9360e0880152610100870152610120860152848203610140860152612ebb565b9015156101608301520390f35b50346102275780600319360112610227576013546040516001600160a01b039091168152602090f35b5034610227576020366003190112610227576004359063ffffffff82168092036102275780918160ff60085416905b60ff811682811015611647578452600760205260408420546001600160a01b0316331461145b5760010160ff16611429565b505090915060015b15610790576114706132c3565b808252600960205260408220805460a01c15611638576001810160ff815460081c166116295733600090815260028301602081905260409091205460ff1661161a5760018060a01b0333166000526020526040600020600160ff1982541617905560ff6114df818354166130b3565b1660ff1982541617815533837f8ca18a587400b2e6bb87129da14755775d06ceac17f96e7097decb05e1df54aa8680a3604660ff600854160260ff81169081036116065760ff6064835492041660ff8216101561153f575b846001805580f35b61ff0019166101001790558054839081908190819060a081901c906001600160a01b03165af13d15611601573d61157581612cc9565b906115836040519283612ca8565b81528460203d92013e5b156115ca5760207f73e3c04d5145d6d24d01996f6c3c6d9a5e8159bf3025fa6cc4abddcbf65153ef915460a01c604051908152a238808080611537565b60405162461bcd60e51b815260206004820152600f60248201526e151c985b9cd9995c8819985a5b1959608a1b6044820152606490fd5b61158d565b634e487b7160e01b85526011600452602485fd5b63080fc0bd60e11b8552600485fd5b63cf88c65760e01b8452600484fd5b631dc0650160e31b8352600483fd5b5050509091611463565b50346102275760803660031901126102275761166b612c2a565b90602435906008821015610227576044356001600160401b0381116109b157611698903690600401612ce4565b9181938260ff60085416905b60ff811682811015611764578552600760205260408520546001600160a01b031633146116d65760010160ff166116a4565b5050909192935060015b15610ea857601354929384936001600160a01b0316803b1561039c5761173a9385809460405196879586948593631f72885760e01b855260018060a01b031660048501526024840152608060448401526084830190612ebb565b606435606483015203925af18015610e9d576117535750f35b8161175d91612ca8565b6102275780f35b505050909192936116e0565b50346102275760403660031901126102275761178a612c2a565b6001600160a01b03168152600560205260408120805460243592908310156102275760206117b88484612d6c565b90549060031b1c604051908152f35b5034610227578060031936011261022757602060ff60085416604051908152f35b5034610227576080366003190112610227576004803510156102275761180c612c45565b6064356001600160401b0381116103a45761182b903690600401612ce4565b600f54604051639ee20b1560e01b815233600482015290602090829060249082906001600160a01b03165afa8015610e52578490611e15575b61186e9150612fdb565b611879600435612e78565b61188860036004351115613027565b6001600160a01b03821615611dd0576001600160a01b0382163314611d8b57805115611d46576118b960035461306a565b9182600355604051916118cb83612c8c565b83835260208301926118de600435612e78565b6004358452604081019186835260608201943386526080830160018060a01b038616815260a0840191604435835260c085019384524260e086015289610100860152896101208601526020976040516119378a82612ca8565b8b81526101408701528a610160870152898b526004895260408b20968651885560018801925161196681612e78565b61196f81612e78565b60ff801985541691161783555161198581612e78565b61198e81612e78565b82549151610100600160b01b031990921660089190911b61ff00161760109190911b62010000600160b01b0316179055516002850180546001600160a01b0319166001600160a01b0392909216919091179055516003840155518051906001600160401b038211611d32578190611a086004860154612d9a565b601f8111611ce4575b508690601f8311600114611c7b578992611c70575b50508160011b916000199060031b1c19161760048301555b60e0810151600583015561010081015160068301556101208101516007830180546001600160a01b0319166001600160a01b0392909216919091179055610140810151805160088401916001600160401b038211611c5c57611aa08354612d9a565b601f8111611c19575b508690601f8311600114611bab57928261016093611af99796936009968d92611ba0575b50508160011b916000199060031b1c19161790555b0151151591019060ff801983541691151516179055565b33845260058252611b0d8360408620613079565b6001600160a01b03811684526005825260408420611b2c908490613079565b611b37600435612e78565b60043584526006825260408420611b4e815461306a565b905560405191611b5f600435612e78565b6004358352604435908301526001600160a01b03169133917fde5bce5e77d1d32f455a1d7b3d943a64966335cf1c5596050a3e6194a7462a4190604090a480f35b015190503880611acd565b838a52878a209190601f1984168b5b8a828210611c0357505093611af997969360099693600193836101609810611bea575b505050811b019055611ae2565b015160001960f88460031b161c19169055388080611bdd565b6001859682939686015181550195019301611bba565b838a52878a20601f840160051c810191898510611c52575b601f0160051c01905b818110611c475750611aa9565b8a8155600101611c3a565b9091508190611c31565b634e487b7160e01b89526041600452602489fd5b015190503880611a26565b600486018a52878a209250601f1984168a5b89828210611cce575050908460019594939210611cb5575b505050811b016004830155611a3e565b015160001960f88460031b161c19169055388080611ca5565b6001859682939686015181550195019301611c8d565b909150600485018952868920601f840160051c8101888510611d2b575b90849392915b601f830160051c82018110611d1d575050611a11565b8b8155859450600101611d07565b5080611d01565b634e487b7160e01b88526041600452602488fd5b60405162461bcd60e51b815260206004820152601b60248201527f4465736372697074696f6e2063616e6e6f7420626520656d70747900000000006044820152606490fd5b60405162461bcd60e51b815260206004820152601760248201527f43616e6e6f74206469737075746520796f757273656c660000000000000000006044820152606490fd5b60405162461bcd60e51b815260206004820152601a60248201527f496e76616c696420726573706f6e64656e7420616464726573730000000000006044820152606490fd5b506020813d602011611e48575b81611e2f60209383612ca8565b810103126103a057611e4361186e91612fce565b611864565b3d9150611e22565b50346102275760603660031901126102275760043590611e6e612d5d565b906044356001600160401b0381116109b157611e8e903690600401612ce4565b81938260ff60085416905b60ff8116828110156123fd578552600760205260408520546001600160a01b03163314611ecb5760010160ff16611e99565b5050909192935060015b15610ea857801515806123f1575b611eec90612f4e565b8083526004602052611f0e60ff600160408620015460081c1661073281612e78565b8151156123ac5780835260046020526040832060018101805461ff0019166102001781554260068301556007820180546001600160a01b031916331790558351959190600882016001600160401b03881161239857611f6d8154612d9a565b601f8111612353575b50602097601f81116001146122ee578088998996979899916122e3575b508160011b916000199060031b1c19161790555b60098201805460ff191660ff8615151617815590549060ff8216611fca81612e78565b600181036120b0575060ff91505416612016575b505060008051602061330f833981519152905b6040519015158152604060208201528061201033956040830190612ebb565b0390a380f35b600360018060a01b0360115416910154813b156103a457829160a4839260405194859384926238d04560e11b8452600484015260406024840152602860448401527f44697370757465207265736f6c76656420696e206661766f72206f6620636f6d6064840152671c1b185a5b985b9d60c21b60848401525af18015610e9d5715611fde57816120a591612ca8565b6103a0578338611fde565b6120b981612e78565b6002810361219e57505460ff1615905061214157600360018060a01b0360125416910154813b156103a4578291604483926040519485938492631a592f7160e11b84526004840152600160248401525af18015610e9d5761212c575b505060008051602061330f83398151915290611ff1565b8161213691612ca8565b6103a0578338612115565b600360018060a01b0360125416910154813b156103a4578291604483926040519485938492631a592f7160e11b845260048401528160248401525af18015610e9d5761212c57505060008051602061330f83398151915290611ff1565b6003906121aa81612e78565b146121c9575b5050505060008051602061330f83398151915290611ff1565b5460ff161561225a5750600f546002909101546001600160a01b039182169116813b156103a457829160648392604051948593849262880b8360e11b8452600484015260311960248401528160448401525af18015610e9d57612245575b505060008051602061330f833981519152905b9050833880806121b0565b8161224f91612ca8565b6103a0578338612227565b600f546001600160a01b03169150813b156103a45760405162880b8360e11b815260109190911c6001600160a01b031660048201526013196024820152604481018390529082908290606490829084905af18015610e9d576122ce575b505060008051602061330f8339815191529061223a565b816122d891612ca8565b6103a05783386122b7565b905088015138611f93565b818852888820601f198216895b81811061233b575090899a83600194939b98999a9b10612322575b5050811b019055611fa7565b8a015160001960f88460031b161c191690553880612316565b898c0151835560209b8c019b600190930192016122fb565b81885260208820601f8a0160051c81019160208b1061238e575b601f0160051c01905b8181106123835750611f76565b888155600101612376565b909150819061236d565b634e487b7160e01b87526041600452602487fd5b60405162461bcd60e51b815260206004820152601a60248201527f5265736f6c7574696f6e2063616e6e6f7420626520656d7074790000000000006044820152606490fd5b50600354811115611ee3565b50505090919293611ed5565b50346102275761241836612d2b565b6008548392919060ff16835b60ff81168281101561256f578552600760205260408520546001600160a01b031633146124565760010160ff16612424565b50509091925060015b15610ea85781156125365761247681511515612f09565b6011546001600160a01b0316803b156103a0578360405180926238d04560e11b8252856004830152604060248301528183816124b56044820189612ebb565b03925af18015610e52576124fe575b506111267ffc9621ecd0612112afc439f26da2a2892d791ee68241f25851e8d45d80339b7791604051918291602083526020830190612ebb565b8361252e7ffc9621ecd0612112afc439f26da2a2892d791ee68241f25851e8d45d80339b77939561112693612ca8565b9391506124c4565b60405162461bcd60e51b8152602060048201526011602482015270125b9d985b1a59081c995d9a595dc81251607a1b6044820152606490fd5b50505090919261245f565b5034610227578060031936011261022757808060ff60085416905b60ff811682811015612656578352600760205260408320546001600160a01b031633146125c75760010160ff16612595565b5050905060015b156126475760025460ff8116156126385760ff19166002557f5db9ee0a495bf2e6ff9c91a7834c1ba4fdd244a5e8aa4e537bd38aeae4b073aa6020604051338152a1337f0a7c6382517057f26f15c04d3e8a2bb9d5f92931eb1f20ca76352b2465a5135b8280a280f35b638dfc202b60e01b8252600482fd5b637bfa4b9f60e01b8152600490fd5b505050906125ce565b503461022757602036600319011261022757612679612c2a565b81809160ff60085416925b60ff811684811015612810578352600760205260408320546001600160a01b031633146126b65760010160ff16612684565b509091925060015b15610790576001600160a01b031680156110495760018311156128015781928293835b60ff8116838110156127f6578552600760205260408520546001600160a01b031684146127135760010160ff166126e1565b929394505060015b156127e75761272b60ff91612ee0565b1683526007602081815260408086205460ff948516875292909152842080546001600160a01b0319166001600160a01b0392909216919091179055600854612774908216612ee0565b16825260076020526040822080546001600160a01b031916905560085460ff811680156127d35760ff9060001901169060ff1916176008557fa3b62bc36326052d97ea62d63c3d60308ed4c3ea8ac079dd8499f1e9c4f80c0f8280a280f35b634e487b7160e01b84526011600452602484fd5b63e6c4247b60e01b8452600484fd5b50509391929361271b565b63c13a62ad60e01b8252600482fd5b50509091926126be565b503461022757602036600319011261022757600435906001600160601b0382168083036109b15781928260ff60085416905b60ff81168281101561297d578552600760205260408520546001600160a01b0316331461287e5760010160ff1661284c565b50509091925060015b15610ea8576128946132c3565b811561296e5781471061295f57600a5463ffffffff811663ffffffff81146116065763ffffffff6001918201811663ffffffff19939093168317600a908155928652600960209081526040808820336001600160a01b031960a09890981b9790971687178155808501805460ff199081168717909155878a526002909101835297819020805490981690931790965591549051938452169182907fe8a3ed737ede2a85abac48d8669a4d8ba8d3de3412cd25b0ac1481f6ec325a46908590a360018055604051908152f35b63356680b760e01b8352600483fd5b63162908e360e11b8352600483fd5b505050909192612887565b50346102275780600319360112610227578060c06040516129a881612c5b565b8281528260208201528260408201528260608201528260808201528260a082015201526004602060018060a01b03600f541660405192838092634df2b97b60e11b82525afa908115610e9d578291612bb9575b506010546040516317aaf5ed60e01b81529290602090849060049082906001600160a01b03165afa8015612bac578190612b77575b6011546040516312fb004160e11b81529450602090859060049082906001600160a01b03165afa8015610e9d578290612b44575b601254604051631fa6ded160e11b81529550602090869060049082906001600160a01b03165afa8015612b39578390612b06575b60e0955060035491479360c0604051612ab081612c5b565b8881526020810192835260408101938452606081019485526080810195865260a08101968752019586526040519687525160208701525160408601525160608501525160808401525160a08301525160c0820152f35b506020853d602011612b31575b81612b2060209383612ca8565b810103126103a45760e09451612a98565b3d9150612b13565b6040513d85823e3d90fd5b506020843d602011612b6f575b81612b5e60209383612ca8565b810103126109b15760049351612a64565b3d9150612b51565b50916020813d602011612ba4575b81612b9260209383612ca8565b810103126103a4579160049251612a30565b3d9150612b85565b50604051903d90823e3d90fd5b90506020813d602011612be4575b81612bd460209383612ca8565b810103126109b1575160046129fb565b3d9150612bc7565b5034610227578060031936011261022757602047604051908152f35b9050346109b157816003193601126109b15760209063ffffffff600a54168152f35b600435906001600160a01b0382168203612c4057565b600080fd5b602435906001600160a01b0382168203612c4057565b60e081019081106001600160401b03821117612c7657604052565b634e487b7160e01b600052604160045260246000fd5b61018081019081106001600160401b03821117612c7657604052565b90601f801991011681019081106001600160401b03821117612c7657604052565b6001600160401b038111612c7657601f01601f191660200190565b81601f82011215612c4057803590612cfb82612cc9565b92612d096040519485612ca8565b82845260208383010111612c4057816000926020809301838601378301015290565b906040600319830112612c405760043591602435906001600160401b038211612c4057612d5a91600401612ce4565b90565b602435908115158203612c4057565b8054821015612d845760005260206000200190600090565b634e487b7160e01b600052603260045260246000fd5b90600182811c92168015612dca575b6020831014612db457565b634e487b7160e01b600052602260045260246000fd5b91607f1691612da9565b9060405191826000825492612de884612d9a565b8084529360018116908115612e565750600114612e0f575b50612e0d92500383612ca8565b565b90506000929192526020600020906000915b818310612e3a575050906020612e0d9282010138612e00565b6020919350806001915483858901015201910190918492612e21565b905060209250612e0d94915060ff191682840152151560051b82010138612e00565b60041115612e8257565b634e487b7160e01b600052602160045260246000fd5b60005b838110612eab5750506000910152565b8181015183820152602001612e9b565b90602091612ed481518092818552858086019101612e98565b601f01601f1916010190565b60ff6000199116019060ff8211612ef357565b634e487b7160e01b600052601160045260246000fd5b15612f1057565b60405162461bcd60e51b8152602060048201526016602482015275526561736f6e2063616e6e6f7420626520656d70747960501b6044820152606490fd5b15612f5557565b60405162461bcd60e51b8152602060048201526012602482015271125b9d985b1a5908191a5cdc1d5d1948125160721b6044820152606490fd5b15612f9657565b60405162461bcd60e51b815260206004820152601060248201526f2234b9b83aba32903737ba1037b832b760811b6044820152606490fd5b51908115158203612c4057565b15612fe257565b60405162461bcd60e51b815260206004820152601f60248201527f55736572206e6f742072656769737465726564206f7220696e616374697665006044820152606490fd5b1561302e57565b60405162461bcd60e51b8152602060048201526014602482015273496e76616c69642064697370757465207479706560601b6044820152606490fd5b6000198114612ef35760010190565b805468010000000000000000811015612c765761309b91600182018155612d6c565b819291549060031b91821b91600019901b1916179055565b60ff1660ff8114612ef35760010190565b81601f82011215612c405780516130da81612cc9565b926130e86040519485612ca8565b81845260208284010111612c4057612d5a9160208085019101612e98565b602081830312612c40578051906001600160401b038211612c40570161010081830312612c40576040519161010083018381106001600160401b03821117612c765760405281516001600160401b038111612c4057816131679184016130c4565b8352602082015160208401526040820151906001600160401b038211612c40576131929183016130c4565b60408301526060810151906004821015612c405760e09160608401526131ba60808201612fce565b608084015260a081015160a084015260c081015160c0840152015160e082015290565b600f54604051639ee20b1560e01b81526001600160a01b03928316600482018190529190921691602081602481865afa90811561327657600091613289575b501561328257600090602460405180948193636f77926b60e01b835260048301525afa80156132765760a09160009161325b575b500151600e54111590565b61327091503d806000833e610e438183612ca8565b38613250565b6040513d6000823e3d90fd5b5050600090565b90506020813d6020116132bb575b816132a460209383612ca8565b81010312612c40576132b590612fce565b3861321c565b3d9150613297565b6002600154146132d4576002600155565b633ee5aeb560e01b60005260046000fd5b6000546001600160a01b031633036132f957565b63118cdaa760e01b6000523360045260246000fdfe279a574e61b6d37f46545f470422464b255aeae50b99a8e2eca691fb695cf342a2646970667358221220df786cb7a7fcc2e9247695fca6f8bc7ad03f28b2a4abda9b8c6055e47d2217f864736f6c634300081c0033",
  "linkReferences": {},
  "deployedLinkReferences": {}
}