{
  "_format": "hh-sol-artifact-1",
  "contractName": "PropertyNFTFactory",
  "sourceName": "contracts/PropertyNFTFactory.sol",
  "abi": [
    {
      "inputs": [
        {
          "internalType": "address",
          "name": "_userRegistry",
          "type": "address"
        }
      ],
      "stateMutability": "nonpayable",
      "type": "constructor"
    },
    {
      "inputs": [
        {
          "internalType": "address",
          "name": "sender",
          "type": "address"
        },
        {
          "internalType": "uint256",
          "name": "tokenId",
          "type": "uint256"
        },
        {
          "internalType": "address",
          "name": "owner",
          "type": "address"
        }
      ],
      "name": "ERC721IncorrectOwner",
      "type": "error"
    },
    {
      "inputs": [
        {
          "internalType": "address",
          "name": "operator",
          "type": "address"
        },
        {
          "internalType": "uint256",
          "name": "tokenId",
          "type": "uint256"
        }
      ],
      "name": "ERC721InsufficientApproval",
      "type": "error"
    },
    {
      "inputs": [
        {
          "internalType": "address",
          "name": "approver",
          "type": "address"
        }
      ],
      "name": "ERC721InvalidApprover",
      "type": "error"
    },
    {
      "inputs": [
        {
          "internalType": "address",
          "name": "operator",
          "type": "address"
        }
      ],
      "name": "ERC721InvalidOperator",
      "type": "error"
    },
    {
      "inputs": [
        {
          "internalType": "address",
          "name": "owner",
          "type": "address"
        }
      ],
      "name": "ERC721InvalidOwner",
      "type": "error"
    },
    {
      "inputs": [
        {
          "internalType": "address",
          "name": "receiver",
          "type": "address"
        }
      ],
      "name": "ERC721InvalidReceiver",
      "type": "error"
    },
    {
      "inputs": [
        {
          "internalType": "address",
          "name": "sender",
          "type": "address"
        }
      ],
      "name": "ERC721InvalidSender",
      "type": "error"
    },
    {
      "inputs": [
        {
          "internalType": "uint256",
          "name": "tokenId",
          "type": "uint256"
        }
      ],
      "name": "ERC721NonexistentToken",
      "type": "error"
    },
    {
      "inputs": [
        {
          "internalType": "address",
          "name": "owner",
          "type": "address"
        }
      ],
      "name": "OwnableInvalidOwner",
      "type": "error"
    },
    {
      "inputs": [
        {
          "internalType": "address",
          "name": "account",
          "type": "address"
        }
      ],
      "name": "OwnableUnauthorizedAccount",
      "type": "error"
    },
    {
      "anonymous": false,
      "inputs": [
        {
          "indexed": true,
          "internalType": "address",
          "name": "owner",
          "type": "address"
        },
        {
          "indexed": true,
          "internalType": "address",
          "name": "approved",
          "type": "address"
        },
        {
          "indexed": true,
          "internalType": "uint256",
          "name": "tokenId",
          "type": "uint256"
        }
      ],
      "name": "Approval",
      "type": "event"
    },
    {
      "anonymous": false,
      "inputs": [
        {
          "indexed": true,
          "internalType": "address",
          "name": "owner",
          "type": "address"
        },
        {
          "indexed": true,
          "internalType": "address",
          "name": "operator",
          "type": "address"
        },
        {
          "indexed": false,
          "internalType": "bool",
          "name": "approved",
          "type": "bool"
        }
      ],
      "name": "ApprovalForAll",
      "type": "event"
    },
    {
      "anonymous": false,
      "inputs": [
        {
          "indexed": false,
          "internalType": "uint256",
          "name": "_fromTokenId",
          "type": "uint256"
        },
        {
          "indexed": false,
          "internalType": "uint256",
          "name": "_toTokenId",
          "type": "uint256"
        }
      ],
      "name": "BatchMetadataUpdate",
      "type": "event"
    },
    {
      "anonymous": false,
      "inputs": [
        {
          "indexed": false,
          "internalType": "string",
          "name": "config",
          "type": "string"
        },
        {
          "indexed": false,
          "internalType": "uint256",
          "name": "oldValue",
          "type": "uint256"
        },
        {
          "indexed": false,
          "internalType": "uint256",
          "name": "newValue",
          "type": "uint256"
        }
      ],
      "name": "ConfigUpdated",
      "type": "event"
    },
    {
      "anonymous": false,
      "inputs": [
        {
          "indexed": false,
          "internalType": "uint256",
          "name": "_tokenId",
          "type": "uint256"
        }
      ],
      "name": "MetadataUpdate",
      "type": "event"
    },
    {
      "anonymous": false,
      "inputs": [
        {
          "indexed": true,
          "internalType": "address",
          "name": "previousOwner",
          "type": "address"
        },
        {
          "indexed": true,
          "internalType": "address",
          "name": "newOwner",
          "type": "address"
        }
      ],
      "name": "OwnershipTransferred",
      "type": "event"
    },
    {
      "anonymous": false,
      "inputs": [
        {
          "indexed": true,
          "internalType": "uint256",
          "name": "tokenId",
          "type": "uint256"
        },
        {
          "indexed": true,
          "internalType": "address",
          "name": "owner",
          "type": "address"
        },
        {
          "indexed": false,
          "internalType": "enum PropertyNFTFactory.PropertyType",
          "name": "propertyType",
          "type": "uint8"
        },
        {
          "indexed": false,
          "internalType": "string",
          "name": "location",
          "type": "string"
        },
        {
          "indexed": false,
          "internalType": "uint256",
          "name": "price",
          "type": "uint256"
        },
        {
          "indexed": false,
          "internalType": "string",
          "name": "tokenURI",
          "type": "string"
        }
      ],
      "name": "PropertyCreated",
      "type": "event"
    },
    {
      "anonymous": false,
      "inputs": [
        {
          "indexed": true,
          "internalType": "uint256",
          "name": "tokenId",
          "type": "uint256"
        },
        {
          "indexed": true,
          "internalType": "address",
          "name": "owner",
          "type": "address"
        },
        {
          "indexed": false,
          "internalType": "bool",
          "name": "isListed",
          "type": "bool"
        }
      ],
      "name": "PropertyListed",
      "type": "event"
    },
    {
      "anonymous": false,
      "inputs": [
        {
          "indexed": true,
          "internalType": "uint256",
          "name": "tokenId",
          "type": "uint256"
        },
        {
          "indexed": true,
          "internalType": "address",
          "name": "from",
          "type": "address"
        },
        {
          "indexed": true,
          "internalType": "address",
          "name": "to",
          "type": "address"
        }
      ],
      "name": "PropertyTransferred",
      "type": "event"
    },
    {
      "anonymous": false,
      "inputs": [
        {
          "indexed": true,
          "internalType": "address",
          "name": "user",
          "type": "address"
        },
        {
          "indexed": false,
          "internalType": "uint256",
          "name": "expiryDate",
          "type": "uint256"
        }
      ],
      "name": "SubscriptionPurchased",
      "type": "event"
    },
    {
      "anonymous": false,
      "inputs": [
        {
          "indexed": true,
          "internalType": "address",
          "name": "from",
          "type": "address"
        },
        {
          "indexed": true,
          "internalType": "address",
          "name": "to",
          "type": "address"
        },
        {
          "indexed": true,
          "internalType": "uint256",
          "name": "tokenId",
          "type": "uint256"
        }
      ],
      "name": "Transfer",
      "type": "event"
    },
    {
      "inputs": [
        {
          "internalType": "address",
          "name": "to",
          "type": "address"
        },
        {
          "internalType": "uint256",
          "name": "tokenId",
          "type": "uint256"
        }
      ],
      "name": "approve",
      "outputs": [],
      "stateMutability": "nonpayable",
      "type": "function"
    },
    {
      "inputs": [
        {
          "internalType": "address",
          "name": "owner",
          "type": "address"
        }
      ],
      "name": "balanceOf",
      "outputs": [
        {
          "internalType": "uint256",
          "name": "",
          "type": "uint256"
        }
      ],
      "stateMutability": "view",
      "type": "function"
    },
    {
      "inputs": [
        {
          "internalType": "address",
          "name": "userAddress",
          "type": "address"
        }
      ],
      "name": "canUploadMore",
      "outputs": [
        {
          "internalType": "bool",
          "name": "",
          "type": "bool"
        }
      ],
      "stateMutability": "view",
      "type": "function"
    },
    {
      "inputs": [
        {
          "internalType": "enum PropertyNFTFactory.PropertyType",
          "name": "propertyType",
          "type": "uint8"
        },
        {
          "internalType": "string",
          "name": "location",
          "type": "string"
        },
        {
          "internalType": "uint256",
          "name": "price",
          "type": "uint256"
        },
        {
          "internalType": "string",
          "name": "tokenURI",
          "type": "string"
        }
      ],
      "name": "createProperty",
      "outputs": [],
      "stateMutability": "nonpayable",
      "type": "function"
    },
    {
      "inputs": [],
      "name": "freeUploadsLimit",
      "outputs": [
        {
          "internalType": "uint256",
          "name": "",
          "type": "uint256"
        }
      ],
      "stateMutability": "view",
      "type": "function"
    },
    {
      "inputs": [
        {
          "internalType": "uint256",
          "name": "tokenId",
          "type": "uint256"
        }
      ],
      "name": "getApproved",
      "outputs": [
        {
          "internalType": "address",
          "name": "",
          "type": "address"
        }
      ],
      "stateMutability": "view",
      "type": "function"
    },
    {
      "inputs": [
        {
          "internalType": "uint256",
          "name": "tokenId",
          "type": "uint256"
        }
      ],
      "name": "getProperty",
      "outputs": [
        {
          "components": [
            {
              "internalType": "enum PropertyNFTFactory.PropertyType",
              "name": "propertyType",
              "type": "uint8"
            },
            {
              "internalType": "string",
              "name": "location",
              "type": "string"
            },
            {
              "internalType": "uint256",
              "name": "price",
              "type": "uint256"
            },
            {
              "internalType": "uint256",
              "name": "creationTimestamp",
              "type": "uint256"
            },
            {
              "internalType": "address",
              "name": "owner",
              "type": "address"
            },
            {
              "internalType": "bool",
              "name": "isListed",
              "type": "bool"
            },
            {
              "internalType": "string",
              "name": "tokenURI",
              "type": "string"
            }
          ],
          "internalType": "struct PropertyNFTFactory.PropertyMetadata",
          "name": "",
          "type": "tuple"
        }
      ],
      "stateMutability": "view",
      "type": "function"
    },
    {
      "inputs": [
        {
          "internalType": "address",
          "name": "userAddress",
          "type": "address"
        }
      ],
      "name": "getSubscriptionExpiry",
      "outputs": [
        {
          "internalType": "uint256",
          "name": "",
          "type": "uint256"
        }
      ],
      "stateMutability": "view",
      "type": "function"
    },
    {
      "inputs": [],
      "name": "getTotalProperties",
      "outputs": [
        {
          "internalType": "uint256",
          "name": "",
          "type": "uint256"
        }
      ],
      "stateMutability": "view",
      "type": "function"
    },
    {
      "inputs": [
        {
          "internalType": "address",
          "name": "userAddress",
          "type": "address"
        }
      ],
      "name": "getUserPropertyCount",
      "outputs": [
        {
          "internalType": "uint256",
          "name": "",
          "type": "uint256"
        }
      ],
      "stateMutability": "view",
      "type": "function"
    },
    {
      "inputs": [
        {
          "internalType": "address",
          "name": "userAddress",
          "type": "address"
        }
      ],
      "name": "grantFreeUploads",
      "outputs": [],
      "stateMutability": "nonpayable",
      "type": "function"
    },
    {
      "inputs": [
        {
          "internalType": "address",
          "name": "userAddress",
          "type": "address"
        }
      ],
      "name": "hasActiveSubscription",
      "outputs": [
        {
          "internalType": "bool",
          "name": "",
          "type": "bool"
        }
      ],
      "stateMutability": "view",
      "type": "function"
    },
    {
      "inputs": [
        {
          "internalType": "address",
          "name": "",
          "type": "address"
        }
      ],
      "name": "hasFreeUploads",
      "outputs": [
        {
          "internalType": "bool",
          "name": "",
          "type": "bool"
        }
      ],
      "stateMutability": "view",
      "type": "function"
    },
    {
      "inputs": [
        {
          "internalType": "address",
          "name": "owner",
          "type": "address"
        },
        {
          "internalType": "address",
          "name": "operator",
          "type": "address"
        }
      ],
      "name": "isApprovedForAll",
      "outputs": [
        {
          "internalType": "bool",
          "name": "",
          "type": "bool"
        }
      ],
      "stateMutability": "view",
      "type": "function"
    },
    {
      "inputs": [],
      "name": "name",
      "outputs": [
        {
          "internalType": "string",
          "name": "",
          "type": "string"
        }
      ],
      "stateMutability": "view",
      "type": "function"
    },
    {
      "inputs": [],
      "name": "owner",
      "outputs": [
        {
          "internalType": "address",
          "name": "",
          "type": "address"
        }
      ],
      "stateMutability": "view",
      "type": "function"
    },
    {
      "inputs": [
        {
          "internalType": "uint256",
          "name": "tokenId",
          "type": "uint256"
        }
      ],
      "name": "ownerOf",
      "outputs": [
        {
          "internalType": "address",
          "name": "",
          "type": "address"
        }
      ],
      "stateMutability": "view",
      "type": "function"
    },
    {
      "inputs": [
        {
          "internalType": "uint256",
          "name": "",
          "type": "uint256"
        }
      ],
      "name": "properties",
      "outputs": [
        {
          "internalType": "enum PropertyNFTFactory.PropertyType",
          "name": "propertyType",
          "type": "uint8"
        },
        {
          "internalType": "string",
          "name": "location",
          "type": "string"
        },
        {
          "internalType": "uint256",
          "name": "price",
          "type": "uint256"
        },
        {
          "internalType": "uint256",
          "name": "creationTimestamp",
          "type": "uint256"
        },
        {
          "internalType": "address",
          "name": "owner",
          "type": "address"
        },
        {
          "internalType": "bool",
          "name": "isListed",
          "type": "bool"
        },
        {
          "internalType": "string",
          "name": "tokenURI",
          "type": "string"
        }
      ],
      "stateMutability": "view",
      "type": "function"
    },
    {
      "inputs": [],
      "name": "purchaseSubscription",
      "outputs": [],
      "stateMutability": "payable",
      "type": "function"
    },
    {
      "inputs": [],
      "name": "renounceOwnership",
      "outputs": [],
      "stateMutability": "nonpayable",
      "type": "function"
    },
    {
      "inputs": [
        {
          "internalType": "address",
          "name": "from",
          "type": "address"
        },
        {
          "internalType": "address",
          "name": "to",
          "type": "address"
        },
        {
          "internalType": "uint256",
          "name": "tokenId",
          "type": "uint256"
        }
      ],
      "name": "safeTransferFrom",
      "outputs": [],
      "stateMutability": "nonpayable",
      "type": "function"
    },
    {
      "inputs": [
        {
          "internalType": "address",
          "name": "from",
          "type": "address"
        },
        {
          "internalType": "address",
          "name": "to",
          "type": "address"
        },
        {
          "internalType": "uint256",
          "name": "tokenId",
          "type": "uint256"
        },
        {
          "internalType": "bytes",
          "name": "data",
          "type": "bytes"
        }
      ],
      "name": "safeTransferFrom",
      "outputs": [],
      "stateMutability": "nonpayable",
      "type": "function"
    },
    {
      "inputs": [
        {
          "internalType": "address",
          "name": "operator",
          "type": "address"
        },
        {
          "internalType": "bool",
          "name": "approved",
          "type": "bool"
        }
      ],
      "name": "setApprovalForAll",
      "outputs": [],
      "stateMutability": "nonpayable",
      "type": "function"
    },
    {
      "inputs": [
        {
          "internalType": "uint256",
          "name": "tokenId",
          "type": "uint256"
        },
        {
          "internalType": "bool",
          "name": "isListed",
          "type": "bool"
        }
      ],
      "name": "setPropertyListed",
      "outputs": [],
      "stateMutability": "nonpayable",
      "type": "function"
    },
    {
      "inputs": [],
      "name": "subscriptionDuration",
      "outputs": [
        {
          "internalType": "uint256",
          "name": "",
          "type": "uint256"
        }
      ],
      "stateMutability": "view",
      "type": "function"
    },
    {
      "inputs": [
        {
          "internalType": "address",
          "name": "",
          "type": "address"
        }
      ],
      "name": "subscriptionExpiry",
      "outputs": [
        {
          "internalType": "uint256",
          "name": "",
          "type": "uint256"
        }
      ],
      "stateMutability": "view",
      "type": "function"
    },
    {
      "inputs": [],
      "name": "subscriptionPrice",
      "outputs": [
        {
          "internalType": "uint256",
          "name": "",
          "type": "uint256"
        }
      ],
      "stateMutability": "view",
      "type": "function"
    },
    {
      "inputs": [
        {
          "internalType": "bytes4",
          "name": "interfaceId",
          "type": "bytes4"
        }
      ],
      "name": "supportsInterface",
      "outputs": [
        {
          "internalType": "bool",
          "name": "",
          "type": "bool"
        }
      ],
      "stateMutability": "view",
      "type": "function"
    },
    {
      "inputs": [],
      "name": "symbol",
      "outputs": [
        {
          "internalType": "string",
          "name": "",
          "type": "string"
        }
      ],
      "stateMutability": "view",
      "type": "function"
    },
    {
      "inputs": [
        {
          "internalType": "uint256",
          "name": "tokenId",
          "type": "uint256"
        }
      ],
      "name": "tokenURI",
      "outputs": [
        {
          "internalType": "string",
          "name": "",
          "type": "string"
        }
      ],
      "stateMutability": "view",
      "type": "function"
    },
    {
      "inputs": [
        {
          "internalType": "address",
          "name": "from",
          "type": "address"
        },
        {
          "internalType": "address",
          "name": "to",
          "type": "address"
        },
        {
          "internalType": "uint256",
          "name": "tokenId",
          "type": "uint256"
        }
      ],
      "name": "transferFrom",
      "outputs": [],
      "stateMutability": "nonpayable",
      "type": "function"
    },
    {
      "inputs": [
        {
          "internalType": "address",
          "name": "newOwner",
          "type": "address"
        }
      ],
      "name": "transferOwnership",
      "outputs": [],
      "stateMutability": "nonpayable",
      "type": "function"
    },
    {
      "inputs": [
        {
          "internalType": "uint256",
          "name": "newLimit",
          "type": "uint256"
        }
      ],
      "name": "updateFreeUploadsLimit",
      "outputs": [],
      "stateMutability": "nonpayable",
      "type": "function"
    },
    {
      "inputs": [
        {
          "internalType": "uint256",
          "name": "tokenId",
          "type": "uint256"
        },
        {
          "internalType": "uint256",
          "name": "newPrice",
          "type": "uint256"
        },
        {
          "internalType": "string",
          "name": "newTokenURI",
          "type": "string"
        }
      ],
      "name": "updatePropertyMetadata",
      "outputs": [],
      "stateMutability": "nonpayable",
      "type": "function"
    },
    {
      "inputs": [
        {
          "internalType": "uint256",
          "name": "newDuration",
          "type": "uint256"
        }
      ],
      "name": "updateSubscriptionDuration",
      "outputs": [],
      "stateMutability": "nonpayable",
      "type": "function"
    },
    {
      "inputs": [
        {
          "internalType": "uint256",
          "name": "newPrice",
          "type": "uint256"
        }
      ],
      "name": "updateSubscriptionPrice",
      "outputs": [],
      "stateMutability": "nonpayable",
      "type": "function"
    },
    {
      "inputs": [
        {
          "internalType": "address",
          "name": "",
          "type": "address"
        }
      ],
      "name": "userPropertyCount",
      "outputs": [
        {
          "internalType": "uint256",
          "name": "",
          "type": "uint256"
        }
      ],
      "stateMutability": "view",
      "type": "function"
    },
    {
      "inputs": [],
      "name": "userRegistry",
      "outputs": [
        {
          "internalType": "contract UserRegistry",
          "name": "",
          "type": "address"
        }
      ],
      "stateMutability": "view",
      "type": "function"
    },
    {
      "inputs": [],
      "name": "withdrawPayments",
      "outputs": [],
      "stateMutability": "nonpayable",
      "type": "function"
    }
  ],
  "bytecode": "0x6080604052346103dd5761281d6020813803918261001c816103e2565b9384928339810103126103dd57516001600160a01b038116908190036103dd5761004660406103e2565b90601482527f50726f707479436861696e2050726f7065727479000000000000000000000000602083015261007b60406103e2565b6004815263050524f560e41b602082015282519091906001600160401b0381116102e857600054600181811c911680156103d3575b60208210146102c857601f811161036f575b506020601f821160011461030957819293946000926102fe575b50508160011b916000199060031b1c1916176000555b81516001600160401b0381116102e857600154600181811c911680156102de575b60208210146102c857601f8111610263575b50602092601f82116001146101fe57928192936000926101f3575b50508160011b916000199060031b1c1916176001555b33156101dd5760078054336001600160a01b0319821681179092556040519291906001600160a01b03167f8be0079c531659141344cd1fd0a4f28419497f9722a3daafe3b4186f6b6457e0600080a36002600d556729a2241af62c0000600e5562278d00600f55601080546001600160a01b03191691909117905561241590816104088239f35b631e4fbdf760e01b600052600060045260246000fd5b015190503880610140565b601f198216936001600052806000209160005b86811061024b5750836001959610610232575b505050811b01600155610156565b015160001960f88460031b161c19169055388080610224565b91926020600181928685015181550194019201610211565b60016000527fb10e2d527612073b26eecdfd717e6a320cf44b4afac2b0732d9fcbe2b7fa0cf6601f830160051c810191602084106102be575b601f0160051c01905b8181106102b25750610125565b600081556001016102a5565b909150819061029c565b634e487b7160e01b600052602260045260246000fd5b90607f1690610113565b634e487b7160e01b600052604160045260246000fd5b0151905038806100dc565b601f1982169060008052806000209160005b8181106103575750958360019596971061033e575b505050811b016000556100f2565b015160001960f88460031b161c19169055388080610330565b9192602060018192868b01518155019401920161031b565b600080527f290decd9548b62a8d60345a988386fc84ba6bc95484008f6362f93160ef3e563601f830160051c810191602084106103c9575b601f0160051c01905b8181106103bd57506100c2565b600081556001016103b0565b90915081906103a7565b90607f16906100b0565b600080fd5b6040519190601f01601f191682016001600160401b038111838210176102e85760405256fe6080604052600436101561001257600080fd5b6000803560e01c806301b7d18d146111a757806301ffc9a71461111a57806304c9927b1461108c57806306fdde0314611004578063081812fc14610fc7578063095ea7b314610edd5780630aacd6c914610d3b5780631454f91714610d0d57806317aaf5ed14610cef57806323b872dd14610cd75780633231873b146107f657806332665ffb14610b3e5780633a32e93614610ab35780633a89fedd14610a2157806342842e0e146109f1578063569b3fda146109d35780635c7460d6146109aa57806360a85ef5146104335780636103d70b146109575780636352211e1461092657806370a08231146108d3578063715018a6146108765780637a94a633146108585780638da5cb5b1461082f5780638ebdf271146107f657806395d89b4114610727578063a22cb46514610687578063b7a88d57146105fd578063b88d4fde14610589578063bdc8e54c1461056b578063bebe4a5714610530578063c87b56dd146104fc578063c963c510146104bd578063d6d9014a1461046c578063d8376ee214610433578063db1bed221461035b578063e985e9c514610301578063f2fde38b146102785763f7b10808146101ca57600080fd5b3461027557602036600319011261027557604061022f91600435815260096020522061027160ff8254169161020160018201611c87565b60ff6002830154926003810154610240610222600560048501549401611c87565b94604051998a809a611c1b565b60e060208a015260e0890190611b76565b946040880152606087015260018060a01b038116608087015260a01c16151560a085015283820360c0850152611b76565b0390f35b80fd5b503461027557602036600319011261027557610292611bb5565b61029a612246565b6001600160a01b031680156102ed57600780546001600160a01b0319811683179091556001600160a01b03167f8be0079c531659141344cd1fd0a4f28419497f9722a3daafe3b4186f6b6457e08380a380f35b631e4fbdf760e01b82526004829052602482fd5b503461027557604036600319011261027557604061031d611bb5565b91610326611bcb565b9260018060a01b031681526005602052209060018060a01b0316600052602052602060ff604060002054166040519015158152f35b508060031936011261027557600e5434106103e057338152600c6020526040812054428111156103ce57600f5461039191612090565b338252600c6020528060408320556040519081527f799bcc5d05a0d37fc0012dba6e154d1353b3b36495bf076daf88f7b1428a3f8160203392a280f35b506103db600f5442612090565b610391565b60405162461bcd60e51b815260206004820152602560248201527f496e73756666696369656e74207061796d656e7420666f722073756273637269604482015264383a34b7b760d91b6064820152608490fd5b5034610275576020366003190112610275576020906040906001600160a01b0361045b611bb5565b168152600c83522054604051908152f35b503461027557602036600319011261027557610486611bb5565b61049b60018060a01b03600754163314611df4565b6001600160a01b03168152600b60205260408120805460ff1916600117905580f35b50346102755760203660031901126102755760209060ff906040906001600160a01b036104e8611bb5565b168152600b84522054166040519015158152f35b50346102755760203660031901126102755761027161051c6004356123ac565b604051918291602083526020830190611b76565b5034610275576020366003190112610275576020906040906001600160a01b03610558611bb5565b168152600c835220546040519042108152f35b50346102755780600319360112610275576020600e54604051908152f35b5034610275576080366003190112610275576105a3611bb5565b6105ab611bcb565b906044356064359267ffffffffffffffff84116105f957366023850112156105f9576105e46105f6943690602481600401359101611b1c565b926105f0838383611ee4565b3361226f565b80f35b8480fd5b5034610275576020366003190112610275577fd7474166e78731bc168caca1fe1ccebbd6f3c95baee64997902e6b48f442b81a60a0600435610649600180841b03600754163314611df4565b600d549080600d556040519160608352601060608401526f199c9959555c1b1bd8591cd31a5b5a5d60821b608084015260208301526040820152a180f35b5034610275576040366003190112610275576106a1611bb5565b6106a9611c3e565b6001600160a01b03909116908115610713573383526005602052604083208260005260205260406000209015159060ff1981541660ff83161790556040519081527f17307eab39ab6107e8899845ad3d59bd9653f200f220920489ca2b5937696c3160203392a380f35b630b61174360e31b83526004829052602483fd5b503461027557806003193601126102755760405190806001549061074a82611c4d565b80855291600181169081156107cf5750600114610772575b6102718461051c81860382611ade565b600181527fb10e2d527612073b26eecdfd717e6a320cf44b4afac2b0732d9fcbe2b7fa0cf6939250905b8082106107b55750909150810160200161051c82610762565b91926001816020925483858801015201910190929161079c565b60ff191660208087019190915292151560051b8501909201925061051c9150839050610762565b5034610275576020366003190112610275576020906040906001600160a01b0361081e611bb5565b168152600a83522054604051908152f35b50346102755780600319360112610275576007546040516001600160a01b039091168152602090f35b50346102755780600319360112610275576020600f54604051908152f35b503461027557806003193601126102755761088f612246565b600780546001600160a01b0319811690915581906001600160a01b03167f8be0079c531659141344cd1fd0a4f28419497f9722a3daafe3b4186f6b6457e08280a380f35b5034610275576020366003190112610275576001600160a01b036108f5611bb5565b168015610912578160409160209352600383522054604051908152f35b6322718ad960e21b82526004829052602482fd5b503461027557602036600319011261027557602061094560043561220f565b6040516001600160a01b039091168152f35b50346102755780600319360112610275578080808060018060a01b0360075416610982338214611df4565b47908282156109a1575bf1156109955780f35b604051903d90823e3d90fd5b506108fc61098c565b50346102755780600319360112610275576010546040516001600160a01b039091168152602090f35b50346102755780600319360112610275576020600d54604051908152f35b5034610275576105f6610a0336611be1565b9060405192610a13602085611ade565b8584526105f0838383611ee4565b503461027557604036600319011261027557600435610a3e611c3e565b90610a5b610a4b8261220f565b6001600160a01b03163314611e4b565b808352600960205260408320600401805460ff60a01b191683151560a01b60ff60a01b1617905560405191151582527f33315acc9ec29ea596225d2167d5ef96ec3a3bfee816f24901991912b90bb7d360203393a380f35b5034610275576020366003190112610275577fd7474166e78731bc168caca1fe1ccebbd6f3c95baee64997902e6b48f442b81a60a0600435610aff600180841b03600754163314611df4565b600e549080600e5560405191606083526011606084015270737562736372697074696f6e507269636560781b608084015260208301526040820152a180f35b503461027557602036600319011261027557600435606060c0604051610b6381611aac565b84815282602082015284604082015284838201528460808201528460a0820152015280151580610ccb575b15610c865781604091610c3d935260096020522061027160405191610bb283611aac565b610bc060ff82541684611de8565b610bcc60018201611c87565b602084019081526002820154916040850192835260038101549060608601918252600481015491610c50610c20600560808a019460018060a01b038716865260ff60a08c019760a01c161515875201611c87565b9460c08901958652604051998a9960208b5260208b019051611c1b565b5160e060408a0152610100890190611b76565b94516060880152516080870152516001600160a01b031660a086015251151560c085015251838203601f190160e0850152611b76565b60405162461bcd60e51b815260206004820152601760248201527f50726f706572747920646f6573206e6f742065786973740000000000000000006044820152606490fd5b50600854811115610b8e565b5034610275576105f6610ce936611be1565b91611ee4565b50346102755780600319360112610275576020600854604051908152f35b5034610275576020366003190112610275576020610d31610d2c611bb5565b611e8c565b6040519015158152f35b5034610275576060366003190112610275576004359060243560443567ffffffffffffffff8111610ed957610d74903690600401611b58565b90610d81610a4b8561220f565b610d8c811515611d2b565b610d9882511515611d77565b838352600960205260026040842001558282526009602052600560408320019281519367ffffffffffffffff8511610ec557610dd48154611c4d565b601f8111610e80575b506020601f8611600114610e1c57948085966105f69691610e11575b508160011b916000199060031b1c191617905561209d565b905084015138610df9565b81855280852090601f198716865b818110610e6857509187916105f6979860019410610e4f575b5050811b01905561209d565b86015160001960f88460031b161c191690553880610e43565b9192602060018192868a015181550194019201610e2a565b81855260208520601f870160051c81019160208810610ebb575b601f0160051c01905b818110610eb05750610ddd565b858155600101610ea3565b9091508190610e9a565b634e487b7160e01b84526041600452602484fd5b8280fd5b503461027557604036600319011261027557610ef7611bb5565b602435610f038161220f565b33151580610fb4575b80610f87575b610f745781906001600160a01b0384811691167f8c5be1e5ebec7d5bd14f71427d1e84f3dd0314c0f7b2291e5b200ac8c7c3b9258680a4825260046020526040822080546001600160a01b0319166001600160a01b0390921691909117905580f35b63a9fbf51f60e01b845233600452602484fd5b506001600160a01b0381168452600560209081526040808620336000908152925290205460ff1615610f12565b506001600160a01b038116331415610f0c565b503461027557602036600319011261027557602090600435610fe88161220f565b50815260048252604060018060a01b0391205416604051908152f35b5034610275578060031936011261027557604051908080549061102682611c4d565b80855291600181169081156107cf575060011461104d576102718461051c81860382611ade565b80805260208120939250905b8082106110725750909150810160200161051c82610762565b919260018160209254838588010152019101909291611059565b5034610275576020366003190112610275577fd7474166e78731bc168caca1fe1ccebbd6f3c95baee64997902e6b48f442b81a60a06004356110d8600180841b03600754163314611df4565b600f549080600f556040519160608352601460608401527339bab139b1b934b83a34b7b7223ab930ba34b7b760611b608084015260208301526040820152a180f35b50346102755760203660031901126102755760043563ffffffff60e01b81168091036111a357602090632483248360e11b8114908115611160575b506040519015158152f35b6380ac58cd60e01b811491508115611192575b8115611181575b5082611155565b6301ffc9a760e01b1490508261117a565b635b5e139f60e01b81149150611173565b5080fd5b503461027557608036600319011261027557600560043510156102755760243567ffffffffffffffff81116111a3576111e4903690600401611b58565b60643567ffffffffffffffff8111610ed957611204903690600401611b58565b601054604051639ee20b1560e01b815233600482015291929190602090829060249082906001600160a01b03165afa908115611aa1578491611a62575b5015611a1d5760048035116119e05780511561199b576112646044351515611d2b565b61127082511515611d77565b338352600b60205260ff6040842054161580611983575b611905575b611297600854611dc3565b90816008556040516112a881611aac565b6112b460043582611de8565b602081018281526040820160443581526060830190428252608084019133835260a08501918983528860c0870152878a52600960205260408a2094865160058110156118f15760ff801988541691161786555180519067ffffffffffffffff82116118dd576113266001880154611c4d565b601f8111611890575b506020908c601f841160011461181b5792806113b09693600599969360c09b999692611810575b50508160011b916000199060031b1c19161760018701555b5160028601555160038501559051600484018054925160ff60a01b90151560a01b166001600160a01b039092166001600160a81b031990931692909217179055565b0191015180519067ffffffffffffffff82116117fc5781906113d28454611c4d565b601f81116117ac575b50602090601f831160011461174957889261173e575b50508160011b916000199060031b1c19161790555b338452600a6020526040842061141c8154611dc3565b905560209060405161142e8382611ade565b858152331561172a578386526002835260408620546001600160a01b031680151590816116f6575b33808952600386526040808a2080546001019055878a5260028752892080546001600160a01b031916821790558690827fddf252ad1be2c89b69c2b068fc378daa952ba7f163c4a11628f55a4df523b3ef8b80a4506116e257333b6115c4575b506114c1848461209d565b601054338652600a8352604086205486916001600160a01b0316803b15610ed9576044839260405194859384926332280f1960e21b845233600485015260248401525af180156115b957611578575b507f198edc0d845fa7060a2b16db6367c42e9850d40cc65a89695e35bbf2d67f43b09161157261155b60809360405194859461154e86600435611c1b565b8501526080840190611b76565b604435604084015282810360608401523396611b76565b0390a380f35b9161157261155b876115ae608095997f198edc0d845fa7060a2b16db6367c42e9850d40cc65a89695e35bbf2d67f43b097611ade565b979350505091611510565b6040513d88823e3d90fd5b8261160291604097969594975180938192630a85bd0160e11b8352336004840152896024840152876044840152608060648401526084830190611b76565b038188335af185918161169e575b506116675785853d1561165f573d9161162883611b00565b926116366040519485611ade565b83523d828285013e5b8251928361165a57633250574960e11b835233600452602483fd5b019050fd5b60609161163f565b939492939192916001600160e01b03191663757a42ff60e11b0161168b57386114b6565b633250574960e11b855233600452602485fd5b9091508681813d83116116db575b6116b68183611ade565b810103126116d757516001600160e01b0319811681036116d7579038611610565b8580fd5b503d6116ac565b6339e3563760e11b86526004869052602486fd5b600086815260046020526040902080546001600160a01b031916905580885260038552604088208054600019019055611456565b633250574960e11b86526004869052602486fd5b0151905038806113f1565b8489528189209250601f198416895b818110611794575090846001959493921061177b575b505050811b019055611406565b015160001960f88460031b161c1916905538808061176e565b92936020600181928786015181550195019301611758565b90915083885260208820601f840160051c810191602085106117f2575b90601f859493920160051c01905b8181106117e457506113db565b8981558493506001016117d7565b90915081906117c9565b634e487b7160e01b87526041600452602487fd5b015190503880611356565b9190601f19841660018a018452828420935b8181106118785750936113b0969360059996936001938360c09d9b981061185f575b505050811b01600187015561136e565b015160001960f88460031b161c1916905538808061184f565b9293602060018192878601518155019501930161182d565b600188018d5260208d20601f840160051c810191602085106118d3575b601f0160051c01908d905b8281106118c657505061132f565b6001918155018d906118b8565b90915081906118ad565b634e487b7160e01b8c52604160045260248cfd5b634e487b7160e01b8c52602160045260248cfd5b338352600c6020526040832054421061128c5760405162461bcd60e51b815260206004820152603d60248201527f467265652075706c6f6164206c696d697420726561636865642e20507572636860448201527f61736520737562736372697074696f6e20746f20636f6e74696e75652e0000006064820152608490fd5b50338352600a6020526040832054600d541115611287565b60405162461bcd60e51b815260206004820152601860248201527f4c6f636174696f6e2063616e6e6f7420626520656d70747900000000000000006044820152606490fd5b60405162461bcd60e51b8152602060048201526015602482015274496e76616c69642070726f7065727479207479706560581b6044820152606490fd5b60405162461bcd60e51b815260206004820152601f60248201527f55736572206e6f742072656769737465726564206f7220696e616374697665006044820152606490fd5b90506020813d602011611a99575b81611a7d60209383611ade565b81010312611a9557518015158103611a955738611241565b8380fd5b3d9150611a70565b6040513d86823e3d90fd5b60e0810190811067ffffffffffffffff821117611ac857604052565b634e487b7160e01b600052604160045260246000fd5b90601f8019910116810190811067ffffffffffffffff821117611ac857604052565b67ffffffffffffffff8111611ac857601f01601f191660200190565b929192611b2882611b00565b91611b366040519384611ade565b829481845281830111611b53578281602093846000960137010152565b600080fd5b9080601f83011215611b5357816020611b7393359101611b1c565b90565b919082518082526020808301940160005b828110611ba5575050600081602094950152601f8019910116010190565b8181015186820152602001611b87565b600435906001600160a01b0382168203611b5357565b602435906001600160a01b0382168203611b5357565b6060906003190112611b53576004356001600160a01b0381168103611b5357906024356001600160a01b0381168103611b53579060443590565b906005821015611c285752565b634e487b7160e01b600052602160045260246000fd5b602435908115158203611b5357565b90600182811c92168015611c7d575b6020831014611c6757565b634e487b7160e01b600052602260045260246000fd5b91607f1691611c5c565b9060405191826000825492611c9b84611c4d565b8084529360018116908115611d095750600114611cc2575b50611cc092500383611ade565b565b90506000929192526020600020906000915b818310611ced575050906020611cc09282010138611cb3565b6020919350806001915483858901015201910190918492611cd4565b905060209250611cc094915060ff191682840152151560051b82010138611cb3565b15611d3257565b60405162461bcd60e51b815260206004820152601c60248201527f5072696365206d7573742062652067726561746572207468616e2030000000006044820152606490fd5b15611d7e57565b60405162461bcd60e51b815260206004820152601960248201527f546f6b656e205552492063616e6e6f7420626520656d707479000000000000006044820152606490fd5b6000198114611dd25760010190565b634e487b7160e01b600052601160045260246000fd5b6005821015611c285752565b15611dfb57565b60405162461bcd60e51b815260206004820152602260248201527f4f6e6c792061646d696e2063616e20706572666f726d2074686973206163746960448201526137b760f11b6064820152608490fd5b15611e5257565b60405162461bcd60e51b81526020600482015260126024820152712737ba10383937b832b93a3c9037bbb732b960711b6044820152606490fd5b6001600160a01b03166000818152600b602052604090205460ff168015611ecb575b611ec557600052600c602052604060002054421090565b50600190565b5080600052600a602052604060002054600d5411611eae565b6001600160a01b039091169190821561207a576000828152600260205260408120546001600160a01b0316938391859033151580611fe2575b507fddf252ad1be2c89b69c2b068fc378daa952ba7f163c4a11628f55a4df523b3ef9082611fad575b83815260036020526040812060018154019055848152600260205260408120846bffffffffffffffffffffffff60a01b82541617905580a46001600160a01b0316808303611f9357505050565b6364283d7b60e01b60005260045260245260445260646000fd5b600085815260046020526040902080546001600160a01b03191690558281526003602052604081208054600019019055611f46565b91509192508061202b575b15611ffc579084849238611f1d565b83908561201557602491637e27328960e01b8252600452fd5b60449163177e802f60e01b825233600452602452fd5b503385148015612059575b80611fed5750838152600460205260408120546001600160a01b03163314611fed565b5084815260056020908152604080832033845290915281205460ff16612036565b633250574960e11b600052600060045260246000fd5b91908201809211611dd257565b9190918060005260066020526040600020835167ffffffffffffffff8111611ac8576120c98254611c4d565b601f81116121c7575b506020601f821160011461213b57908060209493927ff8e1a15aba9398e019f0b49df1a4fde98ee17ae345cb5f6b5e2c27f5033e8ce79697600092612130575b50508160011b916000199060031b1c19161790555b604051908152a1565b015190503880612112565b601f1982169583600052816000209660005b8181106121af575096600192849260209796957ff8e1a15aba9398e019f0b49df1a4fde98ee17ae345cb5f6b5e2c27f5033e8ce7999a10612196575b505050811b019055612127565b015160001960f88460031b161c19169055388080612189565b8383015189556001909801976020938401930161214d565b826000526020600020601f830160051c81019160208410612205575b601f0160051c01905b8181106121f957506120d2565b600081556001016121ec565b90915081906121e3565b6000818152600260205260409020546001600160a01b0316908115612232575090565b637e27328960e01b60005260045260246000fd5b6007546001600160a01b0316330361225a57565b63118cdaa760e01b6000523360045260246000fd5b823b61227d575b5050505050565b604051630a85bd0160e11b81526001600160a01b0391821660048201529181166024830152604482019390935260806064820152911691602090829081906122c9906084830190611b76565b03816000865af18091600091612369575b509061233357503d1561232c573d6122f181611b00565b906122ff6040519283611ade565b81523d6000602083013e5b805190816123275782633250574960e11b60005260045260246000fd5b602001fd5b606061230a565b6001600160e01b03191663757a42ff60e11b0161235557503880808080612276565b633250574960e11b60005260045260246000fd5b6020813d6020116123a4575b8161238260209383611ade565b810103126111a35751906001600160e01b0319821682036102755750386122da565b3d9150612375565b6123b58161220f565b5060005260066020526123cb6040600020611c87565b60006040516123db602082611ade565b529056fea2646970667358221220199d04f8f20b4730d3a48621a54ae305c49c03960b27e03bb7b4e34c2ddd5ff464736f6c634300081c0033",
  "linkReferences": {},
  "deployedLinkReferences": {}
}