{
  "_format": "hh-sol-artifact-1",
  "contractName": "SoulboundNFT",
  "sourceName": "contracts/SoulboundNFT.sol",
  "abi": [
    {
      "inputs": [
        {
          "internalType": "address",
          "name": "_userRegistry",
          "type": "address"
        }
      ],
      "stateMutability": "nonpayable",
      "type": "constructor"
    },
    {
      "inputs": [
        {
          "internalType": "address",
          "name": "sender",
          "type": "address"
        },
        {
          "internalType": "uint256",
          "name": "tokenId",
          "type": "uint256"
        },
        {
          "internalType": "address",
          "name": "owner",
          "type": "address"
        }
      ],
      "name": "ERC721IncorrectOwner",
      "type": "error"
    },
    {
      "inputs": [
        {
          "internalType": "address",
          "name": "operator",
          "type": "address"
        },
        {
          "internalType": "uint256",
          "name": "tokenId",
          "type": "uint256"
        }
      ],
      "name": "ERC721InsufficientApproval",
      "type": "error"
    },
    {
      "inputs": [
        {
          "internalType": "address",
          "name": "approver",
          "type": "address"
        }
      ],
      "name": "ERC721InvalidApprover",
      "type": "error"
    },
    {
      "inputs": [
        {
          "internalType": "address",
          "name": "operator",
          "type": "address"
        }
      ],
      "name": "ERC721InvalidOperator",
      "type": "error"
    },
    {
      "inputs": [
        {
          "internalType": "address",
          "name": "owner",
          "type": "address"
        }
      ],
      "name": "ERC721InvalidOwner",
      "type": "error"
    },
    {
      "inputs": [
        {
          "internalType": "address",
          "name": "receiver",
          "type": "address"
        }
      ],
      "name": "ERC721InvalidReceiver",
      "type": "error"
    },
    {
      "inputs": [
        {
          "internalType": "address",
          "name": "sender",
          "type": "address"
        }
      ],
      "name": "ERC721InvalidSender",
      "type": "error"
    },
    {
      "inputs": [
        {
          "internalType": "uint256",
          "name": "tokenId",
          "type": "uint256"
        }
      ],
      "name": "ERC721NonexistentToken",
      "type": "error"
    },
    {
      "inputs": [
        {
          "internalType": "address",
          "name": "owner",
          "type": "address"
        }
      ],
      "name": "OwnableInvalidOwner",
      "type": "error"
    },
    {
      "inputs": [
        {
          "internalType": "address",
          "name": "account",
          "type": "address"
        }
      ],
      "name": "OwnableUnauthorizedAccount",
      "type": "error"
    },
    {
      "anonymous": false,
      "inputs": [
        {
          "indexed": true,
          "internalType": "address",
          "name": "owner",
          "type": "address"
        },
        {
          "indexed": true,
          "internalType": "address",
          "name": "approved",
          "type": "address"
        },
        {
          "indexed": true,
          "internalType": "uint256",
          "name": "tokenId",
          "type": "uint256"
        }
      ],
      "name": "Approval",
      "type": "event"
    },
    {
      "anonymous": false,
      "inputs": [
        {
          "indexed": true,
          "internalType": "address",
          "name": "owner",
          "type": "address"
        },
        {
          "indexed": true,
          "internalType": "address",
          "name": "operator",
          "type": "address"
        },
        {
          "indexed": false,
          "internalType": "bool",
          "name": "approved",
          "type": "bool"
        }
      ],
      "name": "ApprovalForAll",
      "type": "event"
    },
    {
      "anonymous": false,
      "inputs": [
        {
          "indexed": true,
          "internalType": "uint256",
          "name": "badgeId",
          "type": "uint256"
        },
        {
          "indexed": true,
          "internalType": "address",
          "name": "recipient",
          "type": "address"
        },
        {
          "indexed": false,
          "internalType": "enum SoulboundNFT.BadgeType",
          "name": "badgeType",
          "type": "uint8"
        },
        {
          "indexed": false,
          "internalType": "uint256",
          "name": "level",
          "type": "uint256"
        }
      ],
      "name": "BadgeAwarded",
      "type": "event"
    },
    {
      "anonymous": false,
      "inputs": [
        {
          "indexed": true,
          "internalType": "uint256",
          "name": "badgeId",
          "type": "uint256"
        },
        {
          "indexed": true,
          "internalType": "address",
          "name": "recipient",
          "type": "address"
        },
        {
          "indexed": false,
          "internalType": "enum SoulboundNFT.BadgeType",
          "name": "badgeType",
          "type": "uint8"
        },
        {
          "indexed": false,
          "internalType": "uint256",
          "name": "newLevel",
          "type": "uint256"
        }
      ],
      "name": "BadgeLevelUp",
      "type": "event"
    },
    {
      "anonymous": false,
      "inputs": [
        {
          "indexed": true,
          "internalType": "uint256",
          "name": "badgeId",
          "type": "uint256"
        },
        {
          "indexed": true,
          "internalType": "address",
          "name": "recipient",
          "type": "address"
        },
        {
          "indexed": false,
          "internalType": "enum SoulboundNFT.BadgeType",
          "name": "badgeType",
          "type": "uint8"
        },
        {
          "indexed": false,
          "internalType": "string",
          "name": "reason",
          "type": "string"
        }
      ],
      "name": "BadgeRevoked",
      "type": "event"
    },
    {
      "anonymous": false,
      "inputs": [
        {
          "indexed": false,
          "internalType": "uint256",
          "name": "_fromTokenId",
          "type": "uint256"
        },
        {
          "indexed": false,
          "internalType": "uint256",
          "name": "_toTokenId",
          "type": "uint256"
        }
      ],
      "name": "BatchMetadataUpdate",
      "type": "event"
    },
    {
      "anonymous": false,
      "inputs": [
        {
          "indexed": false,
          "internalType": "string",
          "name": "config",
          "type": "string"
        },
        {
          "indexed": false,
          "internalType": "uint256",
          "name": "oldValue",
          "type": "uint256"
        },
        {
          "indexed": false,
          "internalType": "uint256",
          "name": "newValue",
          "type": "uint256"
        }
      ],
      "name": "ConfigUpdated",
      "type": "event"
    },
    {
      "anonymous": false,
      "inputs": [
        {
          "indexed": false,
          "internalType": "uint256",
          "name": "_tokenId",
          "type": "uint256"
        }
      ],
      "name": "MetadataUpdate",
      "type": "event"
    },
    {
      "anonymous": false,
      "inputs": [
        {
          "indexed": true,
          "internalType": "address",
          "name": "previousOwner",
          "type": "address"
        },
        {
          "indexed": true,
          "internalType": "address",
          "name": "newOwner",
          "type": "address"
        }
      ],
      "name": "OwnershipTransferred",
      "type": "event"
    },
    {
      "anonymous": false,
      "inputs": [
        {
          "indexed": true,
          "internalType": "address",
          "name": "from",
          "type": "address"
        },
        {
          "indexed": true,
          "internalType": "address",
          "name": "to",
          "type": "address"
        },
        {
          "indexed": true,
          "internalType": "uint256",
          "name": "tokenId",
          "type": "uint256"
        }
      ],
      "name": "Transfer",
      "type": "event"
    },
    {
      "inputs": [
        {
          "internalType": "address",
          "name": "to",
          "type": "address"
        },
        {
          "internalType": "uint256",
          "name": "tokenId",
          "type": "uint256"
        }
      ],
      "name": "approve",
      "outputs": [],
      "stateMutability": "nonpayable",
      "type": "function"
    },
    {
      "inputs": [
        {
          "internalType": "address",
          "name": "recipient",
          "type": "address"
        },
        {
          "internalType": "enum SoulboundNFT.BadgeType",
          "name": "badgeType",
          "type": "uint8"
        },
        {
          "internalType": "string",
          "name": "metadata",
          "type": "string"
        },
        {
          "internalType": "uint256",
          "name": "level",
          "type": "uint256"
        }
      ],
      "name": "awardBadge",
      "outputs": [],
      "stateMutability": "nonpayable",
      "type": "function"
    },
    {
      "inputs": [
        {
          "internalType": "enum SoulboundNFT.BadgeType",
          "name": "",
          "type": "uint8"
        }
      ],
      "name": "badgeRequirements",
      "outputs": [
        {
          "internalType": "enum SoulboundNFT.BadgeType",
          "name": "badgeType",
          "type": "uint8"
        },
        {
          "internalType": "uint256",
          "name": "minProperties",
          "type": "uint256"
        },
        {
          "internalType": "uint256",
          "name": "minReviews",
          "type": "uint256"
        },
        {
          "internalType": "uint256",
          "name": "minReputation",
          "type": "uint256"
        },
        {
          "internalType": "uint256",
          "name": "minTransactions",
          "type": "uint256"
        },
        {
          "internalType": "uint256",
          "name": "minDaysActive",
          "type": "uint256"
        }
      ],
      "stateMutability": "view",
      "type": "function"
    },
    {
      "inputs": [
        {
          "internalType": "uint256",
          "name": "",
          "type": "uint256"
        }
      ],
      "name": "badges",
      "outputs": [
        {
          "internalType": "uint256",
          "name": "badgeId",
          "type": "uint256"
        },
        {
          "internalType": "enum SoulboundNFT.BadgeType",
          "name": "badgeType",
          "type": "uint8"
        },
        {
          "internalType": "address",
          "name": "recipient",
          "type": "address"
        },
        {
          "internalType": "uint256",
          "name": "awardedAt",
          "type": "uint256"
        },
        {
          "internalType": "string",
          "name": "metadata",
          "type": "string"
        },
        {
          "internalType": "bool",
          "name": "isActive",
          "type": "bool"
        },
        {
          "internalType": "uint256",
          "name": "level",
          "type": "uint256"
        }
      ],
      "stateMutability": "view",
      "type": "function"
    },
    {
      "inputs": [
        {
          "internalType": "address",
          "name": "owner",
          "type": "address"
        }
      ],
      "name": "balanceOf",
      "outputs": [
        {
          "internalType": "uint256",
          "name": "",
          "type": "uint256"
        }
      ],
      "stateMutability": "view",
      "type": "function"
    },
    {
      "inputs": [
        {
          "internalType": "address",
          "name": "userAddress",
          "type": "address"
        },
        {
          "internalType": "enum SoulboundNFT.BadgeType",
          "name": "badgeType",
          "type": "uint8"
        }
      ],
      "name": "checkBadgeEligibility",
      "outputs": [
        {
          "internalType": "bool",
          "name": "",
          "type": "bool"
        }
      ],
      "stateMutability": "view",
      "type": "function"
    },
    {
      "inputs": [
        {
          "internalType": "uint256",
          "name": "tokenId",
          "type": "uint256"
        }
      ],
      "name": "getApproved",
      "outputs": [
        {
          "internalType": "address",
          "name": "",
          "type": "address"
        }
      ],
      "stateMutability": "view",
      "type": "function"
    },
    {
      "inputs": [
        {
          "internalType": "uint256",
          "name": "badgeId",
          "type": "uint256"
        }
      ],
      "name": "getBadge",
      "outputs": [
        {
          "components": [
            {
              "internalType": "uint256",
              "name": "badgeId",
              "type": "uint256"
            },
            {
              "internalType": "enum SoulboundNFT.BadgeType",
              "name": "badgeType",
              "type": "uint8"
            },
            {
              "internalType": "address",
              "name": "recipient",
              "type": "address"
            },
            {
              "internalType": "uint256",
              "name": "awardedAt",
              "type": "uint256"
            },
            {
              "internalType": "string",
              "name": "metadata",
              "type": "string"
            },
            {
              "internalType": "bool",
              "name": "isActive",
              "type": "bool"
            },
            {
              "internalType": "uint256",
              "name": "level",
              "type": "uint256"
            }
          ],
          "internalType": "struct SoulboundNFT.Badge",
          "name": "",
          "type": "tuple"
        }
      ],
      "stateMutability": "view",
      "type": "function"
    },
    {
      "inputs": [
        {
          "internalType": "enum SoulboundNFT.BadgeType",
          "name": "badgeType",
          "type": "uint8"
        }
      ],
      "name": "getBadgeRequirements",
      "outputs": [
        {
          "components": [
            {
              "internalType": "enum SoulboundNFT.BadgeType",
              "name": "badgeType",
              "type": "uint8"
            },
            {
              "internalType": "uint256",
              "name": "minProperties",
              "type": "uint256"
            },
            {
              "internalType": "uint256",
              "name": "minReviews",
              "type": "uint256"
            },
            {
              "internalType": "uint256",
              "name": "minReputation",
              "type": "uint256"
            },
            {
              "internalType": "uint256",
              "name": "minTransactions",
              "type": "uint256"
            },
            {
              "internalType": "uint256",
              "name": "minDaysActive",
              "type": "uint256"
            }
          ],
          "internalType": "struct SoulboundNFT.BadgeRequirements",
          "name": "",
          "type": "tuple"
        }
      ],
      "stateMutability": "view",
      "type": "function"
    },
    {
      "inputs": [],
      "name": "getTotalBadges",
      "outputs": [
        {
          "internalType": "uint256",
          "name": "",
          "type": "uint256"
        }
      ],
      "stateMutability": "view",
      "type": "function"
    },
    {
      "inputs": [
        {
          "internalType": "address",
          "name": "userAddress",
          "type": "address"
        },
        {
          "internalType": "enum SoulboundNFT.BadgeType",
          "name": "badgeType",
          "type": "uint8"
        }
      ],
      "name": "getUserBadgeCount",
      "outputs": [
        {
          "internalType": "uint256",
          "name": "",
          "type": "uint256"
        }
      ],
      "stateMutability": "view",
      "type": "function"
    },
    {
      "inputs": [
        {
          "internalType": "address",
          "name": "userAddress",
          "type": "address"
        }
      ],
      "name": "getUserBadges",
      "outputs": [
        {
          "internalType": "uint256[]",
          "name": "",
          "type": "uint256[]"
        }
      ],
      "stateMutability": "view",
      "type": "function"
    },
    {
      "inputs": [
        {
          "internalType": "address",
          "name": "userAddress",
          "type": "address"
        }
      ],
      "name": "getUserTotalBadgeCount",
      "outputs": [
        {
          "internalType": "uint256",
          "name": "",
          "type": "uint256"
        }
      ],
      "stateMutability": "view",
      "type": "function"
    },
    {
      "inputs": [
        {
          "internalType": "address",
          "name": "userAddress",
          "type": "address"
        },
        {
          "internalType": "enum SoulboundNFT.BadgeType",
          "name": "badgeType",
          "type": "uint8"
        }
      ],
      "name": "hasBadge",
      "outputs": [
        {
          "internalType": "bool",
          "name": "",
          "type": "bool"
        }
      ],
      "stateMutability": "view",
      "type": "function"
    },
    {
      "inputs": [
        {
          "internalType": "address",
          "name": "owner",
          "type": "address"
        },
        {
          "internalType": "address",
          "name": "operator",
          "type": "address"
        }
      ],
      "name": "isApprovedForAll",
      "outputs": [
        {
          "internalType": "bool",
          "name": "",
          "type": "bool"
        }
      ],
      "stateMutability": "view",
      "type": "function"
    },
    {
      "inputs": [
        {
          "internalType": "uint256",
          "name": "badgeId",
          "type": "uint256"
        },
        {
          "internalType": "uint256",
          "name": "newLevel",
          "type": "uint256"
        }
      ],
      "name": "levelUpBadge",
      "outputs": [],
      "stateMutability": "nonpayable",
      "type": "function"
    },
    {
      "inputs": [],
      "name": "name",
      "outputs": [
        {
          "internalType": "string",
          "name": "",
          "type": "string"
        }
      ],
      "stateMutability": "view",
      "type": "function"
    },
    {
      "inputs": [],
      "name": "owner",
      "outputs": [
        {
          "internalType": "address",
          "name": "",
          "type": "address"
        }
      ],
      "stateMutability": "view",
      "type": "function"
    },
    {
      "inputs": [
        {
          "internalType": "uint256",
          "name": "tokenId",
          "type": "uint256"
        }
      ],
      "name": "ownerOf",
      "outputs": [
        {
          "internalType": "address",
          "name": "",
          "type": "address"
        }
      ],
      "stateMutability": "view",
      "type": "function"
    },
    {
      "inputs": [],
      "name": "renounceOwnership",
      "outputs": [],
      "stateMutability": "nonpayable",
      "type": "function"
    },
    {
      "inputs": [
        {
          "internalType": "uint256",
          "name": "badgeId",
          "type": "uint256"
        },
        {
          "internalType": "string",
          "name": "reason",
          "type": "string"
        }
      ],
      "name": "revokeBadge",
      "outputs": [],
      "stateMutability": "nonpayable",
      "type": "function"
    },
    {
      "inputs": [
        {
          "internalType": "address",
          "name": "from",
          "type": "address"
        },
        {
          "internalType": "address",
          "name": "to",
          "type": "address"
        },
        {
          "internalType": "uint256",
          "name": "tokenId",
          "type": "uint256"
        }
      ],
      "name": "safeTransferFrom",
      "outputs": [],
      "stateMutability": "nonpayable",
      "type": "function"
    },
    {
      "inputs": [
        {
          "internalType": "address",
          "name": "from",
          "type": "address"
        },
        {
          "internalType": "address",
          "name": "to",
          "type": "address"
        },
        {
          "internalType": "uint256",
          "name": "tokenId",
          "type": "uint256"
        },
        {
          "internalType": "bytes",
          "name": "data",
          "type": "bytes"
        }
      ],
      "name": "safeTransferFrom",
      "outputs": [],
      "stateMutability": "nonpayable",
      "type": "function"
    },
    {
      "inputs": [
        {
          "internalType": "address",
          "name": "operator",
          "type": "address"
        },
        {
          "internalType": "bool",
          "name": "approved",
          "type": "bool"
        }
      ],
      "name": "setApprovalForAll",
      "outputs": [],
      "stateMutability": "nonpayable",
      "type": "function"
    },
    {
      "inputs": [
        {
          "internalType": "bytes4",
          "name": "interfaceId",
          "type": "bytes4"
        }
      ],
      "name": "supportsInterface",
      "outputs": [
        {
          "internalType": "bool",
          "name": "",
          "type": "bool"
        }
      ],
      "stateMutability": "view",
      "type": "function"
    },
    {
      "inputs": [],
      "name": "symbol",
      "outputs": [
        {
          "internalType": "string",
          "name": "",
          "type": "string"
        }
      ],
      "stateMutability": "view",
      "type": "function"
    },
    {
      "inputs": [
        {
          "internalType": "uint256",
          "name": "tokenId",
          "type": "uint256"
        }
      ],
      "name": "tokenURI",
      "outputs": [
        {
          "internalType": "string",
          "name": "",
          "type": "string"
        }
      ],
      "stateMutability": "view",
      "type": "function"
    },
    {
      "inputs": [
        {
          "internalType": "address",
          "name": "from",
          "type": "address"
        },
        {
          "internalType": "address",
          "name": "to",
          "type": "address"
        },
        {
          "internalType": "uint256",
          "name": "tokenId",
          "type": "uint256"
        }
      ],
      "name": "transferFrom",
      "outputs": [],
      "stateMutability": "nonpayable",
      "type": "function"
    },
    {
      "inputs": [
        {
          "internalType": "address",
          "name": "newOwner",
          "type": "address"
        }
      ],
      "name": "transferOwnership",
      "outputs": [],
      "stateMutability": "nonpayable",
      "type": "function"
    },
    {
      "inputs": [
        {
          "internalType": "enum SoulboundNFT.BadgeType",
          "name": "badgeType",
          "type": "uint8"
        },
        {
          "internalType": "uint256",
          "name": "minProperties",
          "type": "uint256"
        },
        {
          "internalType": "uint256",
          "name": "minReviews",
          "type": "uint256"
        },
        {
          "internalType": "uint256",
          "name": "minReputation",
          "type": "uint256"
        },
        {
          "internalType": "uint256",
          "name": "minTransactions",
          "type": "uint256"
        },
        {
          "internalType": "uint256",
          "name": "minDaysActive",
          "type": "uint256"
        }
      ],
      "name": "updateBadgeRequirements",
      "outputs": [],
      "stateMutability": "nonpayable",
      "type": "function"
    },
    {
      "inputs": [
        {
          "internalType": "address",
          "name": "",
          "type": "address"
        },
        {
          "internalType": "enum SoulboundNFT.BadgeType",
          "name": "",
          "type": "uint8"
        }
      ],
      "name": "userBadgeCount",
      "outputs": [
        {
          "internalType": "uint256",
          "name": "",
          "type": "uint256"
        }
      ],
      "stateMutability": "view",
      "type": "function"
    },
    {
      "inputs": [
        {
          "internalType": "address",
          "name": "",
          "type": "address"
        },
        {
          "internalType": "uint256",
          "name": "",
          "type": "uint256"
        }
      ],
      "name": "userBadges",
      "outputs": [
        {
          "internalType": "uint256",
          "name": "",
          "type": "uint256"
        }
      ],
      "stateMutability": "view",
      "type": "function"
    },
    {
      "inputs": [],
      "name": "userRegistry",
      "outputs": [
        {
          "internalType": "contract UserRegistry",
          "name": "",
          "type": "address"
        }
      ],
      "stateMutability": "view",
      "type": "function"
    }
  ],
  "bytecode": "0x6080604052346107e357612cc36020813803918261001c81610807565b9384928339810103126107e357516001600160a01b038116908190036107e3576100466040610807565b90601b82527f50726f707479436861696e20536f756c626f756e642042616467650000000000602083015261007b6040610807565b60038152622829a160e91b602082015282519091906001600160401b0381116106ee57600054600181811c911680156107d9575b60208210146106ce57601f8111610775575b506020601f821160011461070f5781929394600092610704575b50508160011b916000199060031b1c1916176000555b81516001600160401b0381116106ee57600154600181811c911680156106e4575b60208210146106ce57601f8111610669575b50602092601f821160011461060457928192936000926105f9575b50508160011b916000199060031b1c1916176001555b33156105e35760078054336001600160a01b0319821681179092556001600160a01b03167f8be0079c531659141344cd1fd0a4f28419497f9722a3daafe3b4186f6b6457e0600080a3600d80546001600160a01b0319169190911790556101ba6107e8565b600081526020810190600582526040810191600083526060820160648152608083016003815260a0840191601e835260406000808052600c6020522094519560088710156105cd5760059460009760ff80198954169116178755516001870155516002860155516003850155516004840155519101556102386107e8565b9060018252602082019181835260408101601481526060820160c88152608083019084825260a0840192603c845260018652600c6020526040862094519660088810156105b9578697600596975060ff80198954169116178755516001870155516002860155516003850155516004840155519101556102b66107e8565b90600282526020820191600a835260408101600a8152606082016101f481526080830190600a825260a0840192605a845260028652600c6020526040862094519660088810156105b9578697600596975060ff80198954169116178755516001870155516002860155516003850155516004840155519101556103376107e8565b90600382526020820191600183526040810182815260608201838152608083019084825260a084019285845260038652600c6020526040862094519660088810156105b9578697600596975060ff80198954169116178755516001870155516002860155516003850155516004840155519101556103b36107e8565b90600482526020820191818352604081018281526060820183815260808301906001825260a084019285845260048652600c6020526040862094519660088810156105b9578697600596975060ff801989541691161787555160018701555160028601555160038501555160048401555191015561042f6107e8565b9060058252602082019181835260408101600581526060820160328152608083019084825260a0840192600f845260058652600c6020526040862094519660088810156105b9578697600596975060ff80198954169116178755516001870155516002860155516003850155516004840155519101556104ad6107e8565b906006825260208201918183526040810182815260608201838152608083019084825260a084019285845260068652600c6020526040862094519660088810156105b9578697600596975060ff80198954169116178755516001870155516002860155516003850155516004840155519101556105286107e8565b60078152602081018281526040820183815260608301848152608084019185835260a085019386855260078752600c60205260408720955160088110156105a557600596975060ff8019895416911617875551600187015551600286015551600385015551600484015551910155604051612496908161082d8239f35b634e487b7160e01b88526021600452602488fd5b634e487b7160e01b87526021600452602487fd5b634e487b7160e01b600052602160045260246000fd5b631e4fbdf760e01b600052600060045260246000fd5b01519050388061013f565b601f198216936001600052806000209160005b8681106106515750836001959610610638575b505050811b01600155610155565b015160001960f88460031b161c1916905538808061062a565b91926020600181928685015181550194019201610617565b60016000527fb10e2d527612073b26eecdfd717e6a320cf44b4afac2b0732d9fcbe2b7fa0cf6601f830160051c810191602084106106c4575b601f0160051c01905b8181106106b85750610124565b600081556001016106ab565b90915081906106a2565b634e487b7160e01b600052602260045260246000fd5b90607f1690610112565b634e487b7160e01b600052604160045260246000fd5b0151905038806100db565b601f1982169060008052806000209160005b81811061075d57509583600195969710610744575b505050811b016000556100f1565b015160001960f88460031b161c19169055388080610736565b9192602060018192868b015181550194019201610721565b600080527f290decd9548b62a8d60345a988386fc84ba6bc95484008f6362f93160ef3e563601f830160051c810191602084106107cf575b601f0160051c01905b8181106107c357506100c1565b600081556001016107b6565b90915081906107ad565b90607f16906100af565b600080fd5b6040519060c082016001600160401b038111838210176106ee57604052565b6040519190601f01601f191682016001600160401b038111838210176106ee5760405256fe608080604052600436101561001357600080fd5b60003560e01c90816301ffc9a71461183d5750806306fdde0314611798578063081812fc1461175a578063095ea7b31461166b5780631274664c146115f95780631f72885714610e0b57806323b872dd14610df457806337c245fe14610d3a5780633af0c68814610d0357806342842e0e14610cd357806347ea818414610cb5578063578f1f0114610c855780635c7460d614610c5c5780636352211e14610c2c57806370a0823114610bd6578063715018a614610b795780638b972b1914610b3f5780638d838622146109f65780638da5cb5b146109cd57806395d89b411461090057806398e36d8b14610865578063a22cb465146107bb578063b4af64141461076b578063b88d4fde146106fe578063c87b56dd146106c7578063c994a3ed146105ac578063d8be0f85146104c7578063df91cc231461046e578063e68677f714610338578063e985e9c5146102dd578063ec04ab441461026a578063f2fde38b146101e05763f8dd6ec01461018a57600080fd5b346101db5761019836611a8b565b9060088210156101c557816101bb916101b660076020951115611c1d565b611f18565b6040519015158152f35b634e487b7160e01b600052602160045260246000fd5b600080fd5b346101db5760203660031901126101db576101f961190a565b6102016122c7565b6001600160a01b0316801561025457600780546001600160a01b0319811683179091556001600160a01b03167f8be0079c531659141344cd1fd0a4f28419497f9722a3daafe3b4186f6b6457e0600080a3005b631e4fbdf760e01b600052600060045260246000fd5b346101db5760c03660031901126101db5760043560088110156101db576102b2906102a060018060a01b03600754163314611bc6565b6102ad6007821115611c1d565b611936565b602435600182015560443560028201556064356003820155608435600482015560a435600590910155005b346101db5760403660031901126101db576102f661190a565b6102fe611920565b9060018060a01b0316600052600560205260406000209060018060a01b0316600052602052602060ff604060002054166040519015158152f35b346101db5760403660031901126101db576004356024356001600160401b0381116101db5761036b903690600401611a33565b9061038160018060a01b03600754163314611bc6565b80151580610462575b61039390611e8a565b80600052600960205260ff6004604060002001541615610425578060005260096020527ff0f70489dc5cb2ca296cf379383e19befbf935b0276831829c86bd3c36471427610420600160406000206004810160ff198154169055015460405191816104028460ff819516611967565b6040602084015260018060a01b039060081c169560408301906118e5565b0390a3005b60405162461bcd60e51b815260206004820152601560248201527410985919d948185b1c9958591e481c995d9bdad959605a1b6044820152606490fd5b5060085481111561038a565b346101db5760403660031901126101db5761048761190a565b6001600160a01b03166000908152600a60205260409020805460243591908210156101db576020916104b891611b98565b90549060031b1c604051908152f35b346101db5760203660031901126101db5760043560088110156101db5761052460c091600060a06040516104fa816119a5565b82815282602082015282604082015282606082015282608082015201526102ad6007821115611c1d565b60405190610531826119a5565b61053f60ff82541683611cd2565b600181015490602083019182526002810154604084019081526003820154906060850191825260056004840154936080870194855201549360a0860194855261058c604051809751611967565b5160208601525160408501525160608401525160808301525160a0820152f35b346101db5760403660031901126101db57600435602435906105d960018060a01b03600754163314611bc6565b801515806106bb575b6105eb90611e8a565b6001821015806106b0575b6105ff90611c6b565b80600052600960205260ff6004604060002001541615610678578060005260096020527fab0f70373f5ffb608e5851b919696724896f9e864fce9ae50dbed8d8df4004b6604060018160002085600582015501548151946106638660ff8416611967565b602086015260081c6001600160a01b031693a3005b60405162461bcd60e51b815260206004820152601060248201526f4261646765206e6f742061637469766560801b6044820152606490fd5b5060058211156105f6565b506008548111156105e2565b346101db5760203660031901126101db576106fa6106e660043561242d565b6040519182916020835260208301906118e5565b0390f35b346101db5760803660031901126101db5761071761190a565b61071f611920565b90604435606435926001600160401b0384116101db57366023850112156101db576107576107699436906024816004013591016119fc565b92610763838383611cde565b336122f0565b005b346101db5761077936611a8b565b9060088210156101c557816107b29161079760076020951115611c1d565b6001600160a01b03166000908152600b84526040902061194f565b54604051908152f35b346101db5760403660031901126101db576107d461190a565b60243590811515908183036101db576001600160a01b0316918215610850576108229033600052600560205260406000208460005260205260406000209060ff801983541691151516179055565b6040519081527f17307eab39ab6107e8899845ad3d59bd9653f200f220920489ca2b5937696c3160203392a3005b82630b61174360e31b60005260045260246000fd5b346101db5760203660031901126101db5760043560005260096020526040600020805460018201549160028101546108ef6108a260038401611af4565b600560ff6004860154169401549260405196879687526108c86020880160ff8316611967565b60081c6001600160a01b03166040870152606086015260e0608086018190528501906118e5565b91151560a084015260c08301520390f35b346101db5760003660031901126101db57604051600060015461092281611aba565b80845290600181169081156109a9575060011461094a575b6106fa836106e6818503826119c0565b600160009081527fb10e2d527612073b26eecdfd717e6a320cf44b4afac2b0732d9fcbe2b7fa0cf6939250905b80821061098f575090915081016020016106e661093a565b919260018160209254838588010152019101909291610977565b60ff191660208086019190915291151560051b840190910191506106e6905061093a565b346101db5760003660031901126101db576007546040516001600160a01b039091168152602090f35b346101db5760203660031901126101db57600435600060c0604051610a1a81611974565b828152826020820152826040820152826060820152606060808201528260a0820152015280151580610b33575b610a5090611e8a565b60005260096020526040600020604051610a6981611974565b815481526001820154916020820192610a8560ff821685611cd2565b60081c6001600160a01b031660408301908152600282015460608401908152610b2090610ab460038501611af4565b9060808601918252600560ff6004870154169560a08801961515875201549360c08701948552610af860405198899860208a525160208a0152516040890190611967565b516001600160a01b031660608701525160808601525160e060a08601526101008501906118e5565b9151151560c08401525160e08301520390f35b50600854811115610a47565b346101db5760203660031901126101db576001600160a01b03610b6061190a565b16600052600a6020526020604060002054604051908152f35b346101db5760003660031901126101db57610b926122c7565b600780546001600160a01b031981169091556000906001600160a01b03167f8be0079c531659141344cd1fd0a4f28419497f9722a3daafe3b4186f6b6457e08280a3005b346101db5760203660031901126101db576001600160a01b03610bf761190a565b168015610c165760005260036020526020604060002054604051908152f35b6322718ad960e21b600052600060045260246000fd5b346101db5760203660031901126101db576020610c4a600435612290565b6040516001600160a01b039091168152f35b346101db5760003660031901126101db57600d546040516001600160a01b039091168152602090f35b346101db5760206107b2610c9836611a8b565b6001600160a01b039091166000908152600b84526040902061194f565b346101db5760003660031901126101db576020600854604051908152f35b346101db57610769610ce436611a51565b9060405192610cf46020856119c0565b60008452610763838383611cde565b346101db57610d1136611a8b565b9060088210156101c55781610d2f9161079760076020951115611c1d565b541515604051908152f35b346101db5760203660031901126101db576001600160a01b03610d5b61190a565b16600052600a60205260406000206040518060208354918281520190819360005260206000209060005b818110610dde5750505081610d9b9103826119c0565b6040519182916020830190602084525180915260408301919060005b818110610dc5575050500390f35b8251845285945060209384019390920191600101610db7565b8254845260209093019260019283019201610d85565b346101db57610769610e0536611a51565b91611cde565b346101db5760803660031901126101db57610e2461190a565b6024359060088210156101db576044356001600160401b0381116101db57610e50903690600401611a33565b60643592610e6960018060a01b03600754163314611bc6565b600093610e796007831115611c1d565b600d54604051639ee20b1560e01b81526001600160a01b0386811660048301819052969260209183916024918391165afa9081156115ee5787916115b0575b501561155f57600182101580611554575b610ed290611c6b565b83511561150f57610ee4600854611cad565b9384600855604051610ef581611974565b8581528760208201610f078782611cd2565b604083019089825260608401428152608085019186835260a086019360018552604060c08801968b88528d8152600960205220965187556001870191519060088210156114fb5760ff835491610100600160a81b03905160081b169216906affffffffffffffffffffff60a81b16171790555160028501556003840190518051906001600160401b0382116114e757610fa08354611aba565b8d601f821161149e575b9050506020908d601f84116001146114335792610ffc94928192600598979592611428575b50508160011b916000199060031b1c19161790555b511515600485019060ff801983541691151516179055565b51910155858752600a6020526040872080549068010000000000000000821015611294579061103091600182018155611b98565b81549060031b9087821b91600019901b1916179055858752600b60205261105a846040892061194f565b6110648154611cad565b905560405160209261107684836119c0565b8882528715611414578689526002845260408920546001600160a01b031680151590888a827fddf252ad1be2c89b69c2b068fc378daa952ba7f163c4a11628f55a4df523b3ef8e866113e0575b83815260038b5260408082208054600101905585825260028c52812080546001600160a01b0319168517905580a4506113cc573b6112a8575b508487526006825260408720908051906001600160401b038211611294576111248354611aba565b601f8111611251575b508390601f83116001146111c857918060409694927fd4c2cb20622164784cd6138985cc4f044686b7c353cb1b0b1f848cb9a2e526a09896948c926111bd575b50508160011b916000199060031b1c19161790555b7ff8e1a15aba9398e019f0b49df1a4fde98ee17ae345cb5f6b5e2c27f5033e8ce7818551888152a16111b684518094611967565b820152a380f35b015190508b8061116d565b838a52848a209190601f1984168b5b81811061123a57509260019285927fd4c2cb20622164784cd6138985cc4f044686b7c353cb1b0b1f848cb9a2e526a09a989660409a989610611221575b505050811b019055611182565b015160001960f88460031b161c191690558b8080611214565b9293876001819287860151815501950193016111d7565b838a52848a20601f840160051c81019186851061128a575b601f0160051c01905b81811061127f575061112d565b8a8155600101611272565b9091508190611269565b634e487b7160e01b89526041600452602489fd5b826112e8916040999897969594995180938192630a85bd0160e11b83523360048401528b60248401528960448401526080606484015260848301906118e5565b03818a8a5af1879181611388575b50611350578787873d15611348573d9261130f846119e1565b9361131d60405195866119c0565b84523d838286013e5b8351938461134257633250574960e11b84526004839052602484fd5b84925001fd5b606092611326565b630a85bd0160e1989394959697981b9063ffffffff60e01b160361137457876110fc565b633250574960e11b87526004869052602487fd5b9091508881813d83116113c5575b6113a081836119c0565b810103126113c157516001600160e01b0319811681036113c15790896112f6565b8780fd5b503d611396565b6339e3563760e11b89526004899052602489fd5b600085815260046020526040902080546001600160a01b031916905582815260038b526040812080546000190190556110c3565b633250574960e11b89526004899052602489fd5b015190508f80610fcf565b9190601f198416858452828420935b81811061148657509260019285926005999896610ffc98961061146d575b505050811b019055610fe4565b015160001960f88460031b161c191690558f8080611460565b92936020600181928786015181550195019301611442565b80856020925220601f840160051c810191602085106114dd575b601f0160051c01908e905b8281106114d05750610faa565b6001918155018e906114c3565b90915081906114b8565b634e487b7160e01b8d52604160045260248dfd5b634e487b7160e01b8f52602160045260248ffd5b60405162461bcd60e51b815260206004820152601860248201527f4d657461646174612063616e6e6f7420626520656d70747900000000000000006044820152606490fd5b506005821115610ec9565b60405162461bcd60e51b8152602060048201526024808201527f526563697069656e74206e6f742072656769737465726564206f7220696e61636044820152637469766560e01b6064820152608490fd5b90506020813d6020116115e6575b816115cb602093836119c0565b810103126115e2576115dc90611c5e565b87610eb8565b8680fd5b3d91506115be565b6040513d89823e3d90fd5b346101db5760203660031901126101db5760043560088110156101db5761162160c091611936565b60ff81541690600181015490600281015460038201549060056004840154930154936116506040518097611967565b602086015260408501526060840152608083015260a0820152f35b346101db5760403660031901126101db5761168461190a565b60243561169081612290565b33151580611747575b80611719575b6117045781906001600160a01b0384811691167f8c5be1e5ebec7d5bd14f71427d1e84f3dd0314c0f7b2291e5b200ac8c7c3b925600080a4600090815260046020526040902080546001600160a01b0319166001600160a01b03909216919091179055005b63a9fbf51f60e01b6000523360045260246000fd5b506001600160a01b038116600090815260056020908152604080832033845290915290205460ff161561169f565b506001600160a01b038116331415611699565b346101db5760203660031901126101db5760043561177781612290565b506000526004602052602060018060a01b0360406000205416604051908152f35b346101db5760003660031901126101db57604051600080546117b981611aba565b80845290600181169081156109a957506001146117e0576106fa836106e6818503826119c0565b60008080527f290decd9548b62a8d60345a988386fc84ba6bc95484008f6362f93160ef3e563939250905b808210611823575090915081016020016106e661093a565b91926001816020925483858801015201910190929161180b565b346101db5760203660031901126101db576004359063ffffffff60e01b82168092036101db57602091632483248360e11b811490811561187f575b5015158152f35b6380ac58cd60e01b8114915081156118b1575b81156118a0575b5083611878565b6301ffc9a760e01b14905083611899565b635b5e139f60e01b81149150611892565b60005b8381106118d55750506000910152565b81810151838201526020016118c5565b906020916118fe815180928185528580860191016118c2565b601f01601f1916010190565b600435906001600160a01b03821682036101db57565b602435906001600160a01b03821682036101db57565b60088110156101c557600052600c602052604060002090565b9060088110156101c557600052602052604060002090565b9060088210156101c55752565b60e081019081106001600160401b0382111761198f57604052565b634e487b7160e01b600052604160045260246000fd5b60c081019081106001600160401b0382111761198f57604052565b90601f801991011681019081106001600160401b0382111761198f57604052565b6001600160401b03811161198f57601f01601f191660200190565b929192611a08826119e1565b91611a1660405193846119c0565b8294818452818301116101db578281602093846000960137010152565b9080601f830112156101db57816020611a4e933591016119fc565b90565b60609060031901126101db576004356001600160a01b03811681036101db57906024356001600160a01b03811681036101db579060443590565b60409060031901126101db576004356001600160a01b03811681036101db579060243560088110156101db5790565b90600182811c92168015611aea575b6020831014611ad457565b634e487b7160e01b600052602260045260246000fd5b91607f1691611ac9565b9060405191826000825492611b0884611aba565b8084529360018116908115611b765750600114611b2f575b50611b2d925003836119c0565b565b90506000929192526020600020906000915b818310611b5a575050906020611b2d9282010138611b20565b6020919350806001915483858901015201910190918492611b41565b905060209250611b2d94915060ff191682840152151560051b82010138611b20565b8054821015611bb05760005260206000200190600090565b634e487b7160e01b600052603260045260246000fd5b15611bcd57565b60405162461bcd60e51b815260206004820152602260248201527f4f6e6c792061646d696e2063616e20706572666f726d2074686973206163746960448201526137b760f11b6064820152608490fd5b15611c2457565b60405162461bcd60e51b8152602060048201526012602482015271496e76616c6964206261646765207479706560701b6044820152606490fd5b519081151582036101db57565b15611c7257565b60405162461bcd60e51b8152602060048201526013602482015272125b9d985b1a590818985919d9481b195d995b606a1b6044820152606490fd5b6000198114611cbc5760010190565b634e487b7160e01b600052601160045260246000fd5b60088210156101c55752565b6001600160a01b0390911691908215611e74576000828152600260205260408120546001600160a01b0316938391859033151580611ddc575b507fddf252ad1be2c89b69c2b068fc378daa952ba7f163c4a11628f55a4df523b3ef9082611da7575b83815260036020526040812060018154019055848152600260205260408120846bffffffffffffffffffffffff60a01b82541617905580a46001600160a01b0316808303611d8d57505050565b6364283d7b60e01b60005260045260245260445260646000fd5b600085815260046020526040902080546001600160a01b03191690558281526003602052604081208054600019019055611d40565b915091925080611e25575b15611df6579084849238611d17565b839085611e0f57602491637e27328960e01b8252600452fd5b60449163177e802f60e01b825233600452602452fd5b503385148015611e53575b80611de75750838152600460205260408120546001600160a01b03163314611de7565b5084815260056020908152604080832033845290915281205460ff16611e30565b633250574960e11b600052600060045260246000fd5b15611e9157565b60405162461bcd60e51b815260206004820152601060248201526f125b9d985b1a590818985919d948125160821b6044820152606490fd5b81601f820112156101db578051611edf816119e1565b92611eed60405194856119c0565b818452602082840101116101db57611a4e91602080850191016118c2565b91908203918211611cbc57565b600d54604051639ee20b1560e01b81526001600160a01b0392831660048201819052939290911690602081602481855afa90811561224257600091612256575b501561224e57600060249160405192838092636f77926b60e01b82528760048301525afa90811561224257600091612134575b50611f9582611936565b9260405192611fa3846119a5565b611fb160ff86541685611cd2565b600185015490602085019182526002860154926040860193845260a0600560038901549860608901998a52600481015460808a015201549601958652600052600b60205261200381604060002061194f565b546121295760088110156101c557806120745750905060e0820151905111159283612063575b508261203457505090565b6120449192506020015142611f0b565b90519062015180820291808304620151801490151715611cbc57101590565b60a082015190511115925038612029565b60006001820361209b5750505060c082015190511115928361206357508261203457505090565b50919491600281036120da575060e08301519051111593846120c9575b508361206357508261203457505090565b60c0830151905111159350386120b8565b91949093916000600382036120fa575050505060e0015190511115919050565b600592939550501461210f5750505050600090565b60c082015190511115928361206357508261203457505090565b505050505050600090565b903d8082843e61214481846119c0565b82019160208184031261223e578051906001600160401b03821161222657019061010082840312612223576040519261010084018481106001600160401b0382111761222a5760405282516001600160401b03811161222657816121a9918501611ec9565b84526020830151602085015260408301516001600160401b03811161222657906121d4918401611ec9565b604084015260608201519060048210156122235750606083015260e0906121fd60808201611c5e565b608084015260a081015160a084015260c081015160c0840152015160e082015238611f8b565b80fd5b8280fd5b634e487b7160e01b83526041600452602483fd5b5080fd5b6040513d6000823e3d90fd5b505050600090565b90506020813d602011612288575b81612271602093836119c0565b810103126101db5761228290611c5e565b38611f58565b3d9150612264565b6000818152600260205260409020546001600160a01b03169081156122b3575090565b637e27328960e01b60005260045260246000fd5b6007546001600160a01b031633036122db57565b63118cdaa760e01b6000523360045260246000fd5b823b6122fe575b5050505050565b604051630a85bd0160e11b81526001600160a01b03918216600482015291811660248301526044820193909352608060648201529116916020908290819061234a9060848301906118e5565b03816000865af180916000916123ea575b50906123b457503d156123ad573d612372816119e1565b9061238060405192836119c0565b81523d6000602083013e5b805190816123a85782633250574960e11b60005260045260246000fd5b602001fd5b606061238b565b6001600160e01b03191663757a42ff60e11b016123d6575038808080806122f7565b633250574960e11b60005260045260246000fd5b6020813d602011612425575b81612403602093836119c0565b8101031261223e5751906001600160e01b03198216820361222357503861235b565b3d91506123f6565b61243681612290565b50600052600660205261244c6040600020611af4565b600060405161245c6020826119c0565b529056fea26469706673582212203f68712ef45d2921af439b65ed21ac38bd14fb7d4159ea7c12ccdb36d105bab064736f6c634300081c0033",
  "linkReferences": {},
  "deployedLinkReferences": {}
}