{
  "_format": "hh-sol-artifact-1",
  "contractName": "ReviewRegistry",
  "sourceName": "contracts/ReviewRegistry.sol",
  "abi": [
    {
      "inputs": [
        {
          "internalType": "address",
          "name": "_userRegistry",
          "type": "address"
        },
        {
          "internalType": "address payable",
          "name": "_adminContract",
          "type": "address"
        }
      ],
      "stateMutability": "nonpayable",
      "type": "constructor"
    },
    {
      "inputs": [
        {
          "internalType": "address",
          "name": "owner",
          "type": "address"
        }
      ],
      "name": "OwnableInvalidOwner",
      "type": "error"
    },
    {
      "inputs": [
        {
          "internalType": "address",
          "name": "account",
          "type": "address"
        }
      ],
      "name": "OwnableUnauthorizedAccount",
      "type": "error"
    },
    {
      "anonymous": false,
      "inputs": [
        {
          "indexed": false,
          "internalType": "string",
          "name": "config",
          "type": "string"
        },
        {
          "indexed": false,
          "internalType": "uint256",
          "name": "oldValue",
          "type": "uint256"
        },
        {
          "indexed": false,
          "internalType": "uint256",
          "name": "newValue",
          "type": "uint256"
        }
      ],
      "name": "ConfigUpdated",
      "type": "event"
    },
    {
      "anonymous": false,
      "inputs": [
        {
          "indexed": true,
          "internalType": "address",
          "name": "previousOwner",
          "type": "address"
        },
        {
          "indexed": true,
          "internalType": "address",
          "name": "newOwner",
          "type": "address"
        }
      ],
      "name": "OwnershipTransferred",
      "type": "event"
    },
    {
      "anonymous": false,
      "inputs": [
        {
          "indexed": true,
          "internalType": "uint256",
          "name": "propertyId",
          "type": "uint256"
        },
        {
          "indexed": false,
          "internalType": "string",
          "name": "reason",
          "type": "string"
        }
      ],
      "name": "PropertyRemoved",
      "type": "event"
    },
    {
      "anonymous": false,
      "inputs": [
        {
          "indexed": true,
          "internalType": "uint256",
          "name": "reviewId",
          "type": "uint256"
        },
        {
          "indexed": true,
          "internalType": "address",
          "name": "reviewer",
          "type": "address"
        },
        {
          "indexed": false,
          "internalType": "string",
          "name": "reason",
          "type": "string"
        }
      ],
      "name": "ReviewInvalidated",
      "type": "event"
    },
    {
      "anonymous": false,
      "inputs": [
        {
          "indexed": true,
          "internalType": "uint256",
          "name": "reviewId",
          "type": "uint256"
        },
        {
          "indexed": true,
          "internalType": "address",
          "name": "reporter",
          "type": "address"
        },
        {
          "indexed": false,
          "internalType": "string",
          "name": "reason",
          "type": "string"
        }
      ],
      "name": "ReviewReported",
      "type": "event"
    },
    {
      "anonymous": false,
      "inputs": [
        {
          "indexed": true,
          "internalType": "uint256",
          "name": "reviewId",
          "type": "uint256"
        },
        {
          "indexed": true,
          "internalType": "uint256",
          "name": "propertyId",
          "type": "uint256"
        },
        {
          "indexed": true,
          "internalType": "address",
          "name": "reviewer",
          "type": "address"
        },
        {
          "indexed": false,
          "internalType": "enum ReviewRegistry.ReviewType",
          "name": "reviewType",
          "type": "uint8"
        },
        {
          "indexed": false,
          "internalType": "string",
          "name": "ipfsHash",
          "type": "string"
        },
        {
          "indexed": false,
          "internalType": "uint256",
          "name": "rating",
          "type": "uint256"
        }
      ],
      "name": "ReviewSubmitted",
      "type": "event"
    },
    {
      "anonymous": false,
      "inputs": [
        {
          "indexed": true,
          "internalType": "address",
          "name": "user",
          "type": "address"
        },
        {
          "indexed": false,
          "internalType": "string",
          "name": "reason",
          "type": "string"
        }
      ],
      "name": "UserRestricted",
      "type": "event"
    },
    {
      "inputs": [],
      "name": "adminContract",
      "outputs": [
        {
          "internalType": "contract AdminContract",
          "name": "",
          "type": "address"
        }
      ],
      "stateMutability": "view",
      "type": "function"
    },
    {
      "inputs": [
        {
          "internalType": "uint256",
          "name": "propertyId",
          "type": "uint256"
        }
      ],
      "name": "getPropertyReviewStats",
      "outputs": [
        {
          "components": [
            {
              "internalType": "uint256",
              "name": "totalReviews",
              "type": "uint256"
            },
            {
              "internalType": "uint256",
              "name": "validReviews",
              "type": "uint256"
            },
            {
              "internalType": "uint256",
              "name": "averageRating",
              "type": "uint256"
            },
            {
              "internalType": "uint256",
              "name": "totalReports",
              "type": "uint256"
            }
          ],
          "internalType": "struct ReviewRegistry.ReviewStats",
          "name": "",
          "type": "tuple"
        }
      ],
      "stateMutability": "view",
      "type": "function"
    },
    {
      "inputs": [
        {
          "internalType": "uint256",
          "name": "propertyId",
          "type": "uint256"
        },
        {
          "internalType": "uint256",
          "name": "offset",
          "type": "uint256"
        },
        {
          "internalType": "uint256",
          "name": "limit",
          "type": "uint256"
        }
      ],
      "name": "getPropertyReviews",
      "outputs": [
        {
          "components": [
            {
              "internalType": "uint256",
              "name": "reviewId",
              "type": "uint256"
            },
            {
              "internalType": "uint256",
              "name": "propertyId",
              "type": "uint256"
            },
            {
              "internalType": "address",
              "name": "reviewer",
              "type": "address"
            },
            {
              "internalType": "enum ReviewRegistry.ReviewType",
              "name": "reviewType",
              "type": "uint8"
            },
            {
              "internalType": "string",
              "name": "ipfsHash",
              "type": "string"
            },
            {
              "internalType": "uint256",
              "name": "timestamp",
              "type": "uint256"
            },
            {
              "internalType": "bool",
              "name": "isValid",
              "type": "bool"
            },
            {
              "internalType": "uint256",
              "name": "reportCount",
              "type": "uint256"
            },
            {
              "internalType": "uint256",
              "name": "rating",
              "type": "uint256"
            },
            {
              "internalType": "string",
              "name": "category",
              "type": "string"
            }
          ],
          "internalType": "struct ReviewRegistry.Review[]",
          "name": "",
          "type": "tuple[]"
        }
      ],
      "stateMutability": "view",
      "type": "function"
    },
    {
      "inputs": [
        {
          "internalType": "uint256",
          "name": "reviewId",
          "type": "uint256"
        }
      ],
      "name": "getReview",
      "outputs": [
        {
          "components": [
            {
              "internalType": "uint256",
              "name": "reviewId",
              "type": "uint256"
            },
            {
              "internalType": "uint256",
              "name": "propertyId",
              "type": "uint256"
            },
            {
              "internalType": "address",
              "name": "reviewer",
              "type": "address"
            },
            {
              "internalType": "enum ReviewRegistry.ReviewType",
              "name": "reviewType",
              "type": "uint8"
            },
            {
              "internalType": "string",
              "name": "ipfsHash",
              "type": "string"
            },
            {
              "internalType": "uint256",
              "name": "timestamp",
              "type": "uint256"
            },
            {
              "internalType": "bool",
              "name": "isValid",
              "type": "bool"
            },
            {
              "internalType": "uint256",
              "name": "reportCount",
              "type": "uint256"
            },
            {
              "internalType": "uint256",
              "name": "rating",
              "type": "uint256"
            },
            {
              "internalType": "string",
              "name": "category",
              "type": "string"
            }
          ],
          "internalType": "struct ReviewRegistry.Review",
          "name": "",
          "type": "tuple"
        }
      ],
      "stateMutability": "view",
      "type": "function"
    },
    {
      "inputs": [],
      "name": "getTotalReviews",
      "outputs": [
        {
          "internalType": "uint256",
          "name": "",
          "type": "uint256"
        }
      ],
      "stateMutability": "view",
      "type": "function"
    },
    {
      "inputs": [
        {
          "internalType": "address",
          "name": "userAddress",
          "type": "address"
        }
      ],
      "name": "getUserReportCount",
      "outputs": [
        {
          "internalType": "uint256",
          "name": "",
          "type": "uint256"
        }
      ],
      "stateMutability": "view",
      "type": "function"
    },
    {
      "inputs": [
        {
          "internalType": "address",
          "name": "userAddress",
          "type": "address"
        }
      ],
      "name": "getUserReviewCount",
      "outputs": [
        {
          "internalType": "uint256",
          "name": "",
          "type": "uint256"
        }
      ],
      "stateMutability": "view",
      "type": "function"
    },
    {
      "inputs": [
        {
          "internalType": "uint256",
          "name": "",
          "type": "uint256"
        },
        {
          "internalType": "address",
          "name": "",
          "type": "address"
        }
      ],
      "name": "hasReported",
      "outputs": [
        {
          "internalType": "bool",
          "name": "",
          "type": "bool"
        }
      ],
      "stateMutability": "view",
      "type": "function"
    },
    {
      "inputs": [
        {
          "internalType": "uint256",
          "name": "",
          "type": "uint256"
        },
        {
          "internalType": "address",
          "name": "",
          "type": "address"
        }
      ],
      "name": "hasReviewed",
      "outputs": [
        {
          "internalType": "bool",
          "name": "",
          "type": "bool"
        }
      ],
      "stateMutability": "view",
      "type": "function"
    },
    {
      "inputs": [
        {
          "internalType": "uint256",
          "name": "reviewId",
          "type": "uint256"
        },
        {
          "internalType": "address",
          "name": "userAddress",
          "type": "address"
        }
      ],
      "name": "hasUserReported",
      "outputs": [
        {
          "internalType": "bool",
          "name": "",
          "type": "bool"
        }
      ],
      "stateMutability": "view",
      "type": "function"
    },
    {
      "inputs": [
        {
          "internalType": "uint256",
          "name": "propertyId",
          "type": "uint256"
        },
        {
          "internalType": "address",
          "name": "userAddress",
          "type": "address"
        }
      ],
      "name": "hasUserReviewed",
      "outputs": [
        {
          "internalType": "bool",
          "name": "",
          "type": "bool"
        }
      ],
      "stateMutability": "view",
      "type": "function"
    },
    {
      "inputs": [
        {
          "internalType": "uint256",
          "name": "reviewId",
          "type": "uint256"
        },
        {
          "internalType": "string",
          "name": "reason",
          "type": "string"
        }
      ],
      "name": "invalidateReview",
      "outputs": [],
      "stateMutability": "nonpayable",
      "type": "function"
    },
    {
      "inputs": [],
      "name": "maxNegativeReviewsBeforeRemoval",
      "outputs": [
        {
          "internalType": "uint256",
          "name": "",
          "type": "uint256"
        }
      ],
      "stateMutability": "view",
      "type": "function"
    },
    {
      "inputs": [],
      "name": "maxRating",
      "outputs": [
        {
          "internalType": "uint256",
          "name": "",
          "type": "uint256"
        }
      ],
      "stateMutability": "view",
      "type": "function"
    },
    {
      "inputs": [],
      "name": "maxReportsBeforeRestriction",
      "outputs": [
        {
          "internalType": "uint256",
          "name": "",
          "type": "uint256"
        }
      ],
      "stateMutability": "view",
      "type": "function"
    },
    {
      "inputs": [],
      "name": "minRating",
      "outputs": [
        {
          "internalType": "uint256",
          "name": "",
          "type": "uint256"
        }
      ],
      "stateMutability": "view",
      "type": "function"
    },
    {
      "inputs": [],
      "name": "owner",
      "outputs": [
        {
          "internalType": "address",
          "name": "",
          "type": "address"
        }
      ],
      "stateMutability": "view",
      "type": "function"
    },
    {
      "inputs": [
        {
          "internalType": "uint256",
          "name": "",
          "type": "uint256"
        }
      ],
      "name": "propertyReviewStats",
      "outputs": [
        {
          "internalType": "uint256",
          "name": "totalReviews",
          "type": "uint256"
        },
        {
          "internalType": "uint256",
          "name": "validReviews",
          "type": "uint256"
        },
        {
          "internalType": "uint256",
          "name": "averageRating",
          "type": "uint256"
        },
        {
          "internalType": "uint256",
          "name": "totalReports",
          "type": "uint256"
        }
      ],
      "stateMutability": "view",
      "type": "function"
    },
    {
      "inputs": [],
      "name": "renounceOwnership",
      "outputs": [],
      "stateMutability": "nonpayable",
      "type": "function"
    },
    {
      "inputs": [
        {
          "internalType": "uint256",
          "name": "reviewId",
          "type": "uint256"
        },
        {
          "internalType": "string",
          "name": "reason",
          "type": "string"
        }
      ],
      "name": "reportReview",
      "outputs": [],
      "stateMutability": "nonpayable",
      "type": "function"
    },
    {
      "inputs": [
        {
          "internalType": "uint256",
          "name": "",
          "type": "uint256"
        }
      ],
      "name": "reviews",
      "outputs": [
        {
          "internalType": "uint256",
          "name": "reviewId",
          "type": "uint256"
        },
        {
          "internalType": "uint256",
          "name": "propertyId",
          "type": "uint256"
        },
        {
          "internalType": "address",
          "name": "reviewer",
          "type": "address"
        },
        {
          "internalType": "enum ReviewRegistry.ReviewType",
          "name": "reviewType",
          "type": "uint8"
        },
        {
          "internalType": "string",
          "name": "ipfsHash",
          "type": "string"
        },
        {
          "internalType": "uint256",
          "name": "timestamp",
          "type": "uint256"
        },
        {
          "internalType": "bool",
          "name": "isValid",
          "type": "bool"
        },
        {
          "internalType": "uint256",
          "name": "reportCount",
          "type": "uint256"
        },
        {
          "internalType": "uint256",
          "name": "rating",
          "type": "uint256"
        },
        {
          "internalType": "string",
          "name": "category",
          "type": "string"
        }
      ],
      "stateMutability": "view",
      "type": "function"
    },
    {
      "inputs": [
        {
          "internalType": "uint256",
          "name": "propertyId",
          "type": "uint256"
        },
        {
          "internalType": "enum ReviewRegistry.ReviewType",
          "name": "reviewType",
          "type": "uint8"
        },
        {
          "internalType": "string",
          "name": "ipfsHash",
          "type": "string"
        },
        {
          "internalType": "uint256",
          "name": "rating",
          "type": "uint256"
        },
        {
          "internalType": "string",
          "name": "category",
          "type": "string"
        }
      ],
      "name": "submitReview",
      "outputs": [],
      "stateMutability": "nonpayable",
      "type": "function"
    },
    {
      "inputs": [
        {
          "internalType": "address",
          "name": "newOwner",
          "type": "address"
        }
      ],
      "name": "transferOwnership",
      "outputs": [],
      "stateMutability": "nonpayable",
      "type": "function"
    },
    {
      "inputs": [
        {
          "internalType": "uint256",
          "name": "newValue",
          "type": "uint256"
        }
      ],
      "name": "updateMaxNegativeReviewsBeforeRemoval",
      "outputs": [],
      "stateMutability": "nonpayable",
      "type": "function"
    },
    {
      "inputs": [
        {
          "internalType": "uint256",
          "name": "newValue",
          "type": "uint256"
        }
      ],
      "name": "updateMaxReportsBeforeRestriction",
      "outputs": [],
      "stateMutability": "nonpayable",
      "type": "function"
    },
    {
      "inputs": [
        {
          "internalType": "uint256",
          "name": "newMinRating",
          "type": "uint256"
        },
        {
          "internalType": "uint256",
          "name": "newMaxRating",
          "type": "uint256"
        }
      ],
      "name": "updateRatingRange",
      "outputs": [],
      "stateMutability": "nonpayable",
      "type": "function"
    },
    {
      "inputs": [],
      "name": "userRegistry",
      "outputs": [
        {
          "internalType": "contract UserRegistry",
          "name": "",
          "type": "address"
        }
      ],
      "stateMutability": "view",
      "type": "function"
    },
    {
      "inputs": [
        {
          "internalType": "address",
          "name": "",
          "type": "address"
        }
      ],
      "name": "userReportCount",
      "outputs": [
        {
          "internalType": "uint256",
          "name": "",
          "type": "uint256"
        }
      ],
      "stateMutability": "view",
      "type": "function"
    },
    {
      "inputs": [
        {
          "internalType": "address",
          "name": "",
          "type": "address"
        }
      ],
      "name": "userReviewCount",
      "outputs": [
        {
          "internalType": "uint256",
          "name": "",
          "type": "uint256"
        }
      ],
      "stateMutability": "view",
      "type": "function"
    }
  ],
  "bytecode": "0x60803461010d57601f6121c538819003918201601f19168301916001600160401b0383118484101761011257808492604094855283398101031261010d5780516001600160a01b038116919082900361010d57602001516001600160a01b0381169081900361010d5733156100f75760008054336001600160a01b0319821681178355604051949290916001600160a01b0316907f8be0079c531659141344cd1fd0a4f28419497f9722a3daafe3b4186f6b6457e09080a3600360085560056009556001600a556005600b5560018060a01b0319600c541617600c5560018060a01b0319600d541617600d5561209c90816101298239f35b631e4fbdf760e01b600052600060045260246000fd5b600080fd5b634e487b7160e01b600052604160045260246000fdfe6080604052600436101561001257600080fd5b60003560e01c806271a08a146101d257806303cf51dd146101cd5780630b1dbd04146101c85780630f0c3fc4146101b45780631e326211146101c8578063208bb746146101c357806325f60082146101be57806328be65af146101915780633fa08f59146101b9578063444e1df4146101b457806345a55e02146101af57806354a25ceb146101aa5780635c7460d6146101a55780636ea66d44146101a057806370c7c3821461019b578063715018a6146101965780637c7198cc146101915780637e01cec91461015f5780637e075a1b1461018c5780638da5cb5b14610187578063990581b614610182578063a3c40f9c1461017d578063a978261014610178578063b00e4dc614610173578063c05c5e941461016e578063c08f77d014610169578063e83ddcea14610164578063e8f4a5621461015f5763f2fde38b1461015a57600080fd5b6111da565b610a19565b611158565b610f4b565b610f22565b610dc6565b610d78565b610ba5565b610aab565b610a71565b610a53565b610567565b6109c0565b6109a2565b6108fe565b6108d5565b6108b7565b610849565b610430565b610716565b610549565b610483565b6103f6565b6103ac565b6102d1565b634e487b7160e01b600052604160045260246000fd5b6080810190811067ffffffffffffffff82111761020957604052565b6101d7565b90601f8019910116810190811067ffffffffffffffff82111761020957604052565b604051906102406101408361020e565b565b81601f820112156102995780359067ffffffffffffffff82116102095760405192610277601f8401601f19166020018561020e565b8284526020838301011161029957816000926020809301838601378301015290565b600080fd5b90604060031983011261029957600435916024359067ffffffffffffffff8211610299576102ce91600401610242565b90565b346102995760246102e13661029e565b600d54604051630935e01b60e21b81523360048201529391929160209185919082906001600160a01b03165afa92831561039c5761035f9361032b9160009161036d575b50611287565b80151580610361575b61033d906112de565b80600052600260205261035a60ff6005604060002001541661131e565b611c84565b005b50600154811115610334565b61038f915060203d602011610395575b610387818361020e565b810190611263565b38610325565b503d61037d565b61127b565b600091031261029957565b34610299576000366003190112610299576020600a54604051908152f35b600435906001600160a01b038216820361029957565b602435906001600160a01b038216820361029957565b34610299576020366003190112610299576001600160a01b036104176103ca565b1660005260046020526020604060002054604051908152f35b3461029957604036600319011261029957602060ff6104776004356104536103e0565b906000526007845260406000209060018060a01b0316600052602052604060002090565b54166040519015158152f35b34610299576020366003190112610299576024600435600d54604051630935e01b60e21b81523360048201529260209184919082906001600160a01b03165afa90811561039c576104ff60a0927fd7474166e78731bc168caca1fe1ccebbd6f3c95baee64997902e6b48f442b81a9460009161036d5750611287565b60095490806009556040519160608352601f60608401527f6d61784e65676174697665526576696577734265666f726552656d6f76616c00608084015260208301526040820152a1005b34610299576000366003190112610299576020600154604051908152f35b3461029957604036600319011261029957602060ff61047760043561058a6103e0565b906000526006845260406000209060018060a01b0316600052602052604060002090565b600311156105b857565b634e487b7160e01b600052602160045260246000fd5b9060038210156105b85752565b919082519283825260005b848110610607575050826000602080949584010152601f8019910116010190565b806020809284010151828286010152016105e6565b80518252602080820151908301526040808201516001600160a01b0316908301526102ce91610653606083015160608301906105ce565b610120610671608084015161014060808501526101408401906105db565b9260a081015160a084015261068f60c082015160c085019015159052565b60e081015160e08401526101008101516101008401520151906101208184039101526105db565b602081016020825282518091526040820191602060408360051b8301019401926000915b8383106106e957505050505090565b9091929394602080610707600193603f19868203018752895161061c565b970193019301919392906106da565b34610299576060366003190112610299576004356044356024358115158061083e575b6107429061136a565b61074b82611432565b906000906001938454945b8581111580610835575b156108205786600161077c836000526002602052604060002090565b015414806107f9575b610798575b61079390611498565b610756565b92826107e5576107dc610793916107c16107bc876000526002602052604060002090565b6114ef565b6107cb82896114b9565b526107d681886114b9565b50611498565b935b905061078a565b92916107f3610793916114ac565b926107de565b5061081b6005610813836000526002602052604060002090565b015460ff1690565b610785565b8385526040518061083187826106b6565b0390f35b50818410610760565b506032821115610739565b346102995760a03660031901126102995760243560043560038210156102995760443567ffffffffffffffff811161029957610889903690600401610242565b606435906084359367ffffffffffffffff8511610299576108b161035f953690600401610242565b936115dc565b34610299576000366003190112610299576020600b54604051908152f35b3461029957600036600319011261029957600c546040516001600160a01b039091168152602090f35b346102995760203660031901126102995760043560006060604051610922816101ed565b828152826020820152826040820152015260005260036020526108316040600020600360405191610952836101ed565b805483526001810154602084015260028101546040840152015460608201526040519182918291909160608060808301948051845260208101516020850152604081015160408501520151910152565b34610299576000366003190112610299576020600954604051908152f35b34610299576000366003190112610299576109d961203d565b600080546001600160a01b0319811682556001600160a01b03167f8be0079c531659141344cd1fd0a4f28419497f9722a3daafe3b4186f6b6457e08280a3005b34610299576020366003190112610299576001600160a01b03610a3a6103ca565b1660005260056020526020604060002054604051908152f35b34610299576000366003190112610299576020600854604051908152f35b34610299576000366003190112610299576000546040516001600160a01b039091168152602090f35b9060206102ce92818152019061061c565b3461029957602036600319011261029957600435610ac76113ce565b5080151580610b99575b610ada906112de565b60005260026020526108316040600020610b876008610af7610230565b835481526001840154602082015260028401546001600160a01b0381166040830152909390610b3790610b2e905b60a01c60ff1690565b606086016114e3565b610b436003820161104b565b6080850152600481015460a0850152610b6c610b63600583015460ff1690565b151560c0860152565b600681015460e085015260078101546101008501520161104b565b61012082015260405191829182610a9a565b50600154811115610ad1565b3461029957610bb33661029e565b600c54604051639ee20b1560e01b815233600482015290602090829060249082906001600160a01b03165afa801561039c57610bf791600091610d59575b50611590565b81151580610d4d575b610c09906112de565b610c2a610c256005610813856000526002602052604060002090565b61131e565b610c72610c6d610c69610c6233610c4b876000526007602052604060002090565b9060018060a01b0316600052602052604060002090565b5460ff1690565b1590565b611bb4565b610c7e81511515611c00565b6006610c94836000526002602052604060002090565b01610c9f8154611498565b9055610cc9610cbc33610c4b856000526007602052604060002090565b805460ff19166001179055565b336000908152600560205260409020610ce28154611498565b9055817f8d7485f5f5fda0fab610eaa2026e2af34abbb12517b5483780fa1963ef2927c860405180610d15339582611c45565b0390a36006610d2e826000526002602052604060002090565b01546008541115610d3b57005b61035f90610d47611c56565b90611c84565b50600154821115610c00565b610d72915060203d60201161039557610387818361020e565b38610bf1565b34610299576020366003190112610299576004356000526003602052608060406000208054906001810154906003600282015491015491604051938452602084015260408301526060820152f35b3461029957604036600319011261029957600435602435600d54604051630935e01b60e21b815233600482015290602090829060249082906001600160a01b03165afa801561039c57610e209160009161036d5750611287565b80821015610ecd577fd7474166e78731bc168caca1fe1ccebbd6f3c95baee64997902e6b48f442b81a9182600a5491600b5492610e5c82600a55565b610e6585600b55565b604080516060808252600990820152686d696e526174696e6760b81b6080820152602081019290925281019190915260a090a1604080516060808252600990820152686d6178526174696e6760b81b6080820152602081019290925281019190915260a090a1005b60405162461bcd60e51b815260206004820152602760248201527f4d696e20726174696e67206d757374206265206c657373207468616e206d617860448201526620726174696e6760c81b6064820152608490fd5b3461029957600036600319011261029957600d546040516001600160a01b039091168152602090f35b34610299576020366003190112610299576024600435600d54604051630935e01b60e21b81523360048201529260209184919082906001600160a01b03165afa90811561039c57610fc760a0927fd7474166e78731bc168caca1fe1ccebbd6f3c95baee64997902e6b48f442b81a9460009161036d5750611287565b60085490806008556040519160608352601b60608401527f6d61785265706f7274734265666f72655265737472696374696f6e0000000000608084015260208301526040820152a1005b90600182811c92168015611041575b602083101461102b57565b634e487b7160e01b600052602260045260246000fd5b91607f1691611020565b906040519182600082549261105f84611011565b80845293600181169081156110cb5750600114611084575b506102409250038361020e565b90506000929192526020600020906000915b8183106110af5750509060206102409282010138611077565b6020919350806001915483858901015201910190918492611096565b90506020925061024094915060ff191682840152151560051b82010138611077565b9693611132936102ce9b99969361111f939b989b8a5260208a015260018060a01b0316604089015260608801906105ce565b61014060808701526101408601906105db565b9560a0850152151560c084015260e08301526101008201526101208184039101526105db565b3461029957602036600319011261029957600435600052600260205260406000208054906108316001820154916002810154906111976003820161104b565b600482015460ff600584015416906006840154926111bc60086007870154960161104b565b95604051998a9960ff8360a01c169260018060a01b0316918b6110ed565b34610299576020366003190112610299576111f36103ca565b6111fb61203d565b6001600160a01b0316801561124d57600080546001600160a01b03198116831782556001600160a01b0316907f8be0079c531659141344cd1fd0a4f28419497f9722a3daafe3b4186f6b6457e09080a3005b631e4fbdf760e01b600052600060045260246000fd5b90816020910312610299575180151581036102995790565b6040513d6000823e3d90fd5b1561128e57565b60405162461bcd60e51b815260206004820152602260248201527f4f6e6c792061646d696e2063616e20706572666f726d2074686973206163746960448201526137b760f11b6064820152608490fd5b156112e557565b60405162461bcd60e51b8152602060048201526011602482015270125b9d985b1a59081c995d9a595dc81251607a1b6044820152606490fd5b1561132557565b60405162461bcd60e51b815260206004820152601a60248201527f52657669657720616c726561647920696e76616c6964617465640000000000006044820152606490fd5b1561137157565b60405162461bcd60e51b815260206004820152601e60248201527f4c696d6974206d757374206265206265747765656e203120616e6420353000006044820152606490fd5b67ffffffffffffffff81116102095760051b60200190565b60405190610140820182811067ffffffffffffffff82111761020957604052606061012083600081526000602082015260006040820152600083820152826080820152600060a0820152600060c0820152600060e082015260006101008201520152565b9061143c826113b6565b611449604051918261020e565b828152809261145a601f19916113b6565b019060005b82811061146b57505050565b6020906114766113ce565b8282850101520161145f565b634e487b7160e01b600052601160045260246000fd5b60001981146114a75760010190565b611482565b80156114a7576000190190565b80518210156114cd5760209160051b010190565b634e487b7160e01b600052603260045260246000fd5b60038210156105b85752565b9061158860086114fd610230565b845481526001850154602082015260028501546001600160a01b03811660408301529094906115389061152f90610b25565b606087016114e3565b6115446003820161104b565b6080860152600481015460a086015261156d611564600583015460ff1690565b151560c0870152565b600681015460e086015260078101546101008601520161104b565b610120830152565b1561159757565b60405162461bcd60e51b815260206004820152601f60248201527f55736572206e6f742072656769737465726564206f7220696e616374697665006044820152606490fd5b600c54604051639ee20b1560e01b81523360048201529295919491939290602090829060249082906001600160a01b03165afa801561039c5761162691600091610d595750611590565b60038510156105b8576002851161186257600a5481101580611856575b15611811576116548251151561189d565b611660835115156118e9565b611686611681610c69610c6233610c4b896000526006602052604060002090565b611935565b611699611694600154611498565b600155565b61170c600154936116a8610230565b85815260208101879052336040820152906116c688606084016114e3565b8460808301524260a08301526116df60c0830160019052565b600060e083015283610100830152610120820152611707856000526002602052604060002090565b611ac9565b611727610cbc33610c4b876000526006602052604060002090565b3360009081526004602052604090206117408154611498565b905561174c8185611f56565b600c54611769906001600160a01b03165b6001600160a01b031690565b336000908152600460205260409020549290803b156102995760405162880b8360e11b81523360048201526001602482015260448101949094526000908490606490829084905af192831561039c577fd84dfcfcfd2992e00894d48c250bc77055853ae69b2ee91d4dc85c5db15789a1936117f6575b506117f1604051928392339884611b8b565b0390a4565b80611805600061180b9361020e565b806103a1565b386117df565b60405162461bcd60e51b815260206004820152601e60248201527f526174696e67206d757374206265206265747765656e203120616e64203500006044820152606490fd5b50600b54811115611643565b60405162461bcd60e51b8152602060048201526013602482015272496e76616c696420726576696577207479706560681b6044820152606490fd5b156118a457565b60405162461bcd60e51b815260206004820152601960248201527f4950465320686173682063616e6e6f7420626520656d707479000000000000006044820152606490fd5b156118f057565b60405162461bcd60e51b815260206004820152601860248201527f43617465676f72792063616e6e6f7420626520656d70747900000000000000006044820152606490fd5b1561193c57565b60405162461bcd60e51b815260206004820152601e60248201527f416c726561647920726576696577656420746869732070726f706572747900006044820152606490fd5b9060038110156105b857815460ff60a01b191660a09190911b60ff60a01b16179055565b601f82116119b257505050565b6000526020600020906020601f840160051c830193106119ed575b601f0160051c01905b8181106119e1575050565b600081556001016119d6565b90915081906119cd565b919091825167ffffffffffffffff811161020957611a1f81611a198454611011565b846119a5565b6020601f8211600114611a60578190611a51939495600092611a55575b50508160011b916000199060031b1c19161790565b9055565b015190503880611a3c565b601f19821690611a7584600052602060002090565b9160005b818110611ab157509583600195969710611a98575b505050811b019055565b015160001960f88460031b161c19169055388080611a8e565b9192602060018192868b015181550194019201611a79565b6008610120610240938051845560208101516001850155611b2d60028501611b19611afd604085015160018060a01b031690565b82546001600160a01b0319166001600160a01b03909116178255565b606083015190611b28826105ae565b611981565b611b3e6080820151600386016119f7565b60a08101516004850155611b6d611b5860c0830151151590565b600586019060ff801983541691151516179055565b60e081015160068501556101008101516007850155015191016119f7565b939291611baf90611b9e866040946105ce565b6060602087015260608601906105db565b930152565b15611bbb57565b60405162461bcd60e51b815260206004820152601c60248201527f416c7265616479207265706f72746564207468697320726576696577000000006044820152606490fd5b15611c0757565b60405162461bcd60e51b8152602060048201526016602482015275526561736f6e2063616e6e6f7420626520656d70747960501b6044820152606490fd5b9060206102ce9281815201906105db565b60405190611c6560408361020e565b601082526f546f6f206d616e79207265706f72747360801b6020830152565b611c98816000526002602052604060002090565b60058101805460ff19169055906001820192611cba8454600785015490611fb9565b600c54600290611cd2906001600160a01b031661175d565b930180546001600160a01b0316600081815260046020526040902054919491823b156102995760405162880b8360e11b81526001600160a01b0392909216600483015260011960248301526044820152906000908290606490829084905af1801561039c57611f0e575b5082546001600160a01b0316917f2f630b78b0b8fb3d154b6fc830f153e62cc8d45290b51fd21cc580da3b56359e60405180611d8160018060a01b0387169582611c45565b0390a36001600160a01b0381166000908152600560205260409020546008541115611e34575b5050546003611dc0826000526003602052604060002090565b01546009541115611dce5750565b7ff101b811c74ec4232def79e996e302c3166f3d32945bd9ef0772ad31d751b8c260405180611e2f8160609060208152601960208201527f546f6f206d616e79206e6567617469766520726576696577730000000000000060408201520190565b0390a2565b600c54611e49906001600160a01b031661175d565b803b1561029957604051631a47767b60e01b81526001600160a01b039290921660048301526000908290602490829084905af1801561039c57611ef9575b50546001600160a01b03908116167f3a8e23ecbdf9517953645983953a127419901505fafba9ef84ebaaa38878f9c960405180611eef81606090602081526016602082015275546f6f206d616e792066616c7365207265766965777360501b60408201520190565b0390a23880611da7565b806118056000611f089361020e565b38611e87565b806118056000611f1d9361020e565b38611d3c565b818102929181159184041417156114a757565b8115611f40570490565b634e487b7160e01b600052601260045260246000fd5b611f6a906000526003602052604060002090565b90611f758254611498565b825560026001830192611f888454611498565b84550191825490549060001982018281116114a757611fa691611f23565b9182018092116114a757611a5191611f36565b611fcd906000526003602052604060002090565b906001820191825480611fe1575b50505050565b611fea906114ac565b8084551561202e57600201918254905490600182018083116114a75761200f91611f23565b9182039182116114a75761202291611f36565b90555b38808080611fdb565b60009250600291500155612025565b6000546001600160a01b0316330361205157565b63118cdaa760e01b6000523360045260246000fdfea264697066735822122053f4872f92dec63f39f28d2a6a9955c26cbfb63e30ad2cf78bcf9a0999caa6fc64736f6c634300081c0033",
  "linkReferences": {},
  "deployedLinkReferences": {}
}