{
  "_format": "hh-sol-artifact-1",
  "contractName": "PropertyNFTFactory",
  "sourceName": "contracts/PropertyNFTFactory.sol",
  "abi": [
    {
      "inputs": [
        {
          "internalType": "address",
          "name": "_userRegistry",
          "type": "address"
        },
        {
          "internalType": "address payable",
          "name": "_adminContract",
          "type": "address"
        }
      ],
      "stateMutability": "nonpayable",
      "type": "constructor"
    },
    {
      "inputs": [
        {
          "internalType": "address",
          "name": "sender",
          "type": "address"
        },
        {
          "internalType": "uint256",
          "name": "tokenId",
          "type": "uint256"
        },
        {
          "internalType": "address",
          "name": "owner",
          "type": "address"
        }
      ],
      "name": "ERC721IncorrectOwner",
      "type": "error"
    },
    {
      "inputs": [
        {
          "internalType": "address",
          "name": "operator",
          "type": "address"
        },
        {
          "internalType": "uint256",
          "name": "tokenId",
          "type": "uint256"
        }
      ],
      "name": "ERC721InsufficientApproval",
      "type": "error"
    },
    {
      "inputs": [
        {
          "internalType": "address",
          "name": "approver",
          "type": "address"
        }
      ],
      "name": "ERC721InvalidApprover",
      "type": "error"
    },
    {
      "inputs": [
        {
          "internalType": "address",
          "name": "operator",
          "type": "address"
        }
      ],
      "name": "ERC721InvalidOperator",
      "type": "error"
    },
    {
      "inputs": [
        {
          "internalType": "address",
          "name": "owner",
          "type": "address"
        }
      ],
      "name": "ERC721InvalidOwner",
      "type": "error"
    },
    {
      "inputs": [
        {
          "internalType": "address",
          "name": "receiver",
          "type": "address"
        }
      ],
      "name": "ERC721InvalidReceiver",
      "type": "error"
    },
    {
      "inputs": [
        {
          "internalType": "address",
          "name": "sender",
          "type": "address"
        }
      ],
      "name": "ERC721InvalidSender",
      "type": "error"
    },
    {
      "inputs": [
        {
          "internalType": "uint256",
          "name": "tokenId",
          "type": "uint256"
        }
      ],
      "name": "ERC721NonexistentToken",
      "type": "error"
    },
    {
      "inputs": [
        {
          "internalType": "address",
          "name": "owner",
          "type": "address"
        }
      ],
      "name": "OwnableInvalidOwner",
      "type": "error"
    },
    {
      "inputs": [
        {
          "internalType": "address",
          "name": "account",
          "type": "address"
        }
      ],
      "name": "OwnableUnauthorizedAccount",
      "type": "error"
    },
    {
      "anonymous": false,
      "inputs": [
        {
          "indexed": true,
          "internalType": "address",
          "name": "owner",
          "type": "address"
        },
        {
          "indexed": true,
          "internalType": "address",
          "name": "approved",
          "type": "address"
        },
        {
          "indexed": true,
          "internalType": "uint256",
          "name": "tokenId",
          "type": "uint256"
        }
      ],
      "name": "Approval",
      "type": "event"
    },
    {
      "anonymous": false,
      "inputs": [
        {
          "indexed": true,
          "internalType": "address",
          "name": "owner",
          "type": "address"
        },
        {
          "indexed": true,
          "internalType": "address",
          "name": "operator",
          "type": "address"
        },
        {
          "indexed": false,
          "internalType": "bool",
          "name": "approved",
          "type": "bool"
        }
      ],
      "name": "ApprovalForAll",
      "type": "event"
    },
    {
      "anonymous": false,
      "inputs": [
        {
          "indexed": false,
          "internalType": "uint256",
          "name": "_fromTokenId",
          "type": "uint256"
        },
        {
          "indexed": false,
          "internalType": "uint256",
          "name": "_toTokenId",
          "type": "uint256"
        }
      ],
      "name": "BatchMetadataUpdate",
      "type": "event"
    },
    {
      "anonymous": false,
      "inputs": [
        {
          "indexed": false,
          "internalType": "string",
          "name": "config",
          "type": "string"
        },
        {
          "indexed": false,
          "internalType": "uint256",
          "name": "oldValue",
          "type": "uint256"
        },
        {
          "indexed": false,
          "internalType": "uint256",
          "name": "newValue",
          "type": "uint256"
        }
      ],
      "name": "ConfigUpdated",
      "type": "event"
    },
    {
      "anonymous": false,
      "inputs": [
        {
          "indexed": false,
          "internalType": "uint256",
          "name": "propertyValueIndex",
          "type": "uint256"
        },
        {
          "indexed": false,
          "internalType": "uint256",
          "name": "marketTrend",
          "type": "uint256"
        },
        {
          "indexed": false,
          "internalType": "uint256",
          "name": "interestRate",
          "type": "uint256"
        },
        {
          "indexed": false,
          "internalType": "uint256",
          "name": "marketVolatility",
          "type": "uint256"
        }
      ],
      "name": "MarketDataUpdated",
      "type": "event"
    },
    {
      "anonymous": false,
      "inputs": [
        {
          "indexed": true,
          "internalType": "uint256",
          "name": "tokenId",
          "type": "uint256"
        },
        {
          "indexed": false,
          "internalType": "string",
          "name": "reason",
          "type": "string"
        }
      ],
      "name": "MarketProtectionTriggered",
      "type": "event"
    },
    {
      "anonymous": false,
      "inputs": [
        {
          "indexed": false,
          "internalType": "uint256",
          "name": "_tokenId",
          "type": "uint256"
        }
      ],
      "name": "MetadataUpdate",
      "type": "event"
    },
    {
      "anonymous": false,
      "inputs": [
        {
          "indexed": true,
          "internalType": "address",
          "name": "previousOwner",
          "type": "address"
        },
        {
          "indexed": true,
          "internalType": "address",
          "name": "newOwner",
          "type": "address"
        }
      ],
      "name": "OwnershipTransferred",
      "type": "event"
    },
    {
      "anonymous": false,
      "inputs": [
        {
          "indexed": true,
          "internalType": "uint256",
          "name": "tokenId",
          "type": "uint256"
        },
        {
          "indexed": true,
          "internalType": "address",
          "name": "owner",
          "type": "address"
        },
        {
          "indexed": false,
          "internalType": "enum PropertyNFTFactory.PropertyType",
          "name": "propertyType",
          "type": "uint8"
        },
        {
          "indexed": false,
          "internalType": "string",
          "name": "location",
          "type": "string"
        },
        {
          "indexed": false,
          "internalType": "uint256",
          "name": "basePrice",
          "type": "uint256"
        },
        {
          "indexed": false,
          "internalType": "uint256",
          "name": "currentMarketPrice",
          "type": "uint256"
        },
        {
          "indexed": false,
          "internalType": "string",
          "name": "tokenUri",
          "type": "string"
        }
      ],
      "name": "PropertyCreated",
      "type": "event"
    },
    {
      "anonymous": false,
      "inputs": [
        {
          "indexed": true,
          "internalType": "uint256",
          "name": "tokenId",
          "type": "uint256"
        },
        {
          "indexed": true,
          "internalType": "address",
          "name": "owner",
          "type": "address"
        },
        {
          "indexed": false,
          "internalType": "bool",
          "name": "isListed",
          "type": "bool"
        }
      ],
      "name": "PropertyListed",
      "type": "event"
    },
    {
      "anonymous": false,
      "inputs": [
        {
          "indexed": true,
          "internalType": "uint256",
          "name": "tokenId",
          "type": "uint256"
        },
        {
          "indexed": false,
          "internalType": "uint256",
          "name": "oldPrice",
          "type": "uint256"
        },
        {
          "indexed": false,
          "internalType": "uint256",
          "name": "newPrice",
          "type": "uint256"
        },
        {
          "indexed": false,
          "internalType": "uint256",
          "name": "marketVolatility",
          "type": "uint256"
        }
      ],
      "name": "PropertyPriceUpdated",
      "type": "event"
    },
    {
      "anonymous": false,
      "inputs": [
        {
          "indexed": true,
          "internalType": "uint256",
          "name": "tokenId",
          "type": "uint256"
        },
        {
          "indexed": true,
          "internalType": "address",
          "name": "from",
          "type": "address"
        },
        {
          "indexed": true,
          "internalType": "address",
          "name": "to",
          "type": "address"
        }
      ],
      "name": "PropertyTransferred",
      "type": "event"
    },
    {
      "anonymous": false,
      "inputs": [
        {
          "indexed": true,
          "internalType": "address",
          "name": "user",
          "type": "address"
        },
        {
          "indexed": false,
          "internalType": "uint256",
          "name": "expiryDate",
          "type": "uint256"
        }
      ],
      "name": "SubscriptionPurchased",
      "type": "event"
    },
    {
      "anonymous": false,
      "inputs": [
        {
          "indexed": true,
          "internalType": "address",
          "name": "from",
          "type": "address"
        },
        {
          "indexed": true,
          "internalType": "address",
          "name": "to",
          "type": "address"
        },
        {
          "indexed": true,
          "internalType": "uint256",
          "name": "tokenId",
          "type": "uint256"
        }
      ],
      "name": "Transfer",
      "type": "event"
    },
    {
      "inputs": [],
      "name": "adminContract",
      "outputs": [
        {
          "internalType": "contract AdminContract",
          "name": "",
          "type": "address"
        }
      ],
      "stateMutability": "view",
      "type": "function"
    },
    {
      "inputs": [
        {
          "internalType": "address",
          "name": "to",
          "type": "address"
        },
        {
          "internalType": "uint256",
          "name": "tokenId",
          "type": "uint256"
        }
      ],
      "name": "approve",
      "outputs": [],
      "stateMutability": "nonpayable",
      "type": "function"
    },
    {
      "inputs": [
        {
          "internalType": "address",
          "name": "owner",
          "type": "address"
        }
      ],
      "name": "balanceOf",
      "outputs": [
        {
          "internalType": "uint256",
          "name": "",
          "type": "uint256"
        }
      ],
      "stateMutability": "view",
      "type": "function"
    },
    {
      "inputs": [
        {
          "internalType": "uint256",
          "name": "basePrice",
          "type": "uint256"
        }
      ],
      "name": "calculateMarketPrice",
      "outputs": [
        {
          "internalType": "uint256",
          "name": "",
          "type": "uint256"
        }
      ],
      "stateMutability": "view",
      "type": "function"
    },
    {
      "inputs": [
        {
          "internalType": "address",
          "name": "userAddress",
          "type": "address"
        }
      ],
      "name": "canUploadMore",
      "outputs": [
        {
          "internalType": "bool",
          "name": "",
          "type": "bool"
        }
      ],
      "stateMutability": "view",
      "type": "function"
    },
    {
      "inputs": [
        {
          "internalType": "enum PropertyNFTFactory.PropertyType",
          "name": "propertyType",
          "type": "uint8"
        },
        {
          "internalType": "string",
          "name": "location",
          "type": "string"
        },
        {
          "internalType": "uint256",
          "name": "basePrice",
          "type": "uint256"
        },
        {
          "internalType": "string",
          "name": "tokenUri",
          "type": "string"
        }
      ],
      "name": "createProperty",
      "outputs": [],
      "stateMutability": "nonpayable",
      "type": "function"
    },
    {
      "inputs": [],
      "name": "currentMarketData",
      "outputs": [
        {
          "internalType": "uint256",
          "name": "propertyValueIndex",
          "type": "uint256"
        },
        {
          "internalType": "uint256",
          "name": "marketTrend",
          "type": "uint256"
        },
        {
          "internalType": "uint256",
          "name": "interestRate",
          "type": "uint256"
        },
        {
          "internalType": "uint256",
          "name": "marketVolatility",
          "type": "uint256"
        },
        {
          "internalType": "uint256",
          "name": "lastUpdated",
          "type": "uint256"
        }
      ],
      "stateMutability": "view",
      "type": "function"
    },
    {
      "inputs": [],
      "name": "freeUploadsLimit",
      "outputs": [
        {
          "internalType": "uint256",
          "name": "",
          "type": "uint256"
        }
      ],
      "stateMutability": "view",
      "type": "function"
    },
    {
      "inputs": [
        {
          "internalType": "uint256",
          "name": "tokenId",
          "type": "uint256"
        }
      ],
      "name": "getApproved",
      "outputs": [
        {
          "internalType": "address",
          "name": "",
          "type": "address"
        }
      ],
      "stateMutability": "view",
      "type": "function"
    },
    {
      "inputs": [],
      "name": "getMarketData",
      "outputs": [
        {
          "components": [
            {
              "internalType": "uint256",
              "name": "propertyValueIndex",
              "type": "uint256"
            },
            {
              "internalType": "uint256",
              "name": "marketTrend",
              "type": "uint256"
            },
            {
              "internalType": "uint256",
              "name": "interestRate",
              "type": "uint256"
            },
            {
              "internalType": "uint256",
              "name": "marketVolatility",
              "type": "uint256"
            },
            {
              "internalType": "uint256",
              "name": "lastUpdated",
              "type": "uint256"
            }
          ],
          "internalType": "struct PropertyNFTFactory.MarketData",
          "name": "",
          "type": "tuple"
        }
      ],
      "stateMutability": "view",
      "type": "function"
    },
    {
      "inputs": [
        {
          "internalType": "uint256",
          "name": "tokenId",
          "type": "uint256"
        }
      ],
      "name": "getProperty",
      "outputs": [
        {
          "components": [
            {
              "internalType": "enum PropertyNFTFactory.PropertyType",
              "name": "propertyType",
              "type": "uint8"
            },
            {
              "internalType": "string",
              "name": "location",
              "type": "string"
            },
            {
              "internalType": "uint256",
              "name": "basePrice",
              "type": "uint256"
            },
            {
              "internalType": "uint256",
              "name": "currentMarketPrice",
              "type": "uint256"
            },
            {
              "internalType": "uint256",
              "name": "priceLastUpdated",
              "type": "uint256"
            },
            {
              "internalType": "uint256",
              "name": "marketVolatility",
              "type": "uint256"
            },
            {
              "internalType": "uint256",
              "name": "creationTimestamp",
              "type": "uint256"
            },
            {
              "internalType": "address",
              "name": "owner",
              "type": "address"
            },
            {
              "internalType": "bool",
              "name": "isListed",
              "type": "bool"
            },
            {
              "internalType": "string",
              "name": "tokenURI",
              "type": "string"
            }
          ],
          "internalType": "struct PropertyNFTFactory.PropertyMetadata",
          "name": "",
          "type": "tuple"
        }
      ],
      "stateMutability": "view",
      "type": "function"
    },
    {
      "inputs": [
        {
          "internalType": "address",
          "name": "userAddress",
          "type": "address"
        }
      ],
      "name": "getSubscriptionExpiry",
      "outputs": [
        {
          "internalType": "uint256",
          "name": "",
          "type": "uint256"
        }
      ],
      "stateMutability": "view",
      "type": "function"
    },
    {
      "inputs": [],
      "name": "getTotalProperties",
      "outputs": [
        {
          "internalType": "uint256",
          "name": "",
          "type": "uint256"
        }
      ],
      "stateMutability": "view",
      "type": "function"
    },
    {
      "inputs": [
        {
          "internalType": "address",
          "name": "userAddress",
          "type": "address"
        }
      ],
      "name": "getUserPropertyCount",
      "outputs": [
        {
          "internalType": "uint256",
          "name": "",
          "type": "uint256"
        }
      ],
      "stateMutability": "view",
      "type": "function"
    },
    {
      "inputs": [
        {
          "internalType": "address",
          "name": "userAddress",
          "type": "address"
        }
      ],
      "name": "grantFreeUploads",
      "outputs": [],
      "stateMutability": "nonpayable",
      "type": "function"
    },
    {
      "inputs": [
        {
          "internalType": "address",
          "name": "userAddress",
          "type": "address"
        }
      ],
      "name": "hasActiveSubscription",
      "outputs": [
        {
          "internalType": "bool",
          "name": "",
          "type": "bool"
        }
      ],
      "stateMutability": "view",
      "type": "function"
    },
    {
      "inputs": [
        {
          "internalType": "address",
          "name": "",
          "type": "address"
        }
      ],
      "name": "hasFreeUploads",
      "outputs": [
        {
          "internalType": "bool",
          "name": "",
          "type": "bool"
        }
      ],
      "stateMutability": "view",
      "type": "function"
    },
    {
      "inputs": [],
      "name": "interestRateFeed",
      "outputs": [
        {
          "internalType": "contract AggregatorV3Interface",
          "name": "",
          "type": "address"
        }
      ],
      "stateMutability": "view",
      "type": "function"
    },
    {
      "inputs": [],
      "name": "interestRateFeedAddress",
      "outputs": [
        {
          "internalType": "address",
          "name": "",
          "type": "address"
        }
      ],
      "stateMutability": "view",
      "type": "function"
    },
    {
      "inputs": [
        {
          "internalType": "address",
          "name": "owner",
          "type": "address"
        },
        {
          "internalType": "address",
          "name": "operator",
          "type": "address"
        }
      ],
      "name": "isApprovedForAll",
      "outputs": [
        {
          "internalType": "bool",
          "name": "",
          "type": "bool"
        }
      ],
      "stateMutability": "view",
      "type": "function"
    },
    {
      "inputs": [],
      "name": "marketDataUpdateInterval",
      "outputs": [
        {
          "internalType": "uint256",
          "name": "",
          "type": "uint256"
        }
      ],
      "stateMutability": "view",
      "type": "function"
    },
    {
      "inputs": [],
      "name": "marketProtectionEnabled",
      "outputs": [
        {
          "internalType": "bool",
          "name": "",
          "type": "bool"
        }
      ],
      "stateMutability": "view",
      "type": "function"
    },
    {
      "inputs": [],
      "name": "marketTrendFeed",
      "outputs": [
        {
          "internalType": "contract AggregatorV3Interface",
          "name": "",
          "type": "address"
        }
      ],
      "stateMutability": "view",
      "type": "function"
    },
    {
      "inputs": [],
      "name": "marketTrendFeedAddress",
      "outputs": [
        {
          "internalType": "address",
          "name": "",
          "type": "address"
        }
      ],
      "stateMutability": "view",
      "type": "function"
    },
    {
      "inputs": [],
      "name": "marketVolatilityFeed",
      "outputs": [
        {
          "internalType": "contract AggregatorV3Interface",
          "name": "",
          "type": "address"
        }
      ],
      "stateMutability": "view",
      "type": "function"
    },
    {
      "inputs": [],
      "name": "marketVolatilityFeedAddress",
      "outputs": [
        {
          "internalType": "address",
          "name": "",
          "type": "address"
        }
      ],
      "stateMutability": "view",
      "type": "function"
    },
    {
      "inputs": [],
      "name": "maxPriceDeviation",
      "outputs": [
        {
          "internalType": "uint256",
          "name": "",
          "type": "uint256"
        }
      ],
      "stateMutability": "view",
      "type": "function"
    },
    {
      "inputs": [],
      "name": "name",
      "outputs": [
        {
          "internalType": "string",
          "name": "",
          "type": "string"
        }
      ],
      "stateMutability": "view",
      "type": "function"
    },
    {
      "inputs": [],
      "name": "owner",
      "outputs": [
        {
          "internalType": "address",
          "name": "",
          "type": "address"
        }
      ],
      "stateMutability": "view",
      "type": "function"
    },
    {
      "inputs": [
        {
          "internalType": "uint256",
          "name": "tokenId",
          "type": "uint256"
        }
      ],
      "name": "ownerOf",
      "outputs": [
        {
          "internalType": "address",
          "name": "",
          "type": "address"
        }
      ],
      "stateMutability": "view",
      "type": "function"
    },
    {
      "inputs": [],
      "name": "priceUpdateThreshold",
      "outputs": [
        {
          "internalType": "uint256",
          "name": "",
          "type": "uint256"
        }
      ],
      "stateMutability": "view",
      "type": "function"
    },
    {
      "inputs": [
        {
          "internalType": "uint256",
          "name": "",
          "type": "uint256"
        }
      ],
      "name": "properties",
      "outputs": [
        {
          "internalType": "enum PropertyNFTFactory.PropertyType",
          "name": "propertyType",
          "type": "uint8"
        },
        {
          "internalType": "string",
          "name": "location",
          "type": "string"
        },
        {
          "internalType": "uint256",
          "name": "basePrice",
          "type": "uint256"
        },
        {
          "internalType": "uint256",
          "name": "currentMarketPrice",
          "type": "uint256"
        },
        {
          "internalType": "uint256",
          "name": "priceLastUpdated",
          "type": "uint256"
        },
        {
          "internalType": "uint256",
          "name": "marketVolatility",
          "type": "uint256"
        },
        {
          "internalType": "uint256",
          "name": "creationTimestamp",
          "type": "uint256"
        },
        {
          "internalType": "address",
          "name": "owner",
          "type": "address"
        },
        {
          "internalType": "bool",
          "name": "isListed",
          "type": "bool"
        },
        {
          "internalType": "string",
          "name": "tokenURI",
          "type": "string"
        }
      ],
      "stateMutability": "view",
      "type": "function"
    },
    {
      "inputs": [],
      "name": "propertyPriceFeed",
      "outputs": [
        {
          "internalType": "contract AggregatorV3Interface",
          "name": "",
          "type": "address"
        }
      ],
      "stateMutability": "view",
      "type": "function"
    },
    {
      "inputs": [],
      "name": "propertyPriceFeedAddress",
      "outputs": [
        {
          "internalType": "address",
          "name": "",
          "type": "address"
        }
      ],
      "stateMutability": "view",
      "type": "function"
    },
    {
      "inputs": [],
      "name": "purchaseSubscription",
      "outputs": [],
      "stateMutability": "payable",
      "type": "function"
    },
    {
      "inputs": [],
      "name": "renounceOwnership",
      "outputs": [],
      "stateMutability": "nonpayable",
      "type": "function"
    },
    {
      "inputs": [
        {
          "internalType": "address",
          "name": "from",
          "type": "address"
        },
        {
          "internalType": "address",
          "name": "to",
          "type": "address"
        },
        {
          "internalType": "uint256",
          "name": "tokenId",
          "type": "uint256"
        }
      ],
      "name": "safeTransferFrom",
      "outputs": [],
      "stateMutability": "nonpayable",
      "type": "function"
    },
    {
      "inputs": [
        {
          "internalType": "address",
          "name": "from",
          "type": "address"
        },
        {
          "internalType": "address",
          "name": "to",
          "type": "address"
        },
        {
          "internalType": "uint256",
          "name": "tokenId",
          "type": "uint256"
        },
        {
          "internalType": "bytes",
          "name": "data",
          "type": "bytes"
        }
      ],
      "name": "safeTransferFrom",
      "outputs": [],
      "stateMutability": "nonpayable",
      "type": "function"
    },
    {
      "inputs": [
        {
          "internalType": "address",
          "name": "propertyPriceFeedAddr",
          "type": "address"
        },
        {
          "internalType": "address",
          "name": "marketTrendFeedAddr",
          "type": "address"
        },
        {
          "internalType": "address",
          "name": "interestRateFeedAddr",
          "type": "address"
        },
        {
          "internalType": "address",
          "name": "marketVolatilityFeedAddr",
          "type": "address"
        }
      ],
      "name": "setAllChainlinkFeeds",
      "outputs": [],
      "stateMutability": "nonpayable",
      "type": "function"
    },
    {
      "inputs": [
        {
          "internalType": "address",
          "name": "operator",
          "type": "address"
        },
        {
          "internalType": "bool",
          "name": "approved",
          "type": "bool"
        }
      ],
      "name": "setApprovalForAll",
      "outputs": [],
      "stateMutability": "nonpayable",
      "type": "function"
    },
    {
      "inputs": [
        {
          "internalType": "address",
          "name": "feedAddress",
          "type": "address"
        }
      ],
      "name": "setInterestRateFeed",
      "outputs": [],
      "stateMutability": "nonpayable",
      "type": "function"
    },
    {
      "inputs": [
        {
          "internalType": "bool",
          "name": "enabled",
          "type": "bool"
        }
      ],
      "name": "setMarketProtectionEnabled",
      "outputs": [],
      "stateMutability": "nonpayable",
      "type": "function"
    },
    {
      "inputs": [
        {
          "internalType": "address",
          "name": "feedAddress",
          "type": "address"
        }
      ],
      "name": "setMarketTrendFeed",
      "outputs": [],
      "stateMutability": "nonpayable",
      "type": "function"
    },
    {
      "inputs": [
        {
          "internalType": "address",
          "name": "feedAddress",
          "type": "address"
        }
      ],
      "name": "setMarketVolatilityFeed",
      "outputs": [],
      "stateMutability": "nonpayable",
      "type": "function"
    },
    {
      "inputs": [
        {
          "internalType": "uint256",
          "name": "tokenId",
          "type": "uint256"
        },
        {
          "internalType": "bool",
          "name": "isListed",
          "type": "bool"
        }
      ],
      "name": "setPropertyListed",
      "outputs": [],
      "stateMutability": "nonpayable",
      "type": "function"
    },
    {
      "inputs": [
        {
          "internalType": "address",
          "name": "feedAddress",
          "type": "address"
        }
      ],
      "name": "setPropertyPriceFeed",
      "outputs": [],
      "stateMutability": "nonpayable",
      "type": "function"
    },
    {
      "inputs": [],
      "name": "subscriptionDuration",
      "outputs": [
        {
          "internalType": "uint256",
          "name": "",
          "type": "uint256"
        }
      ],
      "stateMutability": "view",
      "type": "function"
    },
    {
      "inputs": [
        {
          "internalType": "address",
          "name": "",
          "type": "address"
        }
      ],
      "name": "subscriptionExpiry",
      "outputs": [
        {
          "internalType": "uint256",
          "name": "",
          "type": "uint256"
        }
      ],
      "stateMutability": "view",
      "type": "function"
    },
    {
      "inputs": [],
      "name": "subscriptionPrice",
      "outputs": [
        {
          "internalType": "uint256",
          "name": "",
          "type": "uint256"
        }
      ],
      "stateMutability": "view",
      "type": "function"
    },
    {
      "inputs": [
        {
          "internalType": "bytes4",
          "name": "interfaceId",
          "type": "bytes4"
        }
      ],
      "name": "supportsInterface",
      "outputs": [
        {
          "internalType": "bool",
          "name": "",
          "type": "bool"
        }
      ],
      "stateMutability": "view",
      "type": "function"
    },
    {
      "inputs": [],
      "name": "symbol",
      "outputs": [
        {
          "internalType": "string",
          "name": "",
          "type": "string"
        }
      ],
      "stateMutability": "view",
      "type": "function"
    },
    {
      "inputs": [
        {
          "internalType": "uint256",
          "name": "tokenId",
          "type": "uint256"
        }
      ],
      "name": "tokenURI",
      "outputs": [
        {
          "internalType": "string",
          "name": "",
          "type": "string"
        }
      ],
      "stateMutability": "view",
      "type": "function"
    },
    {
      "inputs": [
        {
          "internalType": "address",
          "name": "from",
          "type": "address"
        },
        {
          "internalType": "address",
          "name": "to",
          "type": "address"
        },
        {
          "internalType": "uint256",
          "name": "tokenId",
          "type": "uint256"
        }
      ],
      "name": "transferFrom",
      "outputs": [],
      "stateMutability": "nonpayable",
      "type": "function"
    },
    {
      "inputs": [
        {
          "internalType": "address",
          "name": "newOwner",
          "type": "address"
        }
      ],
      "name": "transferOwnership",
      "outputs": [],
      "stateMutability": "nonpayable",
      "type": "function"
    },
    {
      "inputs": [
        {
          "internalType": "address",
          "name": "newPropertyPriceFeed",
          "type": "address"
        },
        {
          "internalType": "address",
          "name": "newMarketTrendFeed",
          "type": "address"
        },
        {
          "internalType": "address",
          "name": "newInterestRateFeed",
          "type": "address"
        },
        {
          "internalType": "address",
          "name": "newMarketVolatilityFeed",
          "type": "address"
        }
      ],
      "name": "updateAllFeedAddresses",
      "outputs": [],
      "stateMutability": "nonpayable",
      "type": "function"
    },
    {
      "inputs": [
        {
          "internalType": "uint256",
          "name": "newLimit",
          "type": "uint256"
        }
      ],
      "name": "updateFreeUploadsLimit",
      "outputs": [],
      "stateMutability": "nonpayable",
      "type": "function"
    },
    {
      "inputs": [
        {
          "internalType": "address",
          "name": "newFeedAddress",
          "type": "address"
        }
      ],
      "name": "updateInterestRateFeed",
      "outputs": [],
      "stateMutability": "nonpayable",
      "type": "function"
    },
    {
      "inputs": [],
      "name": "updateMarketData",
      "outputs": [],
      "stateMutability": "nonpayable",
      "type": "function"
    },
    {
      "inputs": [
        {
          "internalType": "uint256",
          "name": "newInterval",
          "type": "uint256"
        }
      ],
      "name": "updateMarketDataUpdateInterval",
      "outputs": [],
      "stateMutability": "nonpayable",
      "type": "function"
    },
    {
      "inputs": [
        {
          "internalType": "address",
          "name": "newFeedAddress",
          "type": "address"
        }
      ],
      "name": "updateMarketTrendFeed",
      "outputs": [],
      "stateMutability": "nonpayable",
      "type": "function"
    },
    {
      "inputs": [
        {
          "internalType": "address",
          "name": "newFeedAddress",
          "type": "address"
        }
      ],
      "name": "updateMarketVolatilityFeed",
      "outputs": [],
      "stateMutability": "nonpayable",
      "type": "function"
    },
    {
      "inputs": [
        {
          "internalType": "uint256",
          "name": "newDeviation",
          "type": "uint256"
        }
      ],
      "name": "updateMaxPriceDeviation",
      "outputs": [],
      "stateMutability": "nonpayable",
      "type": "function"
    },
    {
      "inputs": [
        {
          "internalType": "uint256",
          "name": "newThreshold",
          "type": "uint256"
        }
      ],
      "name": "updatePriceUpdateThreshold",
      "outputs": [],
      "stateMutability": "nonpayable",
      "type": "function"
    },
    {
      "inputs": [
        {
          "internalType": "uint256",
          "name": "tokenId",
          "type": "uint256"
        },
        {
          "internalType": "uint256",
          "name": "newBasePrice",
          "type": "uint256"
        },
        {
          "internalType": "string",
          "name": "newTokenURI",
          "type": "string"
        }
      ],
      "name": "updatePropertyMetadata",
      "outputs": [],
      "stateMutability": "nonpayable",
      "type": "function"
    },
    {
      "inputs": [
        {
          "internalType": "address",
          "name": "newFeedAddress",
          "type": "address"
        }
      ],
      "name": "updatePropertyPriceFeed",
      "outputs": [],
      "stateMutability": "nonpayable",
      "type": "function"
    },
    {
      "inputs": [],
      "name": "updatePropertyPrices",
      "outputs": [],
      "stateMutability": "nonpayable",
      "type": "function"
    },
    {
      "inputs": [
        {
          "internalType": "uint256",
          "name": "newDuration",
          "type": "uint256"
        }
      ],
      "name": "updateSubscriptionDuration",
      "outputs": [],
      "stateMutability": "nonpayable",
      "type": "function"
    },
    {
      "inputs": [
        {
          "internalType": "uint256",
          "name": "newPrice",
          "type": "uint256"
        }
      ],
      "name": "updateSubscriptionPrice",
      "outputs": [],
      "stateMutability": "nonpayable",
      "type": "function"
    },
    {
      "inputs": [
        {
          "internalType": "address",
          "name": "",
          "type": "address"
        }
      ],
      "name": "userPropertyCount",
      "outputs": [
        {
          "internalType": "uint256",
          "name": "",
          "type": "uint256"
        }
      ],
      "stateMutability": "view",
      "type": "function"
    },
    {
      "inputs": [],
      "name": "userRegistry",
      "outputs": [
        {
          "internalType": "contract UserRegistry",
          "name": "",
          "type": "address"
        }
      ],
      "stateMutability": "view",
      "type": "function"
    },
    {
      "inputs": [],
      "name": "withdrawPayments",
      "outputs": [],
      "stateMutability": "nonpayable",
      "type": "function"
    }
  ],
  "bytecode": "0x608060405234610425576144cb6040813803918261001c8161042a565b938492833981010312610425578051906001600160a01b038216820361042557602001516001600160a01b038116908190036104255761005c604061042a565b91601483527f50726f707479436861696e2050726f70657274790000000000000000000000006020840152610091604061042a565b6004815263050524f560e41b602082015283519092906001600160401b03811161033057600054600181811c9116801561041b575b602082101461031057601f81116103b7575b50602094601f821160011461035157948192939495600092610346575b50508160011b916000199060031b1c1916176000555b82516001600160401b03811161033057600154600181811c91168015610326575b602082101461031057601f81116102ab575b506020601f82116001146102445781929394600092610239575b50508160011b916000199060031b1c1916176001555b33156102235760078054336001600160a01b0319821681179092556040519360019290916001600160a01b03167f8be0079c531659141344cd1fd0a4f28419497f9722a3daafe3b4186f6b6457e0600080a36002600d556729a2241af62c0000600e5562278d00600f55610e10601d556005601e556032601f55602054906101008360a81b039060081b1690828060a81b031916171760205560018060a01b0319602154161760215561407b90816104508239f35b631e4fbdf760e01b600052600060045260246000fd5b015190503880610158565b601f198216906001600052806000209160005b8181106102935750958360019596971061027a575b505050811b0160015561016e565b015160001960f88460031b161c1916905538808061026c565b9192602060018192868b015181550194019201610257565b60016000527fb10e2d527612073b26eecdfd717e6a320cf44b4afac2b0732d9fcbe2b7fa0cf6601f830160051c81019160208410610306575b601f0160051c01905b8181106102fa575061013e565b600081556001016102ed565b90915081906102e4565b634e487b7160e01b600052602260045260246000fd5b90607f169061012c565b634e487b7160e01b600052604160045260246000fd5b0151905038806100f5565b601f1982169560008052806000209160005b88811061039f57508360019596979810610386575b505050811b0160005561010b565b015160001960f88460031b161c19169055388080610378565b91926020600181928685015181550194019201610363565b600080527f290decd9548b62a8d60345a988386fc84ba6bc95484008f6362f93160ef3e563601f830160051c81019160208410610411575b601f0160051c01905b81811061040557506100d8565b600081556001016103f8565b90915081906103ef565b90607f16906100c6565b600080fd5b6040519190601f01601f191682016001600160401b038111838210176103305760405256fe6080604052600436101561001257600080fd5b6000803560e01c806301b7d18d1461277e57806301ffc9a7146126f157806304c9927b1461264957806306fdde03146125c1578063081812fc14612584578063095ea7b31461249a57806309a618e3146122c55780630aacd6c9146120795780630abc7b56146120605780630ac8d79e14611f625780630c9dfae114611dd35780631454f91714611da557806316fcd07f14611cbf57806317aaf5ed14611ca157806323b872dd14611c8957806324f1c5c114611be457806331d990e614611a4b5780633231873b1461113357806332665ffb146118625780633310ed99146118395780633468021c1461181b57806338fd792b146117735780633a32e936146116ce5780633a34c83f146116b05780633a89fedd1461161e5780633e7f71c7146115fc57806342842e0e146115cc5780634d96264c14611538578063569b3fda1461151a5780635702b136146114f15780635c7460d6146114c657806360a85ef5146108255780636103d70b146114315780636352211e146114005780636cb0e3ef146113c057806370a082311461136d578063715018a61461131057806372fc6b83146112e75780637a94a633146112c95780638a1d3795146111e55780638cf17dc4146111bc5780638d0de0bc146111955780638da5cb5b1461116c5780638ebdf2711461113357806395d89b411461106457806396d6c82b1461103b578063975b86621461101d5780639af19d3214610f6c5780639bae81ac14610e7f578063a22cb46514610ddf578063a78ea41614610cfc578063b75a16ab14610cd3578063b7a88d5714610c2f578063b88d4fde14610bbb578063bdb0a19a14610ad4578063bdc8e54c14610ab6578063bebe4a5714610a7b578063c05c5e9414610a52578063c87b56dd14610a1e578063c963c510146109df578063d3df15ff146108dc578063d6d9014a1461085e578063d8376ee214610825578063db1bed221461074d578063e5582e9e14610724578063e5b2003a1461063a578063e985e9c5146105e0578063f2fde38b14610557578063f45d08a314610425578063f7b10808146103555763fb8b0def1461032a57600080fd5b346103525780600319360112610352576013546040516001600160a01b039091168152602090f35b80fd5b50346103525760203660031901126103525760406103cc91600435815260096020522061042160ff8254169161038d600182016132ef565b60ff600283015492600381015460048201546005830154906006840154926103df6103bf6008600788015497016132ef565b976040519c8d809d613292565b61014060208d01526101408c0190613180565b9760408b015260608a0152608089015260a088015260c087015260018060a01b03811660e087015260a01c161515610100850152838203610120850152613180565b0390f35b50346103525760203660031901126103525760246104416131bf565b602154604051630935e01b60e21b81523360048201529260209184919082906001600160a01b03165afa91821561054c576000805160206140268339815191529261049391859161051d575b5061347e565b6001600160a01b03166104a7811515613a15565b806001600160601b0360a01b6014541617601455806001600160601b0360a01b601054161760105560405180916060825261050b60608301604090601881527770726f70657274795072696365466565644164647265737360401b60208201520190565b9085602084015260408301520390a180f35b61053f915060203d602011610545575b61053781836130e8565b810190613393565b3861048d565b503d61052d565b6040513d85823e3d90fd5b5034610352576020366003190112610352576105716131bf565b610579613e8c565b6001600160a01b031680156105cc57600780546001600160a01b0319811683179091556001600160a01b03167f8be0079c531659141344cd1fd0a4f28419497f9722a3daafe3b4186f6b6457e08380a380f35b631e4fbdf760e01b82526004829052602482fd5b50346103525760403660031901126103525760406105fc6131bf565b916106056131d5565b9260018060a01b031681526005602052209060018060a01b0316600052602052602060ff604060002054166040519015158152f35b50346103525760203660031901126103525760246106566131bf565b602154604051630935e01b60e21b81523360048201529260209184919082906001600160a01b03165afa91821561054c57600080516020614026833981519152926106a791859161051d575061347e565b6001600160a01b03166106bb811515613a15565b806001600160601b0360a01b6017541617601755806001600160601b0360a01b601354161760135560405180916060825261050b60608301604090601b81527f6d61726b6574566f6c6174696c6974794665656441646472657373000000000060208201520190565b50346103525780600319360112610352576016546040516001600160a01b039091168152602090f35b508060031936011261035257600e5434106107d257338152600c6020526040812054428111156107c057600f54610783916134d5565b338252600c6020528060408320556040519081527f799bcc5d05a0d37fc0012dba6e154d1353b3b36495bf076daf88f7b1428a3f8160203392a280f35b506107cd600f54426134d5565b610783565b60405162461bcd60e51b815260206004820152602560248201527f496e73756666696369656e74207061796d656e7420666f722073756273637269604482015264383a34b7b760d91b6064820152608490fd5b5034610352576020366003190112610352576020906040906001600160a01b0361084d6131bf565b168152600c83522054604051908152f35b5034610352576020366003190112610352576108786131bf565b602154604051630935e01b60e21b815233600482015290602090829060249082906001600160a01b03165afa801561054c576108ba91849161051d575061347e565b6001600160a01b03168152600b60205260408120805460ff1916600117905580f35b50346103525760203660031901126103525760246108f86131bf565b602154604051630935e01b60e21b81523360048201529260209184919082906001600160a01b03165afa91821561054c576000805160206140268339815191529261094991859161051d575061347e565b6001600160a01b031661095d811515613a15565b60145490806001600160601b0360a01b831617601455806001600160601b0360a01b6010541617601055604051918291606083526109c460608401604090601881527770726f70657274795072696365466565644164647265737360401b60208201520190565b6001600160a01b03909216602084015260408301520390a180f35b50346103525760203660031901126103525760209060ff906040906001600160a01b03610a0a6131bf565b168152600b84522054166040519015158152f35b503461035257602036600319011261035257610421610a3e600435613ff2565b604051918291602083526020830190613180565b50346103525780600319360112610352576021546040516001600160a01b039091168152602090f35b5034610352576020366003190112610352576020906040906001600160a01b03610aa36131bf565b168152600c835220546040519042108152f35b50346103525780600319360112610352576020600e54604051908152f35b5034610352576020366003190112610352576024610af06131bf565b602154604051630935e01b60e21b81523360048201529260209184919082906001600160a01b03165afa91821561054c5760008051602061402683398151915292610b4191859161051d575061347e565b6001600160a01b0316610b55811515613a15565b60165490806001600160601b0360a01b831617601655806001600160601b0360a01b6012541617601255604051918291606083526109c4606084016040906017815276696e74657265737452617465466565644164647265737360481b60208201520190565b503461035257608036600319011261035257610bd56131bf565b610bdd6131d5565b906044356064359267ffffffffffffffff8411610c2b5736602385011215610c2b57610c16610c28943690602481600401359101613126565b92610c22838383613a58565b33613eb5565b80f35b8480fd5b5034610352576020366003190112610352576024600435602060018060a01b036021541660405193848092630935e01b60e21b82523360048301525afa90811561054c57610c9560a09260008051602061402683398151915294869161051d575061347e565b600d549080600d556040519160608352601060608401526f199c9959555c1b1bd8591cd31a5b5a5d60821b608084015260208301526040820152a180f35b50346103525780600319360112610352576014546040516001600160a01b039091168152602090f35b5034610352576020366003190112610352576024610d186131bf565b602154604051630935e01b60e21b81523360048201529260209184919082906001600160a01b03165afa91821561054c5760008051602061402683398151915292610d6991859161051d575061347e565b6001600160a01b0316610d7d811515613a15565b806001600160601b0360a01b6015541617601555806001600160601b0360a01b601154161760115560405180916060825261050b6060830160409060168152756d61726b65745472656e64466565644164647265737360501b60208201520190565b503461035257604036600319011261035257610df96131bf565b610e016131eb565b6001600160a01b03909116908115610e6b573383526005602052604083208260005260205260406000209015159060ff1981541660ff83161790556040519081527f17307eab39ab6107e8899845ad3d59bd9653f200f220920489ca2b5937696c3160203392a380f35b630b61174360e31b83526004829052602483fd5b5034610352576020366003190112610352576024610e9b6131bf565b602154604051630935e01b60e21b81523360048201529260209184919082906001600160a01b03165afa91821561054c5760008051602061402683398151915292610eec91859161051d575061347e565b6001600160a01b0316610f00811515613a15565b60175490806001600160601b0360a01b831617601755806001600160601b0360a01b6013541617601355604051918291606083526109c460608401604090601b81527f6d61726b6574566f6c6174696c6974794665656441646472657373000000000060208201520190565b5034610352576020366003190112610352576024600435602060018060a01b036021541660405193848092630935e01b60e21b82523360048301525afa90811561054c57610fd260a09260008051602061402683398151915294869161051d575061347e565b601d549080601d556040519160608352601860608401527f6d61726b657444617461557064617465496e74657276616c0000000000000000608084015260208301526040820152a180f35b50346103525780600319360112610352576020601f54604051908152f35b50346103525780600319360112610352576011546040516001600160a01b039091168152602090f35b5034610352578060031936011261035257604051908060015490611087826132b5565b808552916001811690811561110c57506001146110af575b61042184610a3e818603826130e8565b600181527fb10e2d527612073b26eecdfd717e6a320cf44b4afac2b0732d9fcbe2b7fa0cf6939250905b8082106110f257509091508101602001610a3e8261109f565b9192600181602092548385880101520191019092916110d9565b60ff191660208087019190915292151560051b85019092019250610a3e915083905061109f565b5034610352576020366003190112610352576020906040906001600160a01b0361115b6131bf565b168152600a83522054604051908152f35b50346103525780600319360112610352576007546040516001600160a01b039091168152602090f35b50346103525760203660031901126103525760206111b4600435613bff565b604051908152f35b50346103525780600319360112610352576010546040516001600160a01b039091168152602090f35b50346103525760203660031901126103525760246112016131bf565b602154604051630935e01b60e21b81523360048201529260209184919082906001600160a01b03165afa91821561054c576000805160206140268339815191529261125291859161051d575061347e565b6001600160a01b0316611266811515613a15565b806001600160601b0360a01b6016541617601655806001600160601b0360a01b601254161760125560405180916060825261050b606083016040906017815276696e74657265737452617465466565644164647265737360481b60208201520190565b50346103525780600319360112610352576020600f54604051908152f35b50346103525780600319360112610352576012546040516001600160a01b039091168152602090f35b5034610352578060031936011261035257611329613e8c565b600780546001600160a01b0319811690915581906001600160a01b03167f8be0079c531659141344cd1fd0a4f28419497f9722a3daafe3b4186f6b6457e08280a380f35b5034610352576020366003190112610352576001600160a01b0361138f6131bf565b1680156113ac578160409160209352600383522054604051908152f35b6322718ad960e21b82526004829052602482fd5b503461035257806003193601126103525760a0601854601954601a54601b5490601c54926040519485526020850152604084015260608301526080820152f35b503461035257602036600319011261035257602061141f600435613e55565b6040516001600160a01b039091168152f35b5034610352578060031936011261035257602154604051630935e01b60e21b815233600482015290602090829060249082906001600160a01b03165afa80156114bb5761148491839161051d575061347e565b8080808060018060a01b036007541647908282156114b2575bf1156114a65780f35b604051903d90823e3d90fd5b506108fc61149d565b6040513d84823e3d90fd5b50346103525780600319360112610352576020805460405160089190911c6001600160a01b03168152f35b50346103525780600319360112610352576017546040516001600160a01b039091168152602090f35b50346103525780600319360112610352576020600d54604051908152f35b50346103525780600319360112610352576080604051611557816130cc565b828152826020820152826040820152826060820152015260a060405161157c816130cc565b6018549081815260195460208201908152601a5460408301908152601b5491606084019283526080601c549401938452604051948552516020850152516040840152516060830152516080820152f35b503461035257610c286115de36613258565b90604051926115ee6020856130e8565b858452610c22838383613a58565b5034610352578060031936011261035257602060ff8154166040519015158152f35b50346103525760403660031901126103525760043561163b6131eb565b9061165861164882613e55565b6001600160a01b0316331461354e565b808352600960205260408320600701805460ff60a01b191683151560a01b60ff60a01b1617905560405191151582527f33315acc9ec29ea596225d2167d5ef96ec3a3bfee816f24901991912b90bb7d360203393a380f35b50346103525780600319360112610352576020601e54604051908152f35b5034610352576020366003190112610352576024600435602060018060a01b036021541660405193848092630935e01b60e21b82523360048301525afa90811561054c5761173460a09260008051602061402683398151915294869161051d575061347e565b600e549080600e5560405191606083526011606084015270737562736372697074696f6e507269636560781b608084015260208301526040820152a180f35b5034610352576020366003190112610352576024600435602060018060a01b036021541660405193848092630935e01b60e21b82523360048301525afa90811561054c576117d960a09260008051602061402683398151915294869161051d575061347e565b601e549080601e55604051916060835260146060840152731c1c9a58d9555c19185d19551a1c995cda1bdb1960621b608084015260208301526040820152a180f35b50346103525780600319360112610352576020601d54604051908152f35b50346103525780600319360112610352576015546040516001600160a01b039091168152602090f35b50346103525760203660031901126103525760043590606061012060405161188981613099565b83815282602082015283604082015283838201528360808201528360a08201528360c08201528360e082015283610100820152015281151580611a3f575b156119fa5760409181526009602052206020610421604051926118e984613099565b6118f760ff82541685613472565b611903600182016132ef565b838501908152600282015491604086019283528560038201546060820190815260048301546080830190815260058401549060a0840191825260068501549260c085019384526119af61197c600860078901549860ff61010060e08b019a60018060a01b038d168c52019a60a01c1615158a52016132ef565b976101208d0198895261199b6040519d8d8f9e8f908152019051613292565b5161014060408d01526101608c0190613180565b975160608b01525160808a01525160a08901525160c08801525160e0870152516001600160a01b031661010086015251151561012085015251838203601f1901610140850152613180565b60405162461bcd60e51b815260206004820152601760248201527f50726f706572747920646f6573206e6f742065786973740000000000000000006044820152606490fd5b506008548211156118c7565b503461035257611a5a366131fa565b602154604051630935e01b60e21b81523360048201529394919390602090829060249082906001600160a01b03165afa8015611bd957611aa091879161051d575061347e565b6001600160a01b031692611ab584151561385d565b6001600160a01b031690611aca8215156138b5565b6001600160a01b031691611adf83151561390b565b6001600160a01b031692611af4841515613962565b806001600160601b0360a01b6014541617601455816001600160601b0360a01b6015541617601555826001600160601b0360a01b6016541617601655836001600160601b0360a01b60175416176017556001600160601b0360a01b60105416176010556001600160601b0360a01b60115416176011556001600160601b0360a01b60125416176012556001600160601b0360a01b601354161760135560008051602061402683398151915260a060405160608152601060608201526f616c6c4665656441646472657373657360801b608082015283602082015260016040820152a180f35b6040513d88823e3d90fd5b5034610352576020366003190112610352576024600435602060018060a01b036021541660405193848092630935e01b60e21b82523360048301525afa90811561054c57611c4a60a09260008051602061402683398151915294869161051d575061347e565b601f549080601f556040519160608352601160608401527036b0bc283934b1b2a232bb34b0ba34b7b760791b608084015260208301526040820152a180f35b503461035257610c28611c9b36613258565b91613a58565b50346103525780600319360112610352576020600854604051908152f35b5034610352576020366003190112610352576024611cdb6131bf565b602154604051630935e01b60e21b81523360048201529260209184919082906001600160a01b03165afa91821561054c5760008051602061402683398151915292611d2c91859161051d575061347e565b6001600160a01b0316611d40811515613a15565b60155490806001600160601b0360a01b831617601555806001600160601b0360a01b6011541617601155604051918291606083526109c46060840160409060168152756d61726b65745472656e64466565644164647265737360501b60208201520190565b5034610352576020366003190112610352576020611dc9611dc46131bf565b6139bd565b6040519015158152f35b503461035257611de2366131fa565b602154604051630935e01b60e21b81523360048201529394919390602090829060249082906001600160a01b03165afa8015611bd957611e2891879161051d575061347e565b6001600160a01b031692611e3d84151561385d565b6001600160a01b031690611e528215156138b5565b6001600160a01b031691611e6783151561390b565b6001600160a01b031692611e7c841515613962565b806001600160601b0360a01b6014541617601455816001600160601b0360a01b6015541617601555826001600160601b0360a01b6016541617601655836001600160601b0360a01b60175416176017556001600160601b0360a01b60105416176010556001600160601b0360a01b60115416176011556001600160601b0360a01b60125416176012556001600160601b0360a01b601354161760135560008051602061402683398151915260a0604051606081526011606082015270616c6c436861696e6c696e6b466565647360781b608082015283602082015260016040820152a180f35b50346103525760203660031901126103525760043580151580820361205c57602154604051630935e01b60e21b81523360048201529290602090849060249082906001600160a01b03165afa91821561205157611fd760a09360008051602061402683398151915295879161051d575061347e565b60ff801960205416911680911760205560001461204a576001905b156120425760ff60015b816040519360608552601760608601527f6d61726b657450726f74656374696f6e456e61626c65640000000000000000006080860152166020840152166040820152a180f35b60ff84611ffc565b8390611ff2565b6040513d86823e3d90fd5b8280fd5b5034610352578060031936011261035257610c286135d8565b5034610352576060366003190112610352576024359060043560443567ffffffffffffffff811161205c576120b2903690600401613162565b926120bf61164883613e55565b6120ca8115156133ab565b6120d684511515613401565b81835260096020526121006003604085200154918385526009602052806002604087200155613bff565b8284526009602052600360408520015581835260096020524260046040852001558183526009602052600860408420019380519467ffffffffffffffff86116122b15761214d81546132b5565b601f811161226c575b50602095601f81116001146121e55790816121b1939287987fabf2c7b0e91a07ca36564c8750861a97a034c12fbad590b369735fe5039ff9f59798916121da575b508160011b916000199060031b1c19161790555b84613ce3565b82845260096020908152604080862060030154601b54825194855292840152820152606090a280f35b905083015138612197565b818652868620601f198216875b8181106122545750916001917fabf2c7b0e91a07ca36564c8750861a97a034c12fbad590b369735fe5039ff9f5979899826121b19796951061223b575b5050811b0190556121ab565b85015160001960f88460031b161c19169055388061222f565b858a015183556020998a0199600190930192016121f2565b81865260208620601f880160051c810191602089106122a7575b601f0160051c01905b81811061229c5750612156565b86815560010161228f565b9091508190612286565b634e487b7160e01b85526041600452602485fd5b50346103525780600319360112610352576122f06122e8601c54601d54906134d5565b4210156134e2565b6122f86135d8565b6001905b6008548211610c285781815260096020526040812091600383019283546123266002830154613bff565b908181111561248b57612339828261352e565b60648102908082046064149015171561247757811561246357918161237496979286940494601e5486101561237a575b50505050505061344d565b906122fc565b60056123cf91847fabf2c7b0e91a07ca36564c8750861a97a034c12fbad590b369735fe5039ff9f59655426004820155601b549182910155604051938493846040919493926060820195825260208201520152565b0390a260ff602054169081612458575b506123f0575b388181808080612369565b807f5749de10ea0af058afc037146c5a3f63e0690ebe2e391310895aa1907bf4cd20608060405160208152602160208201527f5369676e69666963616e74207072696365206368616e676520646574656374656040820152601960fa1b6060820152a26123e5565b6014915011386123df565b634e487b7160e01b86526012600452602486fd5b634e487b7160e01b86526011600452602486fd5b612495818361352e565b612339565b5034610352576040366003190112610352576124b46131bf565b6024356124c081613e55565b33151580612571575b80612544575b6125315781906001600160a01b0384811691167f8c5be1e5ebec7d5bd14f71427d1e84f3dd0314c0f7b2291e5b200ac8c7c3b9258680a4825260046020526040822080546001600160a01b0319166001600160a01b0390921691909117905580f35b63a9fbf51f60e01b845233600452602484fd5b506001600160a01b0381168452600560209081526040808620336000908152925290205460ff16156124cf565b506001600160a01b0381163314156124c9565b5034610352576020366003190112610352576020906004356125a581613e55565b50815260048252604060018060a01b0391205416604051908152f35b503461035257806003193601126103525760405190808054906125e3826132b5565b808552916001811690811561110c575060011461260a5761042184610a3e818603826130e8565b80805260208120939250905b80821061262f57509091508101602001610a3e8261109f565b919260018160209254838588010152019101909291612616565b5034610352576020366003190112610352576024600435602060018060a01b036021541660405193848092630935e01b60e21b82523360048301525afa90811561054c576126af60a09260008051602061402683398151915294869161051d575061347e565b600f549080600f556040519160608352601460608401527339bab139b1b934b83a34b7b7223ab930ba34b7b760611b608084015260208301526040820152a180f35b50346103525760203660031901126103525760043563ffffffff60e01b811680910361277a57602090632483248360e11b8114908115612737575b506040519015158152f35b6380ac58cd60e01b811491508115612769575b8115612758575b508261272c565b6301ffc9a760e01b14905082612751565b635b5e139f60e01b8114915061274a565b5080fd5b503461035257608036600319011261035257600560043510156103525760243567ffffffffffffffff811161277a576127bb903690600401613162565b60643567ffffffffffffffff811161205c576127db903690600401613162565b60208054604051639ee20b1560e01b815233600482015292939291908290602490829060081c6001600160a01b03165afa90811561205157849161307a575b5015613035576004803511612ff857805115612fb35761283d60443515156133ab565b61284982511515613401565b338352600b60205260ff6040842054161580612f9b575b612f1d575b612870604435613bff565b9061287c60085461344d565b9182600855601b546040519061289182613099565b61289d60043583613472565b6020820190848252604435604084015283606084015242608084015260a08301524260c08301523360e083015286610100830152856101208301528487526009602052604087209082516005811015612f095760ff801984541691161782555180519067ffffffffffffffff8211612ef55761291c60018401546132b5565b601f8111612eb1575b50602090601f8311600114612e4257918061012094926008948c92612e37575b50508160011b916000199060031b1c19161760018201555b60408401516002820155606084015160038201556080840151600482015560a080850151600583015560c0850151600683015560e08501516007830180546101008801516001600160a81b03199091166001600160a01b03939093169290921791151590921b60ff60a01b161790550191015180519067ffffffffffffffff8211612e235781906129ee84546132b5565b601f8111612dd3575b50602090601f8311600114612d70578992612d65575b50508160011b916000199060031b1c19161790555b338552600a60205260408520612a38815461344d565b9055602091604051612a4a84826130e8565b8681523315612d51578487526002845260408720546001600160a01b03168015159081612d1d575b33808a52600387526040808b2080546001019055888b52600288528a2080546001600160a01b031916821790558790827fddf252ad1be2c89b69c2b068fc378daa952ba7f163c4a11628f55a4df523b3ef8c80a450612d0957333b612beb575b50612add8585613ce3565b8254338752600a84526040872054879160081c6001600160a01b0316803b1561205c576044839260405194859384926332280f1960e21b845233600485015260248401525af18015612be057612b9d575b5091612b9760a092612b7a7f79a1916793a3ab599f29c62759b6ca9ef5b57f370b49ce39fa15e5995083442c95604051958695612b6d87600435613292565b86015260a0850190613180565b906044356040850152606084015282810360808401523396613180565b0390a380f35b60a092612b7a88612bd47f79a1916793a3ab599f29c62759b6ca9ef5b57f370b49ce39fa15e5995083442c97959a612b97956130e8565b98939550509250612b2e565b6040513d89823e3d90fd5b83612c2991604098979695985180938192630a85bd0160e11b83523360048401528a6024840152886044840152608060648401526084830190613180565b038189335af1869181612cc5575b50612c8e5786863d15612c86573d91612c4f8361310a565b92612c5d60405194856130e8565b83523d828285013e5b82519283612c8157633250574960e11b835233600452602483fd5b019050fd5b606091612c66565b949593949293926001600160e01b03191663757a42ff60e11b01612cb25738612ad2565b633250574960e11b865233600452602486fd5b9091508781813d8311612d02575b612cdd81836130e8565b81010312612cfe57516001600160e01b031981168103612cfe579038612c37565b8680fd5b503d612cd3565b6339e3563760e11b87526004879052602487fd5b600087815260046020526040902080546001600160a01b031916905580895260038652604089208054600019019055612a72565b633250574960e11b87526004879052602487fd5b015190503880612a0d565b848a52818a209250601f1984168a5b818110612dbb5750908460019594939210612da2575b505050811b019055612a22565b015160001960f88460031b161c19169055388080612d95565b92936020600181928786015181550195019301612d7f565b90915083895260208920601f840160051c81019160208510612e19575b90601f859493920160051c01905b818110612e0b57506129f7565b8a8155849350600101612dfe565b9091508190612df0565b634e487b7160e01b88526041600452602488fd5b015190503880612945565b600184018a52818a209190601f1984168b5b818110612e995750926001928592600896610120989610612e80575b505050811b01600182015561295d565b015160001960f88460031b161c19169055388080612e70565b92936020600181928786015181550195019301612e54565b600184018a5260208a20601f840160051c810160208510612eee575b601f830160051c82018110612ee3575050612925565b8b8155600101612ecd565b5080612ecd565b634e487b7160e01b89526041600452602489fd5b634e487b7160e01b89526021600452602489fd5b338352600c602052604083205442106128655760405162461bcd60e51b815260206004820152603d60248201527f467265652075706c6f6164206c696d697420726561636865642e20507572636860448201527f61736520737562736372697074696f6e20746f20636f6e74696e75652e0000006064820152608490fd5b50338352600a6020526040832054600d541115612860565b60405162461bcd60e51b815260206004820152601860248201527f4c6f636174696f6e2063616e6e6f7420626520656d70747900000000000000006044820152606490fd5b60405162461bcd60e51b8152602060048201526015602482015274496e76616c69642070726f7065727479207479706560581b6044820152606490fd5b60405162461bcd60e51b815260206004820152601f60248201527f55736572206e6f742072656769737465726564206f7220696e616374697665006044820152606490fd5b613093915060203d6020116105455761053781836130e8565b3861281a565b610140810190811067ffffffffffffffff8211176130b657604052565b634e487b7160e01b600052604160045260246000fd5b60a0810190811067ffffffffffffffff8211176130b657604052565b90601f8019910116810190811067ffffffffffffffff8211176130b657604052565b67ffffffffffffffff81116130b657601f01601f191660200190565b9291926131328261310a565b9161314060405193846130e8565b82948184528183011161315d578281602093846000960137010152565b600080fd5b9080601f8301121561315d5781602061317d93359101613126565b90565b919082518082526020808301940160005b8281106131af575050600081602094950152601f8019910116010190565b8181015186820152602001613191565b600435906001600160a01b038216820361315d57565b602435906001600160a01b038216820361315d57565b60243590811515820361315d57565b608090600319011261315d576004356001600160a01b038116810361315d57906024356001600160a01b038116810361315d57906044356001600160a01b038116810361315d57906064356001600160a01b038116810361315d5790565b606090600319011261315d576004356001600160a01b038116810361315d57906024356001600160a01b038116810361315d579060443590565b90600582101561329f5752565b634e487b7160e01b600052602160045260246000fd5b90600182811c921680156132e5575b60208310146132cf57565b634e487b7160e01b600052602260045260246000fd5b91607f16916132c4565b9060405191826000825492613303846132b5565b8084529360018116908115613371575060011461332a575b50613328925003836130e8565b565b90506000929192526020600020906000915b818310613355575050906020613328928201013861331b565b602091935080600191548385890101520191019091849261333c565b90506020925061332894915060ff191682840152151560051b8201013861331b565b9081602091031261315d5751801515810361315d5790565b156133b257565b60405162461bcd60e51b815260206004820152602160248201527f42617365207072696365206d7573742062652067726561746572207468616e206044820152600360fc1b6064820152608490fd5b1561340857565b60405162461bcd60e51b815260206004820152601960248201527f546f6b656e205552492063616e6e6f7420626520656d707479000000000000006044820152606490fd5b600019811461345c5760010190565b634e487b7160e01b600052601160045260246000fd5b600582101561329f5752565b1561348557565b60405162461bcd60e51b815260206004820152602260248201527f4f6e6c792061646d696e2063616e20706572666f726d2074686973206163746960448201526137b760f11b6064820152608490fd5b9190820180921161345c57565b156134e957565b60405162461bcd60e51b815260206004820152601f60248201527f4d61726b657420646174612075706461746520746f6f206672657175656e74006044820152606490fd5b9190820391821161345c57565b8181029291811591840414171561345c57565b1561355557565b60405162461bcd60e51b81526020600482015260126024820152712737ba10383937b832b93a3c9037bbb732b960711b6044820152606490fd5b519069ffffffffffffffffffff8216820361315d57565b908160a091031261315d576135ba8161358f565b9160208201519160408101519161317d60806060840151930161358f565b6135ea6122e8601c54601d54906134d5565b601054604051633fabe5a360e21b81529060a090829060049082906001600160a01b03165afa801561379457600090600091600093600092613823575b5069ffffffffffffffffffff8091169116106137eb57601154604051633fabe5a360e21b8152919060a090839060049082906001600160a01b03165afa918215613794576000926137c4575b50601254604051633fabe5a360e21b815292939060a090849060049082906001600160a01b03165afa8015613794576004936000916137a0575b50601354604051633fabe5a360e21b81529460a09186919082906001600160a01b03165afa908115613794577f8ab843e6a23dce909a99756795b08abb936a24130d488c5908bbb8567795fe939560809560009361375e575b508386604051613715816130cc565b878152836020820152846040820152856060820152015284601855601955601a55601b55601c55601954601a54601b5491604051938452602084015260408301526060820152a1565b61378191935060a03d60a01161378d575b61377981836130e8565b8101906135a6565b50505090509138613706565b503d61376f565b6040513d6000823e3d90fd5b6137b9915060a03d60a01161378d5761377981836130e8565b5050509050386136ad565b600492506137e09060a03d60a01161378d5761377981836130e8565b505050905091613673565b60405162461bcd60e51b815260206004820152601060248201526f5374616c65207072696365206461746160801b6044820152606490fd5b905069ffffffffffffffffffff935083925061384e915060a03d60a01161378d5761377981836130e8565b90955091939192919050613627565b1561386457565b60405162461bcd60e51b815260206004820152602360248201527f496e76616c69642070726f70657274792070726963652066656564206164647260448201526265737360e81b6064820152608490fd5b156138bc57565b60405162461bcd60e51b815260206004820152602160248201527f496e76616c6964206d61726b6574207472656e642066656564206164647265736044820152607360f81b6064820152608490fd5b1561391257565b60405162461bcd60e51b815260206004820152602260248201527f496e76616c696420696e74657265737420726174652066656564206164647265604482015261737360f01b6064820152608490fd5b1561396957565b60405162461bcd60e51b815260206004820152602660248201527f496e76616c6964206d61726b657420766f6c6174696c6974792066656564206160448201526564647265737360d01b6064820152608490fd5b6001600160a01b03166000818152600b602052604090205460ff1680156139fc575b6139f657600052600c602052604060002054421090565b50600190565b5080600052600a602052604060002054600d54116139df565b15613a1c57565b60405162461bcd60e51b8152602060048201526014602482015273496e76616c69642066656564206164647265737360601b6044820152606490fd5b6001600160a01b0390911691908215613be9576000828152600260205260408120546001600160a01b0316938391859033151580613b51575b507fddf252ad1be2c89b69c2b068fc378daa952ba7f163c4a11628f55a4df523b3ef9082613b1c575b83815260036020526040812060018154019055848152600260205260408120846001600160601b0360a01b82541617905580a46001600160a01b0316808303613b0257505050565b6364283d7b60e01b60005260045260245260445260646000fd5b600085815260046020526040902080546001600160a01b03191690558281526003602052604081208054600019019055613aba565b915091925080613b9a575b15613b6b579084849238613a91565b839085613b8457602491637e27328960e01b8252600452fd5b60449163177e802f60e01b825233600452602452fd5b503385148015613bc8575b80613b5c5750838152600460205260408120546001600160a01b03163314613b5c565b5084815260056020908152604080832033845290915281205460ff16613ba5565b633250574960e11b600052600060045260246000fd5b6014546001600160a01b0316158015613cd0575b8015613cbd575b8015613caa575b61317d576018541561317d57613c5f613c49612710613c426019548561353b565b04836134d5565b612710613c58601b548361353b565b04906134d5565b906064613c6e601f548361353b565b0490613c7a82826134d5565b831115613c8b5761317d92506134d5565b613c95828261352e565b8310613ca057505090565b61317d925061352e565b506017546001600160a01b031615613c21565b506016546001600160a01b031615613c1a565b506015546001600160a01b031615613c13565b9190918060005260066020526040600020835167ffffffffffffffff81116130b657613d0f82546132b5565b601f8111613e0d575b506020601f8211600114613d8157908060209493927ff8e1a15aba9398e019f0b49df1a4fde98ee17ae345cb5f6b5e2c27f5033e8ce79697600092613d76575b50508160011b916000199060031b1c19161790555b604051908152a1565b015190503880613d58565b601f1982169583600052816000209660005b818110613df5575096600192849260209796957ff8e1a15aba9398e019f0b49df1a4fde98ee17ae345cb5f6b5e2c27f5033e8ce7999a10613ddc575b505050811b019055613d6d565b015160001960f88460031b161c19169055388080613dcf565b83830151895560019098019760209384019301613d93565b826000526020600020601f830160051c81019160208410613e4b575b601f0160051c01905b818110613e3f5750613d18565b60008155600101613e32565b9091508190613e29565b6000818152600260205260409020546001600160a01b0316908115613e78575090565b637e27328960e01b60005260045260246000fd5b6007546001600160a01b03163303613ea057565b63118cdaa760e01b6000523360045260246000fd5b823b613ec3575b5050505050565b604051630a85bd0160e11b81526001600160a01b039182166004820152918116602483015260448201939093526080606482015291169160209082908190613f0f906084830190613180565b03816000865af18091600091613faf575b5090613f7957503d15613f72573d613f378161310a565b90613f4560405192836130e8565b81523d6000602083013e5b80519081613f6d5782633250574960e11b60005260045260246000fd5b602001fd5b6060613f50565b6001600160e01b03191663757a42ff60e11b01613f9b57503880808080613ebc565b633250574960e11b60005260045260246000fd5b6020813d602011613fea575b81613fc8602093836130e8565b8101031261277a5751906001600160e01b031982168203610352575038613f20565b3d9150613fbb565b613ffb81613e55565b50600052600660205261401160406000206132ef565b60006040516140216020826130e8565b529056fed7474166e78731bc168caca1fe1ccebbd6f3c95baee64997902e6b48f442b81aa26469706673582212202b83078542e724f5e6239b1a511b6ed2fadab2d530d37d19e0dbdc0c0d36cde464736f6c634300081c0033",
  "linkReferences": {},
  "deployedLinkReferences": {}
}