{
  "_format": "hh-sol-artifact-1",
  "contractName": "AdminContract",
  "sourceName": "contracts/AdminContract.sol",
  "abi": [
    {
      "inputs": [
        {
          "internalType": "address",
          "name": "initialAdmin",
          "type": "address"
        }
      ],
      "stateMutability": "nonpayable",
      "type": "constructor"
    },
    {
      "inputs": [],
      "name": "AdminLimitReached",
      "type": "error"
    },
    {
      "inputs": [],
      "name": "AlreadyApproved",
      "type": "error"
    },
    {
      "inputs": [],
      "name": "CannotRemoveLastAdmin",
      "type": "error"
    },
    {
      "inputs": [],
      "name": "EnforcedPause",
      "type": "error"
    },
    {
      "inputs": [],
      "name": "ExpectedPause",
      "type": "error"
    },
    {
      "inputs": [],
      "name": "InsufficientFunds",
      "type": "error"
    },
    {
      "inputs": [],
      "name": "InvalidAddress",
      "type": "error"
    },
    {
      "inputs": [],
      "name": "InvalidAmount",
      "type": "error"
    },
    {
      "inputs": [],
      "name": "InvalidProposal",
      "type": "error"
    },
    {
      "inputs": [],
      "name": "NotAdmin",
      "type": "error"
    },
    {
      "inputs": [
        {
          "internalType": "address",
          "name": "owner",
          "type": "address"
        }
      ],
      "name": "OwnableInvalidOwner",
      "type": "error"
    },
    {
      "inputs": [
        {
          "internalType": "address",
          "name": "account",
          "type": "address"
        }
      ],
      "name": "OwnableUnauthorizedAccount",
      "type": "error"
    },
    {
      "inputs": [],
      "name": "ProposalExecuted",
      "type": "error"
    },
    {
      "inputs": [],
      "name": "ReentrancyGuardReentrantCall",
      "type": "error"
    },
    {
      "anonymous": false,
      "inputs": [
        {
          "indexed": true,
          "internalType": "address",
          "name": "admin",
          "type": "address"
        }
      ],
      "name": "AdminAdded",
      "type": "event"
    },
    {
      "anonymous": false,
      "inputs": [
        {
          "indexed": true,
          "internalType": "address",
          "name": "admin",
          "type": "address"
        }
      ],
      "name": "AdminRemoved",
      "type": "event"
    },
    {
      "anonymous": false,
      "inputs": [
        {
          "indexed": false,
          "internalType": "string",
          "name": "config",
          "type": "string"
        },
        {
          "indexed": false,
          "internalType": "uint256",
          "name": "oldValue",
          "type": "uint256"
        },
        {
          "indexed": false,
          "internalType": "uint256",
          "name": "newValue",
          "type": "uint256"
        }
      ],
      "name": "ConfigUpdated",
      "type": "event"
    },
    {
      "anonymous": false,
      "inputs": [
        {
          "indexed": false,
          "internalType": "string",
          "name": "contractName",
          "type": "string"
        },
        {
          "indexed": false,
          "internalType": "address",
          "name": "oldAddress",
          "type": "address"
        },
        {
          "indexed": false,
          "internalType": "address",
          "name": "newAddress",
          "type": "address"
        }
      ],
      "name": "ContractAddressUpdated",
      "type": "event"
    },
    {
      "anonymous": false,
      "inputs": [
        {
          "indexed": true,
          "internalType": "uint256",
          "name": "disputeId",
          "type": "uint256"
        },
        {
          "indexed": false,
          "internalType": "enum AdminContract.DisputeType",
          "name": "disputeType",
          "type": "uint8"
        },
        {
          "indexed": true,
          "internalType": "address",
          "name": "complainant",
          "type": "address"
        },
        {
          "indexed": true,
          "internalType": "address",
          "name": "respondent",
          "type": "address"
        },
        {
          "indexed": false,
          "internalType": "uint256",
          "name": "relatedId",
          "type": "uint256"
        }
      ],
      "name": "DisputeCreated",
      "type": "event"
    },
    {
      "anonymous": false,
      "inputs": [
        {
          "indexed": true,
          "internalType": "uint256",
          "name": "disputeId",
          "type": "uint256"
        },
        {
          "indexed": true,
          "internalType": "address",
          "name": "resolver",
          "type": "address"
        },
        {
          "indexed": false,
          "internalType": "bool",
          "name": "complainantWins",
          "type": "bool"
        },
        {
          "indexed": false,
          "internalType": "string",
          "name": "resolution",
          "type": "string"
        }
      ],
      "name": "DisputeResolved",
      "type": "event"
    },
    {
      "anonymous": false,
      "inputs": [
        {
          "indexed": true,
          "internalType": "address",
          "name": "previousOwner",
          "type": "address"
        },
        {
          "indexed": true,
          "internalType": "address",
          "name": "newOwner",
          "type": "address"
        }
      ],
      "name": "OwnershipTransferred",
      "type": "event"
    },
    {
      "anonymous": false,
      "inputs": [
        {
          "indexed": false,
          "internalType": "address",
          "name": "account",
          "type": "address"
        }
      ],
      "name": "Paused",
      "type": "event"
    },
    {
      "anonymous": false,
      "inputs": [
        {
          "indexed": false,
          "internalType": "uint256",
          "name": "oldFee",
          "type": "uint256"
        },
        {
          "indexed": false,
          "internalType": "uint256",
          "name": "newFee",
          "type": "uint256"
        }
      ],
      "name": "PlatformFeeUpdated",
      "type": "event"
    },
    {
      "anonymous": false,
      "inputs": [
        {
          "indexed": true,
          "internalType": "address",
          "name": "pauser",
          "type": "address"
        },
        {
          "indexed": false,
          "internalType": "string",
          "name": "reason",
          "type": "string"
        }
      ],
      "name": "PlatformPaused",
      "type": "event"
    },
    {
      "anonymous": false,
      "inputs": [
        {
          "indexed": true,
          "internalType": "address",
          "name": "unpauser",
          "type": "address"
        }
      ],
      "name": "PlatformUnpaused",
      "type": "event"
    },
    {
      "anonymous": false,
      "inputs": [
        {
          "indexed": true,
          "internalType": "uint256",
          "name": "propertyId",
          "type": "uint256"
        },
        {
          "indexed": false,
          "internalType": "string",
          "name": "reason",
          "type": "string"
        }
      ],
      "name": "PropertyRemoved",
      "type": "event"
    },
    {
      "anonymous": false,
      "inputs": [
        {
          "indexed": true,
          "internalType": "uint256",
          "name": "reviewId",
          "type": "uint256"
        },
        {
          "indexed": false,
          "internalType": "string",
          "name": "reason",
          "type": "string"
        }
      ],
      "name": "ReviewRemoved",
      "type": "event"
    },
    {
      "anonymous": false,
      "inputs": [
        {
          "indexed": false,
          "internalType": "address",
          "name": "account",
          "type": "address"
        }
      ],
      "name": "Unpaused",
      "type": "event"
    },
    {
      "anonymous": false,
      "inputs": [
        {
          "indexed": true,
          "internalType": "address",
          "name": "user",
          "type": "address"
        },
        {
          "indexed": false,
          "internalType": "bool",
          "name": "verified",
          "type": "bool"
        }
      ],
      "name": "UserVerified",
      "type": "event"
    },
    {
      "anonymous": false,
      "inputs": [
        {
          "indexed": true,
          "internalType": "uint32",
          "name": "proposalId",
          "type": "uint32"
        },
        {
          "indexed": true,
          "internalType": "address",
          "name": "admin",
          "type": "address"
        }
      ],
      "name": "WithdrawalApproved",
      "type": "event"
    },
    {
      "anonymous": false,
      "inputs": [
        {
          "indexed": true,
          "internalType": "uint32",
          "name": "proposalId",
          "type": "uint32"
        },
        {
          "indexed": false,
          "internalType": "uint96",
          "name": "amount",
          "type": "uint96"
        }
      ],
      "name": "WithdrawalExecuted",
      "type": "event"
    },
    {
      "anonymous": false,
      "inputs": [
        {
          "indexed": true,
          "internalType": "uint32",
          "name": "proposalId",
          "type": "uint32"
        },
        {
          "indexed": true,
          "internalType": "address",
          "name": "proposer",
          "type": "address"
        },
        {
          "indexed": false,
          "internalType": "uint96",
          "name": "amount",
          "type": "uint96"
        }
      ],
      "name": "WithdrawalProposed",
      "type": "event"
    },
    {
      "inputs": [
        {
          "internalType": "address",
          "name": "newAdmin",
          "type": "address"
        }
      ],
      "name": "addAdmin",
      "outputs": [],
      "stateMutability": "nonpayable",
      "type": "function"
    },
    {
      "inputs": [
        {
          "internalType": "uint8",
          "name": "",
          "type": "uint8"
        }
      ],
      "name": "admin",
      "outputs": [
        {
          "internalType": "address",
          "name": "",
          "type": "address"
        }
      ],
      "stateMutability": "view",
      "type": "function"
    },
    {
      "inputs": [],
      "name": "adminCount",
      "outputs": [
        {
          "internalType": "uint8",
          "name": "",
          "type": "uint8"
        }
      ],
      "stateMutability": "view",
      "type": "function"
    },
    {
      "inputs": [
        {
          "internalType": "uint32",
          "name": "proposalId",
          "type": "uint32"
        }
      ],
      "name": "approveWithdrawal",
      "outputs": [],
      "stateMutability": "nonpayable",
      "type": "function"
    },
    {
      "inputs": [
        {
          "internalType": "address",
          "name": "userAddress",
          "type": "address"
        },
        {
          "internalType": "enum SoulboundNFT.BadgeType",
          "name": "badgeType",
          "type": "uint8"
        },
        {
          "internalType": "string",
          "name": "metadata",
          "type": "string"
        },
        {
          "internalType": "uint256",
          "name": "level",
          "type": "uint256"
        }
      ],
      "name": "awardBadgeToUser",
      "outputs": [],
      "stateMutability": "nonpayable",
      "type": "function"
    },
    {
      "inputs": [
        {
          "internalType": "enum AdminContract.DisputeType",
          "name": "disputeType",
          "type": "uint8"
        },
        {
          "internalType": "address",
          "name": "respondent",
          "type": "address"
        },
        {
          "internalType": "uint256",
          "name": "relatedId",
          "type": "uint256"
        },
        {
          "internalType": "string",
          "name": "description",
          "type": "string"
        }
      ],
      "name": "createDispute",
      "outputs": [],
      "stateMutability": "nonpayable",
      "type": "function"
    },
    {
      "inputs": [
        {
          "internalType": "enum AdminContract.DisputeType",
          "name": "",
          "type": "uint8"
        }
      ],
      "name": "disputeTypeCounts",
      "outputs": [
        {
          "internalType": "uint256",
          "name": "",
          "type": "uint256"
        }
      ],
      "stateMutability": "view",
      "type": "function"
    },
    {
      "inputs": [
        {
          "internalType": "uint256",
          "name": "",
          "type": "uint256"
        }
      ],
      "name": "disputes",
      "outputs": [
        {
          "internalType": "uint256",
          "name": "disputeId",
          "type": "uint256"
        },
        {
          "internalType": "enum AdminContract.DisputeType",
          "name": "disputeType",
          "type": "uint8"
        },
        {
          "internalType": "enum AdminContract.DisputeStatus",
          "name": "status",
          "type": "uint8"
        },
        {
          "internalType": "address",
          "name": "complainant",
          "type": "address"
        },
        {
          "internalType": "address",
          "name": "respondent",
          "type": "address"
        },
        {
          "internalType": "uint256",
          "name": "relatedId",
          "type": "uint256"
        },
        {
          "internalType": "string",
          "name": "description",
          "type": "string"
        },
        {
          "internalType": "uint256",
          "name": "createdAt",
          "type": "uint256"
        },
        {
          "internalType": "uint256",
          "name": "resolvedAt",
          "type": "uint256"
        },
        {
          "internalType": "address",
          "name": "resolver",
          "type": "address"
        },
        {
          "internalType": "string",
          "name": "resolution",
          "type": "string"
        },
        {
          "internalType": "bool",
          "name": "complainantWins",
          "type": "bool"
        }
      ],
      "stateMutability": "view",
      "type": "function"
    },
    {
      "inputs": [
        {
          "internalType": "uint256",
          "name": "disputeId",
          "type": "uint256"
        }
      ],
      "name": "emergencyCloseDispute",
      "outputs": [],
      "stateMutability": "nonpayable",
      "type": "function"
    },
    {
      "inputs": [],
      "name": "getBalance",
      "outputs": [
        {
          "internalType": "uint256",
          "name": "",
          "type": "uint256"
        }
      ],
      "stateMutability": "view",
      "type": "function"
    },
    {
      "inputs": [],
      "name": "getContractAddresses",
      "outputs": [
        {
          "internalType": "address",
          "name": "userRegistryAddr",
          "type": "address"
        },
        {
          "internalType": "address",
          "name": "propertyFactoryAddr",
          "type": "address"
        },
        {
          "internalType": "address",
          "name": "reviewRegistryAddr",
          "type": "address"
        },
        {
          "internalType": "address",
          "name": "propertyEscrowAddr",
          "type": "address"
        },
        {
          "internalType": "address",
          "name": "soulboundNFTAddr",
          "type": "address"
        }
      ],
      "stateMutability": "view",
      "type": "function"
    },
    {
      "inputs": [
        {
          "internalType": "uint256",
          "name": "disputeId",
          "type": "uint256"
        }
      ],
      "name": "getDispute",
      "outputs": [
        {
          "components": [
            {
              "internalType": "uint256",
              "name": "disputeId",
              "type": "uint256"
            },
            {
              "internalType": "enum AdminContract.DisputeType",
              "name": "disputeType",
              "type": "uint8"
            },
            {
              "internalType": "enum AdminContract.DisputeStatus",
              "name": "status",
              "type": "uint8"
            },
            {
              "internalType": "address",
              "name": "complainant",
              "type": "address"
            },
            {
              "internalType": "address",
              "name": "respondent",
              "type": "address"
            },
            {
              "internalType": "uint256",
              "name": "relatedId",
              "type": "uint256"
            },
            {
              "internalType": "string",
              "name": "description",
              "type": "string"
            },
            {
              "internalType": "uint256",
              "name": "createdAt",
              "type": "uint256"
            },
            {
              "internalType": "uint256",
              "name": "resolvedAt",
              "type": "uint256"
            },
            {
              "internalType": "address",
              "name": "resolver",
              "type": "address"
            },
            {
              "internalType": "string",
              "name": "resolution",
              "type": "string"
            },
            {
              "internalType": "bool",
              "name": "complainantWins",
              "type": "bool"
            }
          ],
          "internalType": "struct AdminContract.Dispute",
          "name": "",
          "type": "tuple"
        }
      ],
      "stateMutability": "view",
      "type": "function"
    },
    {
      "inputs": [
        {
          "internalType": "enum AdminContract.DisputeType",
          "name": "disputeType",
          "type": "uint8"
        }
      ],
      "name": "getDisputeCountByType",
      "outputs": [
        {
          "internalType": "uint256",
          "name": "",
          "type": "uint256"
        }
      ],
      "stateMutability": "view",
      "type": "function"
    },
    {
      "inputs": [],
      "name": "getPlatformStats",
      "outputs": [
        {
          "components": [
            {
              "internalType": "uint256",
              "name": "totalUsers",
              "type": "uint256"
            },
            {
              "internalType": "uint256",
              "name": "totalProperties",
              "type": "uint256"
            },
            {
              "internalType": "uint256",
              "name": "totalReviews",
              "type": "uint256"
            },
            {
              "internalType": "uint256",
              "name": "totalEscrows",
              "type": "uint256"
            },
            {
              "internalType": "uint256",
              "name": "totalDisputes",
              "type": "uint256"
            },
            {
              "internalType": "uint256",
              "name": "totalRevenue",
              "type": "uint256"
            },
            {
              "internalType": "uint256",
              "name": "activeSubscriptions",
              "type": "uint256"
            }
          ],
          "internalType": "struct AdminContract.PlatformStats",
          "name": "",
          "type": "tuple"
        }
      ],
      "stateMutability": "view",
      "type": "function"
    },
    {
      "inputs": [],
      "name": "getTotalDisputes",
      "outputs": [
        {
          "internalType": "uint256",
          "name": "",
          "type": "uint256"
        }
      ],
      "stateMutability": "view",
      "type": "function"
    },
    {
      "inputs": [
        {
          "internalType": "address",
          "name": "userAddress",
          "type": "address"
        }
      ],
      "name": "getUserDisputes",
      "outputs": [
        {
          "internalType": "uint256[]",
          "name": "",
          "type": "uint256[]"
        }
      ],
      "stateMutability": "view",
      "type": "function"
    },
    {
      "inputs": [
        {
          "internalType": "address",
          "name": "account",
          "type": "address"
        }
      ],
      "name": "isAdmin",
      "outputs": [
        {
          "internalType": "bool",
          "name": "",
          "type": "bool"
        }
      ],
      "stateMutability": "view",
      "type": "function"
    },
    {
      "inputs": [
        {
          "internalType": "address",
          "name": "userAddress",
          "type": "address"
        }
      ],
      "name": "isUserVerified",
      "outputs": [
        {
          "internalType": "bool",
          "name": "",
          "type": "bool"
        }
      ],
      "stateMutability": "view",
      "type": "function"
    },
    {
      "inputs": [],
      "name": "maxPropertiesPerUser",
      "outputs": [
        {
          "internalType": "uint256",
          "name": "",
          "type": "uint256"
        }
      ],
      "stateMutability": "view",
      "type": "function"
    },
    {
      "inputs": [],
      "name": "maxReviewsPerProperty",
      "outputs": [
        {
          "internalType": "uint256",
          "name": "",
          "type": "uint256"
        }
      ],
      "stateMutability": "view",
      "type": "function"
    },
    {
      "inputs": [],
      "name": "minReputationForVerification",
      "outputs": [
        {
          "internalType": "uint256",
          "name": "",
          "type": "uint256"
        }
      ],
      "stateMutability": "view",
      "type": "function"
    },
    {
      "inputs": [],
      "name": "owner",
      "outputs": [
        {
          "internalType": "address",
          "name": "",
          "type": "address"
        }
      ],
      "stateMutability": "view",
      "type": "function"
    },
    {
      "inputs": [
        {
          "internalType": "string",
          "name": "reason",
          "type": "string"
        }
      ],
      "name": "pausePlatform",
      "outputs": [],
      "stateMutability": "nonpayable",
      "type": "function"
    },
    {
      "inputs": [],
      "name": "paused",
      "outputs": [
        {
          "internalType": "bool",
          "name": "",
          "type": "bool"
        }
      ],
      "stateMutability": "view",
      "type": "function"
    },
    {
      "inputs": [],
      "name": "platformFeePercentage",
      "outputs": [
        {
          "internalType": "uint256",
          "name": "",
          "type": "uint256"
        }
      ],
      "stateMutability": "view",
      "type": "function"
    },
    {
      "inputs": [],
      "name": "propertyEscrow",
      "outputs": [
        {
          "internalType": "contract PropertyEscrow",
          "name": "",
          "type": "address"
        }
      ],
      "stateMutability": "view",
      "type": "function"
    },
    {
      "inputs": [],
      "name": "propertyFactory",
      "outputs": [
        {
          "internalType": "contract PropertyNFTFactory",
          "name": "",
          "type": "address"
        }
      ],
      "stateMutability": "view",
      "type": "function"
    },
    {
      "inputs": [],
      "name": "proposalCounter",
      "outputs": [
        {
          "internalType": "uint32",
          "name": "",
          "type": "uint32"
        }
      ],
      "stateMutability": "view",
      "type": "function"
    },
    {
      "inputs": [
        {
          "internalType": "uint96",
          "name": "amount",
          "type": "uint96"
        }
      ],
      "name": "proposeWithdrawal",
      "outputs": [
        {
          "internalType": "uint32",
          "name": "",
          "type": "uint32"
        }
      ],
      "stateMutability": "nonpayable",
      "type": "function"
    },
    {
      "inputs": [
        {
          "internalType": "address",
          "name": "adminToRemove",
          "type": "address"
        }
      ],
      "name": "removeAdmin",
      "outputs": [],
      "stateMutability": "nonpayable",
      "type": "function"
    },
    {
      "inputs": [
        {
          "internalType": "uint256",
          "name": "propertyId",
          "type": "uint256"
        },
        {
          "internalType": "string",
          "name": "reason",
          "type": "string"
        }
      ],
      "name": "removeProperty",
      "outputs": [],
      "stateMutability": "nonpayable",
      "type": "function"
    },
    {
      "inputs": [
        {
          "internalType": "uint256",
          "name": "reviewId",
          "type": "uint256"
        },
        {
          "internalType": "string",
          "name": "reason",
          "type": "string"
        }
      ],
      "name": "removeReview",
      "outputs": [],
      "stateMutability": "nonpayable",
      "type": "function"
    },
    {
      "inputs": [],
      "name": "renounceOwnership",
      "outputs": [],
      "stateMutability": "nonpayable",
      "type": "function"
    },
    {
      "inputs": [
        {
          "internalType": "uint256",
          "name": "disputeId",
          "type": "uint256"
        },
        {
          "internalType": "bool",
          "name": "complainantWins",
          "type": "bool"
        },
        {
          "internalType": "string",
          "name": "resolution",
          "type": "string"
        }
      ],
      "name": "resolveDispute",
      "outputs": [],
      "stateMutability": "nonpayable",
      "type": "function"
    },
    {
      "inputs": [],
      "name": "reviewRegistry",
      "outputs": [
        {
          "internalType": "contract ReviewRegistry",
          "name": "",
          "type": "address"
        }
      ],
      "stateMutability": "view",
      "type": "function"
    },
    {
      "inputs": [
        {
          "internalType": "address",
          "name": "_userRegistry",
          "type": "address"
        },
        {
          "internalType": "address",
          "name": "_propertyFactory",
          "type": "address"
        },
        {
          "internalType": "address",
          "name": "_reviewRegistry",
          "type": "address"
        },
        {
          "internalType": "address",
          "name": "_propertyEscrow",
          "type": "address"
        },
        {
          "internalType": "address",
          "name": "_soulboundNFT",
          "type": "address"
        }
      ],
      "name": "setContracts",
      "outputs": [],
      "stateMutability": "nonpayable",
      "type": "function"
    },
    {
      "inputs": [],
      "name": "soulboundNFT",
      "outputs": [
        {
          "internalType": "contract SoulboundNFT",
          "name": "",
          "type": "address"
        }
      ],
      "stateMutability": "view",
      "type": "function"
    },
    {
      "inputs": [
        {
          "internalType": "address",
          "name": "newOwner",
          "type": "address"
        }
      ],
      "name": "transferOwnership",
      "outputs": [],
      "stateMutability": "nonpayable",
      "type": "function"
    },
    {
      "inputs": [],
      "name": "unpausePlatform",
      "outputs": [],
      "stateMutability": "nonpayable",
      "type": "function"
    },
    {
      "inputs": [
        {
          "internalType": "uint256",
          "name": "newFeePercentage",
          "type": "uint256"
        }
      ],
      "name": "updatePlatformFee",
      "outputs": [],
      "stateMutability": "nonpayable",
      "type": "function"
    },
    {
      "inputs": [
        {
          "internalType": "uint256",
          "name": "newMaxProperties",
          "type": "uint256"
        },
        {
          "internalType": "uint256",
          "name": "newMaxReviews",
          "type": "uint256"
        },
        {
          "internalType": "uint256",
          "name": "newMinReputation",
          "type": "uint256"
        }
      ],
      "name": "updatePlatformLimits",
      "outputs": [],
      "stateMutability": "nonpayable",
      "type": "function"
    },
    {
      "inputs": [
        {
          "internalType": "address",
          "name": "_propertyEscrow",
          "type": "address"
        }
      ],
      "name": "updatePropertyEscrow",
      "outputs": [],
      "stateMutability": "nonpayable",
      "type": "function"
    },
    {
      "inputs": [
        {
          "internalType": "address",
          "name": "_propertyFactory",
          "type": "address"
        }
      ],
      "name": "updatePropertyFactory",
      "outputs": [],
      "stateMutability": "nonpayable",
      "type": "function"
    },
    {
      "inputs": [
        {
          "internalType": "address",
          "name": "_reviewRegistry",
          "type": "address"
        }
      ],
      "name": "updateReviewRegistry",
      "outputs": [],
      "stateMutability": "nonpayable",
      "type": "function"
    },
    {
      "inputs": [
        {
          "internalType": "address",
          "name": "_soulboundNFT",
          "type": "address"
        }
      ],
      "name": "updateSoulboundNFT",
      "outputs": [],
      "stateMutability": "nonpayable",
      "type": "function"
    },
    {
      "inputs": [
        {
          "internalType": "address",
          "name": "_userRegistry",
          "type": "address"
        }
      ],
      "name": "updateUserRegistry",
      "outputs": [],
      "stateMutability": "nonpayable",
      "type": "function"
    },
    {
      "inputs": [
        {
          "internalType": "address",
          "name": "",
          "type": "address"
        },
        {
          "internalType": "uint256",
          "name": "",
          "type": "uint256"
        }
      ],
      "name": "userDisputes",
      "outputs": [
        {
          "internalType": "uint256",
          "name": "",
          "type": "uint256"
        }
      ],
      "stateMutability": "view",
      "type": "function"
    },
    {
      "inputs": [],
      "name": "userRegistry",
      "outputs": [
        {
          "internalType": "contract UserRegistry",
          "name": "",
          "type": "address"
        }
      ],
      "stateMutability": "view",
      "type": "function"
    },
    {
      "inputs": [
        {
          "internalType": "address",
          "name": "userAddress",
          "type": "address"
        },
        {
          "internalType": "bool",
          "name": "verified",
          "type": "bool"
        }
      ],
      "name": "verifyUser",
      "outputs": [],
      "stateMutability": "nonpayable",
      "type": "function"
    },
    {
      "inputs": [
        {
          "internalType": "uint32",
          "name": "",
          "type": "uint32"
        }
      ],
      "name": "withdrawalProposals",
      "outputs": [
        {
          "internalType": "address",
          "name": "proposer",
          "type": "address"
        },
        {
          "internalType": "uint96",
          "name": "amount",
          "type": "uint96"
        },
        {
          "internalType": "uint8",
          "name": "approvals",
          "type": "uint8"
        },
        {
          "internalType": "bool",
          "name": "executed",
          "type": "bool"
        }
      ],
      "stateMutability": "view",
      "type": "function"
    },
    {
      "stateMutability": "payable",
      "type": "receive"
    }
  ],
  "bytecode": "0x60803461012357601f6134f138819003918201601f19168301916001600160401b038311848410176101285780849260209460405283398101031261012357516001600160a01b0381169081900361012357801561010d57600080546001600160a01b0319811683178255604051929182916001600160a01b0316907f8be0079c531659141344cd1fd0a4f28419497f9722a3daafe3b4186f6b6457e09080a360018080556002600b556032600c556064600d819055600e556000805260076020527f6d5257204ebe7d88fd91ae87941cb2dd9d8062b64ae5a2bd2d28ec40b9fbf6df80546001600160a01b0319169092179091556008805460ff191690911790556133b2908161013f8239f35b631e4fbdf760e01b600052600060045260246000fd5b600080fd5b634e487b7160e01b600052604160045260246000fdfe608080604052600436101561001d575b50361561001b57600080fd5b005b600090813560e01c9081630c0512e914612be25750806312065fe014612bc6578063136d88831461296257806316ce55b31461283c5780631785f53c146126bf5780631a9ba7eb1461261d57806324d7806c146125f9578063283f7df0146124d15780632840662d14611f61578063298ae6f8146118f95780632b7832b3146118d85780632e37d826146118415780632ed6543a146117a75780633dc04159146117505780633e998a19146116785780633f0741fc1461146857806354ad8b581461143f578063564a565d146113385780635c7460d61461130f5780635c975abb146112ec5780635cb7df54146112265780635dfb02901461117d5780635e9dbbcd1461115f578063673a3372146110c85780637048027514610fc0578063715018a614610f665780637e7ed03214610d9a5780638548898b14610c805780638a25224014610c415780638da5cb5b14610c1a578063953874d214610bc357806397fbc2fb14610ba5578063a3a7846814610b7c578063a3db54b014610b53578063a624594814610b10578063a8f0f15e14610aaa578063a9a2c71314610a69578063aa0b5988146109c7578063ace417e014610999578063bfb0a55b146108e4578063c18dc5b21461082f578063c56b202114610811578063cac4338114610778578063cbf1c5de146106c1578063cdd78cfc146106a3578063e3a96cbd1461048c578063e3f5ceec1461046e578063f2fde38b146103e8578063f63bf8bd146102775763fbd5e1560361000f57346102745780600319360112610274576011546040516001600160a01b039091168152602090f35b80fd5b50346102745760a036600319011261027457610291612c04565b610299612c1f565b6044356001600160a01b038116908190036103e4576064356001600160a01b03811692908390036103e0576084356001600160a01b03811694908590036103dc576102e333612ee3565b156103cd576001600160a01b03169081156103be576001600160a01b03169081156103be5782156103be5783156103be5784156103be576001600160601b0360a01b600f541617600f556001600160601b0360a01b60105416176010556001600160601b0360a01b60115416176011556001600160601b0360a01b60125416176012556001600160601b0360a01b601354161760135560008051602061333d83398151915260a060405160608152600c60608201526b616c6c436f6e74726163747360a01b608082015283602082015260016040820152a180f35b63e6c4247b60e01b8652600486fd5b637bfa4b9f60e01b8652600486fd5b8580fd5b8480fd5b8380fd5b503461027457602036600319011261027457610402612c04565b61040a613313565b6001600160a01b0316801561045a5781546001600160a01b03198116821783556001600160a01b03167f8be0079c531659141344cd1fd0a4f28419497f9722a3daafe3b4186f6b6457e08380a380f35b631e4fbdf760e01b82526004829052602482fd5b50346102745780600319360112610274576020600e54604051908152f35b503461027457602036600319011261027457604080916004358161016084516104b481612c66565b82815282602082015282868201528260608201528260808201528260a0820152606060c08201528260e082015282610100820152826101208201526060610140820152015280151580610697575b61050b90612f7c565b8152600460205220815161051e81612c66565b8154815261068960018301548260ff821694602082019561053e81612e52565b865260ff8360081c168783019061055481612e52565b8152606083019360018060a01b039060101c16845261065760018060a01b0360028401541660808501908152600384015460a0860190815261059860048601612dae565b9160c0870192835260058601549760e08801988952600687015495610100890196875260ff600960018060a01b0360078b015416996101208c019a8b526101406105e460088301612dae565b9c019b8c520154169b61016081019c15158d528e519e8f9e8f9260208452516020840152519161061383612e52565b01525161061f81612e52565b60608d0152516001600160a01b0390811660808d015290511660a08b01525160c08a01525161018060e08a01526101a0890190612e95565b935161010088015251610120870152516001600160a01b031661014086015251848203601f1901610160860152612e95565b905115156101808301520390f35b50600354811115610502565b50346102745780600319360112610274576020600b54604051908152f35b5034610274576020366003190112610274576106db612c04565b6106e433612ee3565b15610769576001600160a01b0316801561075a5760a060008051602061333d8339815191529160125490806001600160601b03841b8316176012556040519160608352600e60608401526d70726f7065727479457363726f7760901b6080840152600180851b031660208301526040820152a180f35b63e6c4247b60e01b8252600482fd5b637bfa4b9f60e01b8252600482fd5b503461027457602036600319011261027457610792612c04565b61079b33612ee3565b15610769576001600160a01b0316801561075a5760a060008051602061333d8339815191529160115490806001600160601b03841b8316176011556040519160608352600e60608401526d726576696577526567697374727960901b6080840152600180851b031660208301526040820152a180f35b50346102745780600319360112610274576020600d54604051908152f35b50346102745760203660031901126102745760043561084d33612ee3565b1561076957801515806108d8575b61086490612f7c565b808252600460205261088c60ff600160408520015460081c1661088681612e52565b15612fbd565b808252600460208181526040808520600101805461ff001916610300179055838552828252808520426006919091015592845252812060070180546001600160a01b0319163317905580f35b5060035481111561085b565b5034610274576020366003190112610274576001600160a01b03610906612c04565b168152600560205260408120604051908160208254918281520190819285526020852090855b8181106109835750505082610942910383612c82565b604051928392602084019060208552518091526040840192915b81811061096a575050500390f35b825184528594506020938401939092019160010161095c565b825484526020909301926001928301920161092c565b50346102745760203660031901126102745760206109bd6109b8612c04565b61320b565b6040519015158152f35b5034610274576020366003190112610274576004356109e533612ee3565b1561076957600a8111610a2c5760407fd347e206f25a89b917fc9482f1a2d294d749baa4dc9bde7fb495ee11fe49164391600b549080600b5582519182526020820152a180f35b60405162461bcd60e51b81526020600482015260156024820152744665652063616e6e6f74206578636565642031302560581b6044820152606490fd5b5034610274576020366003190112610274576004356004811015610aa65760209181610a96604093612e52565b8152600683522054604051908152f35b5080fd5b50346102745760203660031901126102745760043563ffffffff8116809103610aa657816040916080935260096020522060ff600182549201546040519260018060a01b038116845260a01c6020840152818116604084015260081c1615156060820152f35b5034610274576020366003190112610274576004356004811015610aa65760209181610b3d604093612e52565b610b4a6003821115613055565b610a9681612e52565b50346102745780600319360112610274576010546040516001600160a01b039091168152602090f35b50346102745780600319360112610274576012546040516001600160a01b039091168152602090f35b50346102745780600319360112610274576020600354604051908152f35b5034610274578060031936011261027457600f54601054601154601254601354604080516001600160a01b03968716815294861660208601529285169284019290925283166060830152909116608082015260a090f35b5034610274578060031936011261027457546040516001600160a01b039091168152602090f35b50346102745760203660031901126102745760043560ff8116809103610aa65790602091815260078252604060018060a01b0391205416604051908152f35b503461027457606036600319011261027457600435604435602435610ca433612ee3565b15610d8b579160a09160008051602061333d833981519152838195600c54908383600d5493600e549880600c5584600d5588600e556040519160608352601460608401527336b0bc283937b832b93a34b2b9a832b92ab9b2b960611b608084015260208301526040820152a1604051916060835260156060840152746d61785265766965777350657250726f706572747960581b608084015260208301526040820152a16040519160608352601c60608401527f6d696e52657075746174696f6e466f72566572696669636174696f6e00000000608084015260208301526040820152a180f35b637bfa4b9f60e01b8452600484fd5b503461027457604036600319011261027457610db4612c04565b610dbc612d37565b610dc533612ee3565b15610f5757600f54604051639ee20b1560e01b81526001600160a01b0393841660048201819052939091859116602083602481845afa928315610f4c578293610f0c575b50610e15602493613009565b60405192838092636f77926b60e01b82528760048301525afa908115610f015782908592610edd575b50610e75575b5060207f34736af44d2b91cd43fa896d4cfe0861ec1e6b4538583d385fc671639e9153b2916040519015158152a280f35b60a00151600e5411610e875738610e44565b60405162461bcd60e51b815260206004820152602860248201527f496e73756666696369656e742072657075746174696f6e20666f7220766572696044820152673334b1b0ba34b7b760c11b6064820152608490fd5b610efa9192503d8087833e610ef28183612c82565b810190613134565b9038610e3e565b6040513d86823e3d90fd5b92506020833d602011610f44575b81610f2760209383612c82565b81010312610aa657610e15610f3d602494612ffc565b9350610e09565b3d9150610f1a565b6040513d84823e3d90fd5b637bfa4b9f60e01b8352600483fd5b5034610274578060031936011261027457610f7f613313565b80546001600160a01b03198116825581906001600160a01b03167f8be0079c531659141344cd1fd0a4f28419497f9722a3daafe3b4186f6b6457e08280a380f35b503461027457602036600319011261027457610fda612c04565b610fe333612ee3565b15610769576001600160a01b03169081156110b95760085460ff1691815b60ff811684811015611042578352600760205260408320546001600160a01b031682146110335760010160ff16611001565b63e6c4247b60e01b8352600483fd5b505082600a8110156110aa57825260076020526040822080546001600160a01b0319168217905560085460ff6110798183166130e1565b169060ff1916176008557f44d6d25963f097ad14f29f06854a01f575648a1ef82f30e562ccd3889717e3398280a280f35b63d04f1bb960e01b8352600483fd5b63e6c4247b60e01b8152600490fd5b5034610274576020366003190112610274576110e2612c04565b6110eb33612ee3565b15610769576001600160a01b0316801561075a5760a060008051602061333d8339815191529160135490806001600160601b03841b8316176013556040519160608352600c60608401526b1cdbdd5b189bdd5b9913919560a21b6080840152600180851b031660208301526040820152a180f35b50346102745780600319360112610274576020600c54604051908152f35b50346102745761118c36612d05565b61119533612ee3565b15610f575781156111eb576111e5816111d17ff101b811c74ec4232def79e996e302c3166f3d32945bd9ef0772ad31d751b8c293511515612f37565b604051918291602083526020830190612e95565b0390a280f35b60405162461bcd60e51b8152602060048201526013602482015272125b9d985b1a59081c1c9bdc195c9d1e481251606a1b6044820152606490fd5b5034610274576020366003190112610274576004356001600160401b038111610aa657611257903690600401612cbe565b61126033612ee3565b156107695760025460ff81166112dd5760019060ff1916176002557f62e78cea01bee320cd4e420270b5ea74000d11b0c9f74754ebdbfc544b05a2586020604051338152a17f0633b518f7e228cea84c7b36264537a16387cd16109f97ff871f587d7238481d60405160208152806111e533946020830190612e95565b63d93c066560e01b8352600483fd5b5034610274578060031936011261027457602060ff600254166040519015158152f35b5034610274578060031936011261027457600f546040516001600160a01b039091168152602090f35b503461027457602036600319011261027457604060209160043581526004835220805490611432600182015460ff81169260ff8260081c1660018060a01b0360028301541692611412600384015461139260048601612dae565b9060058601549660068701549460018060a01b036007890154169660ff60096113bd60088c01612dae565b9a0154169b6040519e8f9e8f9081526113d583612e52565b01526113e081612e52565b60408d015260101c6001600160a01b031660608c015260808b015260a08a015261018060c08a01819052890190612e95565b9360e0880152610100870152610120860152848203610140860152612e95565b9015156101608301520390f35b50346102745780600319360112610274576013546040516001600160a01b039091168152602090f35b50346102745760203660031901126102745760043563ffffffff8116809103610aa65761149433612ee3565b15610769576114a16132f1565b808252600960205260408220805460a01c15611669576001810160ff815460081c1661165a5733600090815260028301602081905260409091205460ff1661164b5760018060a01b0333166000526020526040600020600160ff1982541617905560ff611510818354166130e1565b1660ff1982541617815533837f8ca18a587400b2e6bb87129da14755775d06ceac17f96e7097decb05e1df54aa8680a3604660ff600854160260ff81169081036116375760ff6064835492041660ff82161015611570575b846001805580f35b61ff0019166101001790558054839081908190819060a081901c906001600160a01b03165af13d15611632573d6115a681612ca3565b906115b46040519283612c82565b81528460203d92013e5b156115fb5760207f73e3c04d5145d6d24d01996f6c3c6d9a5e8159bf3025fa6cc4abddcbf65153ef915460a01c604051908152a238808080611568565b60405162461bcd60e51b815260206004820152600f60248201526e151c985b9cd9995c8819985a5b1959608a1b6044820152606490fd5b6115be565b634e487b7160e01b85526011600452602485fd5b63080fc0bd60e11b8552600485fd5b63cf88c65760e01b8452600484fd5b631dc0650160e31b8352600483fd5b503461027457608036600319011261027457611692612c04565b906024356008811015610aa6576044356001600160401b03811161174c576116be903690600401612cbe565b926116c833612ee3565b15610f5757601354929384936001600160a01b0316803b156103e0576117229385809460405196879586948593631f72885760e01b855260018060a01b031660048501526024840152608060448401526084830190612e95565b606435606483015203925af18015610f4c5761173b5750f35b8161174591612c82565b6102745780f35b8280fd5b50346102745760403660031901126102745761176a612c04565b6001600160a01b03168152600560205260408120805460243592908310156102745760206117988484612d46565b90549060031b1c604051908152f35b5034610274576020366003190112610274576117c1612c04565b6117ca33612ee3565b15610769576001600160a01b0316801561075a5760a060008051602061333d8339815191529160105490806001600160601b03841b8316176010556040519160608352600f60608401526e70726f7065727479466163746f727960881b6080840152600180851b031660208301526040820152a180f35b50346102745760203660031901126102745761185b612c04565b61186433612ee3565b15610769576001600160a01b0316801561075a5760a060008051602061333d83398151915291600f5490806001600160601b03841b831617600f556040519160608352600c60608401526b75736572526567697374727960a01b6080840152600180851b031660208301526040820152a180f35b5034610274578060031936011261027457602060ff60085416604051908152f35b5034610274576080366003190112610274576004803510156102745761191d612c1f565b6064356001600160401b03811161174c5761193c903690600401612cbe565b600f54604051639ee20b1560e01b815233600482015290602090829060249082906001600160a01b03165afa8015610f01578490611f26575b61197f9150613009565b61198a600435612e52565b61199960036004351115613055565b6001600160a01b03821615611ee1576001600160a01b0382163314611e9c57805115611e57576119ca600354613098565b9182600355604051916119dc83612c66565b83835260208301926119ef600435612e52565b6004358452604081019186835260608201943386526080830160018060a01b038616815260a0840191604435835260c085019384524260e08601528961010086015289610120860152602097604051611a488a82612c82565b8b81526101408701528a610160870152898b526004895260408b209686518855600188019251611a7781612e52565b611a8081612e52565b60ff8019855416911617835551611a9681612e52565b611a9f81612e52565b82549151610100600160b01b031990921660089190911b61ff00161760109190911b62010000600160b01b0316179055516002850180546001600160a01b0319166001600160a01b0392909216919091179055516003840155518051906001600160401b038211611e43578190611b196004860154612d74565b601f8111611df5575b508690601f8311600114611d8c578992611d81575b50508160011b916000199060031b1c19161760048301555b60e0810151600583015561010081015160068301556101208101516007830180546001600160a01b0319166001600160a01b0392909216919091179055610140810151805160088401916001600160401b038211611d6d57611bb18354612d74565b601f8111611d2a575b508690601f8311600114611cbc57928261016093611c0a9796936009968d92611cb1575b50508160011b916000199060031b1c19161790555b0151151591019060ff801983541691151516179055565b33845260058252611c1e83604086206130a7565b6001600160a01b03811684526005825260408420611c3d9084906130a7565b611c48600435612e52565b60043584526006825260408420611c5f8154613098565b905560405191611c70600435612e52565b6004358352604435908301526001600160a01b03169133917fde5bce5e77d1d32f455a1d7b3d943a64966335cf1c5596050a3e6194a7462a4190604090a480f35b015190503880611bde565b838a52878a209190601f1984168b5b8a828210611d1457505093611c0a97969360099693600193836101609810611cfb575b505050811b019055611bf3565b015160001960f88460031b161c19169055388080611cee565b6001859682939686015181550195019301611ccb565b838a52878a20601f840160051c810191898510611d63575b601f0160051c01905b818110611d585750611bba565b8a8155600101611d4b565b9091508190611d42565b634e487b7160e01b89526041600452602489fd5b015190503880611b37565b600486018a52878a209250601f1984168a5b89828210611ddf575050908460019594939210611dc6575b505050811b016004830155611b4f565b015160001960f88460031b161c19169055388080611db6565b6001859682939686015181550195019301611d9e565b909150600485018952868920601f840160051c8101888510611e3c575b90849392915b601f830160051c82018110611e2e575050611b22565b8b8155859450600101611e18565b5080611e12565b634e487b7160e01b88526041600452602488fd5b60405162461bcd60e51b815260206004820152601b60248201527f4465736372697074696f6e2063616e6e6f7420626520656d70747900000000006044820152606490fd5b60405162461bcd60e51b815260206004820152601760248201527f43616e6e6f74206469737075746520796f757273656c660000000000000000006044820152606490fd5b60405162461bcd60e51b815260206004820152601a60248201527f496e76616c696420726573706f6e64656e7420616464726573730000000000006044820152606490fd5b506020813d602011611f59575b81611f4060209383612c82565b810103126103e457611f5461197f91612ffc565b611975565b3d9150611f33565b50346102745760603660031901126102745760043590611f7f612d37565b916044356001600160401b03811161174c57611f9f903690600401612cbe565b90611fa933612ee3565b15610f5757801515806124c5575b611fc090612f7c565b8083526004602052611fe260ff600160408620015460081c1661088681612e52565b8151156124805780835260046020526040832060018101805461ff0019166102001781554260068301556007820180546001600160a01b031916331790558351959190600882016001600160401b03881161246c576120418154612d74565b601f8111612427575b50602097601f81116001146123c2578088998996979899916123b7575b508160011b916000199060031b1c19161790555b60098201805460ff191660ff8615151617815590549060ff821661209e81612e52565b60018103612184575060ff915054166120ea575b505060008051602061335d833981519152905b604051901515815260406020820152806120e433956040830190612e95565b0390a380f35b600360018060a01b0360115416910154813b1561174c57829160a4839260405194859384926238d04560e11b8452600484015260406024840152602860448401527f44697370757465207265736f6c76656420696e206661766f72206f6620636f6d6064840152671c1b185a5b985b9d60c21b60848401525af18015610f4c57156120b2578161217991612c82565b6103e45783386120b2565b61218d81612e52565b6002810361227257505460ff1615905061221557600360018060a01b0360125416910154813b1561174c578291604483926040519485938492631a592f7160e11b84526004840152600160248401525af18015610f4c57612200575b505060008051602061335d833981519152906120c5565b8161220a91612c82565b6103e45783386121e9565b600360018060a01b0360125416910154813b1561174c578291604483926040519485938492631a592f7160e11b845260048401528160248401525af18015610f4c5761220057505060008051602061335d833981519152906120c5565b60039061227e81612e52565b1461229d575b5050505060008051602061335d833981519152906120c5565b5460ff161561232e5750600f546002909101546001600160a01b039182169116813b1561174c57829160648392604051948593849262880b8360e11b8452600484015260311960248401528160448401525af18015610f4c57612319575b505060008051602061335d833981519152905b905083388080612284565b8161232391612c82565b6103e45783386122fb565b600f546001600160a01b03169150813b1561174c5760405162880b8360e11b815260109190911c6001600160a01b031660048201526013196024820152604481018390529082908290606490829084905af18015610f4c576123a2575b505060008051602061335d8339815191529061230e565b816123ac91612c82565b6103e457833861238b565b905088015138612067565b818852888820601f198216895b81811061240f575090899a83600194939b98999a9b106123f6575b5050811b01905561207b565b8a015160001960f88460031b161c1916905538806123ea565b898c0151835560209b8c019b600190930192016123cf565b81885260208820601f8a0160051c81019160208b10612462575b601f0160051c01905b818110612457575061204a565b88815560010161244a565b9091508190612441565b634e487b7160e01b87526041600452602487fd5b60405162461bcd60e51b815260206004820152601a60248201527f5265736f6c7574696f6e2063616e6e6f7420626520656d7074790000000000006044820152606490fd5b50600354811115611fb7565b5034610274576124e036612d05565b6124e933612ee3565b15610f575781156125c05761250081511515612f37565b6011546001600160a01b0316803b156103e4578360405180926238d04560e11b82528560048301526040602483015281838161253f6044820189612e95565b03925af18015610f0157612588575b506111e57ffc9621ecd0612112afc439f26da2a2892d791ee68241f25851e8d45d80339b7791604051918291602083526020830190612e95565b836125b87ffc9621ecd0612112afc439f26da2a2892d791ee68241f25851e8d45d80339b7793956111e593612c82565b93915061254e565b60405162461bcd60e51b8152602060048201526011602482015270125b9d985b1a59081c995d9a595dc81251607a1b6044820152606490fd5b50346102745760203660031901126102745760206109bd612618612c04565b612ee3565b503461027457806003193601126102745761263733612ee3565b156126b05760025460ff8116156126a15760ff19166002557f5db9ee0a495bf2e6ff9c91a7834c1ba4fdd244a5e8aa4e537bd38aeae4b073aa6020604051338152a1337f0a7c6382517057f26f15c04d3e8a2bb9d5f92931eb1f20ca76352b2465a5135b8280a280f35b638dfc202b60e01b8252600482fd5b637bfa4b9f60e01b8152600490fd5b5034610274576020366003190112610274576126d9612c04565b6126e233612ee3565b15610769576001600160a01b03169081156110b95760ff6008541691600183111561282d5781928293835b60ff811683811015612822578552600760205260408520546001600160a01b0316841461273f5760010160ff1661270d565b929394505060015b156128135761275760ff91612eba565b1683526007602081815260408086205460ff948516875292909152842080546001600160a01b0319166001600160a01b03929092169190911790556008546127a0908216612eba565b16825260076020526040822080546001600160a01b031916905560085460ff811680156127ff5760ff9060001901169060ff1916176008557fa3b62bc36326052d97ea62d63c3d60308ed4c3ea8ac079dd8499f1e9c4f80c0f8280a280f35b634e487b7160e01b84526011600452602484fd5b63e6c4247b60e01b8452600484fd5b505093919293612747565b63c13a62ad60e01b8252600482fd5b5034610274576020366003190112610274576004356001600160601b0381169081810361174c5761286c33612ee3565b15610f57576128796132f1565b81156129535781471061294457600a5463ffffffff811663ffffffff81146116375763ffffffff6001918201811663ffffffff19939093168317600a908155928652600960209081526040808820336001600160a01b031960a09890981b9790971687178155808501805460ff199081168717909155878a526002909101835297819020805490981690931790965591549051938452169182907fe8a3ed737ede2a85abac48d8669a4d8ba8d3de3412cd25b0ac1481f6ec325a46908590a360018055604051908152f35b63356680b760e01b8352600483fd5b63162908e360e11b8352600483fd5b50346102745780600319360112610274578060c060405161298281612c35565b8281528260208201528260408201528260608201528260808201528260a082015201526004602060018060a01b03600f541660405192838092634df2b97b60e11b82525afa908115610f4c578291612b93575b506010546040516317aaf5ed60e01b81529290602090849060049082906001600160a01b03165afa8015612b86578190612b51575b6011546040516312fb004160e11b81529450602090859060049082906001600160a01b03165afa8015610f4c578290612b1e575b601254604051631fa6ded160e11b81529550602090869060049082906001600160a01b03165afa8015612b13578390612ae0575b60e0955060035491479360c0604051612a8a81612c35565b8881526020810192835260408101938452606081019485526080810195865260a08101968752019586526040519687525160208701525160408601525160608501525160808401525160a08301525160c0820152f35b506020853d602011612b0b575b81612afa60209383612c82565b8101031261174c5760e09451612a72565b3d9150612aed565b6040513d85823e3d90fd5b506020843d602011612b49575b81612b3860209383612c82565b81010312610aa65760049351612a3e565b3d9150612b2b565b50916020813d602011612b7e575b81612b6c60209383612c82565b8101031261174c579160049251612a0a565b3d9150612b5f565b50604051903d90823e3d90fd5b90506020813d602011612bbe575b81612bae60209383612c82565b81010312610aa6575160046129d5565b3d9150612ba1565b5034610274578060031936011261027457602047604051908152f35b905034610aa65781600319360112610aa65760209063ffffffff600a54168152f35b600435906001600160a01b0382168203612c1a57565b600080fd5b602435906001600160a01b0382168203612c1a57565b60e081019081106001600160401b03821117612c5057604052565b634e487b7160e01b600052604160045260246000fd5b61018081019081106001600160401b03821117612c5057604052565b90601f801991011681019081106001600160401b03821117612c5057604052565b6001600160401b038111612c5057601f01601f191660200190565b81601f82011215612c1a57803590612cd582612ca3565b92612ce36040519485612c82565b82845260208383010111612c1a57816000926020809301838601378301015290565b906040600319830112612c1a5760043591602435906001600160401b038211612c1a57612d3491600401612cbe565b90565b602435908115158203612c1a57565b8054821015612d5e5760005260206000200190600090565b634e487b7160e01b600052603260045260246000fd5b90600182811c92168015612da4575b6020831014612d8e57565b634e487b7160e01b600052602260045260246000fd5b91607f1691612d83565b9060405191826000825492612dc284612d74565b8084529360018116908115612e305750600114612de9575b50612de792500383612c82565b565b90506000929192526020600020906000915b818310612e14575050906020612de79282010138612dda565b6020919350806001915483858901015201910190918492612dfb565b905060209250612de794915060ff191682840152151560051b82010138612dda565b60041115612e5c57565b634e487b7160e01b600052602160045260246000fd5b60005b838110612e855750506000910152565b8181015183820152602001612e75565b90602091612eae81518092818552858086019101612e72565b601f01601f1916010190565b60ff6000199116019060ff8211612ecd57565b634e487b7160e01b600052601160045260246000fd5b60085460ff16919060005b60ff811684811015612f2e576000908152600760205260409020546001600160a01b03838116911614612f265760010160ff16612eee565b506001925050565b50600093505050565b15612f3e57565b60405162461bcd60e51b8152602060048201526016602482015275526561736f6e2063616e6e6f7420626520656d70747960501b6044820152606490fd5b15612f8357565b60405162461bcd60e51b8152602060048201526012602482015271125b9d985b1a5908191a5cdc1d5d1948125160721b6044820152606490fd5b15612fc457565b60405162461bcd60e51b815260206004820152601060248201526f2234b9b83aba32903737ba1037b832b760811b6044820152606490fd5b51908115158203612c1a57565b1561301057565b60405162461bcd60e51b815260206004820152601f60248201527f55736572206e6f742072656769737465726564206f7220696e616374697665006044820152606490fd5b1561305c57565b60405162461bcd60e51b8152602060048201526014602482015273496e76616c69642064697370757465207479706560601b6044820152606490fd5b6000198114612ecd5760010190565b805468010000000000000000811015612c50576130c991600182018155612d46565b819291549060031b91821b91600019901b1916179055565b60ff1660ff8114612ecd5760010190565b81601f82011215612c1a57805161310881612ca3565b926131166040519485612c82565b81845260208284010111612c1a57612d349160208085019101612e72565b602081830312612c1a578051906001600160401b038211612c1a570161010081830312612c1a576040519161010083018381106001600160401b03821117612c505760405281516001600160401b038111612c1a57816131959184016130f2565b8352602082015160208401526040820151906001600160401b038211612c1a576131c09183016130f2565b60408301526060810151906004821015612c1a5760e09160608401526131e860808201612ffc565b608084015260a081015160a084015260c081015160c0840152015160e082015290565b600f54604051639ee20b1560e01b81526001600160a01b03928316600482018190529190921691602081602481865afa9081156132a4576000916132b7575b50156132b057600090602460405180948193636f77926b60e01b835260048301525afa80156132a45760a091600091613289575b500151600e54111590565b61329e91503d806000833e610ef28183612c82565b3861327e565b6040513d6000823e3d90fd5b5050600090565b90506020813d6020116132e9575b816132d260209383612c82565b81010312612c1a576132e390612ffc565b3861324a565b3d91506132c5565b600260015414613302576002600155565b633ee5aeb560e01b60005260046000fd5b6000546001600160a01b0316330361332757565b63118cdaa760e01b6000523360045260246000fdfed7474166e78731bc168caca1fe1ccebbd6f3c95baee64997902e6b48f442b81a279a574e61b6d37f46545f470422464b255aeae50b99a8e2eca691fb695cf342a26469706673582212208a66f4715d8219c1629c9bcc3f2a196a72b7738844ef19ea37a86cbdeeb619d464736f6c634300081c0033",
  "linkReferences": {},
  "deployedLinkReferences": {}
}