{
  "_format": "hh-sol-artifact-1",
  "contractName": "UserRegistry",
  "sourceName": "contracts/UserRegistry.sol",
  "abi": [
    {
      "inputs": [
        {
          "internalType": "address payable",
          "name": "_adminContract",
          "type": "address"
        }
      ],
      "stateMutability": "nonpayable",
      "type": "constructor"
    },
    {
      "inputs": [
        {
          "internalType": "address",
          "name": "owner",
          "type": "address"
        }
      ],
      "name": "OwnableInvalidOwner",
      "type": "error"
    },
    {
      "inputs": [
        {
          "internalType": "address",
          "name": "account",
          "type": "address"
        }
      ],
      "name": "OwnableUnauthorizedAccount",
      "type": "error"
    },
    {
      "anonymous": false,
      "inputs": [
        {
          "indexed": true,
          "internalType": "address",
          "name": "previousOwner",
          "type": "address"
        },
        {
          "indexed": true,
          "internalType": "address",
          "name": "newOwner",
          "type": "address"
        }
      ],
      "name": "OwnershipTransferred",
      "type": "event"
    },
    {
      "anonymous": false,
      "inputs": [
        {
          "indexed": true,
          "internalType": "address",
          "name": "userAddress",
          "type": "address"
        },
        {
          "indexed": true,
          "internalType": "uint256",
          "name": "userId",
          "type": "uint256"
        },
        {
          "indexed": false,
          "internalType": "uint256",
          "name": "newScore",
          "type": "uint256"
        },
        {
          "indexed": false,
          "internalType": "uint256",
          "name": "totalReviews",
          "type": "uint256"
        }
      ],
      "name": "ReputationUpdated",
      "type": "event"
    },
    {
      "anonymous": false,
      "inputs": [
        {
          "indexed": true,
          "internalType": "address",
          "name": "userAddress",
          "type": "address"
        },
        {
          "indexed": true,
          "internalType": "uint256",
          "name": "userId",
          "type": "uint256"
        }
      ],
      "name": "UserDeactivated",
      "type": "event"
    },
    {
      "anonymous": false,
      "inputs": [
        {
          "indexed": true,
          "internalType": "address",
          "name": "userAddress",
          "type": "address"
        },
        {
          "indexed": true,
          "internalType": "uint256",
          "name": "userId",
          "type": "uint256"
        },
        {
          "indexed": false,
          "internalType": "string",
          "name": "fullName",
          "type": "string"
        },
        {
          "indexed": false,
          "internalType": "enum UserRegistry.UserRole",
          "name": "role",
          "type": "uint8"
        },
        {
          "indexed": false,
          "internalType": "string",
          "name": "did",
          "type": "string"
        }
      ],
      "name": "UserRegistered",
      "type": "event"
    },
    {
      "anonymous": false,
      "inputs": [
        {
          "indexed": true,
          "internalType": "address",
          "name": "userAddress",
          "type": "address"
        },
        {
          "indexed": true,
          "internalType": "uint256",
          "name": "userId",
          "type": "uint256"
        },
        {
          "indexed": false,
          "internalType": "enum UserRegistry.UserRole",
          "name": "newRole",
          "type": "uint8"
        }
      ],
      "name": "UserRoleUpdated",
      "type": "event"
    },
    {
      "inputs": [
        {
          "internalType": "address",
          "name": "",
          "type": "address"
        }
      ],
      "name": "addressToUserId",
      "outputs": [
        {
          "internalType": "uint256",
          "name": "",
          "type": "uint256"
        }
      ],
      "stateMutability": "view",
      "type": "function"
    },
    {
      "inputs": [],
      "name": "adminContract",
      "outputs": [
        {
          "internalType": "contract AdminContract",
          "name": "",
          "type": "address"
        }
      ],
      "stateMutability": "view",
      "type": "function"
    },
    {
      "inputs": [
        {
          "internalType": "address",
          "name": "userAddress",
          "type": "address"
        }
      ],
      "name": "deactivateUser",
      "outputs": [],
      "stateMutability": "nonpayable",
      "type": "function"
    },
    {
      "inputs": [],
      "name": "getTotalUsers",
      "outputs": [
        {
          "internalType": "uint256",
          "name": "",
          "type": "uint256"
        }
      ],
      "stateMutability": "view",
      "type": "function"
    },
    {
      "inputs": [
        {
          "internalType": "address",
          "name": "userAddress",
          "type": "address"
        }
      ],
      "name": "getUser",
      "outputs": [
        {
          "components": [
            {
              "internalType": "string",
              "name": "fullName",
              "type": "string"
            },
            {
              "internalType": "uint256",
              "name": "registrationTimestamp",
              "type": "uint256"
            },
            {
              "internalType": "string",
              "name": "did",
              "type": "string"
            },
            {
              "internalType": "enum UserRegistry.UserRole",
              "name": "role",
              "type": "uint8"
            },
            {
              "internalType": "bool",
              "name": "isActive",
              "type": "bool"
            },
            {
              "internalType": "uint256",
              "name": "reputationScore",
              "type": "uint256"
            },
            {
              "internalType": "uint256",
              "name": "totalReviews",
              "type": "uint256"
            },
            {
              "internalType": "uint256",
              "name": "totalProperties",
              "type": "uint256"
            }
          ],
          "internalType": "struct UserRegistry.User",
          "name": "",
          "type": "tuple"
        }
      ],
      "stateMutability": "view",
      "type": "function"
    },
    {
      "inputs": [
        {
          "internalType": "uint256",
          "name": "userId",
          "type": "uint256"
        }
      ],
      "name": "getUserById",
      "outputs": [
        {
          "components": [
            {
              "internalType": "string",
              "name": "fullName",
              "type": "string"
            },
            {
              "internalType": "uint256",
              "name": "registrationTimestamp",
              "type": "uint256"
            },
            {
              "internalType": "string",
              "name": "did",
              "type": "string"
            },
            {
              "internalType": "enum UserRegistry.UserRole",
              "name": "role",
              "type": "uint8"
            },
            {
              "internalType": "bool",
              "name": "isActive",
              "type": "bool"
            },
            {
              "internalType": "uint256",
              "name": "reputationScore",
              "type": "uint256"
            },
            {
              "internalType": "uint256",
              "name": "totalReviews",
              "type": "uint256"
            },
            {
              "internalType": "uint256",
              "name": "totalProperties",
              "type": "uint256"
            }
          ],
          "internalType": "struct UserRegistry.User",
          "name": "",
          "type": "tuple"
        }
      ],
      "stateMutability": "view",
      "type": "function"
    },
    {
      "inputs": [
        {
          "internalType": "address",
          "name": "userAddress",
          "type": "address"
        }
      ],
      "name": "getUserId",
      "outputs": [
        {
          "internalType": "uint256",
          "name": "",
          "type": "uint256"
        }
      ],
      "stateMutability": "view",
      "type": "function"
    },
    {
      "inputs": [
        {
          "internalType": "address",
          "name": "",
          "type": "address"
        }
      ],
      "name": "isRegistered",
      "outputs": [
        {
          "internalType": "bool",
          "name": "",
          "type": "bool"
        }
      ],
      "stateMutability": "view",
      "type": "function"
    },
    {
      "inputs": [
        {
          "internalType": "address",
          "name": "userAddress",
          "type": "address"
        }
      ],
      "name": "isUserActive",
      "outputs": [
        {
          "internalType": "bool",
          "name": "",
          "type": "bool"
        }
      ],
      "stateMutability": "view",
      "type": "function"
    },
    {
      "inputs": [],
      "name": "owner",
      "outputs": [
        {
          "internalType": "address",
          "name": "",
          "type": "address"
        }
      ],
      "stateMutability": "view",
      "type": "function"
    },
    {
      "inputs": [
        {
          "internalType": "string",
          "name": "fullName",
          "type": "string"
        },
        {
          "internalType": "string",
          "name": "did",
          "type": "string"
        },
        {
          "internalType": "enum UserRegistry.UserRole",
          "name": "role",
          "type": "uint8"
        }
      ],
      "name": "registerUser",
      "outputs": [],
      "stateMutability": "nonpayable",
      "type": "function"
    },
    {
      "inputs": [],
      "name": "renounceOwnership",
      "outputs": [],
      "stateMutability": "nonpayable",
      "type": "function"
    },
    {
      "inputs": [
        {
          "internalType": "address",
          "name": "newOwner",
          "type": "address"
        }
      ],
      "name": "transferOwnership",
      "outputs": [],
      "stateMutability": "nonpayable",
      "type": "function"
    },
    {
      "inputs": [
        {
          "internalType": "address",
          "name": "userAddress",
          "type": "address"
        },
        {
          "internalType": "uint256",
          "name": "propertyCount",
          "type": "uint256"
        }
      ],
      "name": "updatePropertyCount",
      "outputs": [],
      "stateMutability": "nonpayable",
      "type": "function"
    },
    {
      "inputs": [
        {
          "internalType": "address",
          "name": "userAddress",
          "type": "address"
        },
        {
          "internalType": "int256",
          "name": "scoreChange",
          "type": "int256"
        },
        {
          "internalType": "uint256",
          "name": "reviewCount",
          "type": "uint256"
        }
      ],
      "name": "updateReputation",
      "outputs": [],
      "stateMutability": "nonpayable",
      "type": "function"
    },
    {
      "inputs": [
        {
          "internalType": "address",
          "name": "userAddress",
          "type": "address"
        },
        {
          "internalType": "enum UserRegistry.UserRole",
          "name": "newRole",
          "type": "uint8"
        }
      ],
      "name": "updateUserRole",
      "outputs": [],
      "stateMutability": "nonpayable",
      "type": "function"
    },
    {
      "inputs": [
        {
          "internalType": "uint256",
          "name": "",
          "type": "uint256"
        }
      ],
      "name": "users",
      "outputs": [
        {
          "internalType": "string",
          "name": "fullName",
          "type": "string"
        },
        {
          "internalType": "uint256",
          "name": "registrationTimestamp",
          "type": "uint256"
        },
        {
          "internalType": "string",
          "name": "did",
          "type": "string"
        },
        {
          "internalType": "enum UserRegistry.UserRole",
          "name": "role",
          "type": "uint8"
        },
        {
          "internalType": "bool",
          "name": "isActive",
          "type": "bool"
        },
        {
          "internalType": "uint256",
          "name": "reputationScore",
          "type": "uint256"
        },
        {
          "internalType": "uint256",
          "name": "totalReviews",
          "type": "uint256"
        },
        {
          "internalType": "uint256",
          "name": "totalProperties",
          "type": "uint256"
        }
      ],
      "stateMutability": "view",
      "type": "function"
    }
  ],
  "bytecode": "0x60803460d157601f61140138819003918201601f19168301916001600160401b0383118484101760d65780849260209460405283398101031260d157516001600160a01b0381169081900360d157331560bb5760008054336001600160a01b0319821681178355604051939290916001600160a01b0316907f8be0079c531659141344cd1fd0a4f28419497f9722a3daafe3b4186f6b6457e09080a3600580546001600160a01b03191691909117905561131490816100ed8239f35b631e4fbdf760e01b600052600060045260246000fd5b600080fd5b634e487b7160e01b600052604160045260246000fdfe608080604052600436101561001357600080fd5b60003560e01c9081630110170614610d0e575080631a47767b14610c3d5780632b956ff714610be95780632e17a931146106e8578063365b98b2146106345780636ed6da9e146105a75780636f77926b146104c2578063715018a6146104695780638da5cb5b146104405780639be572f6146104225780639ee20b15146103f5578063b5ffbbcc146103bb578063c05c5e9414610392578063c291fe621461028a578063c3c5a5471461024b578063c8a03c64146101685763f2fde38b146100da57600080fd5b34610163576020366003190112610163576100f3610eee565b6100fb6112b5565b6001600160a01b0316801561014d57600080546001600160a01b03198116831782556001600160a01b0316907f8be0079c531659141344cd1fd0a4f28419497f9722a3daafe3b4186f6b6457e09080a3005b631e4fbdf760e01b600052600060045260246000fd5b600080fd5b3461016357604036600319011261016357610181610eee565b600554604051630935e01b60e21b815233600482015290602090829060249082906001600160a01b03165afa801561023f576101c591600091610210575b5061115a565b6001600160a01b03166000818152600460205260409020546101e99060ff166111b1565b60005260026020526040600020546000526003602052602435600660406000200155600080f35b610232915060203d602011610238575b61022a8183610f21565b810190611142565b836101bf565b503d610220565b6040513d6000823e3d90fd5b34610163576020366003190112610163576001600160a01b0361026c610eee565b166000526004602052602060ff604060002054166040519015158152f35b34610163576040366003190112610163576102a3610eee565b60243590600482101561016357600554604051630935e01b60e21b815233600482015290602090829060249082906001600160a01b03165afa801561023f576102f391600091610373575061115a565b6001600160a01b03166000818152600460205260409020546103179060ff166111b1565b8060005260026020527f6eeda950857c6b6e8c78299994ea69723e230f29da742a8360c9ff245e30ee056020604060002054938460005260038252610363816003604060002001611210565b61037060405180926110b9565ba3005b61038c915060203d6020116102385761022a8183610f21565b846101bf565b34610163576000366003190112610163576005546040516001600160a01b039091168152602090f35b34610163576020366003190112610163576001600160a01b036103dc610eee565b1660005260026020526020604060002054604051908152f35b34610163576020366003190112610163576020610418610413610eee565b611267565b6040519015158152f35b34610163576000366003190112610163576020600154604051908152f35b34610163576000366003190112610163576000546040516001600160a01b039091168152602090f35b34610163576000366003190112610163576104826112b5565b600080546001600160a01b0319811682556001600160a01b03167f8be0079c531659141344cd1fd0a4f28419497f9722a3daafe3b4186f6b6457e08280a3005b34610163576020366003190112610163576104db610eee565b6104e3611228565b506001600160a01b03166000818152600460205260409020546105089060ff166111b1565b600052600260205260406000205460005260036020526105a3604060002060066040519161053583610f04565b61053e81610fd4565b83526001810154602084015261055660028201610fd4565b604084015260ff600382015461057182821660608701611204565b60081c1615156080840152600481015460a0840152600581015460c0840152015460e0820152604051918291826110c6565b0390f35b34610163576020366003190112610163576004356105c3611228565b5080151580610628575b156105f15760005260036020526105a3604060002060066040519161053583610f04565b60405162461bcd60e51b815260206004820152600f60248201526e125b9d985b1a59081d5cd95c881251608a1b6044820152606490fd5b506001548111156105cd565b346101635760203660031901126101635760043560005260036020526106a7604060002061066181610fd4565b9060018101549061067460028201610fd4565b9060038101549260ff6106ba6004840154926006600586015495015495604051998a996101008b526101008b0190611078565b9160208a015288820360408a0152611078565b946106ca606088018383166110b9565b60081c161515608086015260a085015260c084015260e08301520390f35b346101635760603660031901126101635760043567ffffffffffffffff811161016357610719903690600401610f43565b60243567ffffffffffffffff811161016357610739903690600401610f43565b60443560048110156101635733600052600460205260ff60406000205416610ba457825115610b5f57815115610b24576001546000198114610b0e5760010192836001556040519061078a82610f04565b8082526020820192428452604083019085825260608401936107ac8286611204565b60808101926001845260a08201966000885260c08301916000835260e0840191600083528b60005260036020526040600020945180519067ffffffffffffffff8211610a355781906107fe8854610f9a565b601f8111610abb575b50602090601f8311600114610a5657600092610a4b575b50508160011b916000199060031b1c19161785555b516001850155518051600285019167ffffffffffffffff8211610a3557819061085c8454610f9a565b601f81116109e2575b50602090601f831160011461097d57600092610972575b50508160011b916000199060031b1c19161790555b60038301965191600483101561095c577fdf2765be9e80fb529286952ffcfa23fdb582aa555e51a21db4f0045c7f431e5c9888610957976108d760069661093d9c611210565b51151561ff0082549160081b169061ff00191617905551600485015551600584015551910155336000526002602052866040600020553360005260046020526040600020600160ff19825416179055610948604051948594606086526060860190611078565b9160208501906110b9565b82810360408401523395611078565b0390a3005b634e487b7160e01b600052602160045260246000fd5b015190508d8061087c565b60008581528281209350601f198516905b8181106109ca57509084600195949392106109b1575b505050811b019055610891565b015160001960f88460031b161c191690558d80806109a4565b9293602060018192878601518155019501930161098e565b909150836000526020600020601f840160051c81019160208510610a2b575b90601f859493920160051c01905b818110610a1c5750610865565b60008155849350600101610a0f565b9091508190610a01565b634e487b7160e01b600052604160045260246000fd5b015190508e8061081e565b60008981528281209350601f198516905b818110610aa35750908460019594939210610a8a575b505050811b018555610833565b015160001960f88460031b161c191690558e8080610a7d565b92936020600181928786015181550195019301610a67565b909150876000526020600020601f840160051c81019160208510610b04575b90601f859493920160051c01905b818110610af55750610807565b60008155849350600101610ae8565b9091508190610ada565b634e487b7160e01b600052601160045260246000fd5b60405162461bcd60e51b81526020600482015260136024820152724449442063616e6e6f7420626520656d70747960681b6044820152606490fd5b60405162461bcd60e51b815260206004820152601960248201527f46756c6c206e616d652063616e6e6f7420626520656d707479000000000000006044820152606490fd5b60405162461bcd60e51b815260206004820152601760248201527f5573657220616c726561647920726567697374657265640000000000000000006044820152606490fd5b34610163576020366003190112610163576001600160a01b03610c0a610eee565b16806000526004602052610c2560ff604060002054166111b1565b60005260026020526020604060002054604051908152f35b3461016357602036600319011261016357610c56610eee565b600554604051630935e01b60e21b815233600482015290602090829060249082906001600160a01b03165afa801561023f57610c9991600091610210575061115a565b6001600160a01b0316600081815260046020526040902054610cbd9060ff166111b1565b80600052600260205260406000205490816000526003602052600360406000200161ff001981541690557f0a3c4dd3ee5277d6eada470cf9b47a480953120ecafcbbdc14bde6f8a6248930600080a3005b3461016357606036600319011261016357610d27610eee565b600554630935e01b60e21b835233600484015260443592602480359392602091839182906001600160a01b03165afa801561023f57610d6d91600091610ecf575061115a565b60018060a01b031690816000526004602052610d9060ff604060002054166111b1565b8160005260026020526040600020549260008213600014610e21578360005260036020526004604060002001908154928301809311610b0e577fc2fd17ad7e9f23b8607f0bd02d7a6cdcccd5a964fa99ce5a066ed34c5b4bb55b92604092555b84600052600360205280600583600020015584600052600360205260048260002001549082519182526020820152a3005b90836000526003602052600460406000200154610e3d826111f3565b1015610ea357836000526003602052610e5e600460406000200154916111f3565b8103908111610b0e577fc2fd17ad7e9f23b8607f0bd02d7a6cdcccd5a964fa99ce5a066ed34c5b4bb55b916040915b8560005260036020526004836000200155610df0565b5060407fc2fd17ad7e9f23b8607f0bd02d7a6cdcccd5a964fa99ce5a066ed34c5b4bb55b916000610e8d565b610ee8915060203d6020116102385761022a8183610f21565b856101bf565b600435906001600160a01b038216820361016357565b610100810190811067ffffffffffffffff821117610a3557604052565b90601f8019910116810190811067ffffffffffffffff821117610a3557604052565b81601f820112156101635780359067ffffffffffffffff8211610a355760405192610f78601f8401601f191660200185610f21565b8284526020838301011161016357816000926020809301838601378301015290565b90600182811c92168015610fca575b6020831014610fb457565b634e487b7160e01b600052602260045260246000fd5b91607f1691610fa9565b9060405191826000825492610fe884610f9a565b8084529360018116908115611056575060011461100f575b5061100d92500383610f21565b565b90506000929192526020600020906000915b81831061103a57505090602061100d9282010138611000565b6020919350806001915483858901015201910190918492611021565b90506020925061100d94915060ff191682840152151560051b82010138611000565b919082519283825260005b8481106110a4575050826000602080949584010152601f8019910116010190565b80602080928401015182828601015201611083565b90600482101561095c5752565b6020815261010060e06111086110e88551846020870152610120860190611078565b602086015160408601526040860151601f19868303016060870152611078565b9361111b606082015160808601906110b9565b6080810151151560a085015260a081015160c085015260c081015182850152015191015290565b90816020910312610163575180151581036101635790565b1561116157565b60405162461bcd60e51b815260206004820152602260248201527f4f6e6c792061646d696e2063616e20706572666f726d2074686973206163746960448201526137b760f11b6064820152608490fd5b156111b857565b60405162461bcd60e51b8152602060048201526013602482015272155cd95c881b9bdd081c9959da5cdd195c9959606a1b6044820152606490fd5b600160ff1b8114610b0e5760000390565b600482101561095c5752565b90600481101561095c5760ff80198354169116179055565b6040519061123582610f04565b600060e08360608152826020820152606060408201528260608201528260808201528260a08201528260c08201520152565b6001600160a01b031660008181526004602052604090205460ff16156112af576000526002602052604060002054600052600360205260ff60036040600020015460081c1690565b50600090565b6000546001600160a01b031633036112c957565b63118cdaa760e01b6000523360045260246000fdfea2646970667358221220ce2c950d473ba14c8c8bba06b6829c9551c1c0bb188a1e4fdc591c7dcfb1635564736f6c634300081c0033",
  "linkReferences": {},
  "deployedLinkReferences": {}
}